{
  "contractName": "Cash36Compliance",
  "abi": [
    {
      "constant": false,
      "inputs": [
        {
          "internalType": "address",
          "name": "newComplianceOfficer",
          "type": "address"
        }
      ],
      "name": "changeOfficer",
      "outputs": [],
      "payable": false,
      "stateMutability": "nonpayable",
      "type": "function"
    },
    {
      "constant": true,
      "inputs": [],
      "name": "complianceOfficer",
      "outputs": [
        {
          "internalType": "address",
          "name": "",
          "type": "address"
        }
      ],
      "payable": false,
      "stateMutability": "view",
      "type": "function"
    },
    {
      "constant": true,
      "inputs": [
        {
          "internalType": "address",
          "name": "addressToCheck",
          "type": "address"
        }
      ],
      "name": "isOfficer",
      "outputs": [
        {
          "internalType": "bool",
          "name": "",
          "type": "bool"
        }
      ],
      "payable": false,
      "stateMutability": "view",
      "type": "function"
    },
    {
      "constant": false,
      "inputs": [
        {
          "internalType": "address",
          "name": "_user",
          "type": "address"
        }
      ],
      "name": "addUser",
      "outputs": [],
      "payable": false,
      "stateMutability": "nonpayable",
      "type": "function"
    },
    {
      "constant": false,
      "inputs": [
        {
          "internalType": "address",
          "name": "_user",
          "type": "address"
        }
      ],
      "name": "activateUser",
      "outputs": [],
      "payable": false,
      "stateMutability": "nonpayable",
      "type": "function"
    },
    {
      "constant": false,
      "inputs": [
        {
          "internalType": "address",
          "name": "_user",
          "type": "address"
        }
      ],
      "name": "deactivateUser",
      "outputs": [],
      "payable": false,
      "stateMutability": "nonpayable",
      "type": "function"
    },
    {
      "constant": false,
      "inputs": [
        {
          "internalType": "address",
          "name": "_company",
          "type": "address"
        }
      ],
      "name": "addCompany",
      "outputs": [],
      "payable": false,
      "stateMutability": "nonpayable",
      "type": "function"
    },
    {
      "constant": true,
      "inputs": [
        {
          "internalType": "address",
          "name": "_company",
          "type": "address"
        }
      ],
      "name": "isCompany",
      "outputs": [
        {
          "internalType": "bool",
          "name": "",
          "type": "bool"
        }
      ],
      "payable": false,
      "stateMutability": "view",
      "type": "function"
    },
    {
      "constant": true,
      "inputs": [
        {
          "internalType": "address",
          "name": "_user",
          "type": "address"
        }
      ],
      "name": "checkUser",
      "outputs": [
        {
          "internalType": "bool",
          "name": "",
          "type": "bool"
        }
      ],
      "payable": false,
      "stateMutability": "view",
      "type": "function"
    },
    {
      "constant": true,
      "inputs": [
        {
          "internalType": "address",
          "name": "_user",
          "type": "address"
        },
        {
          "internalType": "uint256",
          "name": "_amount",
          "type": "uint256"
        },
        {
          "internalType": "uint256",
          "name": "_balance",
          "type": "uint256"
        }
      ],
      "name": "checkUserLimit",
      "outputs": [
        {
          "internalType": "bool",
          "name": "",
          "type": "bool"
        }
      ],
      "payable": false,
      "stateMutability": "view",
      "type": "function"
    },
    {
      "constant": true,
      "inputs": [
        {
          "internalType": "address",
          "name": "_user",
          "type": "address"
        }
      ],
      "name": "getUserLimit",
      "outputs": [
        {
          "internalType": "uint256",
          "name": "",
          "type": "uint256"
        }
      ],
      "payable": false,
      "stateMutability": "view",
      "type": "function"
    },
    {
      "constant": false,
      "inputs": [
        {
          "internalType": "address",
          "name": "_user",
          "type": "address"
        },
        {
          "internalType": "uint256",
          "name": "_limit",
          "type": "uint256"
        }
      ],
      "name": "setUserLimit",
      "outputs": [],
      "payable": false,
      "stateMutability": "nonpayable",
      "type": "function"
    },
    {
      "constant": false,
      "inputs": [
        {
          "internalType": "address",
          "name": "_user",
          "type": "address"
        }
      ],
      "name": "setUserLimitToUnlimited",
      "outputs": [],
      "payable": false,
      "stateMutability": "nonpayable",
      "type": "function"
    },
    {
      "constant": false,
      "inputs": [
        {
          "internalType": "address",
          "name": "_user",
          "type": "address"
        },
        {
          "internalType": "enum Cash36Compliance.Attribs",
          "name": "_attrib",
          "type": "uint8"
        },
        {
          "internalType": "bool",
          "name": "_value",
          "type": "bool"
        }
      ],
      "name": "setAttribute",
      "outputs": [],
      "payable": false,
      "stateMutability": "nonpayable",
      "type": "function"
    },
    {
      "constant": true,
      "inputs": [
        {
          "internalType": "address",
          "name": "_user",
          "type": "address"
        },
        {
          "internalType": "enum Cash36Compliance.Attribs",
          "name": "_attrib",
          "type": "uint8"
        }
      ],
      "name": "hasAttribute",
      "outputs": [
        {
          "internalType": "bool",
          "name": "",
          "type": "bool"
        }
      ],
      "payable": false,
      "stateMutability": "view",
      "type": "function"
    }
  ],
  "bytecode": "0x6080604052600080546001600160a01b03191633179055610e7c806100256000396000f3fe608060405234801561001057600080fd5b50600436106100f55760003560e01c80636816442d11610097578063b4acfe1c11610066578063b4acfe1c146102d8578063c4a56fc8146102fe578063dc9f235b14610322578063e9587e861461034e576100f5565b80636816442d146102345780636b618ff91461025a57806376ed9f5e1461028c578063a0406ce2146102b2576100f5565b8063421b2d8b116100d3578063421b2d8b1461018b57806355ebf80f146101b1578063601c0a7a146101e8578063634513ca1461020e576100f5565b80631a47767b146100fa5780631ca451a3146101225780631e9d48cf14610165575b600080fd5b6101206004803603602081101561011057600080fd5b50356001600160a01b0316610386565b005b6101516004803603604081101561013857600080fd5b5080356001600160a01b0316906020013560ff16610458565b604080519115158252519081900360200190f35b6101516004803603602081101561017b57600080fd5b50356001600160a01b0316610511565b610120600480360360208110156101a157600080fd5b50356001600160a01b031661059a565b610120600480360360608110156101c757600080fd5b506001600160a01b038135169060ff60208201351690604001351515610663565b610120600480360360208110156101fe57600080fd5b50356001600160a01b03166107f5565b6101206004803603602081101561022457600080fd5b50356001600160a01b03166108ca565b6101516004803603602081101561024a57600080fd5b50356001600160a01b0316610993565b6101516004803603606081101561027057600080fd5b506001600160a01b0381351690602081013590604001356109a7565b610120600480360360208110156102a257600080fd5b50356001600160a01b0316610a36565b610151600480360360208110156102c857600080fd5b50356001600160a01b0316610aa1565b610120600480360360208110156102ee57600080fd5b50356001600160a01b0316610b2a565b610306610c5f565b604080516001600160a01b039092168252519081900360200190f35b6101206004803603604081101561033857600080fd5b506001600160a01b038135169060200135610c6e565b6103746004803603602081101561036457600080fd5b50356001600160a01b0316610d95565b60408051918252519081900360200190f35b6000546001600160a01b031633146103cf5760405162461bcd60e51b815260040180806020018281038252602a815260200180610e1e602a913960400191505060405180910390fd5b6001600160a01b038116600090815260016020819052604090912054829190811614610436576040805162461bcd60e51b81526020600482015260116024820152701858d8dbdd5b9d081b9bdd08199bdd5b99607a1b604482015290519081900360640190fd5b506001600160a01b031660009081526001602052604090208054601e19169055565b6001600160a01b03821660009081526001602081905260408220548491908116146104be576040805162461bcd60e51b81526020600482015260116024820152701858d8dbdd5b9d081b9bdd08199bdd5b99607a1b604482015290519081900360640190fd5b6001600160a01b03841660009081526001602052604090205460ff168360078111156104e657fe5b60ff1660020a60ff168460078111156104fb57fe5b60ff1660020a821660ff16149250505092915050565b6001600160a01b0381166000908152600160208190526040822054839190811614610577576040805162461bcd60e51b81526020600482015260116024820152701858d8dbdd5b9d081b9bdd08199bdd5b99607a1b604482015290519081900360640190fd5b50506001600160a01b0316600090815260016020526040908190205460ff161090565b6000546001600160a01b031633146105e35760405162461bcd60e51b815260040180806020018281038252602a815260200180610e1e602a913960400191505060405180910390fd5b6001600160a01b03811660009081526001602081905260409091205482911615610645576040805162461bcd60e51b815260206004820152600e60248201526d6163636f756e742065786973747360901b604482015290519081900360640190fd5b506001600160a01b0316600090815260016020526040902060039055565b6000546001600160a01b031633146106ac5760405162461bcd60e51b815260040180806020018281038252602a815260200180610e1e602a913960400191505060405180910390fd5b6001600160a01b038316600090815260016020819052604090912054849190811614610713576040805162461bcd60e51b81526020600482015260116024820152701858d8dbdd5b9d081b9bdd08199bdd5b99607a1b604482015290519081900360640190fd5b600783600781111561072157fe5b14801561072c575081155b15610770576040805162461bcd60e51b815260206004820152600f60248201526e2627a1a59034b9903337b932bb32b960891b604482015290519081900360640190fd5b81156107b15782600781111561078257fe5b6001600160a01b0385166000908152600160205260409020805460ff92831660020a90921690911790556107ef565b60008360078111156107bf57fe5b6001600160a01b0386166000908152600160205260409020805460ff92831660020a909216600019189091169055505b50505050565b6000546001600160a01b0316331461083e5760405162461bcd60e51b815260040180806020018281038252602a815260200180610e1e602a913960400191505060405180910390fd5b6001600160a01b0381166000908152600160208190526040909120548291908116146108a5576040805162461bcd60e51b81526020600482015260116024820152701858d8dbdd5b9d081b9bdd08199bdd5b99607a1b604482015290519081900360640190fd5b506001600160a01b03166000908152600160205260409020805460ff1660ff19019055565b6000546001600160a01b031633146109135760405162461bcd60e51b815260040180806020018281038252602a815260200180610e1e602a913960400191505060405180910390fd5b6001600160a01b03811660009081526001602081905260409091205482911615610975576040805162461bcd60e51b815260206004820152600e60248201526d6163636f756e742065786973747360901b604482015290519081900360640190fd5b506001600160a01b03166000908152600160205260409020603f9055565b6000546001600160a01b0391821691161490565b6001600160a01b0383166000908152600160208190526040822054859190811614610a0d576040805162461bcd60e51b81526020600482015260116024820152701858d8dbdd5b9d081b9bdd08199bdd5b99607a1b604482015290519081900360640190fd5b50506001600160a01b039290921660009081526001602052604090205461010090049101111590565b6000546001600160a01b03163314610a7f5760405162461bcd60e51b815260040180806020018281038252602a815260200180610e1e602a913960400191505060405180910390fd5b600080546001600160a01b0319166001600160a01b0392909216919091179055565b6001600160a01b0381166000908152600160208190526040822054839190811614610b07576040805162461bcd60e51b81526020600482015260116024820152701858d8dbdd5b9d081b9bdd08199bdd5b99607a1b604482015290519081900360640190fd5b50506001600160a01b031660009081526001602090815260409091205481161490565b6000546001600160a01b03163314610b735760405162461bcd60e51b815260040180806020018281038252602a815260200180610e1e602a913960400191505060405180910390fd5b6001600160a01b038116600090815260016020819052604090912054829190811614610bda576040805162461bcd60e51b81526020600482015260116024820152701858d8dbdd5b9d081b9bdd08199bdd5b99607a1b604482015290519081900360640190fd5b6001600160a01b038216600090815260016020526040908190205460ff16908110610c3d576040805162461bcd60e51b815260206004820152600e60248201526d34b73b30b634b21030b1ba34b7b760911b604482015290519081900360640190fd5b50506001600160a01b031660009081526001602052604090208054601e179055565b6000546001600160a01b031690565b6000546001600160a01b03163314610cb75760405162461bcd60e51b815260040180806020018281038252602a815260200180610e1e602a913960400191505060405180910390fd5b6001600160a01b038216600090815260016020819052604090912054839190811614610d1e576040805162461bcd60e51b81526020600482015260116024820152701858d8dbdd5b9d081b9bdd08199bdd5b99607a1b604482015290519081900360640190fd5b6001600160f81b038210610d67576040805162461bcd60e51b815260206004820152600b60248201526a0d8d2dad2e8407c40dac2f60ab1b604482015290519081900360640190fd5b506001600160a01b03919091166000908152600160205260409020805460ff16610100909202919091019055565b6001600160a01b0381166000908152600160208190526040822054839190811614610dfb576040805162461bcd60e51b81526020600482015260116024820152701858d8dbdd5b9d081b9bdd08199bdd5b99607a1b604482015290519081900360640190fd5b50506001600160a01b031660009081526001602052604090205461010090049056fe616363657373206e6f7420616c6c6f7765642c206f6e6c7920636f6d706c69616e63654f666669636572a265627a7a72315820380fa69c31e12149b43e2fd1a4c7f25cebe8ec347a80ccd88619a3ae3418bd9964736f6c634300050f0032",
  "source": "pragma solidity ^0.5.9;\n\nimport \"./HasOfficer.sol\";\n\n\n/// @title Cash36 Compliance Contract\n/// @notice Is responsible for keeping track of all KYCed users (and possibly Companies), blacklist and attributes.\n/// @notice Changes to users can only be done be assigned compliance officer (=part of Compliance Backend Service)\n/// @author element36.io\ncontract Cash36Compliance is HasOfficer {\n    enum Attribs { EXST, BUY, SELL, RCV, SEND, CPNY, BLACK, LOCK }\n\n    modifier userExists(address _user) {\n        require(uint8(attributes[_user] & 1) == 1,  \"account not found\");\n        _;\n    }\n    modifier userNotExists(address _user) {\n        require(uint8(attributes[_user] & 1) == 0,  \"account exists\");\n        _;\n    }\n    mapping(address => uint256) private attributes;\n  \n   \n    /**\n     * @notice Add user once he passed KYC process\n     * @dev onlyComplianceOfficer - only open to assigned Compliance Officer Account\n     * @param _user Address of the KYCed user\n     */\n    function addUser(address _user) public onlyComplianceOfficer userNotExists(_user) {\n        attributes[_user] = 3; // Exst, buy    -first 8 bits contain bools for Attribs, rest the limit\n    }\n\n    /**\n     * @notice Sets ATTR_ attributes for initial activation (KYC-ing a user)\n     * @param _user Address of the user\n     */\n    function activateUser(address _user) public onlyComplianceOfficer userExists(_user) {\n        uint8 attribs = uint8(attributes[_user] & (2**8)-1);\n        require(attribs<64, \"invalid action\"); // do not change if  locked or on blacklist\n        attributes[_user] = attributes[_user] | 30; // buy, send, rcv, send\n    }\n\n     /**\n     * @notice Sets ATTR_ attributes for deactivation of a user\n     * @param _user Address of the user\n     */\n    function deactivateUser(address _user) public onlyComplianceOfficer userExists(_user) {\n        uint256 mask = (2**256)-1 ^ 30;\n        attributes[_user] = attributes[_user] & mask; // buy, send, rcv, send\n    }\n\n\n    /**\n     * @notice Add company once it passed KYC process - after that Company is handled as a User\n     * @dev onlyComplianceOfficer - only open to assigned Compliance Officer Account\n     * @param _company Address of the KYCed company\n     */\n    function addCompany(address _company) public onlyComplianceOfficer userNotExists(_company) {\n        attributes[_company] = 63; // exists, buy, send, rcv, send,company\n    }\n\n    /**\n     * @notice Check if a registered address is a KYCed element36 company\n     * @param _company Address of the user\n     * @return {\n     *   \"bool\": \"True when User is a registered company\"\n     * }\n     */\n    function isCompany(address _company) public view userExists(_company) returns (bool) {\n        return uint8(attributes[_company]) & uint8(2**uint8(Attribs.CPNY)) == uint8(2**uint8(Attribs.CPNY));\n    }\n\n    /**\n     * @notice Check User if registered and if on blacklist or account is locked\n     * @param _user Address of the user\n     * @return {\n     *   \"bool\": \"True when User is registereds and not on Blacklist\"\n     * }\n     */\n    function checkUser(address _user) public view userExists(_user) returns (bool) {\n        uint8 attribs = uint8(attributes[_user] & uint8((2**8)-1));\n        return attribs<2**6; // locked, blacklist, > 64\n    }\n\n    /**\n     * @notice Check if a given amount is within the current limit of the User\n     * @param _user Address of the user\n     * @param _amount Amount of the transaction\n     * @param _balance Current balance of the user\n     * @return {\n     *   \"bool\": \"True when balance plus amount is smaller than the user limit\"\n     * }\n     */\n    function checkUserLimit(address _user, uint256 _amount, uint256 _balance) public view userExists(_user) returns (bool) {\n        uint256 userLimit = attributes[_user] / 2 ** 8;\n        return (_balance + _amount <= userLimit);\n    }\n\n    /**\n     * @notice Get the limit of the user\n     * @param _user Address of the user\n     * @return {\n     *   \"uint256\": \"The current user limit\"\n     * }\n     */\n    function getUserLimit(address _user) public view userExists(_user) returns (uint256) {\n        return attributes[_user] / 2 ** 8; // left shift\n    }\n\n    /**\n     * @notice Set the limit of the user\n     * @dev onlyComplianceOfficer - only open to assigned Compliance Officer Account\n     * @param _user Address of the user\n     * @param _limit New limit of the user\n     */\n    function setUserLimit(address _user, uint256 _limit) public onlyComplianceOfficer userExists(_user) {\n        require(_limit < (2 ** 248-1),\"limit > max\");\n\n        uint8 attribs = uint8(attributes[_user] & (2**8)-1);\n        attributes[_user] = _limit * 2 ** 8 + attribs;\n    }\n\n    /**\n     * @notice Helper for web3j as passing -1 fails\n     * @dev onlyComplianceOfficer - only open to assigned Compliance Officer Account\n     * @param _user Address of the user\n     */\n    function setUserLimitToUnlimited(address _user) public onlyComplianceOfficer userExists(_user) {\n        uint8 attribs = uint8(attributes[_user] & (2**8)-1);\n        attributes[_user] = (2 ** 248-1) * 2 ** 8 + attribs;\n    }\n\n    /**\n     * @notice Set an attribute of the User\n     * @dev onlyComplianceOfficer - only open to assigned Compliance Officer Account\n     * @param _user Address of the user\n     * @param _attrib Enum of the attribute\n     * @param _value value of the attribute - true or false\n     */\n    function setAttribute(address _user, Attribs _attrib, bool _value) public onlyComplianceOfficer userExists(_user) {\n        require((_attrib == Attribs.LOCK && _value == false) == false, \"LOCK is forever\");\n\n        if (_value) {\n            attributes[_user] = attributes[_user] | uint8(2**uint8(_attrib));\n        } else {\n            uint256 mask = (2**256)-1 ^ 2**uint8(_attrib);\n            attributes[_user] = attributes[_user] & mask;\n        }\n    }\n\n    /**\n     * @notice Check if a User has a given attribute\n     * @param _user Address of the user\n     * @param _attrib Enum of the attribute\n     */\n    function hasAttribute(address _user, Attribs _attrib) public view userExists(_user) returns (bool) {\n        uint8 val = uint8(attributes[_user] & (2**8)-1);\n        return uint8(val & uint8(2 ** uint8(_attrib))) == uint8(2 ** uint8(_attrib));\n    }\n\n}",
  "sourcePath": "/home/w/workspace/contracts/contracts/Cash36Compliance.sol",
  "compiler": {
    "name": "solc",
    "version": "0.5.15+commit.6a57276f.Emscripten.clang"
  },
  "schemaVersion": "3.0.20",
  "updatedAt": "2020-03-15T06:34:06.755Z",
  "networkType": "ethereum",
  "devdoc": {
    "author": "element36.io",
    "methods": {
      "activateUser(address)": {
        "params": {
          "_user": "Address of the user"
        }
      },
      "addCompany(address)": {
        "details": "onlyComplianceOfficer - only open to assigned Compliance Officer Account",
        "params": {
          "_company": "Address of the KYCed company"
        }
      },
      "addUser(address)": {
        "details": "onlyComplianceOfficer - only open to assigned Compliance Officer Account",
        "params": {
          "_user": "Address of the KYCed user"
        }
      },
      "changeOfficer(address)": {
        "details": "onlyComplianceOfficer - only open to the currently assigned compliance Officer",
        "params": {
          "newComplianceOfficer": "The new compliance officer of the contract"
        }
      },
      "checkUser(address)": {
        "params": {
          "_user": "Address of the user"
        },
        "return": "{  \"bool\": \"True when User is registereds and not on Blacklist\" }"
      },
      "checkUserLimit(address,uint256,uint256)": {
        "params": {
          "_amount": "Amount of the transaction",
          "_balance": "Current balance of the user",
          "_user": "Address of the user"
        },
        "return": "{  \"bool\": \"True when balance plus amount is smaller than the user limit\" }"
      },
      "deactivateUser(address)": {
        "params": {
          "_user": "Address of the user"
        }
      },
      "getUserLimit(address)": {
        "params": {
          "_user": "Address of the user"
        },
        "return": "{  \"uint256\": \"The current user limit\" }"
      },
      "hasAttribute(address,uint8)": {
        "params": {
          "_attrib": "Enum of the attribute",
          "_user": "Address of the user"
        }
      },
      "isCompany(address)": {
        "params": {
          "_company": "Address of the user"
        },
        "return": "{  \"bool\": \"True when User is a registered company\" }"
      },
      "isOfficer(address)": {
        "params": {
          "addressToCheck": "Address to be checked"
        },
        "return": "{  \"bool\": \"True when address is the currently assigned complianceOfficer\" }"
      },
      "setAttribute(address,uint8,bool)": {
        "details": "onlyComplianceOfficer - only open to assigned Compliance Officer Account",
        "params": {
          "_attrib": "Enum of the attribute",
          "_user": "Address of the user",
          "_value": "value of the attribute - true or false"
        }
      },
      "setUserLimit(address,uint256)": {
        "details": "onlyComplianceOfficer - only open to assigned Compliance Officer Account",
        "params": {
          "_limit": "New limit of the user",
          "_user": "Address of the user"
        }
      },
      "setUserLimitToUnlimited(address)": {
        "details": "onlyComplianceOfficer - only open to assigned Compliance Officer Account",
        "params": {
          "_user": "Address of the user"
        }
      }
    },
    "title": "Cash36 Compliance Contract"
  },
  "userdoc": {
    "methods": {
      "activateUser(address)": {
        "notice": "Sets ATTR_ attributes for initial activation (KYC-ing a user)"
      },
      "addCompany(address)": {
        "notice": "Add company once it passed KYC process - after that Company is handled as a User"
      },
      "addUser(address)": {
        "notice": "Add user once he passed KYC process"
      },
      "changeOfficer(address)": {
        "notice": "Changes the ComplianceOfficer of the contract"
      },
      "checkUser(address)": {
        "notice": "Check User if registered and if on blacklist or account is locked"
      },
      "checkUserLimit(address,uint256,uint256)": {
        "notice": "Check if a given amount is within the current limit of the User"
      },
      "deactivateUser(address)": {
        "notice": "Sets ATTR_ attributes for deactivation of a user"
      },
      "getUserLimit(address)": {
        "notice": "Get the limit of the user"
      },
      "hasAttribute(address,uint8)": {
        "notice": "Check if a User has a given attribute"
      },
      "isCompany(address)": {
        "notice": "Check if a registered address is a KYCed element36 company"
      },
      "isOfficer(address)": {
        "notice": "Check if given address it the assigned Compliance Officer"
      },
      "setAttribute(address,uint8,bool)": {
        "notice": "Set an attribute of the User"
      },
      "setUserLimit(address,uint256)": {
        "notice": "Set the limit of the user"
      },
      "setUserLimitToUnlimited(address)": {
        "notice": "Helper for web3j as passing -1 fails"
      }
    },
    "notice": "Is responsible for keeping track of all KYCed users (and possibly Companies), blacklist and attributes.Changes to users can only be done be assigned compliance officer (=part of Compliance Backend Service)"
  }
}