{
  "contractName": "Cash36",
  "abi": [
    {
      "constant": false,
      "inputs": [],
      "name": "renounceOwnership",
      "outputs": [],
      "payable": false,
      "stateMutability": "nonpayable",
      "type": "function"
    },
    {
      "constant": true,
      "inputs": [],
      "name": "owner",
      "outputs": [
        {
          "name": "",
          "type": "address"
        }
      ],
      "payable": false,
      "stateMutability": "view",
      "type": "function"
    },
    {
      "constant": false,
      "inputs": [
        {
          "name": "_newOwner",
          "type": "address"
        }
      ],
      "name": "transferOwnership",
      "outputs": [],
      "payable": false,
      "stateMutability": "nonpayable",
      "type": "function"
    },
    {
      "inputs": [
        {
          "name": "_complianceAddress",
          "type": "address"
        }
      ],
      "payable": false,
      "stateMutability": "nonpayable",
      "type": "constructor"
    },
    {
      "anonymous": false,
      "inputs": [
        {
          "indexed": false,
          "name": "_name",
          "type": "string"
        },
        {
          "indexed": false,
          "name": "_symbol",
          "type": "string"
        },
        {
          "indexed": false,
          "name": "tokenAddress",
          "type": "address"
        },
        {
          "indexed": false,
          "name": "tokenControllerAddress",
          "type": "address"
        }
      ],
      "name": "TokenCreated",
      "type": "event"
    },
    {
      "anonymous": false,
      "inputs": [
        {
          "indexed": true,
          "name": "previousOwner",
          "type": "address"
        }
      ],
      "name": "OwnershipRenounced",
      "type": "event"
    },
    {
      "anonymous": false,
      "inputs": [
        {
          "indexed": true,
          "name": "previousOwner",
          "type": "address"
        },
        {
          "indexed": true,
          "name": "newOwner",
          "type": "address"
        }
      ],
      "name": "OwnershipTransferred",
      "type": "event"
    },
    {
      "constant": false,
      "inputs": [
        {
          "name": "_name",
          "type": "string"
        },
        {
          "name": "_symbol",
          "type": "string"
        }
      ],
      "name": "createNewToken",
      "outputs": [],
      "payable": false,
      "stateMutability": "nonpayable",
      "type": "function"
    },
    {
      "constant": true,
      "inputs": [],
      "name": "getTokens",
      "outputs": [
        {
          "name": "",
          "type": "address[]"
        }
      ],
      "payable": false,
      "stateMutability": "view",
      "type": "function"
    },
    {
      "constant": true,
      "inputs": [
        {
          "name": "_symbol",
          "type": "string"
        }
      ],
      "name": "isCash36Token",
      "outputs": [
        {
          "name": "",
          "type": "bool"
        }
      ],
      "payable": false,
      "stateMutability": "view",
      "type": "function"
    },
    {
      "constant": true,
      "inputs": [
        {
          "name": "_symbol",
          "type": "string"
        }
      ],
      "name": "getTokenBySymbol",
      "outputs": [
        {
          "name": "",
          "type": "address"
        }
      ],
      "payable": false,
      "stateMutability": "view",
      "type": "function"
    },
    {
      "constant": false,
      "inputs": [
        {
          "name": "_newComplianceAddress",
          "type": "address"
        }
      ],
      "name": "updateCompliance",
      "outputs": [],
      "payable": false,
      "stateMutability": "nonpayable",
      "type": "function"
    },
    {
      "constant": false,
      "inputs": [
        {
          "name": "_symbol",
          "type": "string"
        },
        {
          "name": "_transfersEnabled",
          "type": "bool"
        }
      ],
      "name": "enableTransfers",
      "outputs": [],
      "payable": false,
      "stateMutability": "nonpayable",
      "type": "function"
    }
  ],
  "bytecode": "0x608060405234801561001057600080fd5b506040516020806127f0833981016040525160008054600160a060020a0319908116331790915560018054600160a060020a03909316929091169190911790556127918061005f6000396000f3006080604052600436106100985763ffffffff7c01000000000000000000000000000000000000000000000000000000006000350416633adb2cff811461009d57806346b1599a146100c0578063715018a6146100e657806385ba7269146100fb5780638da5cb5b14610127578063a10aa96414610158578063aa6ca8081461018c578063efa74f1f146101f1578063f2fde38b14610211575b600080fd5b3480156100a957600080fd5b506100be600160a060020a0360043516610232565b005b3480156100cc57600080fd5b506100be6024600480358281019291013590351515610278565b3480156100f257600080fd5b506100be610349565b34801561010757600080fd5b506100be60246004803582810192908201359181359182019101356103b5565b34801561013357600080fd5b5061013c6109c5565b60408051600160a060020a039092168252519081900360200190f35b34801561016457600080fd5b5061017860048035602481019101356109d4565b604080519115158252519081900360200190f35b34801561019857600080fd5b506101a1610a07565b60408051602080825283518183015283519192839290830191858101910280838360005b838110156101dd5781810151838201526020016101c5565b505050509050019250505060405180910390f35b3480156101fd57600080fd5b5061013c6004803560248101910135610a69565b34801561021d57600080fd5b506100be600160a060020a0360043516610af3565b600054600160a060020a0316331461024957600080fd5b6001805473ffffffffffffffffffffffffffffffffffffffff1916600160a060020a0392909216919091179055565b600054600160a060020a0316331461028f57600080fd5b600260048484604051808383808284378201915050925050509081526020016040518091039020548154811015156102c357fe5b6000918252602082200154604080517ff41e60c500000000000000000000000000000000000000000000000000000000815284151560048201529051600160a060020a039092169263f41e60c59260248084019382900301818387803b15801561032c57600080fd5b505af1158015610340573d6000803e3d6000fd5b50505050505050565b600054600160a060020a0316331461036057600080fd5b60008054604051600160a060020a03909116917ff8df31144d9c2f0f6b59d69b8b98abd5459d07f2742c4df920b25aae33c6482091a26000805473ffffffffffffffffffffffffffffffffffffffff19169055565b600080548190600160a060020a031633146103cf57600080fd5b604080516000815260208101918290528051909190819081908082805b6020831061040b5780518252601f1990920191602091820191016103ec565b51815160209384036101000a600019018019909216911617905260405191909301819003812094508a93508992019050808383808284378201915050925050506040516020818303038152906040526040518082805190602001908083835b602083106104895780518252601f19909201916020918201910161046a565b6001836020036101000a0380198251168184511680821785525050505050509050019150506040518091039020600019161415151561052957604080517f08c379a000000000000000000000000000000000000000000000000000000000815260206004820152601460248201527f6e616d652063616e6e6f7420626520656d707479000000000000000000000000604482015290519081900360640190fd5b604080516000815260208101918290528051909190819081908082805b602083106105655780518252601f199092019160209182019101610546565b51815160209384036101000a600019018019909216911617905260405191909301819003812094508893508792019050808383808284378201915050925050506040516020818303038152906040526040518082805190602001908083835b602083106105e35780518252601f1990920191602091820191016105c4565b6001836020036101000a0380198251168184511680821785525050505050509050019150506040518091039020600019161415151561068357604080517f08c379a000000000000000000000000000000000000000000000000000000000815260206004820152601660248201527f73796d626f6c2063616e6e6f7420626520656d70747900000000000000000000604482015290519081900360640190fd5b60038484604051808383808284379091019485525050604051928390036020019092205460ff1615915061071a905057604080517f08c379a000000000000000000000000000000000000000000000000000000000815260206004820152601960248201527f73796d626f6c20616c7265616479207265676973746572656400000000000000604482015290519081900360640190fd5b85858585610726610b93565b604080825281018490528060208101606082018787808284379091018481038352858152602001905085858082843782019150509650505050505050604051809103906000f08015801561077e573d6000803e3d6000fd5b50915060028054905060048585604051808383808284379091019485525050604051928390036020018320939093555060028054600181810183556000929092527f405787fa12a823e0f2b7631cc41b3ba8828b3321ca811111fa75cd3aa3bb5ace018054600160a060020a03871673ffffffffffffffffffffffffffffffffffffffff1990911617905591506003908690869080838380828437909101948552505060405192839003602001909220805493151560ff199094169390931790925550506001548290600160a060020a0316610858610ba3565b600160a060020a03928316815291166020820152604080519182900301906000f08015801561088b573d6000803e3d6000fd5b50905081600160a060020a0316633cebb823826040518263ffffffff167c01000000000000000000000000000000000000000000000000000000000281526004018082600160a060020a0316600160a060020a03168152602001915050600060405180830381600087803b15801561090257600080fd5b505af1158015610916573d6000803e3d6000fd5b505050507fb3773c23b761d9f7b0ece5a1dc5f679ab7c2e67f4707f7bc08aa9c3d07d196df86868686868660405180806020018060200185600160a060020a0316600160a060020a0316815260200184600160a060020a0316600160a060020a0316815260200183810383528989828181526020019250808284379091018481038352878152602001905087878082843760405192018290039a509098505050505050505050a1505050505050565b600054600160a060020a031681565b600060038383604051808383808284379091019485525050604051928390036020019092205460ff169250505092915050565b60606002805480602002602001604051908101604052809291908181526020018280548015610a5f57602002820191906000526020600020905b8154600160a060020a03168152600190910190602001808311610a41575b5050505050905090565b60008060038484604051808383808284379091019485525050604051928390036020019092205460ff1615159150610aa2905057600080fd5b60026004858560405180838380828437820191505092505050908152602001604051809103902054815481101515610ad657fe5b600091825260209091200154600160a060020a0316949350505050565b600054600160a060020a03163314610b0a57600080fd5b610b1381610b16565b50565b600160a060020a0381161515610b2b57600080fd5b60008054604051600160a060020a03808516939216917f8be0079c531659141344cd1fd0a4f28419497f9722a3daafe3b4186f6b6457e091a36000805473ffffffffffffffffffffffffffffffffffffffff1916600160a060020a0392909216919091179055565b60405161128380610bb483390190565b60405161092f80611e3783390190560060806040523480156200001157600080fd5b506040516200128338038062001283833981016040528051602082015160038054600160a060020a0319163317905590820191016200005864010000000062000099810204565b81516200006d906004906020850190620000c4565b50805162000083906005906020840190620000c4565b50506009805460ff191660011790555062000166565b60025415620000a757600080fd5b620000ba640100000000620000bf810204565b600255565b435b90565b828054600181600116156101000203166002900490600052602060002090601f016020900481019282601f106200010757805160ff191683800117855562000137565b8280016001018555821562000137579182015b82811115620001375782518255916020019190600101906200011a565b506200014592915062000149565b5090565b620000c191905b8082111562000145576000815560010162000150565b61110d80620001766000396000f3006080604052600436106100fb5763ffffffff7c010000000000000000000000000000000000000000000000000000000060003504166306fdde0381146101be578063095ea7b31461024857806318160ddd1461028057806323b872dd146102a75780632e0f2625146102d15780633cebb823146102fc57806342966c681461031d5780634ee2cd7e1461033557806370a08231146103595780638b3dd7491461037a57806395d89b411461038f578063981b24d0146103a4578063a9059cbb146103bc578063bef97c87146103e0578063dd62ed3e146103f5578063f0dda65c1461041c578063f41e60c514610440578063f77c47911461045a575b60035461011090600160a060020a031661048b565b151561011b57600080fd5b600354604080517ff48c30540000000000000000000000000000000000000000000000000000000081523360048201529051600160a060020a039092169163f48c3054913491602480830192602092919082900301818588803b15801561018157600080fd5b505af1158015610195573d6000803e3d6000fd5b50505050506040513d60208110156101ac57600080fd5b505115156001146101bc57600080fd5b005b3480156101ca57600080fd5b506101d36104b8565b6040805160208082528351818301528351919283929083019185019080838360005b8381101561020d5781810151838201526020016101f5565b50505050905090810190601f16801561023a5780820380516001836020036101000a031916815260200191505b509250505060405180910390f35b34801561025457600080fd5b5061026c600160a060020a0360043516602435610546565b604080519115158252519081900360200190f35b34801561028c57600080fd5b506102956106b6565b60408051918252519081900360200190f35b3480156102b357600080fd5b5061026c600160a060020a03600435811690602435166044356106c7565b3480156102dd57600080fd5b506102e66107ab565b6040805160ff9092168252519081900360200190f35b34801561030857600080fd5b506101bc600160a060020a03600435166107b0565b34801561032957600080fd5b506101bc6004356107f6565b34801561034157600080fd5b50610295600160a060020a0360043516602435610803565b34801561036557600080fd5b50610295600160a060020a0360043516610825565b34801561038657600080fd5b50610295610837565b34801561039b57600080fd5b506101d361083d565b3480156103b057600080fd5b50610295600435610898565b3480156103c857600080fd5b5061026c600160a060020a03600435166024356108a5565b3480156103ec57600080fd5b5061026c61090f565b34801561040157600080fd5b50610295600160a060020a0360043581169060243516610918565b34801561042857600080fd5b5061026c600160a060020a0360043516602435610943565b34801561044c57600080fd5b506101bc6004351515610a11565b34801561046657600080fd5b5061046f610a3b565b60408051600160a060020a039092168252519081900360200190f35b600080600160a060020a03831615156104a757600091506104b2565b823b90506000811191505b50919050565b6004805460408051602060026001851615610100026000190190941693909304601f8101849004840282018401909252818152929183018282801561053e5780601f106105135761010080835404028352916020019161053e565b820191906000526020600020905b81548152906001019060200180831161052157829003601f168201915b505050505081565b60095460009060ff1615156105a5576040805160e560020a62461bcd02815260206004820152601660248201527f7472616e7366657273206172652064697361626c656400000000000000000000604482015290519081900360640190fd5b8115806105d35750336000908152600760209081526040808320600160a060020a0387168452909152902054155b151561064f576040805160e560020a62461bcd02815260206004820152602660248201527f706c6561736520726573657420617070726f766520616d6f756e7420746f203060448201527f2066697273740000000000000000000000000000000000000000000000000000606482015290519081900360840190fd5b336000818152600760209081526040808320600160a060020a03881680855290835292819020869055805186815290519293927f8c5be1e5ebec7d5bd14f71427d1e84f3dd0314c0f7b2291e5b200ac8c7c3b925929181900390910190a350600192915050565b60006106c143610898565b90505b90565b60095460009060ff161515610726576040805160e560020a62461bcd02815260206004820152601660248201527f7472616e7366657273206172652064697361626c656400000000000000000000604482015290519081900360640190fd5b600354600160a060020a0316331461079657600160a060020a038416600090815260076020908152604080832033845290915290205482111561076b575060006107a4565b600160a060020a03841660009081526007602090815260408083203384529091529020805483900390555b6107a1848484610a4a565b90505b9392505050565b601281565b600354600160a060020a031633146107c757600080fd5b6003805473ffffffffffffffffffffffffffffffffffffffff1916600160a060020a0392909216919091179055565b6108003382610cea565b50565b600160a060020a03821660009081526006602052604081206107a49083610deb565b60006108318243610803565b92915050565b60025490565b6005805460408051602060026001851615610100026000190190941693909304601f8101849004840282018401909252818152929183018282801561053e5780601f106105135761010080835404028352916020019161053e565b6000610831600883610deb565b60095460009060ff161515610904576040805160e560020a62461bcd02815260206004820152601660248201527f7472616e7366657273206172652064697361626c656400000000000000000000604482015290519081900360640190fd5b6107a4338484610a4a565b60095460ff1681565b600160a060020a03918216600090815260076020908152604080832093909416825291909152205490565b60035460009081908190600160a060020a0316331461096157600080fd5b6109696106b6565b915083820182111561097a57600080fd5b61098385610825565b905083810181111561099457600080fd5b6109a16008858401610f77565b600160a060020a03851660009081526006602052604090206109c590828601610f77565b604080518581529051600160a060020a038716916000917fddf252ad1be2c89b69c2b068fc378daa952ba7f163c4a11628f55a4df523b3ef9181900360200190a3506001949350505050565b600354600160a060020a03163314610a2857600080fd5b6009805460ff1916911515919091179055565b600354600160a060020a031681565b60008080831515610a5e5760019250610ce1565b600160a060020a03851615801590610a7f5750600160a060020a0385163014155b1515610ad5576040805160e560020a62461bcd02815260206004820152601760248201527f5f746f2061646472657373206e6f7420616c6c6f776564000000000000000000604482015290519081900360640190fd5b610adf8643610803565b915083821015610af25760009250610ce1565b600354610b0790600160a060020a031661048b565b15610c2e57600354604080517f4a393149000000000000000000000000000000000000000000000000000000008152600160a060020a03898116600483015288811660248301526044820188905291519190921691634a3931499160648083019260209291908290030181600087803b158015610b8357600080fd5b505af1158015610b97573d6000803e3d6000fd5b505050506040513d6020811015610bad57600080fd5b50511515600114610c2e576040805160e560020a62461bcd02815260206004820152602760248201527f546f6b656e3336436f6e74726f6c6c65722072656a656374656420746865207460448201527f72616e7366657200000000000000000000000000000000000000000000000000606482015290519081900360840190fd5b600160a060020a0386166000908152600660205260409020610c5290858403610f77565b610c5c8543610803565b9050838101811115610c6d57600080fd5b600160a060020a0385166000908152600660205260409020610c9190828601610f77565b84600160a060020a031686600160a060020a03167fddf252ad1be2c89b69c2b068fc378daa952ba7f163c4a11628f55a4df523b3ef866040518082815260200191505060405180910390a3600192505b50509392505050565b600160a060020a038216600090815260208190526040902054811115610d0f57600080fd5b600160a060020a038216600090815260208190526040902054610d38908263ffffffff61108816565b600160a060020a038316600090815260208190526040902055600154610d64908263ffffffff61108816565b600155604080518281529051600160a060020a038416917fcc16f5dbb4873280815c1ee09dbd06736cffcc184412cf7a71a0fdb75d397ca5919081900360200190a2604080518281529051600091600160a060020a038516917fddf252ad1be2c89b69c2b068fc378daa952ba7f163c4a11628f55a4df523b3ef9181900360200190a35050565b600080600080858054905060001415610e075760009350610f6e565b855486906000198101908110610e1957fe5b6000918252602090912001546fffffffffffffffffffffffffffffffff168510610e8857855486906000198101908110610e4f57fe5b60009182526020909120015470010000000000000000000000000000000090046fffffffffffffffffffffffffffffffff169350610f6e565b856000815481101515610e9757fe5b6000918252602090912001546fffffffffffffffffffffffffffffffff16851015610ec55760009350610f6e565b8554600093506000190191505b82821115610f2b576002600183850101049050848682815481101515610ef457fe5b6000918252602090912001546fffffffffffffffffffffffffffffffff1611610f1f57809250610f26565b6001810391505b610ed2565b8583815481101515610f3957fe5b60009182526020909120015470010000000000000000000000000000000090046fffffffffffffffffffffffffffffffff1693505b50505092915050565b815460009081901580610fb957508354439085906000198101908110610f9957fe5b6000918252602090912001546fffffffffffffffffffffffffffffffff16105b156110345783548490610fcf826001830161109a565b81548110610fd957fe5b600091825260209091200180546fffffffffffffffffffffffffffffffff858116700100000000000000000000000000000000024382166fffffffffffffffffffffffffffffffff1990931692909217161781559150611082565b83548490600019810190811061104657fe5b600091825260209091200180546fffffffffffffffffffffffffffffffff80861670010000000000000000000000000000000002911617815590505b50505050565b60008282111561109457fe5b50900390565b8154818355818111156110be576000838152602090206110be9181019083016110c3565b505050565b6106c491905b808211156110dd57600081556001016110c9565b50905600a165627a7a72305820db2887c330557c5b7f23848592021b1edecacee25a92d430cabe3c0260419fda0029608060405260001960035534801561001657600080fd5b5060405160408061092f83398101604052805160209091015160008054600160a060020a0319908116331790915560018054600160a060020a03948516908316179055600280549390921692169190911790556108b7806100786000396000f3006080604052600436106100985763ffffffff7c010000000000000000000000000000000000000000000000000000000060003504166340c10f19811461009d5780634a393149146100c3578063715018a6146101015780638da5cb5b146101165780639b1649e614610147578063ecfda43214610168578063f2fde38b1461018f578063f48c3054146101b0578063fbb64114146101c4575b600080fd5b3480156100a957600080fd5b506100c1600160a060020a03600435166024356101dc565b005b3480156100cf57600080fd5b506100ed600160a060020a03600435811690602435166044356103d1565b604080519115158252519081900360200190f35b34801561010d57600080fd5b506100c1610561565b34801561012257600080fd5b5061012b6105cd565b60408051600160a060020a039092168252519081900360200190f35b34801561015357600080fd5b506100c1600160a060020a03600435166105dc565b34801561017457600080fd5b5061017d610622565b60408051918252519081900360200190f35b34801561019b57600080fd5b506100c1600160a060020a0360043516610628565b6100ed600160a060020a036004351661064b565b3480156101d057600080fd5b506100c160043561066d565b600254600154604080517fea13d8a1000000000000000000000000000000000000000000000000000000008152336004820152600160a060020a0392831660248201529051919092169163ea13d8a19160448083019260209291908290030181600087803b15801561024d57600080fd5b505af1158015610261573d6000803e3d6000fd5b505050506040513d602081101561027757600080fd5b5051151561028457600080fd5b61028d8261071a565b151561033257600254604080517f1e9d48cf000000000000000000000000000000000000000000000000000000008152600160a060020a03858116600483015291519190921691631e9d48cf9160248083019260209291908290030181600087803b1580156102fb57600080fd5b505af115801561030f573d6000803e3d6000fd5b505050506040513d602081101561032557600080fd5b5051151561033257600080fd5b600154604080517ff0dda65c000000000000000000000000000000000000000000000000000000008152600160a060020a038581166004830152602482018590529151919092169163f0dda65c9160448083019260209291908290030181600087803b1580156103a157600080fd5b505af11580156103b5573d6000803e3d6000fd5b505050506040513d60208110156103cb57600080fd5b50505050565b600154600090600160a060020a031633146103eb57600080fd5b6103f48361071a565b151561055657600254604080517f1e9d48cf000000000000000000000000000000000000000000000000000000008152600160a060020a03868116600483015291519190921691631e9d48cf9160248083019260209291908290030181600087803b15801561046257600080fd5b505af1158015610476573d6000803e3d6000fd5b505050506040513d602081101561048c57600080fd5b5051151561049c5750600061055a565b600254604080517f1e9d48cf000000000000000000000000000000000000000000000000000000008152600160a060020a03878116600483015291519190921691631e9d48cf9160248083019260209291908290030181600087803b15801561050457600080fd5b505af1158015610518573d6000803e3d6000fd5b505050506040513d602081101561052e57600080fd5b5051151561053e5750600061055a565b6105488383610747565b15156105565750600061055a565b5060015b9392505050565b600054600160a060020a0316331461057857600080fd5b60008054604051600160a060020a03909116917ff8df31144d9c2f0f6b59d69b8b98abd5459d07f2742c4df920b25aae33c6482091a26000805473ffffffffffffffffffffffffffffffffffffffff19169055565b600054600160a060020a031681565b600054600160a060020a031633146105f357600080fd5b6002805473ffffffffffffffffffffffffffffffffffffffff1916600160a060020a0392909216919091179055565b60035481565b600054600160a060020a0316331461063f57600080fd5b610648816107fb565b50565b600154600090600160a060020a0316331461066557600080fd5b506000919050565b600254600154604080517fea13d8a1000000000000000000000000000000000000000000000000000000008152336004820152600160a060020a0392831660248201529051919092169163ea13d8a19160448083019260209291908290030181600087803b1580156106de57600080fd5b505af11580156106f2573d6000803e3d6000fd5b505050506040513d602081101561070857600080fd5b5051151561071557600080fd5b600355565b600080600160a060020a03831615156107365760009150610741565b823b90506000811191505b50919050565b600354600154604080517f70a08231000000000000000000000000000000000000000000000000000000008152600160a060020a0386811660048301529151600094936107f29387939116916370a082319160248082019260209290919082900301818a87803b1580156107ba57600080fd5b505af11580156107ce573d6000803e3d6000fd5b505050506040513d60208110156107e457600080fd5b50519063ffffffff61087816565b11159392505050565b600160a060020a038116151561081057600080fd5b60008054604051600160a060020a03808516939216917f8be0079c531659141344cd1fd0a4f28419497f9722a3daafe3b4186f6b6457e091a36000805473ffffffffffffffffffffffffffffffffffffffff1916600160a060020a0392909216919091179055565b8181018281101561088557fe5b929150505600a165627a7a723058208837452a9c4a2327f3ff4fba5adb667760000c5effaf1990b3452effccf1f25b0029a165627a7a7230582045d5dd6e5219cc003c04932c5beced34ff2d0ba08b7d5626da004014f0393eea0029",
  "source": "pragma solidity ^0.4.24;\n\nimport \"openzeppelin-solidity/contracts/ownership/Ownable.sol\";\nimport \"./Token36.sol\";\nimport \"./Token36Controller.sol\";\n\n\n/// @title Cash36 Main Index Contract\n/// @notice Main Contract of cash36. Acts as an Index to keep track of all official cash36 contracts and more.\n/// @author element36.io\ncontract Cash36 is Ownable {\n\n    address complianceAddress;\n\n    // Token Storage\n    address[] tokens;\n    mapping(string => bool) registeredSymbol;\n    mapping(string => uint256) tokenIndexBySymbol;\n\n    // Constructor\n    constructor(address _complianceAddress) public {\n        complianceAddress = _complianceAddress;\n    }\n\n    // Event\n    event TokenCreated(string _name, string _symbol, address tokenAddress, address tokenControllerAddress);\n\n    /**\n     * @notice Create a new Token36\n     * @dev Also creates a token controller with given KYC Provider (Calls Event TokenCreated on success)\n     * @param _name Name of the token (as with ERC20)\n     * @param _symbol Symbol of the token (as with ERC20)\n     */\n    function createNewToken(string _name, string _symbol) external onlyOwner {\n        require(keccak256(abi.encodePacked(_name)) != keccak256(abi.encodePacked(\"\")), \"name cannot be empty\");\n        require(keccak256(abi.encodePacked(_symbol)) != keccak256(abi.encodePacked(\"\")), \"symbol cannot be empty\");\n        require(registeredSymbol[_symbol] == false, \"symbol already registered\");\n\n        Token36 newToken = new Token36(_name, _symbol);\n\n        tokenIndexBySymbol[_symbol] = tokens.length;\n        tokens.push(newToken);\n        registeredSymbol[_symbol] = true;\n\n        // Create and Set new Controller as token controller - will be owned by this contract\n        Token36Controller newController = new Token36Controller(newToken, complianceAddress);\n        newToken.changeController(address(newController));\n\n        emit TokenCreated(_name, _symbol, address(newToken), address(newController));\n    }\n\n    /**\n      @notice Get all Cash36 Tokens\n      @return address array of all cash36 tokens\n    */\n    function getTokens() external view returns (address[]) {\n        return tokens;\n    }\n\n    /**\n      @notice Check if token with given symbl is a registered cash36 token\n      @param _symbol Symbol of the Token to be checked\n      @return bool true if token is a registered and active cash36 token\n    */\n    function isCash36Token(string _symbol) external view returns (bool) {\n        return registeredSymbol[_symbol];\n    }\n\n    /**\n      @notice Get the Token address by symbol\n      @param _symbol Symbol of the Token\n    */\n    function getTokenBySymbol(string _symbol) external view returns (address) {\n        require(registeredSymbol[_symbol]);\n        address tokenAddress = tokens[tokenIndexBySymbol[_symbol]];\n\n        return tokenAddress;\n    }\n\n    function updateCompliance(address _newComplianceAddress) external onlyOwner {\n        complianceAddress = _newComplianceAddress;\n\n        // TODO: update all Token36Controller\n        // controller.updateCompliance(complianceAddress);\n    }\n\n    //function updateToken()\n\n    function enableTransfers(string _symbol, bool _transfersEnabled) external onlyOwner {\n        Token36(tokens[tokenIndexBySymbol[_symbol]]).enableTransfers(_transfersEnabled);\n    }\n}",
  "sourcePath": "/Users/bum/element36/dev/cash36/contracts/contracts/Cash36.sol",
  "compiler": {
    "name": "solc",
    "version": "0.4.24+commit.e67f0147.Emscripten.clang"
  },
  "schemaVersion": "2.0.1",
  "updatedAt": "2018-06-29T09:39:30.648Z"
}