{
  "contractName": "Cash36",
  "abi": [
    {
      "constant": false,
      "inputs": [],
      "name": "renounceOwnership",
      "outputs": [],
      "payable": false,
      "stateMutability": "nonpayable",
      "type": "function"
    },
    {
      "constant": true,
      "inputs": [],
      "name": "owner",
      "outputs": [
        {
          "name": "",
          "type": "address"
        }
      ],
      "payable": false,
      "stateMutability": "view",
      "type": "function"
    },
    {
      "constant": false,
      "inputs": [
        {
          "name": "_newOwner",
          "type": "address"
        }
      ],
      "name": "transferOwnership",
      "outputs": [],
      "payable": false,
      "stateMutability": "nonpayable",
      "type": "function"
    },
    {
      "anonymous": false,
      "inputs": [
        {
          "indexed": true,
          "name": "previousOwner",
          "type": "address"
        }
      ],
      "name": "OwnershipRenounced",
      "type": "event"
    },
    {
      "anonymous": false,
      "inputs": [
        {
          "indexed": true,
          "name": "previousOwner",
          "type": "address"
        },
        {
          "indexed": true,
          "name": "newOwner",
          "type": "address"
        }
      ],
      "name": "OwnershipTransferred",
      "type": "event"
    },
    {
      "constant": false,
      "inputs": [
        {
          "name": "_symbol",
          "type": "string"
        },
        {
          "name": "_tokenAddress",
          "type": "address"
        }
      ],
      "name": "registerToken",
      "outputs": [],
      "payable": false,
      "stateMutability": "nonpayable",
      "type": "function"
    },
    {
      "constant": true,
      "inputs": [],
      "name": "getTokens",
      "outputs": [
        {
          "name": "",
          "type": "address[]"
        }
      ],
      "payable": false,
      "stateMutability": "view",
      "type": "function"
    },
    {
      "constant": true,
      "inputs": [
        {
          "name": "_symbol",
          "type": "string"
        }
      ],
      "name": "isCash36Token",
      "outputs": [
        {
          "name": "",
          "type": "bool"
        }
      ],
      "payable": false,
      "stateMutability": "view",
      "type": "function"
    },
    {
      "constant": true,
      "inputs": [
        {
          "name": "_symbol",
          "type": "string"
        }
      ],
      "name": "getTokenBySymbol",
      "outputs": [
        {
          "name": "",
          "type": "address"
        }
      ],
      "payable": false,
      "stateMutability": "view",
      "type": "function"
    },
    {
      "constant": false,
      "inputs": [
        {
          "name": "_symbol",
          "type": "string"
        },
        {
          "name": "_newComplianceAddress",
          "type": "address"
        }
      ],
      "name": "updateCompliance",
      "outputs": [],
      "payable": false,
      "stateMutability": "nonpayable",
      "type": "function"
    },
    {
      "constant": false,
      "inputs": [
        {
          "name": "_symbol",
          "type": "string"
        },
        {
          "name": "_newControllerAddress",
          "type": "address"
        }
      ],
      "name": "updateController",
      "outputs": [],
      "payable": false,
      "stateMutability": "nonpayable",
      "type": "function"
    },
    {
      "constant": false,
      "inputs": [
        {
          "name": "_symbol",
          "type": "string"
        },
        {
          "name": "_transfersEnabled",
          "type": "bool"
        }
      ],
      "name": "enableTransfers",
      "outputs": [],
      "payable": false,
      "stateMutability": "nonpayable",
      "type": "function"
    }
  ],
  "bytecode": "0x608060405260008054600160a060020a0319163317905561075d806100256000396000f3006080604052600436106100a35763ffffffff7c010000000000000000000000000000000000000000000000000000000060003504166346b1599a81146100a857806369f667ed146100d0578063715018a6146100fe5780638da5cb5b146101135780639121125914610144578063a10aa96414610172578063aa6ca808146101a6578063b2cacb041461020b578063efa74f1f14610239578063f2fde38b14610259575b600080fd5b3480156100b457600080fd5b506100ce602460048035828101929101359035151561027a565b005b3480156100dc57600080fd5b506100ce6024600480358281019291013590600160a060020a0390351661034b565b34801561010a57600080fd5b506100ce610425565b34801561011f57600080fd5b50610128610491565b60408051600160a060020a039092168252519081900360200190f35b34801561015057600080fd5b506100ce6024600480358281019291013590600160a060020a039035166104a0565b34801561017e57600080fd5b5061019260048035602481019101356104bc565b604080519115158252519081900360200190f35b3480156101b257600080fd5b506101bb6104ef565b60408051602080825283518183015283519192839290830191858101910280838360005b838110156101f75781810151838201526020016101df565b505050509050019250505060405180910390f35b34801561021757600080fd5b506100ce6024600480358281019291013590600160a060020a03903516610551565b34801561024557600080fd5b506101286004803560248101910135610607565b34801561026557600080fd5b506100ce600160a060020a0360043516610691565b600054600160a060020a0316331461029157600080fd5b600160038484604051808383808284378201915050925050509081526020016040518091039020548154811015156102c557fe5b6000918252602082200154604080517ff41e60c500000000000000000000000000000000000000000000000000000000815284151560048201529051600160a060020a039092169263f41e60c59260248084019382900301818387803b15801561032e57600080fd5b505af1158015610342573d6000803e3d6000fd5b50505050505050565b600054600160a060020a0316331461036257600080fd5b60018054905060038484604051808383808284379091019485525050604051928390036020018320939093555060018054808201825560008290527fb10e2d527612073b26eecdfd717e6a320cf44b4afac2b0732d9fcbe2b7fa0cf6018054600160a060020a03861673ffffffffffffffffffffffffffffffffffffffff1990911617905591506002908590859080838380828437909101948552505060405192839003602001909220805493151560ff19909416939093179092555050505050565b600054600160a060020a0316331461043c57600080fd5b60008054604051600160a060020a03909116917ff8df31144d9c2f0f6b59d69b8b98abd5459d07f2742c4df920b25aae33c6482091a26000805473ffffffffffffffffffffffffffffffffffffffff19169055565b600054600160a060020a031681565b600054600160a060020a031633146104b757600080fd5b505050565b600060028383604051808383808284379091019485525050604051928390036020019092205460ff169250505092915050565b6060600180548060200260200160405190810160405280929190818152602001828054801561054757602002820191906000526020600020905b8154600160a060020a03168152600190910190602001808311610529575b5050505050905090565b600054600160a060020a0316331461056857600080fd5b6001600384846040518083838082843782019150509250505090815260200160405180910390205481548110151561059c57fe5b6000918252602082200154604080517f3cebb823000000000000000000000000000000000000000000000000000000008152600160a060020a03858116600483015291519190921692633cebb823926024808201939182900301818387803b15801561032e57600080fd5b60008060028484604051808383808284379091019485525050604051928390036020019092205460ff1615159150610640905057600080fd5b6001600385856040518083838082843782019150509250505090815260200160405180910390205481548110151561067457fe5b600091825260209091200154600160a060020a0316949350505050565b600054600160a060020a031633146106a857600080fd5b6106b1816106b4565b50565b600160a060020a03811615156106c957600080fd5b60008054604051600160a060020a03808516939216917f8be0079c531659141344cd1fd0a4f28419497f9722a3daafe3b4186f6b6457e091a36000805473ffffffffffffffffffffffffffffffffffffffff1916600160a060020a03929092169190911790555600a165627a7a723058208573fc7f6d33e436b69981623f63b434b2a783845f616a1e6358e76d3a11061c0029",
  "source": "pragma solidity ^0.4.24;\n\nimport \"openzeppelin-solidity/contracts/ownership/Ownable.sol\";\nimport \"./Token36.sol\";\nimport \"./Token36Controller.sol\";\n\n\n/// @title Cash36 Main Index Contract\n/// @notice Main Contract of cash36. Acts as an Index to keep track of all official cash36 contracts and more.\n/// @author element36.io\ncontract Cash36 is Ownable {\n\n    // Token Storage\n    address[] tokens;\n    mapping(string => bool) registeredSymbol;\n    mapping(string => uint256) tokenIndexBySymbol;\n\n    function registerToken(string _symbol, address _tokenAddress) external onlyOwner {\n        tokenIndexBySymbol[_symbol] = tokens.length;\n        tokens.push(_tokenAddress);\n        registeredSymbol[_symbol] = true;\n    }\n\n    /**\n     * @notice Get all Cash36 Tokens\n     * @return Array of addresses of all Cash36 Tokens\n     */\n    function getTokens() external view returns (address[]) {\n        return tokens;\n    }\n\n    /**\n     * @notice Check if a Token with given symbol is a registered Cash36 Token\n     * @param _symbol Symbol of the Token to be checked\n     * @return {\n     *   bool: True when Token is a registered and active Cash36 Token\n     * }\n     */\n    function isCash36Token(string _symbol) external view returns (bool) {\n        return registeredSymbol[_symbol];\n    }\n\n    /**\n     * @notice Get the Token address by symbol\n     * @param _symbol Symbol of the Token\n     * @return {\n     *   address: Address of the Cash36 Token\n     * }\n     */\n    function getTokenBySymbol(string _symbol) external view returns (address) {\n        require(registeredSymbol[_symbol]);\n        address tokenAddress = tokens[tokenIndexBySymbol[_symbol]];\n\n        return tokenAddress;\n    }\n\n    /**\n     * @notice Admin function to update to a new ComplianceContract\n     * @dev onlyOwner - only open to element36 Account\n     * @dev not yet implemented\n     */\n    function updateCompliance(string _symbol, address _newComplianceAddress) external onlyOwner {\n        //controller.updateCompliance(complianceAddress);\n    }\n\n    function updateController(string _symbol, address _newControllerAddress) external onlyOwner {\n        Token36(tokens[tokenIndexBySymbol[_symbol]]).changeController(_newControllerAddress);\n    }\n\n    /**\n     * @notice Admin function to enable/disable Token transfer\n     * @dev onlyOwner - only open to element36 Account\n     */\n    function enableTransfers(string _symbol, bool _transfersEnabled) external onlyOwner {\n        Token36(tokens[tokenIndexBySymbol[_symbol]]).enableTransfers(_transfersEnabled);\n    }\n}",
  "sourcePath": "/Users/bum/element36/dev/cash36/contracts/contracts/Cash36.sol",
  "compiler": {
    "name": "solc",
    "version": "0.4.24+commit.e67f0147.Emscripten.clang"
  },
  "schemaVersion": "2.0.1",
  "updatedAt": "2018-07-30T15:19:27.197Z"
}