{
  "contractName": "Cash36Compliance",
  "abi": [
    {
      "constant": true,
      "inputs": [
        {
          "name": "_addressToCheck",
          "type": "address"
        }
      ],
      "name": "isOfficer",
      "outputs": [
        {
          "name": "",
          "type": "bool"
        }
      ],
      "payable": false,
      "stateMutability": "view",
      "type": "function"
    },
    {
      "constant": false,
      "inputs": [],
      "name": "renounceOwnership",
      "outputs": [],
      "payable": false,
      "stateMutability": "nonpayable",
      "type": "function"
    },
    {
      "constant": false,
      "inputs": [
        {
          "name": "_newComplianceOfficer",
          "type": "address"
        }
      ],
      "name": "changeOfficer",
      "outputs": [],
      "payable": false,
      "stateMutability": "nonpayable",
      "type": "function"
    },
    {
      "constant": true,
      "inputs": [],
      "name": "owner",
      "outputs": [
        {
          "name": "",
          "type": "address"
        }
      ],
      "payable": false,
      "stateMutability": "view",
      "type": "function"
    },
    {
      "constant": true,
      "inputs": [],
      "name": "complianceOfficer",
      "outputs": [
        {
          "name": "",
          "type": "address"
        }
      ],
      "payable": false,
      "stateMutability": "view",
      "type": "function"
    },
    {
      "constant": false,
      "inputs": [
        {
          "name": "_newOwner",
          "type": "address"
        }
      ],
      "name": "transferOwnership",
      "outputs": [],
      "payable": false,
      "stateMutability": "nonpayable",
      "type": "function"
    },
    {
      "anonymous": false,
      "inputs": [
        {
          "indexed": true,
          "name": "previousOwner",
          "type": "address"
        }
      ],
      "name": "OwnershipRenounced",
      "type": "event"
    },
    {
      "anonymous": false,
      "inputs": [
        {
          "indexed": true,
          "name": "previousOwner",
          "type": "address"
        },
        {
          "indexed": true,
          "name": "newOwner",
          "type": "address"
        }
      ],
      "name": "OwnershipTransferred",
      "type": "event"
    },
    {
      "constant": false,
      "inputs": [
        {
          "name": "_user",
          "type": "address"
        }
      ],
      "name": "addUser",
      "outputs": [],
      "payable": false,
      "stateMutability": "nonpayable",
      "type": "function"
    },
    {
      "constant": true,
      "inputs": [
        {
          "name": "_user",
          "type": "address"
        }
      ],
      "name": "checkUser",
      "outputs": [
        {
          "name": "",
          "type": "bool"
        }
      ],
      "payable": false,
      "stateMutability": "view",
      "type": "function"
    },
    {
      "constant": false,
      "inputs": [
        {
          "name": "_user",
          "type": "address"
        }
      ],
      "name": "blockUser",
      "outputs": [],
      "payable": false,
      "stateMutability": "nonpayable",
      "type": "function"
    },
    {
      "constant": false,
      "inputs": [
        {
          "name": "_user",
          "type": "address"
        }
      ],
      "name": "unblockUser",
      "outputs": [],
      "payable": false,
      "stateMutability": "nonpayable",
      "type": "function"
    },
    {
      "constant": true,
      "inputs": [
        {
          "name": "_user",
          "type": "address"
        }
      ],
      "name": "isOnBlacklist",
      "outputs": [
        {
          "name": "",
          "type": "bool"
        }
      ],
      "payable": false,
      "stateMutability": "view",
      "type": "function"
    },
    {
      "constant": false,
      "inputs": [
        {
          "name": "_exchange",
          "type": "address"
        },
        {
          "name": "_token",
          "type": "address"
        }
      ],
      "name": "addExchange",
      "outputs": [],
      "payable": false,
      "stateMutability": "nonpayable",
      "type": "function"
    },
    {
      "constant": false,
      "inputs": [
        {
          "name": "_exchange",
          "type": "address"
        },
        {
          "name": "_token",
          "type": "address"
        }
      ],
      "name": "removeExchange",
      "outputs": [],
      "payable": false,
      "stateMutability": "nonpayable",
      "type": "function"
    },
    {
      "constant": true,
      "inputs": [
        {
          "name": "_exchange",
          "type": "address"
        },
        {
          "name": "_token",
          "type": "address"
        }
      ],
      "name": "isAllowedExchange",
      "outputs": [
        {
          "name": "",
          "type": "bool"
        }
      ],
      "payable": false,
      "stateMutability": "view",
      "type": "function"
    }
  ],
  "bytecode": "0x60806040526000805433600160a060020a0319918216811783556001805490921617905561066a90819061003390396000f3006080604052600436106100cf5763ffffffff7c01000000000000000000000000000000000000000000000000000000006000350416631e62205081146100d45780631e9d48cf1461010957806339d319e51461012a5780633da013251461014d578063421b2d8b1461016e5780636816442d1461018f578063715018a6146101b057806376ed9f5e146101c55780637f604b45146101e65780638da5cb5b1461020d578063c4a56fc81461023e578063ea13d8a114610253578063f00065b61461027a578063f2fde38b146102a1575b600080fd5b3480156100e057600080fd5b506100f5600160a060020a03600435166102c2565b604080519115158252519081900360200190f35b34801561011557600080fd5b506100f5600160a060020a03600435166102e4565b34801561013657600080fd5b5061014b600160a060020a036004351661033a565b005b34801561015957600080fd5b5061014b600160a060020a0360043516610372565b34801561017a57600080fd5b5061014b600160a060020a03600435166103ad565b34801561019b57600080fd5b506100f5600160a060020a03600435166103e8565b3480156101bc57600080fd5b5061014b6103fc565b3480156101d157600080fd5b5061014b600160a060020a0360043516610468565b3480156101f257600080fd5b5061014b600160a060020a03600435811690602435166104ae565b34801561021957600080fd5b5061022261050d565b60408051600160a060020a039092168252519081900360200190f35b34801561024a57600080fd5b5061022261051c565b34801561025f57600080fd5b506100f5600160a060020a036004358116906024351661052b565b34801561028657600080fd5b5061014b600160a060020a036004358116906024351661055a565b3480156102ad57600080fd5b5061014b600160a060020a0360043516610571565b600160a060020a03811660009081526003602052604090205460ff165b919050565b600160a060020a03811660009081526002602052604081205460ff1680156103255750600160a060020a03821660009081526003602052604090205460ff16155b15610332575060016102df565b506000919050565b600154600160a060020a0316331461035157600080fd5b600160a060020a03166000908152600360205260409020805460ff19169055565b600154600160a060020a0316331461038957600080fd5b600160a060020a03166000908152600360205260409020805460ff19166001179055565b600154600160a060020a031633146103c457600080fd5b600160a060020a03166000908152600260205260409020805460ff19166001179055565b600154600160a060020a0391821691161490565b600054600160a060020a0316331461041357600080fd5b60008054604051600160a060020a03909116917ff8df31144d9c2f0f6b59d69b8b98abd5459d07f2742c4df920b25aae33c6482091a26000805473ffffffffffffffffffffffffffffffffffffffff19169055565b600154600160a060020a0316331461047f57600080fd5b6001805473ffffffffffffffffffffffffffffffffffffffff1916600160a060020a0392909216919091179055565b600054600160a060020a031633146104c557600080fd5b6104ce82610594565b156104d857600080fd5b600160a060020a039081166000908152600460209081526040808320949093168252929092529020805460ff19166001179055565b600054600160a060020a031681565b600154600160a060020a031681565b600160a060020a0380821660009081526004602090815260408083209386168352929052205460ff1692915050565b600054600160a060020a031633146104d857600080fd5b600054600160a060020a0316331461058857600080fd5b610591816105c1565b50565b600080600160a060020a03831615156105b057600091506105bb565b823b90506000811191505b50919050565b600160a060020a03811615156105d657600080fd5b60008054604051600160a060020a03808516939216917f8be0079c531659141344cd1fd0a4f28419497f9722a3daafe3b4186f6b6457e091a36000805473ffffffffffffffffffffffffffffffffffffffff1916600160a060020a03929092169190911790555600a165627a7a72305820d7513318fc7701c23124c6d674ab9015550119bdb533b9a79d176ef7684176550029",
  "source": "pragma solidity ^0.4.24;\n\nimport \"openzeppelin-solidity/contracts/ownership/Ownable.sol\";\nimport \"./HasOfficer.sol\";\n\n\n/// @title Cash36 Compliance Contract\n/// @notice Is responsible for keeping track of all KYCed users, users blacklist and white-listed exchanges.\n/// @author element36.io\ncontract Cash36Compliance is Ownable, HasOfficer {\n\n    // Tracks KYCed users\n    mapping(address => bool) internal users;\n\n    // Tracks blacklisted users - 'overrides' KYCed users\n    mapping(address => bool) internal blacklist;\n\n    // Whitelisted Exchanges per token\n    mapping(address => mapping(address => bool)) internal allowedExchanges;\n\n    /**\n     * @notice Add user once he passed KYC process\n     * @dev onlyComplianceOfficer - only open to assigned Compliance Officer Account\n     * @param _user Address of the KYCed user\n     */\n    function addUser(address _user) public onlyComplianceOfficer {\n        users[_user] = true;\n    }\n\n    /**\n     * @notice Check User for a valid claim from cash36 and Blacklist\n     * @param _user Address of the user\n     * @return {\n     *   \"bool\": \"True when User is KYCed and not on Blacklist\"\n     * }\n     */\n    function checkUser(address _user) public view returns (bool) {\n        if (users[_user] && !blacklist[_user]) {\n            return true;\n        }\n        return false;\n    }\n\n    /**\n     * @notice Blocking User by adding him onto the Blacklist\n     * @dev onlyComplianceOfficer - only open to assigned Compliance Officer Account\n     * @param _user Address of the user\n     */\n    function blockUser(address _user) public onlyComplianceOfficer {\n        blacklist[_user] = true;\n    }\n\n    /**\n     * @notice Unblocking User by removing him from the Blacklist\n     * @dev onlyComplianceOfficer - only open to assigned Compliance Officer Account\n     * @param _user Address of the user\n     */\n    function unblockUser(address _user) public onlyComplianceOfficer {\n        blacklist[_user] = false;\n    }\n\n    /**\n     * @notice Check User if on Blacklist\n     * @param _user Address of the user\n     * @return {\n     *   \"bool\": \"True when User is listed on Blacklist\"\n     * }\n     */\n    function isOnBlacklist(address _user) public view returns (bool) {\n        return blacklist[_user];\n    }\n\n    /**\n     * @notice Add an exchange to the list of accepted Exchanges\n     * @dev Exchange can not be another Smart Contract\n     * @dev onlyOwner - only open to element36 Account\n     * @param _exchange Address of the exchange\n     */\n    function addExchange(address _exchange, address _token) external onlyOwner {\n        require(isContract(_exchange) == false);\n        allowedExchanges[_token][_exchange] = true;\n    }\n\n    /**\n     * @notice Remove an exchange from the list of accepted Exchanges\n     * @dev onlyOwner - only open to element36 Account\n     * @param _exchange Address of the exchange\n     */\n    function removeExchange(address _exchange, address _token) external onlyOwner {\n        allowedExchanges[_token][_exchange] = true;\n    }\n\n    /**\n     * @notice Check if an exchange is on the list of accepted Exchanges\n     * @param _exchange Address of the exchange\n     * @return {\n     *   \"bool\": \"True when Exchange is listed\"\n     * }\n     */\n    function isAllowedExchange(address _exchange, address _token) external view returns (bool) {\n        return allowedExchanges[_token][_exchange];\n    }\n\n    /// INTERNAL\n\n    /**\n      @notice Checks if a given address is a contract or EOA\n      @param _address Address to check\n    */\n    function isContract(address _address) internal view returns(bool) {\n        uint size;\n        if (_address == 0) {\n            return false;\n        }\n        assembly {\n            size := extcodesize(_address)\n        }\n        return size > 0;\n    }\n}",
  "sourcePath": "/Users/bum/element36/dev/cash36/contracts/contracts/Cash36Compliance.sol",
  "compiler": {
    "name": "solc",
    "version": "0.4.24+commit.e67f0147.Emscripten.clang"
  },
  "schemaVersion": "2.0.1",
  "updatedAt": "2018-07-20T16:27:24.533Z"
}