{
  "contractName": "Cash36Company",
  "abi": [
    {
      "inputs": [
        {
          "name": "_name",
          "type": "string"
        }
      ],
      "payable": false,
      "stateMutability": "nonpayable",
      "type": "constructor"
    },
    {
      "constant": false,
      "inputs": [
        {
          "name": "_name",
          "type": "string"
        }
      ],
      "name": "changeName",
      "outputs": [],
      "payable": false,
      "stateMutability": "nonpayable",
      "type": "function"
    },
    {
      "constant": false,
      "inputs": [
        {
          "name": "_metaData",
          "type": "string"
        }
      ],
      "name": "setMetaData",
      "outputs": [],
      "payable": false,
      "stateMutability": "nonpayable",
      "type": "function"
    },
    {
      "constant": false,
      "inputs": [
        {
          "name": "_newOwner",
          "type": "address"
        }
      ],
      "name": "addOwner",
      "outputs": [],
      "payable": false,
      "stateMutability": "nonpayable",
      "type": "function"
    },
    {
      "constant": false,
      "inputs": [
        {
          "name": "_owner",
          "type": "address"
        }
      ],
      "name": "removeOwner",
      "outputs": [],
      "payable": false,
      "stateMutability": "nonpayable",
      "type": "function"
    },
    {
      "constant": false,
      "inputs": [
        {
          "name": "_token",
          "type": "address"
        },
        {
          "name": "_to",
          "type": "address"
        },
        {
          "name": "_amount",
          "type": "uint256"
        }
      ],
      "name": "transfer",
      "outputs": [],
      "payable": false,
      "stateMutability": "nonpayable",
      "type": "function"
    },
    {
      "constant": false,
      "inputs": [
        {
          "name": "_token",
          "type": "address"
        },
        {
          "name": "_from",
          "type": "address"
        },
        {
          "name": "_to",
          "type": "address"
        },
        {
          "name": "_amount",
          "type": "uint256"
        }
      ],
      "name": "transferFrom",
      "outputs": [],
      "payable": false,
      "stateMutability": "nonpayable",
      "type": "function"
    },
    {
      "constant": false,
      "inputs": [
        {
          "name": "_token",
          "type": "address"
        },
        {
          "name": "_amount",
          "type": "uint256"
        }
      ],
      "name": "burn",
      "outputs": [],
      "payable": false,
      "stateMutability": "nonpayable",
      "type": "function"
    },
    {
      "constant": false,
      "inputs": [
        {
          "name": "_token",
          "type": "address"
        },
        {
          "name": "_from",
          "type": "address"
        },
        {
          "name": "_amount",
          "type": "uint256"
        }
      ],
      "name": "burnFrom",
      "outputs": [],
      "payable": false,
      "stateMutability": "nonpayable",
      "type": "function"
    }
  ],
  "bytecode": "0x608060405234801561001057600080fd5b506040516109e33803806109e38339818101604052602081101561003357600080fd5b81019080805164010000000081111561004b57600080fd5b8201602081018481111561005e57600080fd5b815164010000000081118282018710171561007857600080fd5b5050805190935061009292506000915060208401906100b3565b5050336000908152600260205260409020805460ff1916600117905561014e565b828054600181600116156101000203166002900490600052602060002090601f016020900481019282601f106100f457805160ff1916838001178555610121565b82800160010185558215610121579182015b82811115610121578251825591602001919060010190610106565b5061012d929150610131565b5090565b61014b91905b8082111561012d5760008155600101610137565b90565b6108868061015d6000396000f3fe608060405234801561001057600080fd5b50600436106100885760003560e01c80639dc29fac1161005b5780639dc29fac14610187578063beabacc8146101b3578063d821f81a146101e9578063ec60bcf31461025957610088565b806315dacbea1461008d578063173825d9146100cb5780635353a2d8146100f15780637065cb4814610161575b600080fd5b6100c9600480360360808110156100a357600080fd5b506001600160a01b0381358116916020810135821691604082013516906060013561028f565b005b6100c9600480360360208110156100e157600080fd5b50356001600160a01b0316610376565b6100c96004803603602081101561010757600080fd5b81019060208101813564010000000081111561012257600080fd5b82018360208201111561013457600080fd5b8035906020019184600183028401116401000000008311171561015657600080fd5b5090925090506103f1565b6100c96004803603602081101561017757600080fd5b50356001600160a01b031661045c565b6100c96004803603604081101561019d57600080fd5b506001600160a01b0381351690602001356104da565b6100c9600480360360608110156101c957600080fd5b506001600160a01b0381358116916020810135909116906040013561058e565b6100c9600480360360208110156101ff57600080fd5b81019060208101813564010000000081111561021a57600080fd5b82018360208201111561022c57600080fd5b8035906020019184600183028401116401000000008311171561024e57600080fd5b509092509050610679565b6100c96004803603606081101561026f57600080fd5b506001600160a01b038135811691602081013590911690604001356106df565b3360009081526002602052604090205460ff166102e9576040805162461bcd60e51b81526020600482015260136024820152721bdb9b1e481bdddb995c9cc8185b1b1bddd959606a1b604482015290519081900360640190fd5b604080516323b872dd60e01b81526001600160a01b0385811660048301528481166024830152604482018490529151918616916323b872dd916064808201926020929091908290030181600087803b15801561034457600080fd5b505af1158015610358573d6000803e3d6000fd5b505050506040513d602081101561036e57600080fd5b505050505050565b3360009081526002602052604090205460ff166103d0576040805162461bcd60e51b81526020600482015260136024820152721bdb9b1e481bdddb995c9cc8185b1b1bddd959606a1b604482015290519081900360640190fd5b6001600160a01b03166000908152600260205260409020805460ff19169055565b3360009081526002602052604090205460ff1661044b576040805162461bcd60e51b81526020600482015260136024820152721bdb9b1e481bdddb995c9cc8185b1b1bddd959606a1b604482015290519081900360640190fd5b610457600083836107b6565b505050565b3360009081526002602052604090205460ff166104b6576040805162461bcd60e51b81526020600482015260136024820152721bdb9b1e481bdddb995c9cc8185b1b1bddd959606a1b604482015290519081900360640190fd5b6001600160a01b03166000908152600260205260409020805460ff19166001179055565b3360009081526002602052604090205460ff16610534576040805162461bcd60e51b81526020600482015260136024820152721bdb9b1e481bdddb995c9cc8185b1b1bddd959606a1b604482015290519081900360640190fd5b816001600160a01b03166342966c68826040518263ffffffff1660e01b815260040180828152602001915050600060405180830381600087803b15801561057a57600080fd5b505af115801561036e573d6000803e3d6000fd5b3360009081526002602052604090205460ff166105e8576040805162461bcd60e51b81526020600482015260136024820152721bdb9b1e481bdddb995c9cc8185b1b1bddd959606a1b604482015290519081900360640190fd5b826001600160a01b031663a9059cbb83836040518363ffffffff1660e01b815260040180836001600160a01b03166001600160a01b0316815260200182815260200192505050602060405180830381600087803b15801561064857600080fd5b505af115801561065c573d6000803e3d6000fd5b505050506040513d602081101561067257600080fd5b5050505050565b3360009081526002602052604090205460ff166106d3576040805162461bcd60e51b81526020600482015260136024820152721bdb9b1e481bdddb995c9cc8185b1b1bddd959606a1b604482015290519081900360640190fd5b610457600183836107b6565b3360009081526002602052604090205460ff16610739576040805162461bcd60e51b81526020600482015260136024820152721bdb9b1e481bdddb995c9cc8185b1b1bddd959606a1b604482015290519081900360640190fd5b826001600160a01b03166379cc679083836040518363ffffffff1660e01b815260040180836001600160a01b03166001600160a01b0316815260200182815260200192505050600060405180830381600087803b15801561079957600080fd5b505af11580156107ad573d6000803e3d6000fd5b50505050505050565b828054600181600116156101000203166002900490600052602060002090601f016020900481019282601f106107f75782800160ff19823516178555610824565b82800160010185558215610824579182015b82811115610824578235825591602001919060010190610809565b50610830929150610834565b5090565b61084e91905b80821115610830576000815560010161083a565b9056fea265627a7a72305820f47b42754394d9fdd80ebb8273ac888ec3a7861a079a7fad126aa313b18532d664736f6c63430005090032",
  "source": "pragma solidity ^0.5.9;\n\nimport \"openzeppelin-solidity/contracts/token/ERC20/ERC20Burnable.sol\";\n\n\n/// @title Cash36 Company Contract\n/// @notice Represents a Company in cash36 - needed for Onboarding of Companies with Accounts and Beneficial Owners\n/// @author element36.io\ncontract Cash36Company {\n\n    // Company name\n    string private name;\n\n    // Some additional data about the company (could also be an ipfsHash in future)\n    string private metaData;\n\n    // List of beneficial owners of the company\n    mapping(address => bool) private owners;\n\n    modifier onlyOwners {\n        require(owners[msg.sender], \"only owners allowed\");\n        _;\n    }\n\n    constructor(string memory _name) public {\n        name = _name;\n        owners[msg.sender] = true;\n    }\n\n    function changeName(string calldata _name) external onlyOwners {\n        name = _name;\n    }\n\n    function setMetaData(string calldata _metaData) external onlyOwners {\n        metaData = _metaData;\n    }\n\n    function addOwner(address _newOwner) external onlyOwners {\n        owners[_newOwner] = true;\n    }\n\n    function removeOwner(address _owner) external onlyOwners {\n        owners[_owner] = false;\n    }\n\n    function transfer(ERC20Burnable _token, address _to, uint256 _amount) external onlyOwners {\n        _token.transfer(_to, _amount);\n    }\n\n    function transferFrom(ERC20Burnable _token, address _from, address _to, uint256 _amount) external onlyOwners {\n        _token.transferFrom(_from, _to, _amount);\n    }\n\n    function burn(ERC20Burnable _token, uint256 _amount) external onlyOwners {\n        _token.burn(_amount);\n    }\n\n    function burnFrom(ERC20Burnable _token, address _from, uint256 _amount) external onlyOwners {\n        _token.burnFrom(_from, _amount);\n    }\n}\n",
  "sourcePath": "/Users/bum/element36/dev/cash36/contracts/contracts/Cash36Company.sol",
  "compiler": {
    "name": "solc",
    "version": "0.5.9+commit.e560f70d.Emscripten.clang"
  },
  "schemaVersion": "3.0.11",
  "updatedAt": "2019-08-21T12:07:25.580Z",
  "devdoc": {
    "author": "element36.io",
    "methods": {},
    "title": "Cash36 Company Contract"
  },
  "userdoc": {
    "methods": {},
    "notice": "Represents a Company in cash36 - needed for Onboarding of Companies with Accounts and Beneficial Owners"
  }
}