{
  "contractName": "Cash36Exchanges",
  "abi": [
    {
      "anonymous": false,
      "inputs": [
        {
          "indexed": true,
          "internalType": "address",
          "name": "previousOwner",
          "type": "address"
        },
        {
          "indexed": true,
          "internalType": "address",
          "name": "newOwner",
          "type": "address"
        }
      ],
      "name": "OwnershipTransferred",
      "type": "event"
    },
    {
      "constant": true,
      "inputs": [],
      "name": "isOwner",
      "outputs": [
        {
          "internalType": "bool",
          "name": "",
          "type": "bool"
        }
      ],
      "payable": false,
      "stateMutability": "view",
      "type": "function"
    },
    {
      "constant": true,
      "inputs": [],
      "name": "owner",
      "outputs": [
        {
          "internalType": "address",
          "name": "",
          "type": "address"
        }
      ],
      "payable": false,
      "stateMutability": "view",
      "type": "function"
    },
    {
      "constant": false,
      "inputs": [],
      "name": "renounceOwnership",
      "outputs": [],
      "payable": false,
      "stateMutability": "nonpayable",
      "type": "function"
    },
    {
      "constant": false,
      "inputs": [
        {
          "internalType": "address",
          "name": "newOwner",
          "type": "address"
        }
      ],
      "name": "transferOwnership",
      "outputs": [],
      "payable": false,
      "stateMutability": "nonpayable",
      "type": "function"
    },
    {
      "constant": false,
      "inputs": [
        {
          "internalType": "address",
          "name": "_exchange",
          "type": "address"
        },
        {
          "internalType": "address",
          "name": "_token",
          "type": "address"
        }
      ],
      "name": "addExchange",
      "outputs": [],
      "payable": false,
      "stateMutability": "nonpayable",
      "type": "function"
    },
    {
      "constant": false,
      "inputs": [
        {
          "internalType": "address",
          "name": "_exchange",
          "type": "address"
        },
        {
          "internalType": "address",
          "name": "_token",
          "type": "address"
        }
      ],
      "name": "removeExchange",
      "outputs": [],
      "payable": false,
      "stateMutability": "nonpayable",
      "type": "function"
    },
    {
      "constant": true,
      "inputs": [
        {
          "internalType": "address",
          "name": "_exchange",
          "type": "address"
        },
        {
          "internalType": "address",
          "name": "_token",
          "type": "address"
        }
      ],
      "name": "isAllowedExchange",
      "outputs": [
        {
          "internalType": "bool",
          "name": "",
          "type": "bool"
        }
      ],
      "payable": false,
      "stateMutability": "view",
      "type": "function"
    },
    {
      "constant": true,
      "inputs": [
        {
          "internalType": "address",
          "name": "_token",
          "type": "address"
        }
      ],
      "name": "getAllExchanges",
      "outputs": [
        {
          "internalType": "address[]",
          "name": "",
          "type": "address[]"
        }
      ],
      "payable": false,
      "stateMutability": "view",
      "type": "function"
    }
  ],
  "bytecode": "0x60806040526100156001600160e01b0361006216565b600080546001600160a01b0319166001600160a01b03928316178082556040519216917f8be0079c531659141344cd1fd0a4f28419497f9722a3daafe3b4186f6b6457e0908290a3610066565b3390565b6105f7806100756000396000f3fe608060405234801561001057600080fd5b50600436106100885760003560e01c80638f32d59b1161005b5780638f32d59b1461015f578063ea13d8a11461017b578063f00065b6146101a9578063f2fde38b146101d757610088565b80631a0020d61461008d578063715018a6146101035780637f604b451461010d5780638da5cb5b1461013b575b600080fd5b6100b3600480360360208110156100a357600080fd5b50356001600160a01b03166101fd565b60408051602080825283518183015283519192839290830191858101910280838360005b838110156100ef5781810151838201526020016100d7565b505050509050019250505060405180910390f35b61010b610273565b005b61010b6004803603604081101561012357600080fd5b506001600160a01b0381358116916020013516610304565b6101436103aa565b604080516001600160a01b039092168252519081900360200190f35b6101676103b9565b604080519115158252519081900360200190f35b6101676004803603604081101561019157600080fd5b506001600160a01b03813581169160200135166103dd565b61010b600480360360408110156101bf57600080fd5b506001600160a01b038135811691602001351661040c565b61010b600480360360208110156101ed57600080fd5b50356001600160a01b0316610485565b6001600160a01b03811660009081526001602090815260409182902080548351818402810184019094528084526060939283018282801561026757602002820191906000526020600020905b81546001600160a01b03168152600190910190602001808311610249575b50505050509050919050565b61027b6103b9565b6102ba576040805162461bcd60e51b815260206004820181905260248201526000805160206105a3833981519152604482015290519081900360640190fd5b600080546040516001600160a01b03909116907f8be0079c531659141344cd1fd0a4f28419497f9722a3daafe3b4186f6b6457e0908390a3600080546001600160a01b0319169055565b61030c6103b9565b61034b576040805162461bcd60e51b815260206004820181905260248201526000805160206105a3833981519152604482015290519081900360640190fd5b6001600160a01b039081166000818152600160208181526040808420805480850182559085528285200180546001600160a01b03191697909616968717909555928252600283528382209482529390915220805460ff19169091179055565b6000546001600160a01b031690565b600080546001600160a01b03166103ce6104d8565b6001600160a01b031614905090565b6001600160a01b0380821660009081526002602090815260408083209386168352929052205460ff1692915050565b6104146103b9565b610453576040805162461bcd60e51b815260206004820181905260248201526000805160206105a3833981519152604482015290519081900360640190fd5b6001600160a01b039081166000908152600260209081526040808320949093168252929092529020805460ff19169055565b61048d6103b9565b6104cc576040805162461bcd60e51b815260206004820181905260248201526000805160206105a3833981519152604482015290519081900360640190fd5b6104d5816104dc565b50565b3390565b6001600160a01b0381166105215760405162461bcd60e51b815260040180806020018281038252602681526020018061057d6026913960400191505060405180910390fd5b600080546040516001600160a01b03808516939216917f8be0079c531659141344cd1fd0a4f28419497f9722a3daafe3b4186f6b6457e091a3600080546001600160a01b0319166001600160a01b039290921691909117905556fe4f776e61626c653a206e6577206f776e657220697320746865207a65726f20616464726573734f776e61626c653a2063616c6c6572206973206e6f7420746865206f776e6572a265627a7a723158200f4a24c74f19c7a7063468c91bba01caf1b741c4d59efd54c0ee5a77fa989a1164736f6c634300050f0032",
  "source": "pragma solidity ^0.5.9;\n\nimport \"openzeppelin-solidity/contracts/ownership/Ownable.sol\";\n\n\n/// @title Cash36 Exchanges Contract\n/// @notice Is responsible for keeping track of all registered Exchanges.\n/// @author element36.io\ncontract Cash36Exchanges is Ownable {\n\n    // Whitelisted Exchanges per token\n    mapping(address => address[]) private allExchanges;\n    mapping(address => mapping(address => bool)) private allowedExchanges;\n\n    /**\n     * @notice Add an exchange to the list of accepted Exchanges\n     * @dev Exchange can not be another Smart Contract\n     * @dev onlyOwner - only open to element36 Account\n     * @param _exchange Address of the exchange\n     */\n    function addExchange(address _exchange, address _token) external onlyOwner {\n        allExchanges[_token].push(_exchange);\n        allowedExchanges[_token][_exchange] = true;\n    }\n\n    /**\n     * @notice Remove an exchange from the list of accepted Exchanges\n     * @dev onlyOwner - only open to element36 Account\n     * @param _exchange Address of the exchange\n     */\n    function removeExchange(address _exchange, address _token) external onlyOwner {\n        allowedExchanges[_token][_exchange] = false;\n    }\n\n    /**\n     * @notice Check if an exchange is on the list of accepted Exchanges\n     * @param _exchange Address of the exchange\n     * @return {\n     *   \"bool\": \"true when Exchange is listed\"\n     * }\n     */\n    function isAllowedExchange(address _exchange, address _token) external view returns (bool) {\n        return allowedExchanges[_token][_exchange];\n    }\n\n    /**\n     * @notice Returns all registered exchange addresses for a given token address.\n     * @dev Note: Due to limitations of solidity, this method returns the full list of every address ever registered.\n     * @dev It does not consider exchanges, which might have been flagged false afterwards.\n     * @dev Therefore to be sure, an additional call to isAllowedExchange, would be necessary.\n     * @param _token Address of the token\n     * @return {\n     *   \"address[]\": List of address of exchanges\n     * }\n    */\n    function getAllExchanges(address _token) external view returns (address[] memory) {\n        return allExchanges[_token];\n    }\n}\n",
  "sourcePath": "/home/w/workspace/contracts/contracts/Cash36Exchanges.sol",
  "compiler": {
    "name": "solc",
    "version": "0.5.15+commit.6a57276f.Emscripten.clang"
  },
  "schemaVersion": "3.0.20",
  "updatedAt": "2020-01-17T08:40:04.870Z",
  "devdoc": {
    "author": "element36.io",
    "methods": {
      "addExchange(address,address)": {
        "details": "Exchange can not be another Smart ContractonlyOwner - only open to element36 Account",
        "params": {
          "_exchange": "Address of the exchange"
        }
      },
      "getAllExchanges(address)": {
        "details": "Note: Due to limitations of solidity, this method returns the full list of every address ever registered.It does not consider exchanges, which might have been flagged false afterwards.Therefore to be sure, an additional call to isAllowedExchange, would be necessary.",
        "params": {
          "_token": "Address of the token"
        },
        "return": "{  \"address[]\": List of address of exchanges }"
      },
      "isAllowedExchange(address,address)": {
        "params": {
          "_exchange": "Address of the exchange"
        },
        "return": "{  \"bool\": \"true when Exchange is listed\" }"
      },
      "isOwner()": {
        "details": "Returns true if the caller is the current owner."
      },
      "owner()": {
        "details": "Returns the address of the current owner."
      },
      "removeExchange(address,address)": {
        "details": "onlyOwner - only open to element36 Account",
        "params": {
          "_exchange": "Address of the exchange"
        }
      },
      "renounceOwnership()": {
        "details": "Leaves the contract without owner. It will not be possible to call `onlyOwner` functions anymore. Can only be called by the current owner.     * NOTE: Renouncing ownership will leave the contract without an owner, thereby removing any functionality that is only available to the owner."
      },
      "transferOwnership(address)": {
        "details": "Transfers ownership of the contract to a new account (`newOwner`). Can only be called by the current owner."
      }
    },
    "title": "Cash36 Exchanges Contract"
  },
  "userdoc": {
    "methods": {
      "addExchange(address,address)": {
        "notice": "Add an exchange to the list of accepted Exchanges"
      },
      "getAllExchanges(address)": {
        "notice": "Returns all registered exchange addresses for a given token address."
      },
      "isAllowedExchange(address,address)": {
        "notice": "Check if an exchange is on the list of accepted Exchanges"
      },
      "removeExchange(address,address)": {
        "notice": "Remove an exchange from the list of accepted Exchanges"
      }
    },
    "notice": "Is responsible for keeping track of all registered Exchanges."
  }
}