{
  "contractName": "Cash36",
  "abi": [
    {
      "constant": true,
      "inputs": [],
      "name": "owner",
      "outputs": [
        {
          "name": "",
          "type": "address"
        }
      ],
      "payable": false,
      "stateMutability": "view",
      "type": "function"
    },
    {
      "constant": false,
      "inputs": [
        {
          "name": "newOwner",
          "type": "address"
        }
      ],
      "name": "transferOwnership",
      "outputs": [],
      "payable": false,
      "stateMutability": "nonpayable",
      "type": "function"
    },
    {
      "inputs": [
        {
          "name": "_cash36Kyc",
          "type": "address"
        }
      ],
      "payable": false,
      "stateMutability": "nonpayable",
      "type": "constructor"
    },
    {
      "anonymous": false,
      "inputs": [
        {
          "indexed": false,
          "name": "_name",
          "type": "string"
        },
        {
          "indexed": false,
          "name": "_symbol",
          "type": "string"
        },
        {
          "indexed": false,
          "name": "tokenAddress",
          "type": "address"
        },
        {
          "indexed": false,
          "name": "tokenControllerAddress",
          "type": "address"
        }
      ],
      "name": "TokenCreated",
      "type": "event"
    },
    {
      "anonymous": false,
      "inputs": [
        {
          "indexed": true,
          "name": "previousOwner",
          "type": "address"
        },
        {
          "indexed": true,
          "name": "newOwner",
          "type": "address"
        }
      ],
      "name": "OwnershipTransferred",
      "type": "event"
    },
    {
      "constant": false,
      "inputs": [
        {
          "name": "_name",
          "type": "string"
        },
        {
          "name": "_symbol",
          "type": "string"
        }
      ],
      "name": "createNewToken",
      "outputs": [],
      "payable": false,
      "stateMutability": "nonpayable",
      "type": "function"
    },
    {
      "constant": true,
      "inputs": [],
      "name": "getTokens",
      "outputs": [
        {
          "name": "",
          "type": "address[]"
        }
      ],
      "payable": false,
      "stateMutability": "view",
      "type": "function"
    },
    {
      "constant": true,
      "inputs": [
        {
          "name": "_symbol",
          "type": "string"
        }
      ],
      "name": "isCash36Token",
      "outputs": [
        {
          "name": "",
          "type": "bool"
        }
      ],
      "payable": false,
      "stateMutability": "view",
      "type": "function"
    },
    {
      "constant": true,
      "inputs": [
        {
          "name": "_symbol",
          "type": "string"
        }
      ],
      "name": "getTokenBySymbol",
      "outputs": [
        {
          "name": "",
          "type": "address"
        }
      ],
      "payable": false,
      "stateMutability": "view",
      "type": "function"
    },
    {
      "constant": true,
      "inputs": [
        {
          "name": "_tokenAddress",
          "type": "address"
        }
      ],
      "name": "getTokenController",
      "outputs": [
        {
          "name": "",
          "type": "address"
        }
      ],
      "payable": false,
      "stateMutability": "view",
      "type": "function"
    },
    {
      "constant": false,
      "inputs": [
        {
          "name": "_exchange",
          "type": "address"
        }
      ],
      "name": "addExchange",
      "outputs": [],
      "payable": false,
      "stateMutability": "nonpayable",
      "type": "function"
    },
    {
      "constant": false,
      "inputs": [
        {
          "name": "_exchange",
          "type": "address"
        }
      ],
      "name": "removeExchange",
      "outputs": [],
      "payable": false,
      "stateMutability": "nonpayable",
      "type": "function"
    },
    {
      "constant": true,
      "inputs": [
        {
          "name": "_exchange",
          "type": "address"
        }
      ],
      "name": "isAllowedExchange",
      "outputs": [
        {
          "name": "",
          "type": "bool"
        }
      ],
      "payable": false,
      "stateMutability": "view",
      "type": "function"
    }
  ],
  "bytecode": "0x6060604052341561000f57600080fd5b6040516020806124a28339810160405280805160008054600160a060020a03338116600160a060020a0319928316179092556005805492909316911617905550506124438061005f6000396000f30060606040526004361061008a5763ffffffff60e060020a6000350416634661aecb811461008f57806385ba7269146100c25780638da5cb5b146100ee5780638e0be3691461011d578063a10aa9641461013c578063aa10ce221461015a578063aa6ca80814610179578063df4fc054146101df578063efa74f1f146101fe578063f2fde38b1461021c575b600080fd5b341561009a57600080fd5b6100ae600160a060020a036004351661023b565b604051901515815260200160405180910390f35b34156100cd57600080fd5b6100ec6024600480358281019290820135918135918201910135610259565b005b34156100f957600080fd5b6101016105ea565b604051600160a060020a03909116815260200160405180910390f35b341561012857600080fd5b6100ec600160a060020a03600435166105f9565b341561014757600080fd5b6100ae6004803560248101910135610635565b341561016557600080fd5b6100ec600160a060020a0360043516610668565b341561018457600080fd5b61018c6106ba565b60405160208082528190810183818151815260200191508051906020019060200280838360005b838110156101cb5780820151838201526020016101b3565b505050509050019250505060405180910390f35b34156101ea57600080fd5b610101600160a060020a0360043516610723565b341561020957600080fd5b6101016004803560248101910135610769565b341561022757600080fd5b6100ec600160a060020a03600435166107f1565b600160a060020a031660009081526006602052604090205460ff1690565b600160a060020a033316600090815260066020526040812054819060ff16151561028257600080fd5b60405160405190819003902086866040518083838082843782019150509250505060405190819003902014156102b757600080fd5b60405160405190819003902084846040518083838082843782019150509250505060405190819003902014156102ec57600080fd5b60028484604051808383808284378201915050925050509081526020016040519081900390205460ff161561032057600080fd5b8585858561032c6108b9565b604080825281018490528060208101606082018787808284379091018481038352858152602001905085858082843782019150509650505050505050604051809103906000f080151561037e57600080fd5b600154909250600385856040518083838082843782019150509250505090815260200160405190819003902055600180548082016103bc83826108c9565b506000918252602090912001805473ffffffffffffffffffffffffffffffffffffffff1916600160a060020a03841617905560016002858560405180838380828437820191505092505050908152602001604051908190039020805460ff19169115159190911790556005548290600160a060020a031661043b6108f2565b600160a060020a0392831681529116602082015260409081019051809103906000f080151561046957600080fd5b600160a060020a0383811660009081526004602052604090819020805473ffffffffffffffffffffffffffffffffffffffff191692841692831790559192509063f2fde38b9033905160e060020a63ffffffff8416028152600160a060020a039091166004820152602401600060405180830381600087803b15156104ed57600080fd5b5af115156104fa57600080fd5b50505081600160a060020a0316633cebb8238260405160e060020a63ffffffff8416028152600160a060020a039091166004820152602401600060405180830381600087803b151561054b57600080fd5b5af1151561055857600080fd5b5050507fb3773c23b761d9f7b0ece5a1dc5f679ab7c2e67f4707f7bc08aa9c3d07d196df868686868686604051600160a060020a0380841660408301528216606082015260808082528101869052806020810160a082018989808284379091018481038352878152602001905087878082843782019150509850505050505050505060405180910390a1505050505050565b600054600160a060020a031681565b60005433600160a060020a0390811691161461061457600080fd5b600160a060020a03166000908152600660205260409020805460ff19169055565b600060028383604051808383808284378201915050925050509081526020016040519081900390205460ff169392505050565b60005433600160a060020a0390811691161461068357600080fd5b61068c8161088c565b1561069657600080fd5b600160a060020a03166000908152600660205260409020805460ff19166001179055565b6106c2610902565b600180548060200260200160405190810160405280929190818152602001828054801561071857602002820191906000526020600020905b8154600160a060020a031681526001909101906020018083116106fa575b505050505090505b90565b600160a060020a03331660009081526006602052604081205460ff16151561074a57600080fd5b50600160a060020a039081166000908152600460205260409020541690565b60008060028484604051808383808284378201915050925050509081526020016040519081900390205460ff1615156107a157600080fd5b6001600385856040518083838082843782019150509250505090815260200160405190819003902054815481106107d457fe5b600091825260209091200154600160a060020a0316949350505050565b60005433600160a060020a0390811691161461080c57600080fd5b600160a060020a038116151561082157600080fd5b600054600160a060020a0380831691167f8be0079c531659141344cd1fd0a4f28419497f9722a3daafe3b4186f6b6457e060405160405180910390a36000805473ffffffffffffffffffffffffffffffffffffffff1916600160a060020a0392909216919091179055565b600080600160a060020a03831615156108a857600091506108b3565b823b90506000811191505b50919050565b60405161100e8061093383390190565b8154818355818115116108ed576000838152602090206108ed918101908301610914565b505050565b604051610ad78061194183390190565b60206040519081016040526000815290565b61072091905b8082111561092e576000815560010161091a565b50905600606060405234156200001057600080fd5b6040516200100e3803806200100e8339810160405280805182019190602001805160008054600160a060020a03191633600160a060020a0316179055919091019050600282805162000067929160200190620000db565b5060038180516200007d929160200190620000db565b506007805460ff19166001179055620000a364010000000062000e37620000ab82021704565b50506200017d565b60015415620000b957600080fd5b620000d164010000000062000e51620000d682021704565b600155565b435b90565b828054600181600116156101000203166002900490600052602060002090601f016020900481019282601f106200011e57805160ff19168380011785556200014e565b828001600101855582156200014e579182015b828111156200014e57825182559160200191906001019062000131565b506200015c92915062000160565b5090565b620000d891905b808211156200015c576000815560010162000167565b610e81806200018d6000396000f3006060604052600436106100e25763ffffffff60e060020a60003504166306fdde03811461017a578063095ea7b31461020457806318160ddd1461023a57806323b872dd1461025f5780632e0f2625146102875780633cebb823146102b05780634ee2cd7e146102cf57806370a08231146102f1578063827f32c0146103105780638b3dd7491461033257806395d89b4114610345578063981b24d014610358578063a9059cbb1461036e578063bef97c8714610390578063d3ce77fe146103a3578063dd62ed3e146103c5578063f41e60c5146103ea578063f77c479114610402575b6000546100f790600160a060020a0316610431565b151561010257600080fd5b600054600160a060020a031663f48c3054343360405160e060020a63ffffffff8516028152600160a060020a0390911660048201526024016020604051808303818588803b151561015257600080fd5b5af1151561015f57600080fd5b5050505060405180511515600114905061017857600080fd5b005b341561018557600080fd5b61018d61045e565b60405160208082528190810183818151815260200191508051906020019080838360005b838110156101c95780820151838201526020016101b1565b50505050905090810190601f1680156101f65780820380516001836020036101000a031916815260200191505b509250505060405180910390f35b341561020f57600080fd5b610226600160a060020a03600435166024356104fc565b604051901515815260200160405180910390f35b341561024557600080fd5b61024d6105b4565b60405190815260200160405180910390f35b341561026a57600080fd5b610226600160a060020a03600435811690602435166044356105c5565b341561029257600080fd5b61029a610667565b60405160ff909116815260200160405180910390f35b34156102bb57600080fd5b610178600160a060020a036004351661066c565b34156102da57600080fd5b61024d600160a060020a03600435166024356106b6565b34156102fc57600080fd5b61024d600160a060020a03600435166106d8565b341561031b57600080fd5b610226600160a060020a03600435166024356106ea565b341561033d57600080fd5b61024d6107ba565b341561035057600080fd5b61018d6107c0565b341561036357600080fd5b61024d60043561082b565b341561037957600080fd5b610226600160a060020a0360043516602435610838565b341561039b57600080fd5b610226610857565b34156103ae57600080fd5b610226600160a060020a0360043516602435610860565b34156103d057600080fd5b61024d600160a060020a036004358116906024351661092a565b34156103f557600080fd5b6101786004351515610955565b341561040d57600080fd5b610415610983565b604051600160a060020a03909116815260200160405180910390f35b600080600160a060020a038316151561044d5760009150610458565b823b90506000811191505b50919050565b60028054600181600116156101000203166002900480601f0160208091040260200160405190810160405280929190818152602001828054600181600116156101000203166002900480156104f45780601f106104c9576101008083540402835291602001916104f4565b820191906000526020600020905b8154815290600101906020018083116104d757829003601f168201915b505050505081565b60075460009060ff16151561051057600080fd5b8115806105405750600160a060020a03338116600090815260066020908152604080832093871683529290522054155b151561054b57600080fd5b600160a060020a03338116600081815260066020908152604080832094881680845294909152908190208590557f8c5be1e5ebec7d5bd14f71427d1e84f3dd0314c0f7b2291e5b200ac8c7c3b9259085905190815260200160405180910390a350600192915050565b60006105bf4361082b565b90505b90565b6000805433600160a060020a039081169116146106525760075460ff1615156105ed57600080fd5b600160a060020a03808516600090815260066020908152604080832033909416835292905220548290101561062457506000610660565b600160a060020a03808516600090815260066020908152604080832033909416835292905220805483900390555b61065d848484610992565b90505b9392505050565b601281565b60005433600160a060020a0390811691161461068757600080fd5b6000805473ffffffffffffffffffffffffffffffffffffffff1916600160a060020a0392909216919091179055565b600160a060020a03821660009081526004602052604081206106609083610b53565b60006106e482436106b6565b92915050565b600080548190819033600160a060020a0390811691161461070a57600080fd5b6107126105b4565b91508382018290101561072457600080fd5b61072d856106d8565b90508381018190101561073f57600080fd5b61074c6005858401610cdf565b600160a060020a038516600090815260046020526040902061077090828601610cdf565b84600160a060020a031660007fddf252ad1be2c89b69c2b068fc378daa952ba7f163c4a11628f55a4df523b3ef8660405190815260200160405180910390a3506001949350505050565b60015490565b60038054600181600116156101000203166002900480601f0160208091040260200160405190810160405280929190818152602001828054600181600116156101000203166002900480156104f45780601f106104c9576101008083540402835291602001916104f4565b60006106e4600583610b53565b60075460009060ff16151561084c57600080fd5b610660338484610992565b60075460ff1681565b600080548190819033600160a060020a0390811691161461088057600080fd5b6108886105b4565b91508382101561089757600080fd5b6108a0856106d8565b9050838110156108af57600080fd5b6108bc6005858403610cdf565b600160a060020a03851660009081526004602052604090206108e090858303610cdf565b600085600160a060020a03167fddf252ad1be2c89b69c2b068fc378daa952ba7f163c4a11628f55a4df523b3ef8660405190815260200160405180910390a3506001949350505050565b600160a060020a03918216600090815260066020908152604080832093909416825291909152205490565b60005433600160a060020a0390811691161461097057600080fd5b6007805460ff1916911515919091179055565b600054600160a060020a031681565b600080808315156109a65760019250610b4a565b600160a060020a038516158015906109d0575030600160a060020a031685600160a060020a031614155b15156109db57600080fd5b6109e586436106b6565b9150838210156109f85760009250610b4a565b600054610a0d90600160a060020a0316610431565b15610a9a57600054600160a060020a0316634a39314987878760405160e060020a63ffffffff8616028152600160a060020a0393841660048201529190921660248201526044810191909152606401602060405180830381600087803b1515610a7557600080fd5b5af11515610a8257600080fd5b505050604051805115156001149050610a9a57600080fd5b600160a060020a0386166000908152600460205260409020610abe90858403610cdf565b610ac885436106b6565b905083810181901015610ada57600080fd5b600160a060020a0385166000908152600460205260409020610afe90828601610cdf565b84600160a060020a031686600160a060020a03167fddf252ad1be2c89b69c2b068fc378daa952ba7f163c4a11628f55a4df523b3ef8660405190815260200160405180910390a3600192505b50509392505050565b600080600080858054905060001415610b6f5760009350610cd6565b855486906000198101908110610b8157fe5b6000918252602090912001546fffffffffffffffffffffffffffffffff168510610bf057855486906000198101908110610bb757fe5b60009182526020909120015470010000000000000000000000000000000090046fffffffffffffffffffffffffffffffff169350610cd6565b856000815481101515610bff57fe5b6000918252602090912001546fffffffffffffffffffffffffffffffff16851015610c2d5760009350610cd6565b8554600093506000190191505b82821115610c93576002600183850101049050848682815481101515610c5c57fe5b6000918252602090912001546fffffffffffffffffffffffffffffffff1611610c8757809250610c8e565b6001810391505b610c3a565b8583815481101515610ca157fe5b60009182526020909120015470010000000000000000000000000000000090046fffffffffffffffffffffffffffffffff1693505b50505092915050565b815460009081901580610d2157508354439085906000198101908110610d0157fe5b6000918252602090912001546fffffffffffffffffffffffffffffffff16105b15610d9c5783548490610d378260018301610df0565b81548110610d4157fe5b600091825260209091200180546fffffffffffffffffffffffffffffffff858116700100000000000000000000000000000000024382166fffffffffffffffffffffffffffffffff1990931692909217161781559150610dea565b835484906000198101908110610dae57fe5b600091825260209091200180546fffffffffffffffffffffffffffffffff80861670010000000000000000000000000000000002911617815590505b50505050565b815481835581811511610e1457600083815260209020610e14918101908301610e19565b505050565b6105c291905b80821115610e335760008155600101610e1f565b5090565b60015415610e4457600080fd5b610e4c610e51565b600155565b43905600a165627a7a72305820b62bc747c9b74739c081a87d2ec816e912d44567086feb4ae603b1668ff4c9de00296060604052600019600655341561001557600080fd5b604051604080610ad7833981016040528080519190602001805160008054600160a060020a03338116600160a060020a031992831617909255600180549683169682169690961790955560028054919092169416939093179092555050610a56806100816000396000f3006060604052600436106100c15763ffffffff60e060020a6000350416632a11ced081146100c657806340c10f19146100f857806342f57e4c1461011c5780634a39314914610140578063798deed71461017c5780638da5cb5b1461019b5780639dc29fac146101ae578063c80a3aa6146101d0578063c8368e7414610236578063ecfda43214610255578063f2fde38b1461027a578063f41e60c514610299578063f48c3054146102b1578063fbb64114146102c5578063fc0c546a146102db575b600080fd5b34156100d157600080fd5b6100dc6004356102ee565b604051600160a060020a03909116815260200160405180910390f35b341561010357600080fd5b61011a600160a060020a0360043516602435610316565b005b341561012757600080fd5b61011a600160a060020a0360043516602435151561042d565b341561014b57600080fd5b610168600160a060020a0360043581169060243516604435610471565b604051901515815260200160405180910390f35b341561018757600080fd5b61011a600160a060020a036004351661059b565b34156101a657600080fd5b6100dc6105e5565b34156101b957600080fd5b61011a600160a060020a03600435166024356105f4565b34156101db57600080fd5b6101e3610680565b60405160208082528190810183818151815260200191508051906020019060200280838360005b8381101561022257808201518382015260200161020a565b505050509050019250505060405180910390f35b341561024157600080fd5b610168600160a060020a03600435166106e9565b341561026057600080fd5b610268610708565b60405190815260200160405180910390f35b341561028557600080fd5b61011a600160a060020a036004351661070e565b34156102a457600080fd5b61011a60043515156107a9565b610168600160a060020a036004351661081f565b34156102d057600080fd5b61011a600435610845565b34156102e657600080fd5b6100dc610865565b60038054829081106102fc57fe5b600091825260209091200154600160a060020a0316905081565b60005433600160a060020a0390811691161461033157600080fd5b61033a82610874565b15156103b257600254600160a060020a0316631e9d48cf8360405160e060020a63ffffffff8416028152600160a060020a039091166004820152602401602060405180830381600087803b151561039057600080fd5b5af1151561039d57600080fd5b5050506040518051905015156103b257600080fd5b600154600160a060020a031663827f32c0838360405160e060020a63ffffffff8516028152600160a060020a0390921660048301526024820152604401602060405180830381600087803b151561040857600080fd5b5af1151561041557600080fd5b5050506040518051905050610429826108a1565b5050565b60005433600160a060020a0390811691161461044857600080fd5b600160a060020a039091166000908152600560205260409020805460ff19169115919091179055565b600154600090819033600160a060020a0390811691161461049157600080fd5b61049a84610874565b151561058557600160a060020a03851660009081526005602052604090205460ff16156104ca5760009150610593565b600160a060020a03841660009081526005602052604090205460ff16156104f45760009150610593565b600254600160a060020a0316631e9d48cf8560405160e060020a63ffffffff8416028152600160a060020a039091166004820152602401602060405180830381600087803b151561054457600080fd5b5af1151561055157600080fd5b505050604051805191505080151561056c5760009150610593565b6105768484610935565b15156105855760009150610593565b61058e846108a1565b600191505b509392505050565b60005433600160a060020a039081169116146105b657600080fd5b6002805473ffffffffffffffffffffffffffffffffffffffff1916600160a060020a0392909216919091179055565b600054600160a060020a031681565b60005433600160a060020a0390811691161461060f57600080fd5b600154600160a060020a031663d3ce77fe838360405160e060020a63ffffffff8516028152600160a060020a0390921660048301526024820152604401602060405180830381600087803b151561066557600080fd5b5af1151561067257600080fd5b505050604051805150505050565b6106886109d1565b60038054806020026020016040519081016040528092919081815260200182805480156106de57602002820191906000526020600020905b8154600160a060020a031681526001909101906020018083116106c0575b505050505090505b90565b600160a060020a031660009081526005602052604090205460ff161590565b60065481565b60005433600160a060020a0390811691161461072957600080fd5b600160a060020a038116151561073e57600080fd5b600054600160a060020a0380831691167f8be0079c531659141344cd1fd0a4f28419497f9722a3daafe3b4186f6b6457e060405160405180910390a36000805473ffffffffffffffffffffffffffffffffffffffff1916600160a060020a0392909216919091179055565b60005433600160a060020a039081169116146107c457600080fd5b600154600160a060020a031663f41e60c58260405160e060020a63ffffffff84160281529015156004820152602401600060405180830381600087803b151561080c57600080fd5b5af1151561081957600080fd5b50505050565b60015460009033600160a060020a0390811691161461083d57600080fd5b506000919050565b60005433600160a060020a0390811691161461086057600080fd5b600655565b600154600160a060020a031681565b600080600160a060020a0383161515610890576000915061089b565b823b90506000811191505b50919050565b600160a060020a03811660009081526004602052604090205460ff16156108c757610932565b600160a060020a0381166000908152600460205260409020805460ff1916600190811790915560038054909181016108ff83826109e3565b506000918252602090912001805473ffffffffffffffffffffffffffffffffffffffff1916600160a060020a0383161790555b50565b600654600154600091906109b5908490600160a060020a03166370a082318760405160e060020a63ffffffff8416028152600160a060020a039091166004820152602401602060405180830381600087803b151561099257600080fd5b5af1151561099f57600080fd5b505050604051805191905063ffffffff6109be16565b11159392505050565b818101828110156109cb57fe5b92915050565b60206040519081016040526000815290565b815481835581811511610a0757600083815260209020610a07918101908301610a0c565b505050565b6106e691905b80821115610a265760008155600101610a12565b50905600a165627a7a7230582017c93d62949eefbefba04325c07ba613ebbaab653410fc908518813a60d22b7f0029a165627a7a7230582046d8687aedec7170509232d9d0127b1232bce2f4c53fa72be1e1461af8d064420029",
  "source": "pragma solidity 0.4.21;\n\nimport \"openzeppelin-solidity/contracts/ownership/Ownable.sol\";\nimport \"./Token36.sol\";\nimport \"./Token36Controller.sol\";\n\n\n/// @title Cash36 Index Contract\n/// @author element36.io\ncontract Cash36 is Ownable {\n\n    // Token Storage\n    address[] tokens;\n    mapping(string => bool) registeredSymbol;\n    mapping(string => uint256) tokenIndexBySymbol;\n    mapping(address => address) tokenControllerByTokenAddress;\n\n    address cash36KycAddress;\n\n    // Whitelisted Exchanges\n    mapping(address => bool) allowedExchanges;\n\n    modifier onlyAllowedExchanges {\n        require(allowedExchanges[msg.sender]);\n        _;\n    }\n\n    // Event\n    event TokenCreated(string _name, string _symbol, address tokenAddress, address tokenControllerAddress);\n\n    // Constructor\n    function Cash36(address _cash36Kyc) public {\n        cash36KycAddress = _cash36Kyc;\n    }\n\n    /**\n     * @notice Create a new Token36\n     * @dev Also creates a token controller with given KYC Provider (Calls Event TokenCreated on success)\n     * @param _name Name of the token (as with ERC20)\n     * @param _symbol Symbol of the token (as with ERC20)\n     */\n    function createNewToken(string _name, string _symbol) external onlyAllowedExchanges {\n        require(keccak256(_name) != keccak256(\"\"));\n        require(keccak256(_symbol) != keccak256(\"\"));\n        require(registeredSymbol[_symbol] == false);\n\n        Token36 newToken = new Token36(_name, _symbol);\n\n        tokenIndexBySymbol[_symbol] = tokens.length;\n        tokens.push(newToken);\n        registeredSymbol[_symbol] = true;\n\n        Token36Controller newController = new Token36Controller(newToken, cash36KycAddress);\n        tokenControllerByTokenAddress[newToken] = address(newController);\n\n        // Transfer Ownership of controller to Exchange who creates the Token\n        newController.transferOwnership(msg.sender);\n\n        // Set new Controller as token controller\n        newToken.changeController(address(newController));\n\n        emit TokenCreated(_name, _symbol, address(newToken), address(newController));\n    }\n\n    /**\n      @notice Get all Cash36 Tokens\n      @return address array of all cash36 tokens\n    */\n    function getTokens() external view returns (address[]) {\n        return tokens;\n    }\n\n    /**\n      @notice Check if token with given symbl is a registered cash36 token\n      @param _symbol Symbol of the Token to be checked\n      @return bool true if token is a registered and active cash36 token\n    */\n    function isCash36Token(string _symbol) external view returns (bool) {\n        return registeredSymbol[_symbol];\n    }\n\n    /**\n      @notice Get the Token address by symbol\n      @param _symbol Symbol of the Token\n    */\n    function getTokenBySymbol(string _symbol) external view returns (address) {\n        require(registeredSymbol[_symbol]);\n        address tokenAddress = tokens[tokenIndexBySymbol[_symbol]];\n\n        return tokenAddress;\n    }\n\n    /**\n      @notice Get the TokenController address\n      @param _tokenAddress Address of the Token\n    */\n    function getTokenController(address _tokenAddress) external view onlyAllowedExchanges returns (address) {\n        return tokenControllerByTokenAddress[_tokenAddress];\n    }\n\n    /**\n      @notice Add an exchange to the whitelist\n      @param _exchange Address of the exchange\n    */\n    function addExchange(address _exchange) external onlyOwner {\n        require(isContract(_exchange) == false);\n        allowedExchanges[_exchange] = true;\n    }\n\n    /**\n      @notice Remove an exchange from the whitelist\n      @param _exchange Address of the exchange\n    */\n    function removeExchange(address _exchange) external onlyOwner {\n        allowedExchanges[_exchange] = false;\n    }\n\n    /**\n      @notice Check if an exchange is on the whitelist\n      @param _exchange Address of the exchange\n    */\n    function isAllowedExchange(address _exchange) external view returns (bool) {\n        return allowedExchanges[_exchange];\n    }\n\n    /// INTERNAL\n    function isContract(address _address) internal view returns(bool) {\n        uint size;\n        if (_address == 0) {\n            return false;\n        }\n        assembly {\n            size := extcodesize(_address)\n        }\n        return size > 0;\n    }\n}",
  "sourcePath": "/builds/cash36/contracts/contracts/Cash36.sol",
  "compiler": {
    "name": "solc",
    "version": "0.4.21+commit.dfe3193c.Emscripten.clang"
  },
  "schemaVersion": "2.0.0",
  "updatedAt": "2018-06-15T09:55:51.176Z"
}