{
  "contractName": "Cash36Compliance",
  "abi": [
    {
      "constant": true,
      "inputs": [
        {
          "name": "_addressToCheck",
          "type": "address"
        }
      ],
      "name": "isOfficer",
      "outputs": [
        {
          "name": "",
          "type": "bool"
        }
      ],
      "payable": false,
      "stateMutability": "view",
      "type": "function",
      "signature": "0x6816442d"
    },
    {
      "constant": false,
      "inputs": [],
      "name": "renounceOwnership",
      "outputs": [],
      "payable": false,
      "stateMutability": "nonpayable",
      "type": "function",
      "signature": "0x715018a6"
    },
    {
      "constant": false,
      "inputs": [
        {
          "name": "_newComplianceOfficer",
          "type": "address"
        }
      ],
      "name": "changeOfficer",
      "outputs": [],
      "payable": false,
      "stateMutability": "nonpayable",
      "type": "function",
      "signature": "0x76ed9f5e"
    },
    {
      "constant": true,
      "inputs": [],
      "name": "owner",
      "outputs": [
        {
          "name": "",
          "type": "address"
        }
      ],
      "payable": false,
      "stateMutability": "view",
      "type": "function",
      "signature": "0x8da5cb5b"
    },
    {
      "constant": true,
      "inputs": [],
      "name": "isOwner",
      "outputs": [
        {
          "name": "",
          "type": "bool"
        }
      ],
      "payable": false,
      "stateMutability": "view",
      "type": "function",
      "signature": "0x8f32d59b"
    },
    {
      "constant": true,
      "inputs": [],
      "name": "complianceOfficer",
      "outputs": [
        {
          "name": "",
          "type": "address"
        }
      ],
      "payable": false,
      "stateMutability": "view",
      "type": "function",
      "signature": "0xc4a56fc8"
    },
    {
      "constant": false,
      "inputs": [
        {
          "name": "newOwner",
          "type": "address"
        }
      ],
      "name": "transferOwnership",
      "outputs": [],
      "payable": false,
      "stateMutability": "nonpayable",
      "type": "function",
      "signature": "0xf2fde38b"
    },
    {
      "anonymous": false,
      "inputs": [
        {
          "indexed": true,
          "name": "previousOwner",
          "type": "address"
        },
        {
          "indexed": true,
          "name": "newOwner",
          "type": "address"
        }
      ],
      "name": "OwnershipTransferred",
      "type": "event",
      "signature": "0x8be0079c531659141344cd1fd0a4f28419497f9722a3daafe3b4186f6b6457e0"
    },
    {
      "constant": false,
      "inputs": [
        {
          "name": "_user",
          "type": "address"
        }
      ],
      "name": "addUser",
      "outputs": [],
      "payable": false,
      "stateMutability": "nonpayable",
      "type": "function",
      "signature": "0x421b2d8b"
    },
    {
      "constant": true,
      "inputs": [
        {
          "name": "_user",
          "type": "address"
        }
      ],
      "name": "checkUser",
      "outputs": [
        {
          "name": "",
          "type": "bool"
        }
      ],
      "payable": false,
      "stateMutability": "view",
      "type": "function",
      "signature": "0x1e9d48cf"
    },
    {
      "constant": true,
      "inputs": [
        {
          "name": "_user",
          "type": "address"
        },
        {
          "name": "_amount",
          "type": "uint256"
        },
        {
          "name": "_balance",
          "type": "uint256"
        }
      ],
      "name": "checkUserLimit",
      "outputs": [
        {
          "name": "",
          "type": "bool"
        }
      ],
      "payable": false,
      "stateMutability": "view",
      "type": "function",
      "signature": "0x6b618ff9"
    },
    {
      "constant": true,
      "inputs": [
        {
          "name": "_user",
          "type": "address"
        }
      ],
      "name": "getUserLimit",
      "outputs": [
        {
          "name": "",
          "type": "uint256"
        }
      ],
      "payable": false,
      "stateMutability": "view",
      "type": "function",
      "signature": "0xe9587e86"
    },
    {
      "constant": false,
      "inputs": [
        {
          "name": "_user",
          "type": "address"
        },
        {
          "name": "_limit",
          "type": "uint256"
        }
      ],
      "name": "setUserLimit",
      "outputs": [],
      "payable": false,
      "stateMutability": "nonpayable",
      "type": "function",
      "signature": "0xdc9f235b"
    },
    {
      "constant": false,
      "inputs": [
        {
          "name": "_user",
          "type": "address"
        }
      ],
      "name": "setUserLimitToUnlimited",
      "outputs": [],
      "payable": false,
      "stateMutability": "nonpayable",
      "type": "function",
      "signature": "0x601c0a7a"
    },
    {
      "constant": false,
      "inputs": [
        {
          "name": "_who",
          "type": "address"
        },
        {
          "name": "_attribute",
          "type": "bytes32"
        },
        {
          "name": "_value",
          "type": "uint256"
        }
      ],
      "name": "setAttribute",
      "outputs": [],
      "payable": false,
      "stateMutability": "nonpayable",
      "type": "function",
      "signature": "0xaf3105e5"
    },
    {
      "constant": true,
      "inputs": [
        {
          "name": "_who",
          "type": "address"
        },
        {
          "name": "_attribute",
          "type": "bytes32"
        }
      ],
      "name": "hasAttribute",
      "outputs": [
        {
          "name": "",
          "type": "bool"
        }
      ],
      "payable": false,
      "stateMutability": "view",
      "type": "function",
      "signature": "0x7338c25c"
    },
    {
      "constant": true,
      "inputs": [
        {
          "name": "_user",
          "type": "address"
        }
      ],
      "name": "isOnBlacklist",
      "outputs": [
        {
          "name": "",
          "type": "bool"
        }
      ],
      "payable": false,
      "stateMutability": "view",
      "type": "function",
      "signature": "0x1e622050"
    },
    {
      "constant": false,
      "inputs": [
        {
          "name": "_user",
          "type": "address"
        }
      ],
      "name": "blockUser",
      "outputs": [],
      "payable": false,
      "stateMutability": "nonpayable",
      "type": "function",
      "signature": "0x3da01325"
    },
    {
      "constant": false,
      "inputs": [
        {
          "name": "_user",
          "type": "address"
        }
      ],
      "name": "unblockUser",
      "outputs": [],
      "payable": false,
      "stateMutability": "nonpayable",
      "type": "function",
      "signature": "0x39d319e5"
    },
    {
      "constant": false,
      "inputs": [
        {
          "name": "_user",
          "type": "address"
        }
      ],
      "name": "lockAccountForever",
      "outputs": [],
      "payable": false,
      "stateMutability": "nonpayable",
      "type": "function",
      "signature": "0xcd54adea"
    }
  ],
  "bytecode": "0x60806040819052600080546001600160a01b03191633178082556001600160a01b0316917f8be0079c531659141344cd1fd0a4f28419497f9722a3daafe3b4186f6b6457e0908290a3600180546001600160a01b03191633179055610847806100696000396000f3fe608060405234801561001057600080fd5b50600436106101215760003560e01c80637338c25c116100ad578063c4a56fc811610071578063c4a56fc814610330578063cd54adea14610338578063dc9f235b1461035e578063e9587e861461038a578063f2fde38b146103c257610121565b80637338c25c1461028057806376ed9f5e146102ac5780638da5cb5b146102d25780638f32d59b146102f6578063af3105e5146102fe57610121565b8063421b2d8b116100f4578063421b2d8b146101d4578063601c0a7a146101fa5780636816442d146102205780636b618ff914610246578063715018a61461027857610121565b80631e622050146101265780631e9d48cf1461016057806339d319e5146101865780633da01325146101ae575b600080fd5b61014c6004803603602081101561013c57600080fd5b50356001600160a01b03166103e8565b604080519115158252519081900360200190f35b61014c6004803603602081101561017657600080fd5b50356001600160a01b031661040a565b6101ac6004803603602081101561019c57600080fd5b50356001600160a01b0316610485565b005b6101ac600480360360208110156101c457600080fd5b50356001600160a01b03166104bd565b6101ac600480360360208110156101ea57600080fd5b50356001600160a01b03166104f8565b6101ac6004803603602081101561021057600080fd5b50356001600160a01b0316610541565b61014c6004803603602081101561023657600080fd5b50356001600160a01b0316610576565b61014c6004803603606081101561025c57600080fd5b506001600160a01b03813516906020810135906040013561058a565b6101ac6105be565b61014c6004803603604081101561029657600080fd5b506001600160a01b038135169060200135610619565b6101ac600480360360208110156102c257600080fd5b50356001600160a01b0316610646565b6102da61067f565b604080516001600160a01b039092168252519081900360200190f35b61014c61068e565b6101ac6004803603606081101561031457600080fd5b506001600160a01b03813516906020810135906040013561069f565b6102da6106f8565b6101ac6004803603602081101561034e57600080fd5b50356001600160a01b0316610707565b6101ac6004803603604081101561037457600080fd5b506001600160a01b038135169060200135610742565b6103b0600480360360208110156103a057600080fd5b50356001600160a01b0316610775565b60408051918252519081900360200190f35b6101ac600480360360208110156103d857600080fd5b50356001600160a01b0316610790565b6001600160a01b03811660009081526005602052604090205460ff165b919050565b6001600160a01b03811660009081526002602052604081205460ff16801561044b57506001600160a01b03821660009081526005602052604090205460ff16155b801561047057506001600160a01b03821660009081526006602052604090205460ff16155b1561047d57506001610405565b506000919050565b6001546001600160a01b0316331461049c57600080fd5b6001600160a01b03166000908152600560205260409020805460ff19169055565b6001546001600160a01b031633146104d457600080fd5b6001600160a01b03166000908152600560205260409020805460ff19166001179055565b6001546001600160a01b0316331461050f57600080fd5b6001600160a01b03166000908152600260209081526040808320805460ff191660011790556004909152902060c89055565b6001546001600160a01b0316331461055857600080fd5b6001600160a01b031660009081526004602052604090206000199055565b6001546001600160a01b0391821691161490565b6001600160a01b038316600090815260046020526040812054828401116105b3575060016105b7565b5060005b9392505050565b6105c661068e565b6105cf57600080fd5b600080546040516001600160a01b03909116907f8be0079c531659141344cd1fd0a4f28419497f9722a3daafe3b4186f6b6457e0908390a3600080546001600160a01b0319169055565b6001600160a01b039190911660009081526003602090815260408083209383529290522060010154151590565b6001546001600160a01b0316331461065d57600080fd5b600180546001600160a01b0319166001600160a01b0392909216919091179055565b6000546001600160a01b031690565b6000546001600160a01b0316331490565b6001546001600160a01b031633146106b657600080fd5b60408051808201825283815260208082019384526001600160a01b03909516600090815260038652828120948152939094529091209151825551600190910155565b6001546001600160a01b031681565b6001546001600160a01b0316331461071e57600080fd5b6001600160a01b03166000908152600660205260409020805460ff19166001179055565b6001546001600160a01b0316331461075957600080fd5b6001600160a01b03909116600090815260046020526040902055565b6001600160a01b031660009081526004602052604090205490565b61079861068e565b6107a157600080fd5b6107aa816107ad565b50565b6001600160a01b0381166107c057600080fd5b600080546040516001600160a01b03808516939216917f8be0079c531659141344cd1fd0a4f28419497f9722a3daafe3b4186f6b6457e091a3600080546001600160a01b0319166001600160a01b039290921691909117905556fea165627a7a72305820597ef824a524f65aacd1a5ba6b596adfc645275433f1e52a6fe7c97bd0d2ce4c0029",
  "source": "pragma solidity ^0.5.7;\n\nimport \"openzeppelin-solidity/contracts/ownership/Ownable.sol\";\nimport \"./HasOfficer.sol\";\n\n\n/// @title Cash36 Compliance Contract\n/// @notice Is responsible for keeping track of all KYCed users, users blacklist and attributes.\n/// @author element36.io\ncontract Cash36Compliance is Ownable, HasOfficer {\n\n    // Tracks KYCed users\n    mapping(address => bool) private users;\n\n    // Allow attributes for KYCed Users for a better ACL like BUY, SELL, SEND, RECEIVE\n    struct Attribute {\n        bytes32 attribute;\n        uint256 value;\n    }\n    mapping(address => mapping(bytes32 => Attribute)) attributes;\n\n    // Tracks current User transfer limits\n    mapping(address => uint256) private userLimits;\n\n    // Tracks blacklisted users - 'overrides' KYCed users\n    mapping(address => bool) private blacklist;\n\n    mapping(address => bool) private lockedAccounts;\n\n    /**\n     * @notice Add user once he passed KYC process\n     * @dev onlyComplianceOfficer - only open to assigned Compliance Officer Account\n     * @param _user Address of the KYCed user\n     */\n    function addUser(address _user) public onlyComplianceOfficer {\n        users[_user] = true;\n        userLimits[_user] = 200;\n    }\n\n    /**\n     * @notice Check User if registered and if on blacklist\n     * @param _user Address of the user\n     * @return {\n     *   \"bool\": \"True when User is KYCed and not on Blacklist\"\n     * }\n     */\n    function checkUser(address _user) public view returns (bool) {\n        if (users[_user] && !blacklist[_user] && !lockedAccounts[_user]) {\n            return true;\n        }\n        return false;\n    }\n\n    /**\n     * @notice Check if a given amount is within the current limit of the User\n     * @param _user Address of the user\n     * @param _amount Amount of the transaction\n     * @param _balance Current balance of the user\n     * @return {\n     *   \"bool\": \"True when balance plus amount is smaller than the user limit\"\n     * }\n     */\n    function checkUserLimit(address _user, uint256 _amount, uint256 _balance) public view returns (bool) {\n        if (_balance + _amount <= userLimits[_user]) {\n            return true;\n        }\n        return false;\n    }\n\n    /**\n     * @notice Get the limit of the user\n     * @param _user Address of the user\n     * @return {\n     *   \"uint256\": \"The current user limit\"\n     * }\n     */\n    function getUserLimit(address _user) public view returns (uint256) {\n        return userLimits[_user];\n    }\n\n    /**\n     * @notice Set the limit of the user\n     * @dev onlyComplianceOfficer - only open to assigned Compliance Officer Account\n     * @param _user Address of the user\n     * @param _limit New limit of the user\n     */\n    function setUserLimit(address _user, uint256 _limit) public onlyComplianceOfficer {\n        userLimits[_user] = _limit;\n    }\n\n    /**\n     * @notice Helper for web3j as passing -1 fails\n     * @dev onlyComplianceOfficer - only open to assigned Compliance Officer Account\n     * @param _user Address of the user\n     */\n    function setUserLimitToUnlimited(address _user) public onlyComplianceOfficer {\n        userLimits[_user] = uint256(-1);\n    }\n\n    function setAttribute(address _who, bytes32 _attribute, uint256 _value) public onlyComplianceOfficer {\n        attributes[_who][_attribute] = Attribute(_attribute, _value);\n    }\n\n    function hasAttribute(address _who, bytes32 _attribute) public view returns (bool) {\n        return attributes[_who][_attribute].value != 0;\n    }\n\n    /**\n     * @notice Check User if on Blacklist\n     * @param _user Address of the user\n     * @return {\n     *   \"bool\": \"True when User is listed on Blacklist\"\n     * }\n     */\n    function isOnBlacklist(address _user) public view returns (bool) {\n        return blacklist[_user];\n    }\n\n    /**\n     * @notice Blocking User by adding him onto the Blacklist\n     * @dev onlyComplianceOfficer - only open to assigned Compliance Officer Account\n     * @param _user Address of the user\n     */\n    function blockUser(address _user) public onlyComplianceOfficer {\n        blacklist[_user] = true;\n    }\n\n    /**\n     * @notice Unblocking User by removing him from the Blacklist\n     * @dev onlyComplianceOfficer - only open to assigned Compliance Officer Account\n     * @param _user Address of the user\n     */\n    function unblockUser(address _user) public onlyComplianceOfficer {\n        blacklist[_user] = false;\n    }\n\n    // Irreversible call - like Credit card\n    function lockAccountForever(address _user) public onlyComplianceOfficer {\n        lockedAccounts[_user] = true;\n    }\n}",
  "sourcePath": "/Users/bum/element36/dev/cash36/contracts/contracts/Cash36Compliance.sol",
  "compiler": {
    "name": "solc",
    "version": "0.5.7+commit.6da8b019.Emscripten.clang"
  },
  "schemaVersion": "3.0.6",
  "updatedAt": "2019-04-11T08:46:10.190Z",
  "devdoc": {
    "author": "element36.io",
    "methods": {
      "addUser(address)": {
        "details": "onlyComplianceOfficer - only open to assigned Compliance Officer Account",
        "params": {
          "_user": "Address of the KYCed user"
        }
      },
      "blockUser(address)": {
        "details": "onlyComplianceOfficer - only open to assigned Compliance Officer Account",
        "params": {
          "_user": "Address of the user"
        }
      },
      "changeOfficer(address)": {
        "details": "onlyComplianceOfficer - only open to the currently assigned compliance Officer",
        "params": {
          "_newComplianceOfficer": "The new compliance officer of the contract"
        }
      },
      "checkUser(address)": {
        "params": {
          "_user": "Address of the user"
        },
        "return": "{  \"bool\": \"True when User is KYCed and not on Blacklist\" }"
      },
      "checkUserLimit(address,uint256,uint256)": {
        "params": {
          "_amount": "Amount of the transaction",
          "_balance": "Current balance of the user",
          "_user": "Address of the user"
        },
        "return": "{  \"bool\": \"True when balance plus amount is smaller than the user limit\" }"
      },
      "getUserLimit(address)": {
        "params": {
          "_user": "Address of the user"
        },
        "return": "{  \"uint256\": \"The current user limit\" }"
      },
      "isOfficer(address)": {
        "params": {
          "_addressToCheck": "Address to be checked"
        },
        "return": "{  \"bool\": \"True when address is the currently assigned complianceOfficer\" }"
      },
      "isOnBlacklist(address)": {
        "params": {
          "_user": "Address of the user"
        },
        "return": "{  \"bool\": \"True when User is listed on Blacklist\" }"
      },
      "isOwner()": {
        "return": "true if `msg.sender` is the owner of the contract."
      },
      "owner()": {
        "return": "the address of the owner."
      },
      "renounceOwnership()": {
        "details": "Allows the current owner to relinquish control of the contract. It will not be possible to call the functions with the `onlyOwner` modifier anymore."
      },
      "setUserLimit(address,uint256)": {
        "details": "onlyComplianceOfficer - only open to assigned Compliance Officer Account",
        "params": {
          "_limit": "New limit of the user",
          "_user": "Address of the user"
        }
      },
      "setUserLimitToUnlimited(address)": {
        "details": "onlyComplianceOfficer - only open to assigned Compliance Officer Account",
        "params": {
          "_user": "Address of the user"
        }
      },
      "transferOwnership(address)": {
        "details": "Allows the current owner to transfer control of the contract to a newOwner.",
        "params": {
          "newOwner": "The address to transfer ownership to."
        }
      },
      "unblockUser(address)": {
        "details": "onlyComplianceOfficer - only open to assigned Compliance Officer Account",
        "params": {
          "_user": "Address of the user"
        }
      }
    },
    "title": "Cash36 Compliance Contract"
  },
  "userdoc": {
    "methods": {
      "addUser(address)": {
        "notice": "Add user once he passed KYC process"
      },
      "blockUser(address)": {
        "notice": "Blocking User by adding him onto the Blacklist"
      },
      "changeOfficer(address)": {
        "notice": "Changes the ComplianceOfficer of the contract"
      },
      "checkUser(address)": {
        "notice": "Check User if registered and if on blacklist"
      },
      "checkUserLimit(address,uint256,uint256)": {
        "notice": "Check if a given amount is within the current limit of the User"
      },
      "getUserLimit(address)": {
        "notice": "Get the limit of the user"
      },
      "isOfficer(address)": {
        "notice": "Check if given address it the assigned Compliance Officer"
      },
      "isOnBlacklist(address)": {
        "notice": "Check User if on Blacklist"
      },
      "renounceOwnership()": {
        "notice": "Renouncing ownership will leave the contract without an owner, thereby removing any functionality that is only available to the owner."
      },
      "setUserLimit(address,uint256)": {
        "notice": "Set the limit of the user"
      },
      "setUserLimitToUnlimited(address)": {
        "notice": "Helper for web3j as passing -1 fails"
      },
      "unblockUser(address)": {
        "notice": "Unblocking User by removing him from the Blacklist"
      }
    },
    "notice": "Is responsible for keeping track of all KYCed users, users blacklist and attributes."
  }
}