{
  "contractName": "Cash36Exchanges",
  "abi": [
    {
      "constant": false,
      "inputs": [],
      "name": "renounceOwnership",
      "outputs": [],
      "payable": false,
      "stateMutability": "nonpayable",
      "type": "function",
      "signature": "0x715018a6"
    },
    {
      "constant": true,
      "inputs": [],
      "name": "owner",
      "outputs": [
        {
          "name": "",
          "type": "address"
        }
      ],
      "payable": false,
      "stateMutability": "view",
      "type": "function",
      "signature": "0x8da5cb5b"
    },
    {
      "constant": true,
      "inputs": [],
      "name": "isOwner",
      "outputs": [
        {
          "name": "",
          "type": "bool"
        }
      ],
      "payable": false,
      "stateMutability": "view",
      "type": "function",
      "signature": "0x8f32d59b"
    },
    {
      "constant": false,
      "inputs": [
        {
          "name": "newOwner",
          "type": "address"
        }
      ],
      "name": "transferOwnership",
      "outputs": [],
      "payable": false,
      "stateMutability": "nonpayable",
      "type": "function",
      "signature": "0xf2fde38b"
    },
    {
      "anonymous": false,
      "inputs": [
        {
          "indexed": true,
          "name": "previousOwner",
          "type": "address"
        },
        {
          "indexed": true,
          "name": "newOwner",
          "type": "address"
        }
      ],
      "name": "OwnershipTransferred",
      "type": "event",
      "signature": "0x8be0079c531659141344cd1fd0a4f28419497f9722a3daafe3b4186f6b6457e0"
    },
    {
      "constant": false,
      "inputs": [
        {
          "name": "_exchange",
          "type": "address"
        },
        {
          "name": "_token",
          "type": "address"
        }
      ],
      "name": "addExchange",
      "outputs": [],
      "payable": false,
      "stateMutability": "nonpayable",
      "type": "function",
      "signature": "0x7f604b45"
    },
    {
      "constant": false,
      "inputs": [
        {
          "name": "_exchange",
          "type": "address"
        },
        {
          "name": "_token",
          "type": "address"
        }
      ],
      "name": "removeExchange",
      "outputs": [],
      "payable": false,
      "stateMutability": "nonpayable",
      "type": "function",
      "signature": "0xf00065b6"
    },
    {
      "constant": true,
      "inputs": [
        {
          "name": "_exchange",
          "type": "address"
        },
        {
          "name": "_token",
          "type": "address"
        }
      ],
      "name": "isAllowedExchange",
      "outputs": [
        {
          "name": "",
          "type": "bool"
        }
      ],
      "payable": false,
      "stateMutability": "view",
      "type": "function",
      "signature": "0xea13d8a1"
    },
    {
      "constant": true,
      "inputs": [
        {
          "name": "_token",
          "type": "address"
        }
      ],
      "name": "getAllowedExchanges",
      "outputs": [
        {
          "name": "",
          "type": "address[]"
        }
      ],
      "payable": false,
      "stateMutability": "view",
      "type": "function",
      "signature": "0x9a0f8719"
    }
  ],
  "bytecode": "0x60806040819052600080546001600160a01b03191633178082556001600160a01b0316917f8be0079c531659141344cd1fd0a4f28419497f9722a3daafe3b4186f6b6457e0908290a3610487806100576000396000f3fe608060405234801561001057600080fd5b50600436106100885760003560e01c80639a0f87191161005b5780639a0f871914610105578063ea13d8a11461017b578063f00065b6146101a9578063f2fde38b146101d757610088565b8063715018a61461008d5780637f604b45146100975780638da5cb5b146100c55780638f32d59b146100e9575b600080fd5b6100956101fd565b005b610095600480360360408110156100ad57600080fd5b506001600160a01b0381358116916020013516610258565b6100cd6102c8565b604080516001600160a01b039092168252519081900360200190f35b6100f16102d7565b604080519115158252519081900360200190f35b61012b6004803603602081101561011b57600080fd5b50356001600160a01b03166102e8565b60408051602080825283518183015283519192839290830191858101910280838360005b8381101561016757818101518382015260200161014f565b505050509050019250505060405180910390f35b6100f16004803603604081101561019157600080fd5b506001600160a01b038135811691602001351661035e565b610095600480360360408110156101bf57600080fd5b506001600160a01b038135811691602001351661038d565b610095600480360360208110156101ed57600080fd5b50356001600160a01b03166103d0565b6102056102d7565b61020e57600080fd5b600080546040516001600160a01b03909116907f8be0079c531659141344cd1fd0a4f28419497f9722a3daafe3b4186f6b6457e0908390a3600080546001600160a01b0319169055565b6102606102d7565b61026957600080fd5b6001600160a01b039081166000818152600160208181526040808420805480850182559085528285200180546001600160a01b03191697909616968717909555928252600283528382209482529390915220805460ff19169091179055565b6000546001600160a01b031690565b6000546001600160a01b0316331490565b6001600160a01b03811660009081526001602090815260409182902080548351818402810184019094528084526060939283018282801561035257602002820191906000526020600020905b81546001600160a01b03168152600190910190602001808311610334575b50505050509050919050565b6001600160a01b0380821660009081526002602090815260408083209386168352929052205460ff1692915050565b6103956102d7565b61039e57600080fd5b6001600160a01b039081166000908152600260209081526040808320949093168252929092529020805460ff19169055565b6103d86102d7565b6103e157600080fd5b6103ea816103ed565b50565b6001600160a01b03811661040057600080fd5b600080546040516001600160a01b03808516939216917f8be0079c531659141344cd1fd0a4f28419497f9722a3daafe3b4186f6b6457e091a3600080546001600160a01b0319166001600160a01b039290921691909117905556fea165627a7a7230582094373039e80161265ea521e643919184b2b64ca76be56f14844ed4b6383353ab0029",
  "source": "pragma solidity ^0.5.7;\n\nimport \"openzeppelin-solidity/contracts/ownership/Ownable.sol\";\n\n\n/// @title Cash36 Exchanges Contract\n/// @notice Is responsible for keeping track of all allowed Exchanges.\n/// @author element36.io\ncontract Cash36Exchanges is Ownable {\n\n    // Whitelisted Exchanges per token\n    mapping(address => address[]) private allExchanges;\n    mapping(address => mapping(address => bool)) private allowedExchanges;\n\n    /**\n     * @notice Add an exchange to the list of accepted Exchanges\n     * @dev Exchange can not be another Smart Contract\n     * @dev onlyOwner - only open to element36 Account\n     * @param _exchange Address of the exchange\n     */\n    function addExchange(address _exchange, address _token) external onlyOwner {\n        allExchanges[_token].push(_exchange);\n        allowedExchanges[_token][_exchange] = true;\n    }\n\n    /**\n     * @notice Remove an exchange from the list of accepted Exchanges\n     * @dev onlyOwner - only open to element36 Account\n     * @param _exchange Address of the exchange\n     */\n    function removeExchange(address _exchange, address _token) external onlyOwner {\n        allowedExchanges[_token][_exchange] = false;\n    }\n\n    /**\n     * @notice Check if an exchange is on the list of accepted Exchanges\n     * @param _exchange Address of the exchange\n     * @return {\n     *   \"bool\": \"True when Exchange is listed\"\n     * }\n     */\n    function isAllowedExchange(address _exchange, address _token) external view returns (bool) {\n        return allowedExchanges[_token][_exchange];\n    }\n\n    /**\n     * @notice Returns all registered exchange addresses for a given token address.\n     * @dev Note: Due to limitations of solidity, this method returns the full list of every address ever registered.\n     * @dev It does not consider exchanges, which might have been flagged false afterwards.\n     * @dev Therefore to be sure, an additional call to isAllowedExchange, would be necessary.\n     * @param _token Address of the token\n     * @return {\n     *   \"address[]\": List of address of exchanges\n     * }\n    */\n    function getAllowedExchanges(address _token) external view returns (address[] memory) {\n        return allExchanges[_token];\n    }\n}\n",
  "sourcePath": "/Users/bum/element36/dev/cash36/contracts/contracts/Cash36Exchanges.sol",
  "compiler": {
    "name": "solc",
    "version": "0.5.7+commit.6da8b019.Emscripten.clang"
  },
  "schemaVersion": "3.0.6",
  "updatedAt": "2019-04-11T08:46:10.184Z",
  "devdoc": {
    "author": "element36.io",
    "methods": {
      "addExchange(address,address)": {
        "details": "Exchange can not be another Smart ContractonlyOwner - only open to element36 Account",
        "params": {
          "_exchange": "Address of the exchange"
        }
      },
      "getAllowedExchanges(address)": {
        "details": "Note: Due to limitations of solidity, this method returns the full list of every address ever registered.It does not consider exchanges, which might have been flagged false afterwards.Therefore to be sure, an additional call to isAllowedExchange, would be necessary.",
        "params": {
          "_token": "Address of the token"
        },
        "return": "{  \"address[]\": List of address of exchanges }"
      },
      "isAllowedExchange(address,address)": {
        "params": {
          "_exchange": "Address of the exchange"
        },
        "return": "{  \"bool\": \"True when Exchange is listed\" }"
      },
      "isOwner()": {
        "return": "true if `msg.sender` is the owner of the contract."
      },
      "owner()": {
        "return": "the address of the owner."
      },
      "removeExchange(address,address)": {
        "details": "onlyOwner - only open to element36 Account",
        "params": {
          "_exchange": "Address of the exchange"
        }
      },
      "renounceOwnership()": {
        "details": "Allows the current owner to relinquish control of the contract. It will not be possible to call the functions with the `onlyOwner` modifier anymore."
      },
      "transferOwnership(address)": {
        "details": "Allows the current owner to transfer control of the contract to a newOwner.",
        "params": {
          "newOwner": "The address to transfer ownership to."
        }
      }
    },
    "title": "Cash36 Exchanges Contract"
  },
  "userdoc": {
    "methods": {
      "addExchange(address,address)": {
        "notice": "Add an exchange to the list of accepted Exchanges"
      },
      "getAllowedExchanges(address)": {
        "notice": "Returns all registered exchange addresses for a given token address."
      },
      "isAllowedExchange(address,address)": {
        "notice": "Check if an exchange is on the list of accepted Exchanges"
      },
      "removeExchange(address,address)": {
        "notice": "Remove an exchange from the list of accepted Exchanges"
      },
      "renounceOwnership()": {
        "notice": "Renouncing ownership will leave the contract without an owner, thereby removing any functionality that is only available to the owner."
      }
    },
    "notice": "Is responsible for keeping track of all allowed Exchanges."
  }
}