{
  "contractName": "Cash36Compliance",
  "abi": [
    {
      "constant": false,
      "inputs": [
        {
          "internalType": "address",
          "name": "newComplianceOfficer",
          "type": "address"
        }
      ],
      "name": "changeOfficer",
      "outputs": [],
      "payable": false,
      "stateMutability": "nonpayable",
      "type": "function"
    },
    {
      "constant": true,
      "inputs": [],
      "name": "complianceOfficer",
      "outputs": [
        {
          "internalType": "address",
          "name": "",
          "type": "address"
        }
      ],
      "payable": false,
      "stateMutability": "view",
      "type": "function"
    },
    {
      "constant": true,
      "inputs": [
        {
          "internalType": "address",
          "name": "addressToCheck",
          "type": "address"
        }
      ],
      "name": "isOfficer",
      "outputs": [
        {
          "internalType": "bool",
          "name": "",
          "type": "bool"
        }
      ],
      "payable": false,
      "stateMutability": "view",
      "type": "function"
    },
    {
      "constant": false,
      "inputs": [
        {
          "internalType": "address",
          "name": "_user",
          "type": "address"
        }
      ],
      "name": "addUser",
      "outputs": [],
      "payable": false,
      "stateMutability": "nonpayable",
      "type": "function"
    },
    {
      "constant": false,
      "inputs": [
        {
          "internalType": "address",
          "name": "_user",
          "type": "address"
        }
      ],
      "name": "activateUser",
      "outputs": [],
      "payable": false,
      "stateMutability": "nonpayable",
      "type": "function"
    },
    {
      "constant": false,
      "inputs": [
        {
          "internalType": "address",
          "name": "_user",
          "type": "address"
        }
      ],
      "name": "deactivateUser",
      "outputs": [],
      "payable": false,
      "stateMutability": "nonpayable",
      "type": "function"
    },
    {
      "constant": false,
      "inputs": [
        {
          "internalType": "address",
          "name": "_company",
          "type": "address"
        }
      ],
      "name": "addCompany",
      "outputs": [],
      "payable": false,
      "stateMutability": "nonpayable",
      "type": "function"
    },
    {
      "constant": true,
      "inputs": [
        {
          "internalType": "address",
          "name": "_company",
          "type": "address"
        }
      ],
      "name": "isCompany",
      "outputs": [
        {
          "internalType": "bool",
          "name": "",
          "type": "bool"
        }
      ],
      "payable": false,
      "stateMutability": "view",
      "type": "function"
    },
    {
      "constant": true,
      "inputs": [
        {
          "internalType": "address",
          "name": "_user",
          "type": "address"
        }
      ],
      "name": "checkUser",
      "outputs": [
        {
          "internalType": "bool",
          "name": "",
          "type": "bool"
        }
      ],
      "payable": false,
      "stateMutability": "view",
      "type": "function"
    },
    {
      "constant": true,
      "inputs": [
        {
          "internalType": "address",
          "name": "_user",
          "type": "address"
        },
        {
          "internalType": "uint256",
          "name": "_amount",
          "type": "uint256"
        },
        {
          "internalType": "uint256",
          "name": "_balance",
          "type": "uint256"
        }
      ],
      "name": "checkUserLimit",
      "outputs": [
        {
          "internalType": "bool",
          "name": "",
          "type": "bool"
        }
      ],
      "payable": false,
      "stateMutability": "view",
      "type": "function"
    },
    {
      "constant": true,
      "inputs": [
        {
          "internalType": "address",
          "name": "_user",
          "type": "address"
        }
      ],
      "name": "getUserLimit",
      "outputs": [
        {
          "internalType": "uint256",
          "name": "",
          "type": "uint256"
        }
      ],
      "payable": false,
      "stateMutability": "view",
      "type": "function"
    },
    {
      "constant": false,
      "inputs": [
        {
          "internalType": "address",
          "name": "_user",
          "type": "address"
        },
        {
          "internalType": "uint256",
          "name": "_limit",
          "type": "uint256"
        }
      ],
      "name": "setUserLimit",
      "outputs": [],
      "payable": false,
      "stateMutability": "nonpayable",
      "type": "function"
    },
    {
      "constant": false,
      "inputs": [
        {
          "internalType": "address",
          "name": "_user",
          "type": "address"
        }
      ],
      "name": "setUserLimitToUnlimited",
      "outputs": [],
      "payable": false,
      "stateMutability": "nonpayable",
      "type": "function"
    },
    {
      "constant": false,
      "inputs": [
        {
          "internalType": "address",
          "name": "_user",
          "type": "address"
        },
        {
          "internalType": "bytes32",
          "name": "_attribute",
          "type": "bytes32"
        },
        {
          "internalType": "uint256",
          "name": "_value",
          "type": "uint256"
        }
      ],
      "name": "setAttribute",
      "outputs": [],
      "payable": false,
      "stateMutability": "nonpayable",
      "type": "function"
    },
    {
      "constant": true,
      "inputs": [
        {
          "internalType": "address",
          "name": "_user",
          "type": "address"
        },
        {
          "internalType": "bytes32",
          "name": "_attribute",
          "type": "bytes32"
        }
      ],
      "name": "hasAttribute",
      "outputs": [
        {
          "internalType": "bool",
          "name": "",
          "type": "bool"
        }
      ],
      "payable": false,
      "stateMutability": "view",
      "type": "function"
    },
    {
      "constant": true,
      "inputs": [
        {
          "internalType": "address",
          "name": "_user",
          "type": "address"
        }
      ],
      "name": "isOnBlacklist",
      "outputs": [
        {
          "internalType": "bool",
          "name": "",
          "type": "bool"
        }
      ],
      "payable": false,
      "stateMutability": "view",
      "type": "function"
    },
    {
      "constant": false,
      "inputs": [
        {
          "internalType": "address",
          "name": "_user",
          "type": "address"
        }
      ],
      "name": "blockUser",
      "outputs": [],
      "payable": false,
      "stateMutability": "nonpayable",
      "type": "function"
    },
    {
      "constant": false,
      "inputs": [
        {
          "internalType": "address",
          "name": "_user",
          "type": "address"
        }
      ],
      "name": "unblockUser",
      "outputs": [],
      "payable": false,
      "stateMutability": "nonpayable",
      "type": "function"
    },
    {
      "constant": false,
      "inputs": [
        {
          "internalType": "address",
          "name": "_user",
          "type": "address"
        }
      ],
      "name": "lockAccountForever",
      "outputs": [],
      "payable": false,
      "stateMutability": "nonpayable",
      "type": "function"
    },
    {
      "constant": true,
      "inputs": [
        {
          "internalType": "address",
          "name": "_user",
          "type": "address"
        }
      ],
      "name": "isOnLockedAccounts",
      "outputs": [
        {
          "internalType": "bool",
          "name": "",
          "type": "bool"
        }
      ],
      "payable": false,
      "stateMutability": "view",
      "type": "function"
    }
  ],
  "bytecode": "0x6080604052600080546001600160a01b03191633179055610daf806100256000396000f3fe608060405234801561001057600080fd5b506004361061012c5760003560e01c80637338c25c116100ad578063bc9a1a6411610071578063bc9a1a641461039f578063c4a56fc8146103c5578063cd54adea146103e9578063dc9f235b1461040f578063e9587e861461043b5761012c565b80637338c25c146102cf57806376ed9f5e146102fb578063a0406ce214610321578063af3105e514610347578063b4acfe1c146103795761012c565b8063421b2d8b116100f4578063421b2d8b14610205578063601c0a7a1461022b578063634513ca146102515780636816442d146102775780636b618ff91461029d5761012c565b80631a47767b146101315780631e622050146101595780631e9d48cf1461019357806339d319e5146101b95780633da01325146101df575b600080fd5b6101576004803603602081101561014757600080fd5b50356001600160a01b0316610473565b005b61017f6004803603602081101561016f57600080fd5b50356001600160a01b031661059b565b604080519115158252519081900360200190f35b61017f600480360360208110156101a957600080fd5b50356001600160a01b03166105bd565b610157600480360360208110156101cf57600080fd5b50356001600160a01b0316610638565b610157600480360360208110156101f557600080fd5b50356001600160a01b03166106a2565b6101576004803603602081101561021b57600080fd5b50356001600160a01b031661070f565b6101576004803603602081101561024157600080fd5b50356001600160a01b03166107c2565b6101576004803603602081101561026757600080fd5b50356001600160a01b0316610829565b61017f6004803603602081101561028d57600080fd5b50356001600160a01b0316610981565b61017f600480360360608110156102b357600080fd5b506001600160a01b038135169060208101359060400135610995565b61017f600480360360408110156102e557600080fd5b506001600160a01b0381351690602001356109c9565b6101576004803603602081101561031157600080fd5b50356001600160a01b03166109f6565b61017f6004803603602081101561033757600080fd5b50356001600160a01b0316610a61565b6101576004803603606081101561035d57600080fd5b506001600160a01b038135169060208101359060400135610a7f565b6101576004803603602081101561038f57600080fd5b50356001600160a01b0316610b0a565b61017f600480360360208110156103b557600080fd5b50356001600160a01b0316610c36565b6103cd610c54565b604080516001600160a01b039092168252519081900360200190f35b610157600480360360208110156103ff57600080fd5b50356001600160a01b0316610c63565b6101576004803603604081101561042557600080fd5b506001600160a01b038135169060200135610cd0565b6104616004803603602081101561045157600080fd5b50356001600160a01b0316610d35565b60408051918252519081900360200190f35b6000546001600160a01b031633146104bc5760405162461bcd60e51b815260040180806020018281038252602a815260200180610d51602a913960400191505060405180910390fd5b60408051808201825267415454525f42555960c01b808252600060208084018281526001600160a01b0390961682526003815284822092825282815284822093518455945160019384015583518085018552681055151497d4d1531360ba1b808252818701838152908352838752858320915182555190840155835180850185526b415454525f5245434549564560a01b80825281870183815290835283875285832091518255519084015583518085018552681055151497d4d1539160ba1b8082528187018381529083529290955292909220925183559051910155565b6001600160a01b03811660009081526005602052604090205460ff165b919050565b6001600160a01b03811660009081526001602052604081205460ff1680156105fe57506001600160a01b03821660009081526005602052604090205460ff16155b801561062357506001600160a01b03821660009081526006602052604090205460ff16155b15610630575060016105b8565b506000919050565b6000546001600160a01b031633146106815760405162461bcd60e51b815260040180806020018281038252602a815260200180610d51602a913960400191505060405180910390fd5b6001600160a01b03166000908152600560205260409020805460ff19169055565b6000546001600160a01b031633146106eb5760405162461bcd60e51b815260040180806020018281038252602a815260200180610d51602a913960400191505060405180910390fd5b6001600160a01b03166000908152600560205260409020805460ff19166001179055565b6000546001600160a01b031633146107585760405162461bcd60e51b815260040180806020018281038252602a815260200180610d51602a913960400191505060405180910390fd5b6001600160a01b03166000818152600160208181526040808420805460ff1916841790556004825280842060001990558051808201825267415454525f42555960c01b80825281840185815296865260038452828620908652909252909220915182559151910155565b6000546001600160a01b0316331461080b5760405162461bcd60e51b815260040180806020018281038252602a815260200180610d51602a913960400191505060405180910390fd5b6001600160a01b031660009081526004602052604090206000199055565b6000546001600160a01b031633146108725760405162461bcd60e51b815260040180806020018281038252602a815260200180610d51602a913960400191505060405180910390fd5b6001600160a01b03166000818152600160208181526040808420805460ff199081168517909155600283528185208054909116841790556004825280842060001990558051808201825267415454525f42555960c01b808252818401858152968652600384528286209086528084528286209151825595519084015580518082018252681055151497d4d1531360ba1b808252818401858152908652868452828620915182555190840155805180820182526b415454525f5245434549564560a01b80825281840185815290865286845282862091518255519084015580518082018252681055151497d4d1539160ba1b80825281840185815290865295909252909220915182559151910155565b6000546001600160a01b0391821691161490565b6001600160a01b038316600090815260046020526040812054828401116109be575060016109c2565b5060005b9392505050565b6001600160a01b039190911660009081526003602090815260408083209383529290522060010154151590565b6000546001600160a01b03163314610a3f5760405162461bcd60e51b815260040180806020018281038252602a815260200180610d51602a913960400191505060405180910390fd5b600080546001600160a01b0319166001600160a01b0392909216919091179055565b6001600160a01b031660009081526002602052604090205460ff1690565b6000546001600160a01b03163314610ac85760405162461bcd60e51b815260040180806020018281038252602a815260200180610d51602a913960400191505060405180910390fd5b60408051808201825283815260208082019384526001600160a01b03909516600090815260038652828120948152939094529091209151825551600190910155565b6000546001600160a01b03163314610b535760405162461bcd60e51b815260040180806020018281038252602a815260200180610d51602a913960400191505060405180910390fd5b60408051808201825267415454525f42555960c01b808252600160208084018281526001600160a01b039096166000908152600382528581209381528382528581209451855595519382019390935583518085018552681055151497d4d1531360ba1b808252818501838152908752838552858720915182555190820155835180850185526b415454525f5245434549564560a01b80825281850183815290875283855285872091518255519082015583518085018552681055151497d4d1539160ba1b8082528185018381529087529290935292909320905181559151910155565b6001600160a01b031660009081526006602052604090205460ff1690565b6000546001600160a01b031690565b6000546001600160a01b03163314610cac5760405162461bcd60e51b815260040180806020018281038252602a815260200180610d51602a913960400191505060405180910390fd5b6001600160a01b03166000908152600660205260409020805460ff19166001179055565b6000546001600160a01b03163314610d195760405162461bcd60e51b815260040180806020018281038252602a815260200180610d51602a913960400191505060405180910390fd5b6001600160a01b03909116600090815260046020526040902055565b6001600160a01b03166000908152600460205260409020549056fe616363657373206e6f7420616c6c6f7765642c206f6e6c7920636f6d706c69616e63654f666669636572a265627a7a72315820a5e96f4f536107bdca4e2e0cf328d6247f30db796119bd1d216786b2f942753064736f6c634300050f0032",
  "source": "pragma solidity ^0.5.9;\n\nimport \"./HasOfficer.sol\";\n\n\n/// @title Cash36 Compliance Contract\n/// @notice Is responsible for keeping track of all KYCed users (and possibly Companies), blacklist and attributes.\n/// @notice Changes to users can only be done be assigned compliance officer (=part of Compliance Backend Service)\n/// @author element36.io\ncontract Cash36Compliance is HasOfficer {\n\n    // Tracks KYCed users and companies\n    mapping(address => bool) private users;\n    mapping(address => bool) private companies;\n\n    // Allow attributes for KYCed Users for a better ACL like BUY, SELL, SEND, RECEIVE\n    struct Attribute {\n        bytes32 attribute;\n        uint256 value;\n    }\n    mapping(address => mapping(bytes32 => Attribute)) private attributes;\n\n    // Tracks current User transfer limits\n    mapping(address => uint256) private userLimits;\n\n    // Tracks blacklisted users - 'overrides' KYCed users\n    mapping(address => bool) private blacklist;\n\n    // Tracks forever locked accounts - like Credit cards - no unlocks\n    mapping(address => bool) private lockedAccounts;\n\n    /**\n     * @notice Add user once he passed KYC process\n     * @dev onlyComplianceOfficer - only open to assigned Compliance Officer Account\n     * @param _user Address of the KYCed user\n     */\n    function addUser(address _user) public onlyComplianceOfficer {\n        users[_user] = true;\n        userLimits[_user] = uint256(-1); // infinity number\n        attributes[_user][\"ATTR_BUY\"] = Attribute(\"ATTR_BUY\", 1);\n    }\n\n    /**\n     * @notice Sets ATTR_ attributes for initial activation (KYC-ing a user)\n     * @param _user Address of the user\n     */\n    function activateUser(address _user) public onlyComplianceOfficer {\n        attributes[_user][\"ATTR_BUY\"] = Attribute(\"ATTR_BUY\", 1);\n        attributes[_user][\"ATTR_SELL\"] = Attribute(\"ATTR_SELL\", 1);\n        attributes[_user][\"ATTR_RECEIVE\"] = Attribute(\"ATTR_RECEIVE\", 1);\n        attributes[_user][\"ATTR_SEND\"] = Attribute(\"ATTR_SEND\", 1);\n    }\n\n     /**\n     * @notice Sets ATTR_ attributes for deactivation of a user\n     * @param _user Address of the user\n     */\n    function deactivateUser(address _user) public onlyComplianceOfficer {\n        attributes[_user][\"ATTR_BUY\"] = Attribute(\"ATTR_BUY\", 0);\n        attributes[_user][\"ATTR_SELL\"] = Attribute(\"ATTR_SELL\", 0);\n        attributes[_user][\"ATTR_RECEIVE\"] = Attribute(\"ATTR_RECEIVE\", 0);\n        attributes[_user][\"ATTR_SEND\"] = Attribute(\"ATTR_SEND\", 0);\n    }\n\n\n    /**\n     * @notice Add company once it passed KYC process - after that Company is handled as a User\n     * @dev onlyComplianceOfficer - only open to assigned Compliance Officer Account\n     * @param _company Address of the KYCed company\n     */\n    function addCompany(address _company) public onlyComplianceOfficer {\n        users[_company] = true;\n        companies[_company] = true;\n        userLimits[_company] = uint256(-1);\n        attributes[_company][\"ATTR_BUY\"] = Attribute(\"ATTR_BUY\", 1);\n        attributes[_company][\"ATTR_SELL\"] = Attribute(\"ATTR_SELL\", 1);\n        attributes[_company][\"ATTR_RECEIVE\"] = Attribute(\"ATTR_RECEIVE\", 1);\n        attributes[_company][\"ATTR_SEND\"] = Attribute(\"ATTR_SEND\", 1);\n    }\n\n    /**\n     * @notice Check if a registered address is a KYCed element36 company\n     * @param _company Address of the user\n     * @return {\n     *   \"bool\": \"True when User is a registered company\"\n     * }\n     */\n    function isCompany(address _company) public view returns (bool) {\n        return companies[_company];\n    }\n\n    /**\n     * @notice Check User if registered and if on blacklist or account is locked\n     * @param _user Address of the user\n     * @return {\n     *   \"bool\": \"True when User is registereds and not on Blacklist\"\n     * }\n     */\n    function checkUser(address _user) public view returns (bool) {\n        if (users[_user] && !blacklist[_user] && !lockedAccounts[_user]) {\n            return true;\n        }\n        return false;\n    }\n\n    /**\n     * @notice Check if a given amount is within the current limit of the User\n     * @param _user Address of the user\n     * @param _amount Amount of the transaction\n     * @param _balance Current balance of the user\n     * @return {\n     *   \"bool\": \"True when balance plus amount is smaller than the user limit\"\n     * }\n     */\n    function checkUserLimit(address _user, uint256 _amount, uint256 _balance) public view returns (bool) {\n        if (_balance + _amount <= userLimits[_user]) {\n            return true;\n        }\n        return false;\n    }\n\n    /**\n     * @notice Get the limit of the user\n     * @param _user Address of the user\n     * @return {\n     *   \"uint256\": \"The current user limit\"\n     * }\n     */\n    function getUserLimit(address _user) public view returns (uint256) {\n        return userLimits[_user];\n    }\n\n    /**\n     * @notice Set the limit of the user\n     * @dev onlyComplianceOfficer - only open to assigned Compliance Officer Account\n     * @param _user Address of the user\n     * @param _limit New limit of the user\n     */\n    function setUserLimit(address _user, uint256 _limit) public onlyComplianceOfficer {\n        userLimits[_user] = _limit;\n    }\n\n    /**\n     * @notice Helper for web3j as passing -1 fails\n     * @dev onlyComplianceOfficer - only open to assigned Compliance Officer Account\n     * @param _user Address of the user\n     */\n    function setUserLimitToUnlimited(address _user) public onlyComplianceOfficer {\n        userLimits[_user] = uint256(-1);\n    }\n\n    /**\n     * @notice Set an attribute of the User\n     * @dev onlyComplianceOfficer - only open to assigned Compliance Officer Account\n     * @param _user Address of the user\n     * @param _attribute Name of the attribute\n     * @param _value value of the attribute (1 or 0)\n     */\n    function setAttribute(address _user, bytes32 _attribute, uint256 _value) public onlyComplianceOfficer {\n        attributes[_user][_attribute] = Attribute(_attribute, _value);\n    }\n\n    /**\n     * @notice Check if a User has a given attribute\n     * @param _user Address of the user\n     * @param _attribute Name of the attribute\n     */\n    function hasAttribute(address _user, bytes32 _attribute) public view returns (bool) {\n        return attributes[_user][_attribute].value != 0;\n    }\n\n    /**\n     * @notice Check User if on Blacklist\n     * @param _user Address of the user\n     * @return {\n     *   \"bool\": \"True when User is listed on Blacklist\"\n     * }\n     */\n    function isOnBlacklist(address _user) public view returns (bool) {\n        return blacklist[_user];\n    }\n\n    /**\n     * @notice Blocking User by adding him onto the Blacklist\n     * @dev onlyComplianceOfficer - only open to assigned Compliance Officer Account\n     * @param _user Address of the user\n     */\n    function blockUser(address _user) public onlyComplianceOfficer {\n        blacklist[_user] = true;\n    }\n\n    /**\n     * @notice Unblocking User by removing him from the Blacklist\n     * @dev onlyComplianceOfficer - only open to assigned Compliance Officer Account\n     * @param _user Address of the user\n     */\n    function unblockUser(address _user) public onlyComplianceOfficer {\n        blacklist[_user] = false;\n    }\n\n    /**\n     * @notice Lock the account of a given user - Irreversible call - like Credit card\n     * @dev onlyComplianceOfficer - only open to assigned Compliance Officer Account\n     * @param _user Address of the user\n     */\n    function lockAccountForever(address _user) public onlyComplianceOfficer {\n        lockedAccounts[_user] = true;\n    }\n\n       /**\n     * @notice Check User if on LockedAccountsList\n     * @param _user Address of the user\n     * @return {\n     *   \"bool\": \"True when User is listed on LockedAccountsList\"\n     * }\n     */\n    function isOnLockedAccounts(address _user) public view returns (bool) {\n        return lockedAccounts[_user];\n    }\n\n}",
  "sourcePath": "/home/w/workspace/contracts/contracts/Cash36Compliance.sol",
  "compiler": {
    "name": "solc",
    "version": "0.5.15+commit.6a57276f.Emscripten.clang"
  },
  "schemaVersion": "3.0.20",
  "updatedAt": "2020-01-28T10:35:28.964Z",
  "networkType": "ethereum",
  "devdoc": {
    "author": "element36.io",
    "methods": {
      "activateUser(address)": {
        "params": {
          "_user": "Address of the user"
        }
      },
      "addCompany(address)": {
        "details": "onlyComplianceOfficer - only open to assigned Compliance Officer Account",
        "params": {
          "_company": "Address of the KYCed company"
        }
      },
      "addUser(address)": {
        "details": "onlyComplianceOfficer - only open to assigned Compliance Officer Account",
        "params": {
          "_user": "Address of the KYCed user"
        }
      },
      "blockUser(address)": {
        "details": "onlyComplianceOfficer - only open to assigned Compliance Officer Account",
        "params": {
          "_user": "Address of the user"
        }
      },
      "changeOfficer(address)": {
        "details": "onlyComplianceOfficer - only open to the currently assigned compliance Officer",
        "params": {
          "newComplianceOfficer": "The new compliance officer of the contract"
        }
      },
      "checkUser(address)": {
        "params": {
          "_user": "Address of the user"
        },
        "return": "{  \"bool\": \"True when User is registereds and not on Blacklist\" }"
      },
      "checkUserLimit(address,uint256,uint256)": {
        "params": {
          "_amount": "Amount of the transaction",
          "_balance": "Current balance of the user",
          "_user": "Address of the user"
        },
        "return": "{  \"bool\": \"True when balance plus amount is smaller than the user limit\" }"
      },
      "deactivateUser(address)": {
        "params": {
          "_user": "Address of the user"
        }
      },
      "getUserLimit(address)": {
        "params": {
          "_user": "Address of the user"
        },
        "return": "{  \"uint256\": \"The current user limit\" }"
      },
      "hasAttribute(address,bytes32)": {
        "params": {
          "_attribute": "Name of the attribute",
          "_user": "Address of the user"
        }
      },
      "isCompany(address)": {
        "params": {
          "_company": "Address of the user"
        },
        "return": "{  \"bool\": \"True when User is a registered company\" }"
      },
      "isOfficer(address)": {
        "params": {
          "addressToCheck": "Address to be checked"
        },
        "return": "{  \"bool\": \"True when address is the currently assigned complianceOfficer\" }"
      },
      "isOnBlacklist(address)": {
        "params": {
          "_user": "Address of the user"
        },
        "return": "{  \"bool\": \"True when User is listed on Blacklist\" }"
      },
      "isOnLockedAccounts(address)": {
        "params": {
          "_user": "Address of the user"
        },
        "return": "{  \"bool\": \"True when User is listed on LockedAccountsList\" }"
      },
      "lockAccountForever(address)": {
        "details": "onlyComplianceOfficer - only open to assigned Compliance Officer Account",
        "params": {
          "_user": "Address of the user"
        }
      },
      "setAttribute(address,bytes32,uint256)": {
        "details": "onlyComplianceOfficer - only open to assigned Compliance Officer Account",
        "params": {
          "_attribute": "Name of the attribute",
          "_user": "Address of the user",
          "_value": "value of the attribute (1 or 0)"
        }
      },
      "setUserLimit(address,uint256)": {
        "details": "onlyComplianceOfficer - only open to assigned Compliance Officer Account",
        "params": {
          "_limit": "New limit of the user",
          "_user": "Address of the user"
        }
      },
      "setUserLimitToUnlimited(address)": {
        "details": "onlyComplianceOfficer - only open to assigned Compliance Officer Account",
        "params": {
          "_user": "Address of the user"
        }
      },
      "unblockUser(address)": {
        "details": "onlyComplianceOfficer - only open to assigned Compliance Officer Account",
        "params": {
          "_user": "Address of the user"
        }
      }
    },
    "title": "Cash36 Compliance Contract"
  },
  "userdoc": {
    "methods": {
      "activateUser(address)": {
        "notice": "Sets ATTR_ attributes for initial activation (KYC-ing a user)"
      },
      "addCompany(address)": {
        "notice": "Add company once it passed KYC process - after that Company is handled as a User"
      },
      "addUser(address)": {
        "notice": "Add user once he passed KYC process"
      },
      "blockUser(address)": {
        "notice": "Blocking User by adding him onto the Blacklist"
      },
      "changeOfficer(address)": {
        "notice": "Changes the ComplianceOfficer of the contract"
      },
      "checkUser(address)": {
        "notice": "Check User if registered and if on blacklist or account is locked"
      },
      "checkUserLimit(address,uint256,uint256)": {
        "notice": "Check if a given amount is within the current limit of the User"
      },
      "deactivateUser(address)": {
        "notice": "Sets ATTR_ attributes for deactivation of a user"
      },
      "getUserLimit(address)": {
        "notice": "Get the limit of the user"
      },
      "hasAttribute(address,bytes32)": {
        "notice": "Check if a User has a given attribute"
      },
      "isCompany(address)": {
        "notice": "Check if a registered address is a KYCed element36 company"
      },
      "isOfficer(address)": {
        "notice": "Check if given address it the assigned Compliance Officer"
      },
      "isOnBlacklist(address)": {
        "notice": "Check User if on Blacklist"
      },
      "isOnLockedAccounts(address)": {
        "notice": "Check User if on LockedAccountsList"
      },
      "lockAccountForever(address)": {
        "notice": "Lock the account of a given user - Irreversible call - like Credit card"
      },
      "setAttribute(address,bytes32,uint256)": {
        "notice": "Set an attribute of the User"
      },
      "setUserLimit(address,uint256)": {
        "notice": "Set the limit of the user"
      },
      "setUserLimitToUnlimited(address)": {
        "notice": "Helper for web3j as passing -1 fails"
      },
      "unblockUser(address)": {
        "notice": "Unblocking User by removing him from the Blacklist"
      }
    },
    "notice": "Is responsible for keeping track of all KYCed users (and possibly Companies), blacklist and attributes.Changes to users can only be done be assigned compliance officer (=part of Compliance Backend Service)"
  }
}