{
  "contractName": "Cash36",
  "abi": [
    {
      "constant": false,
      "inputs": [],
      "name": "renounceOwnership",
      "outputs": [],
      "payable": false,
      "stateMutability": "nonpayable",
      "type": "function"
    },
    {
      "constant": true,
      "inputs": [],
      "name": "owner",
      "outputs": [
        {
          "name": "",
          "type": "address"
        }
      ],
      "payable": false,
      "stateMutability": "view",
      "type": "function"
    },
    {
      "constant": false,
      "inputs": [
        {
          "name": "_newOwner",
          "type": "address"
        }
      ],
      "name": "transferOwnership",
      "outputs": [],
      "payable": false,
      "stateMutability": "nonpayable",
      "type": "function"
    },
    {
      "anonymous": false,
      "inputs": [
        {
          "indexed": true,
          "name": "previousOwner",
          "type": "address"
        }
      ],
      "name": "OwnershipRenounced",
      "type": "event"
    },
    {
      "anonymous": false,
      "inputs": [
        {
          "indexed": true,
          "name": "previousOwner",
          "type": "address"
        },
        {
          "indexed": true,
          "name": "newOwner",
          "type": "address"
        }
      ],
      "name": "OwnershipTransferred",
      "type": "event"
    },
    {
      "constant": false,
      "inputs": [
        {
          "name": "_symbol",
          "type": "string"
        },
        {
          "name": "_tokenAddress",
          "type": "address"
        }
      ],
      "name": "registerToken",
      "outputs": [],
      "payable": false,
      "stateMutability": "nonpayable",
      "type": "function"
    },
    {
      "constant": true,
      "inputs": [],
      "name": "getTokens",
      "outputs": [
        {
          "name": "",
          "type": "address[]"
        }
      ],
      "payable": false,
      "stateMutability": "view",
      "type": "function"
    },
    {
      "constant": true,
      "inputs": [
        {
          "name": "_symbol",
          "type": "string"
        }
      ],
      "name": "getTokenBySymbol",
      "outputs": [
        {
          "name": "",
          "type": "address"
        }
      ],
      "payable": false,
      "stateMutability": "view",
      "type": "function"
    },
    {
      "constant": true,
      "inputs": [
        {
          "name": "_symbol",
          "type": "string"
        }
      ],
      "name": "isCash36Token",
      "outputs": [
        {
          "name": "",
          "type": "bool"
        }
      ],
      "payable": false,
      "stateMutability": "view",
      "type": "function"
    },
    {
      "constant": true,
      "inputs": [
        {
          "name": "_symbol",
          "type": "string"
        }
      ],
      "name": "getMaxAccountTokens",
      "outputs": [
        {
          "name": "",
          "type": "uint256"
        }
      ],
      "payable": false,
      "stateMutability": "view",
      "type": "function"
    },
    {
      "constant": false,
      "inputs": [
        {
          "name": "_symbol",
          "type": "string"
        },
        {
          "name": "_value",
          "type": "uint256"
        }
      ],
      "name": "setMaxAccountTokens",
      "outputs": [],
      "payable": false,
      "stateMutability": "nonpayable",
      "type": "function"
    },
    {
      "constant": true,
      "inputs": [
        {
          "name": "_symbol",
          "type": "string"
        }
      ],
      "name": "getCompliance",
      "outputs": [
        {
          "name": "",
          "type": "address"
        }
      ],
      "payable": false,
      "stateMutability": "view",
      "type": "function"
    },
    {
      "constant": false,
      "inputs": [
        {
          "name": "_symbol",
          "type": "string"
        },
        {
          "name": "_newComplianceAddress",
          "type": "address"
        }
      ],
      "name": "updateCompliance",
      "outputs": [],
      "payable": false,
      "stateMutability": "nonpayable",
      "type": "function"
    },
    {
      "constant": false,
      "inputs": [
        {
          "name": "_symbol",
          "type": "string"
        },
        {
          "name": "_newControllerAddress",
          "type": "address"
        }
      ],
      "name": "updateController",
      "outputs": [],
      "payable": false,
      "stateMutability": "nonpayable",
      "type": "function"
    },
    {
      "constant": false,
      "inputs": [
        {
          "name": "_symbol",
          "type": "string"
        },
        {
          "name": "_transfersEnabled",
          "type": "bool"
        }
      ],
      "name": "enableTransfers",
      "outputs": [],
      "payable": false,
      "stateMutability": "nonpayable",
      "type": "function"
    }
  ],
  "bytecode": "0x608060405260008054600160a060020a03191633179055610f22806100256000396000f3006080604052600436106100ab5763ffffffff60e060020a6000350416630ec2bbd781146100b057806346b1599a146100ec57806369f667ed14610114578063715018a61461014257806379bf45e0146101575780638da5cb5b14610189578063912112591461019e578063a10aa964146101cc578063aa6ca80814610200578063adef411314610265578063b2cacb0414610289578063efa74f1f146102b7578063f2fde38b146102d7575b600080fd5b3480156100bc57600080fd5b506100d060048035602481019101356102f8565b60408051600160a060020a039092168252519081900360200190f35b3480156100f857600080fd5b50610112602460048035828101929101359035151561047f565b005b34801561012057600080fd5b506101126024600480358281019291013590600160a060020a0390351661060c565b34801561014e57600080fd5b5061011261071b565b34801561016357600080fd5b506101776004803560248101910135610787565b60408051918252519081900360200190f35b34801561019557600080fd5b506100d06108da565b3480156101aa57600080fd5b506101126024600480358281019291013590600160a060020a039035166108e9565b3480156101d857600080fd5b506101ec6004803560248101910135610a59565b604080519115158252519081900360200190f35b34801561020c57600080fd5b50610215610a8c565b60408051602080825283518183015283519192839290830191858101910280838360005b83811015610251578181015183820152602001610239565b505050509050019250505060405180910390f35b34801561027157600080fd5b50610112602460048035828101929101359035610aee565b34801561029557600080fd5b506101126024600480358281019291013590600160a060020a03903516610c5c565b3480156102c357600080fd5b506100d06004803560248101910135610dcc565b3480156102e357600080fd5b50610112600160a060020a0360043516610e56565b60008060028484604051808383808284379091019485525050604051928390036020019092205460ff1615159150610331905057600080fd5b6001600385856040518083838082843782019150509250505090815260200160405180910390205481548110151561036557fe5b9060005260206000200160009054906101000a9004600160a060020a0316600160a060020a031663f77c47916040518163ffffffff1660e060020a028152600401602060405180830381600087803b1580156103c057600080fd5b505af11580156103d4573d6000803e3d6000fd5b505050506040513d60208110156103ea57600080fd5b5051604080517fe090424c0000000000000000000000000000000000000000000000000000000081529051919250600160a060020a0383169163e090424c916004808201926020929091908290030181600087803b15801561044b57600080fd5b505af115801561045f573d6000803e3d6000fd5b505050506040513d602081101561047557600080fd5b5051949350505050565b60008054600160a060020a0316331461049757600080fd5b60028484604051808383808284379091019485525050604051928390036020019092205460ff16151591506104cd905057600080fd5b6001600385856040518083838082843782019150509250505090815260200160405180910390205481548110151561050157fe5b9060005260206000200160009054906101000a9004600160a060020a0316600160a060020a031663f77c47916040518163ffffffff1660e060020a028152600401602060405180830381600087803b15801561055c57600080fd5b505af1158015610570573d6000803e3d6000fd5b505050506040513d602081101561058657600080fd5b5051604080517ff41e60c500000000000000000000000000000000000000000000000000000000815284151560048201529051919250600160a060020a0383169163f41e60c59160248082019260009290919082900301818387803b1580156105ee57600080fd5b505af1158015610602573d6000803e3d6000fd5b5050505050505050565b600054600160a060020a0316331461062357600080fd5b60028383604051808383808284379091019485525050604051928390036020019092205460ff16159150610658905057600080fd5b60018054905060038484604051808383808284379091019485525050604051928390036020018320939093555060018054808201825560008290527fb10e2d527612073b26eecdfd717e6a320cf44b4afac2b0732d9fcbe2b7fa0cf6018054600160a060020a03861673ffffffffffffffffffffffffffffffffffffffff1990911617905591506002908590859080838380828437909101948552505060405192839003602001909220805493151560ff19909416939093179092555050505050565b600054600160a060020a0316331461073257600080fd5b60008054604051600160a060020a03909116917ff8df31144d9c2f0f6b59d69b8b98abd5459d07f2742c4df920b25aae33c6482091a26000805473ffffffffffffffffffffffffffffffffffffffff19169055565b60008060028484604051808383808284379091019485525050604051928390036020019092205460ff16151591506107c0905057600080fd5b600160038585604051808383808284378201915050925050509081526020016040518091039020548154811015156107f457fe5b9060005260206000200160009054906101000a9004600160a060020a0316600160a060020a031663f77c47916040518163ffffffff1660e060020a028152600401602060405180830381600087803b15801561084f57600080fd5b505af1158015610863573d6000803e3d6000fd5b505050506040513d602081101561087957600080fd5b5051604080517fa3e1f42e0000000000000000000000000000000000000000000000000000000081529051919250600160a060020a0383169163a3e1f42e916004808201926020929091908290030181600087803b15801561044b57600080fd5b600054600160a060020a031681565b60008054600160a060020a0316331461090157600080fd5b60028484604051808383808284379091019485525050604051928390036020019092205460ff1615159150610937905057600080fd5b6001600385856040518083838082843782019150509250505090815260200160405180910390205481548110151561096b57fe5b9060005260206000200160009054906101000a9004600160a060020a0316600160a060020a031663f77c47916040518163ffffffff1660e060020a028152600401602060405180830381600087803b1580156109c657600080fd5b505af11580156109da573d6000803e3d6000fd5b505050506040513d60208110156109f057600080fd5b5051604080517f9b1649e6000000000000000000000000000000000000000000000000000000008152600160a060020a038581166004830152915192935090831691639b1649e69160248082019260009290919082900301818387803b1580156105ee57600080fd5b600060028383604051808383808284379091019485525050604051928390036020019092205460ff169250505092915050565b60606001805480602002602001604051908101604052809291908181526020018280548015610ae457602002820191906000526020600020905b8154600160a060020a03168152600190910190602001808311610ac6575b5050505050905090565b60008054600160a060020a03163314610b0657600080fd5b60028484604051808383808284379091019485525050604051928390036020019092205460ff1615159150610b3c905057600080fd5b60016003858560405180838380828437820191505092505050908152602001604051809103902054815481101515610b7057fe5b9060005260206000200160009054906101000a9004600160a060020a0316600160a060020a031663f77c47916040518163ffffffff1660e060020a028152600401602060405180830381600087803b158015610bcb57600080fd5b505af1158015610bdf573d6000803e3d6000fd5b505050506040513d6020811015610bf557600080fd5b5051604080517ffbb64114000000000000000000000000000000000000000000000000000000008152600481018590529051919250600160a060020a0383169163fbb641149160248082019260009290919082900301818387803b1580156105ee57600080fd5b60008054600160a060020a03163314610c7457600080fd5b60028484604051808383808284379091019485525050604051928390036020019092205460ff1615159150610caa905057600080fd5b60016003858560405180838380828437820191505092505050908152602001604051809103902054815481101515610cde57fe5b9060005260206000200160009054906101000a9004600160a060020a0316600160a060020a031663f77c47916040518163ffffffff1660e060020a028152600401602060405180830381600087803b158015610d3957600080fd5b505af1158015610d4d573d6000803e3d6000fd5b505050506040513d6020811015610d6357600080fd5b5051604080517f3cebb823000000000000000000000000000000000000000000000000000000008152600160a060020a038581166004830152915192935090831691633cebb8239160248082019260009290919082900301818387803b1580156105ee57600080fd5b60008060028484604051808383808284379091019485525050604051928390036020019092205460ff1615159150610e05905057600080fd5b60016003858560405180838380828437820191505092505050908152602001604051809103902054815481101515610e3957fe5b600091825260209091200154600160a060020a0316949350505050565b600054600160a060020a03163314610e6d57600080fd5b610e7681610e79565b50565b600160a060020a0381161515610e8e57600080fd5b60008054604051600160a060020a03808516939216917f8be0079c531659141344cd1fd0a4f28419497f9722a3daafe3b4186f6b6457e091a36000805473ffffffffffffffffffffffffffffffffffffffff1916600160a060020a03929092169190911790555600a165627a7a72305820f423faf9323c3d293213500b3f4a5ac3ee1c86d7eb2c96ea1c580909ed08fcf00029",
  "source": "pragma solidity ^0.4.24;\n\nimport \"openzeppelin-solidity/contracts/ownership/Ownable.sol\";\nimport \"./Token36.sol\";\nimport \"./Token36Controller.sol\";\n\n\n/// @title Cash36 Main Index Contract\n/// @notice Main Contract of cash36. Acts as an Index to keep track of all official cash36 token contracts and more.\n/// @author element36.io\ncontract Cash36 is Ownable {\n\n    // Token Storage\n    address[] tokens;\n    mapping(string => bool) registeredSymbol;\n    mapping(string => uint256) tokenIndexBySymbol;\n\n    /**\n     * @notice Registers a new token for the cash36 System\n     * @dev onlyOwner - only open to element36 Account\n     * @param _symbol Symbol of the Token\n     * @param _tokenAddress Address of the token\n     */\n    function registerToken(string _symbol, address _tokenAddress) external onlyOwner {\n        require(!registeredSymbol[_symbol]);\n        tokenIndexBySymbol[_symbol] = tokens.length;\n        tokens.push(_tokenAddress);\n        registeredSymbol[_symbol] = true;\n    }\n\n    /**\n     * @notice Get all Cash36 Tokens\n     * @return Array of addresses of all Cash36 Tokens\n     */\n    function getTokens() external view returns (address[]) {\n        return tokens;\n    }\n\n    /**\n     * @notice Get the Token address by symbol\n     * @param _symbol Symbol of the Token\n     * @return {\n     *   address: Address of the Cash36 Token\n     * }\n     */\n    function getTokenBySymbol(string _symbol) external view returns (address) {\n        require(registeredSymbol[_symbol]);\n        address tokenAddress = tokens[tokenIndexBySymbol[_symbol]];\n\n        return tokenAddress;\n    }\n\n    /**\n     * @notice Check if a Token with given symbol is a registered Cash36 Token\n     * @param _symbol Symbol of the Token to be checked\n     * @return {\n     *   bool: True when Token is a registered and active Cash36 Token\n     * }\n     */\n    function isCash36Token(string _symbol) external view returns (bool) {\n        return registeredSymbol[_symbol];\n    }\n\n    /**\n     * @notice Admin function to get the max amount of tokens an account can hold\n     * @dev onlyOwner - only open to element36 Account\n     * @param _symbol Symbol of the Token to be checked\n     * @return {\n     *   uint256: Max amount of tokens an account can hold\n     * }\n     */\n    function getMaxAccountTokens(string _symbol) external view returns (uint256) {\n        require(registeredSymbol[_symbol]);\n        Token36Controller controller = Token36Controller(Token36(tokens[tokenIndexBySymbol[_symbol]]).controller());\n        return controller.getMaxAccountTokens();\n    }\n\n    /**\n     * @notice Admin function to update the max amount of tokens, an account can hold\n     * @dev onlyOwner - only open to element36 Account\n     * @param _symbol Symbol of the Token to be checked\n     * @param _value New value for max account tokens\n     */\n    function setMaxAccountTokens(string _symbol, uint256 _value) external onlyOwner {\n        require(registeredSymbol[_symbol]);\n        Token36Controller controller = Token36Controller(Token36(tokens[tokenIndexBySymbol[_symbol]]).controller());\n        controller.setMaxAccountTokens(_value);\n    }\n\n    /**\n     * @notice Check if a Token with given symbol is a registered Cash36 Token\n     * @dev onlyOwner - only open to element36 Account\n     * @param _symbol Symbol of the Token to be checked\n     * @return {\n     *   bool: True when Token is a registered and active Cash36 Token\n     * }\n     */\n    function getCompliance(string _symbol) external view returns (address) {\n        require(registeredSymbol[_symbol]);\n        Token36Controller controller = Token36Controller(Token36(tokens[tokenIndexBySymbol[_symbol]]).controller());\n        return controller.getComplianceContract();\n    }\n\n    /**\n     * @notice Admin function to update to a new ComplianceContract\n     * @dev onlyOwner - only open to element36 Account\n     * @param _symbol Symbol of the Token to be updated\n     * @param _newComplianceAddress Address of the new Compliance contract\n     */\n    function updateCompliance(string _symbol, address _newComplianceAddress) external onlyOwner {\n        require(registeredSymbol[_symbol]);\n        Token36Controller controller = Token36Controller(Token36(tokens[tokenIndexBySymbol[_symbol]]).controller());\n        controller.updateComplianceContract(_newComplianceAddress);\n    }\n\n    /**\n     * @notice Admin function to update to a new ControllerContract\n     * @dev onlyOwner - only open to element36 Account\n     * @param _symbol Symbol of the Token to be updated\n     * @param _newControllerAddress Address of the new Controller contract\n     */\n    function updateController(string _symbol, address _newControllerAddress) external onlyOwner {\n        require(registeredSymbol[_symbol]);\n        Token36Controller controller = Token36Controller(Token36(tokens[tokenIndexBySymbol[_symbol]]).controller());\n        controller.changeController(_newControllerAddress);\n    }\n\n    /**\n     * @notice Admin function to enable/disable Token transfer\n     * @dev onlyOwner - only open to element36 Account\n     * @param _symbol Symbol of the Token to be enabled/disabled\n     * @param _transfersEnabled Pass 'true' to enable, 'false' to disable\n     */\n    function enableTransfers(string _symbol, bool _transfersEnabled) external onlyOwner {\n        require(registeredSymbol[_symbol]);\n        Token36Controller controller = Token36Controller(Token36(tokens[tokenIndexBySymbol[_symbol]]).controller());\n        controller.enableTransfers(_transfersEnabled);\n    }\n}",
  "sourcePath": "/Users/bum/element36/dev/cash36/contracts/contracts/Cash36.sol",
  "compiler": {
    "name": "solc",
    "version": "0.4.24+commit.e67f0147.Emscripten.clang"
  },
  "schemaVersion": "2.0.1",
  "updatedAt": "2018-10-26T10:44:27.118Z"
}