{
  "contractName": "Cash36",
  "abi": [
    {
      "constant": false,
      "inputs": [],
      "name": "renounceOwnership",
      "outputs": [],
      "payable": false,
      "stateMutability": "nonpayable",
      "type": "function"
    },
    {
      "constant": true,
      "inputs": [],
      "name": "owner",
      "outputs": [
        {
          "name": "",
          "type": "address"
        }
      ],
      "payable": false,
      "stateMutability": "view",
      "type": "function"
    },
    {
      "constant": true,
      "inputs": [],
      "name": "isOwner",
      "outputs": [
        {
          "name": "",
          "type": "bool"
        }
      ],
      "payable": false,
      "stateMutability": "view",
      "type": "function"
    },
    {
      "constant": false,
      "inputs": [
        {
          "name": "newOwner",
          "type": "address"
        }
      ],
      "name": "transferOwnership",
      "outputs": [],
      "payable": false,
      "stateMutability": "nonpayable",
      "type": "function"
    },
    {
      "anonymous": false,
      "inputs": [
        {
          "indexed": true,
          "name": "previousOwner",
          "type": "address"
        },
        {
          "indexed": true,
          "name": "newOwner",
          "type": "address"
        }
      ],
      "name": "OwnershipTransferred",
      "type": "event"
    },
    {
      "constant": false,
      "inputs": [
        {
          "name": "_symbol",
          "type": "string"
        },
        {
          "name": "_tokenAddress",
          "type": "address"
        }
      ],
      "name": "registerToken",
      "outputs": [],
      "payable": false,
      "stateMutability": "nonpayable",
      "type": "function"
    },
    {
      "constant": true,
      "inputs": [],
      "name": "getTokens",
      "outputs": [
        {
          "name": "",
          "type": "address[]"
        }
      ],
      "payable": false,
      "stateMutability": "view",
      "type": "function"
    },
    {
      "constant": true,
      "inputs": [
        {
          "name": "_symbol",
          "type": "string"
        }
      ],
      "name": "getTokenBySymbol",
      "outputs": [
        {
          "name": "",
          "type": "address"
        }
      ],
      "payable": false,
      "stateMutability": "view",
      "type": "function"
    },
    {
      "constant": true,
      "inputs": [
        {
          "name": "_symbol",
          "type": "string"
        }
      ],
      "name": "isCash36Token",
      "outputs": [
        {
          "name": "",
          "type": "bool"
        }
      ],
      "payable": false,
      "stateMutability": "view",
      "type": "function"
    },
    {
      "constant": true,
      "inputs": [
        {
          "name": "_symbol",
          "type": "string"
        }
      ],
      "name": "getCompliance",
      "outputs": [
        {
          "name": "",
          "type": "address"
        }
      ],
      "payable": false,
      "stateMutability": "view",
      "type": "function"
    },
    {
      "constant": false,
      "inputs": [
        {
          "name": "_symbol",
          "type": "string"
        },
        {
          "name": "_newComplianceAddress",
          "type": "address"
        }
      ],
      "name": "updateCompliance",
      "outputs": [],
      "payable": false,
      "stateMutability": "nonpayable",
      "type": "function"
    },
    {
      "constant": true,
      "inputs": [
        {
          "name": "_symbol",
          "type": "string"
        }
      ],
      "name": "getExchanges",
      "outputs": [
        {
          "name": "",
          "type": "address"
        }
      ],
      "payable": false,
      "stateMutability": "view",
      "type": "function"
    },
    {
      "constant": false,
      "inputs": [
        {
          "name": "_symbol",
          "type": "string"
        },
        {
          "name": "_newExchangesAddress",
          "type": "address"
        }
      ],
      "name": "updateExchanges",
      "outputs": [],
      "payable": false,
      "stateMutability": "nonpayable",
      "type": "function"
    },
    {
      "constant": false,
      "inputs": [
        {
          "name": "_symbol",
          "type": "string"
        },
        {
          "name": "_newControllerAddress",
          "type": "address"
        }
      ],
      "name": "updateController",
      "outputs": [],
      "payable": false,
      "stateMutability": "nonpayable",
      "type": "function"
    },
    {
      "constant": false,
      "inputs": [
        {
          "name": "_symbol",
          "type": "string"
        },
        {
          "name": "_transfersEnabled",
          "type": "bool"
        }
      ],
      "name": "enableTransfers",
      "outputs": [],
      "payable": false,
      "stateMutability": "nonpayable",
      "type": "function"
    }
  ],
  "bytecode": "0x60806040819052600080546001600160a01b03191633178082556001600160a01b0316917f8be0079c531659141344cd1fd0a4f28419497f9722a3daafe3b4186f6b6457e0908290a3611444806100576000396000f3fe608060405234801561001057600080fd5b50600436106100ea5760003560e01c8063912112591161008c578063b2cacb0411610066578063b2cacb0414610478578063b98b006b146104ef578063efa74f1f1461055d578063f2fde38b14610601576100ea565b80639121125914610305578063a10aa9641461037c578063aa6ca80814610420576100ea565b806369f667ed116100c857806369f667ed14610262578063715018a6146102d95780638da5cb5b146102e15780638f32d59b146102e9576100ea565b80630ec2bbd7146100ef5780631077cf521461017957806346b1599a146101f2575b600080fd5b61015d6004803603602081101561010557600080fd5b810190602081018135600160201b81111561011f57600080fd5b82018360208201111561013157600080fd5b803590602001918460018302840111600160201b8311171561015257600080fd5b509092509050610627565b604080516001600160a01b039092168252519081900360200190f35b6101f06004803603604081101561018f57600080fd5b810190602081018135600160201b8111156101a957600080fd5b8201836020820111156101bb57600080fd5b803590602001918460018302840111600160201b831117156101dc57600080fd5b9193509150356001600160a01b03166107c8565b005b6101f06004803603604081101561020857600080fd5b810190602081018135600160201b81111561022257600080fd5b82018360208201111561023457600080fd5b803590602001918460018302840111600160201b8311171561025557600080fd5b919350915035151561095b565b6101f06004803603604081101561027857600080fd5b810190602081018135600160201b81111561029257600080fd5b8201836020820111156102a457600080fd5b803590602001918460018302840111600160201b831117156102c557600080fd5b9193509150356001600160a01b0316610acf565b6101f0610c04565b61015d610c95565b6102f1610ca4565b604080519115158252519081900360200190f35b6101f06004803603604081101561031b57600080fd5b810190602081018135600160201b81111561033557600080fd5b82018360208201111561034757600080fd5b803590602001918460018302840111600160201b8311171561036857600080fd5b9193509150356001600160a01b0316610cb5565b6102f16004803603602081101561039257600080fd5b810190602081018135600160201b8111156103ac57600080fd5b8201836020820111156103be57600080fd5b803590602001918460018302840111600160201b831117156103df57600080fd5b91908080601f016020809104026020016040519081016040528093929190818152602001838380828437600092019190915250929550610e2a945050505050565b610428610e95565b60408051602080825283518183015283519192839290830191858101910280838360005b8381101561046457818101518382015260200161044c565b505050509050019250505060405180910390f35b6101f06004803603604081101561048e57600080fd5b810190602081018135600160201b8111156104a857600080fd5b8201836020820111156104ba57600080fd5b803590602001918460018302840111600160201b831117156104db57600080fd5b9193509150356001600160a01b0316610ef7565b61015d6004803603602081101561050557600080fd5b810190602081018135600160201b81111561051f57600080fd5b82018360208201111561053157600080fd5b803590602001918460018302840111600160201b8311171561055257600080fd5b50909250905061106c565b61015d6004803603602081101561057357600080fd5b810190602081018135600160201b81111561058d57600080fd5b82018360208201111561059f57600080fd5b803590602001918460018302840111600160201b831117156105c057600080fd5b91908080601f0160208091040260200160405190810160405280939291908181526020018383808284376000920191909152509295506111d9945050505050565b6101f06004803603602081101561061757600080fd5b50356001600160a01b03166112d6565b6000610631610ca4565b610670576040805162461bcd60e51b815260206004820181905260248201526000805160206113f0833981519152604482015290519081900360640190fd5b6002838360405180838380828437919091019485525050604051928390036020019092205460ff1691506106a5905057600080fd5b6000600160038585604051808383808284378083019250505092505050908152602001604051809103902054815481106106db57fe5b600091825260209182902001546040805163f77c479160e01b815290516001600160a01b039092169263f77c479192600480840193829003018186803b15801561072457600080fd5b505afa158015610738573d6000803e3d6000fd5b505050506040513d602081101561074e57600080fd5b505160408051633824109360e21b815290519192506001600160a01b0383169163e090424c91600480820192602092909190829003018186803b15801561079457600080fd5b505afa1580156107a8573d6000803e3d6000fd5b505050506040513d60208110156107be57600080fd5b5051949350505050565b6107d0610ca4565b61080f576040805162461bcd60e51b815260206004820181905260248201526000805160206113f0833981519152604482015290519081900360640190fd5b6002838360405180838380828437919091019485525050604051928390036020019092205460ff169150610844905057600080fd5b60006001600385856040518083838082843780830192505050925050509081526020016040518091039020548154811061087a57fe5b600091825260209182902001546040805163f77c479160e01b815290516001600160a01b039092169263f77c479192600480840193829003018186803b1580156108c357600080fd5b505afa1580156108d7573d6000803e3d6000fd5b505050506040513d60208110156108ed57600080fd5b505160408051631c47470d60e01b81526001600160a01b038581166004830152915192935090831691631c47470d9160248082019260009290919082900301818387803b15801561093d57600080fd5b505af1158015610951573d6000803e3d6000fd5b5050505050505050565b610963610ca4565b6109a2576040805162461bcd60e51b815260206004820181905260248201526000805160206113f0833981519152604482015290519081900360640190fd5b6002838360405180838380828437919091019485525050604051928390036020019092205460ff1691506109d7905057600080fd5b600060016003858560405180838380828437808301925050509250505090815260200160405180910390205481548110610a0d57fe5b600091825260209182902001546040805163f77c479160e01b815290516001600160a01b039092169263f77c479192600480840193829003018186803b158015610a5657600080fd5b505afa158015610a6a573d6000803e3d6000fd5b505050506040513d6020811015610a8057600080fd5b50516040805163f41e60c560e01b8152841515600482015290519192506001600160a01b0383169163f41e60c59160248082019260009290919082900301818387803b15801561093d57600080fd5b610ad7610ca4565b610b16576040805162461bcd60e51b815260206004820181905260248201526000805160206113f0833981519152604482015290519081900360640190fd5b6002838360405180838380828437919091019485525050604051928390036020019092205460ff16159150610b4c905057600080fd5b6001805490506003848460405180838380828437919091019485525050604051928390036020018320939093555060018054808201825560008290527fb10e2d527612073b26eecdfd717e6a320cf44b4afac2b0732d9fcbe2b7fa0cf60180546001600160a01b0386166001600160a01b03199091161790559150600290859085908083838082843791909101948552505060405192839003602001909220805493151560ff19909416939093179092555050505050565b610c0c610ca4565b610c4b576040805162461bcd60e51b815260206004820181905260248201526000805160206113f0833981519152604482015290519081900360640190fd5b600080546040516001600160a01b03909116907f8be0079c531659141344cd1fd0a4f28419497f9722a3daafe3b4186f6b6457e0908390a3600080546001600160a01b0319169055565b6000546001600160a01b031690565b6000546001600160a01b0316331490565b610cbd610ca4565b610cfc576040805162461bcd60e51b815260206004820181905260248201526000805160206113f0833981519152604482015290519081900360640190fd5b6002838360405180838380828437919091019485525050604051928390036020019092205460ff169150610d31905057600080fd5b600060016003858560405180838380828437808301925050509250505090815260200160405180910390205481548110610d6757fe5b600091825260209182902001546040805163f77c479160e01b815290516001600160a01b039092169263f77c479192600480840193829003018186803b158015610db057600080fd5b505afa158015610dc4573d6000803e3d6000fd5b505050506040513d6020811015610dda57600080fd5b505160408051634d8b24f360e11b81526001600160a01b038581166004830152915192935090831691639b1649e69160248082019260009290919082900301818387803b15801561093d57600080fd5b60006002826040518082805190602001908083835b60208310610e5e5780518252601f199092019160209182019101610e3f565b51815160209384036101000a600019018019909216911617905292019485525060405193849003019092205460ff16949350505050565b60606001805480602002602001604051908101604052809291908181526020018280548015610eed57602002820191906000526020600020905b81546001600160a01b03168152600190910190602001808311610ecf575b5050505050905090565b610eff610ca4565b610f3e576040805162461bcd60e51b815260206004820181905260248201526000805160206113f0833981519152604482015290519081900360640190fd5b6002838360405180838380828437919091019485525050604051928390036020019092205460ff169150610f73905057600080fd5b600060016003858560405180838380828437808301925050509250505090815260200160405180910390205481548110610fa957fe5b600091825260209182902001546040805163f77c479160e01b815290516001600160a01b039092169263f77c479192600480840193829003018186803b158015610ff257600080fd5b505afa158015611006573d6000803e3d6000fd5b505050506040513d602081101561101c57600080fd5b505160408051633cebb82360e01b81526001600160a01b038581166004830152915192935090831691633cebb8239160248082019260009290919082900301818387803b15801561093d57600080fd5b6000611076610ca4565b6110b5576040805162461bcd60e51b815260206004820181905260248201526000805160206113f0833981519152604482015290519081900360640190fd5b6002838360405180838380828437919091019485525050604051928390036020019092205460ff1691506110ea905057600080fd5b60006001600385856040518083838082843780830192505050925050509081526020016040518091039020548154811061112057fe5b600091825260209182902001546040805163f77c479160e01b815290516001600160a01b039092169263f77c479192600480840193829003018186803b15801561116957600080fd5b505afa15801561117d573d6000803e3d6000fd5b505050506040513d602081101561119357600080fd5b50516040805163706f04e360e01b815290519192506001600160a01b0383169163706f04e391600480820192602092909190829003018186803b15801561079457600080fd5b60006002826040518082805190602001908083835b6020831061120d5780518252601f1990920191602091820191016111ee565b51815160209384036101000a600019018019909216911617905292019485525060405193849003019092205460ff169150611249905057600080fd5b600060016003846040518082805190602001908083835b6020831061127f5780518252601f199092019160209182019101611260565b51815160209384036101000a60001901801990921691161790529201948552506040519384900301909220548354909250821090506112ba57fe5b6000918252602090912001546001600160a01b03169392505050565b6112de610ca4565b61131d576040805162461bcd60e51b815260206004820181905260248201526000805160206113f0833981519152604482015290519081900360640190fd5b61132681611329565b50565b6001600160a01b03811661136e5760405162461bcd60e51b81526004018080602001828103825260268152602001806113ca6026913960400191505060405180910390fd5b600080546040516001600160a01b03808516939216917f8be0079c531659141344cd1fd0a4f28419497f9722a3daafe3b4186f6b6457e091a3600080546001600160a01b0319166001600160a01b039290921691909117905556fe4f776e61626c653a206e6577206f776e657220697320746865207a65726f20616464726573734f776e61626c653a2063616c6c6572206973206e6f7420746865206f776e6572a265627a7a723058203166571b02da96142c7dcccee37bd9006aeb95408f02c4e5e019e0e72dd7d03b64736f6c63430005090032",
  "source": "pragma solidity ^0.5.9;\n\nimport \"openzeppelin-solidity/contracts/ownership/Ownable.sol\";\nimport \"./Token36.sol\";\nimport \"./Token36Controller.sol\";\n\n\n/// @title Cash36 Main Index Contract\n/// @notice Main Contract of cash36. Acts as an Index to keep track of all official cash36 token contracts and more.\n/// @author element36.io\ncontract Cash36 is Ownable {\n\n    // Token Storage\n    address[] tokens;\n    mapping(string => bool) registeredSymbol;\n    mapping(string => uint256) tokenIndexBySymbol;\n\n    /**\n     * @notice Registers a new token for the cash36 System\n     * @dev onlyOwner - only open to element36 Account\n     * @param _symbol Symbol of the Token\n     * @param _tokenAddress Address of the token\n     */\n    function registerToken(string calldata _symbol, address _tokenAddress) external onlyOwner {\n        require(!registeredSymbol[_symbol]);\n        tokenIndexBySymbol[_symbol] = tokens.length;\n        tokens.push(_tokenAddress);\n        registeredSymbol[_symbol] = true;\n    }\n\n    /**\n     * @notice Get all Cash36 Tokens\n     * @return Array of addresses of all Cash36 Tokens\n     */\n    function getTokens() public view returns (address[] memory) {\n        return tokens;\n    }\n\n    /**\n     * @notice Get the Token address by symbol\n     * @param _symbol Symbol of the Token\n     * @return {\n     *   address: Address of the Cash36 Token\n     * }\n     */\n    function getTokenBySymbol(string memory _symbol) public view returns (address) {\n        require(registeredSymbol[_symbol]);\n        address tokenAddress = tokens[tokenIndexBySymbol[_symbol]];\n\n        return tokenAddress;\n    }\n\n    /**\n     * @notice Check if a Token with given symbol is a registered Cash36 Token\n     * @param _symbol Symbol of the Token to be checked\n     * @return {\n     *   bool: True when Token is a registered and active Cash36 Token\n     * }\n     */\n    function isCash36Token(string memory _symbol) public view returns (bool) {\n        return registeredSymbol[_symbol];\n    }\n\n    /**\n     * @notice Check if a Token with given symbol is a registered Cash36 Token\n     * @dev onlyOwner - only open to element36 Account\n     * @param _symbol Symbol of the Token to be checked\n     * @return {\n     *   bool: True when Token is a registered and active Cash36 Token\n     * }\n     */\n    function getCompliance(string calldata _symbol) external view onlyOwner returns (address) {\n        require(registeredSymbol[_symbol]);\n        Token36Controller controller = Token36Controller(Token36(tokens[tokenIndexBySymbol[_symbol]]).controller());\n        return controller.getComplianceContract();\n    }\n\n    /**\n     * @notice Admin function to update to a new ComplianceContract\n     * @dev onlyOwner - only open to element36 Account\n     * @param _symbol Symbol of the Token to be updated\n     * @param _newComplianceAddress Address of the new Compliance contract\n     */\n    function updateCompliance(string calldata _symbol, address _newComplianceAddress) external onlyOwner {\n        require(registeredSymbol[_symbol]);\n        Token36Controller controller = Token36Controller(Token36(tokens[tokenIndexBySymbol[_symbol]]).controller());\n        controller.updateComplianceContract(_newComplianceAddress);\n    }\n\n    /**\n     * @notice Check if a Token with given symbol is a registered Cash36 Token\n     * @dev onlyOwner - only open to element36 Account\n     * @param _symbol Symbol of the Token to be checked\n     * @return {\n     *   bool: True when Token is a registered and active Cash36 Token\n     * }\n     */\n    function getExchanges(string calldata _symbol) external view onlyOwner returns (address) {\n        require(registeredSymbol[_symbol]);\n        Token36Controller controller = Token36Controller(Token36(tokens[tokenIndexBySymbol[_symbol]]).controller());\n        return controller.getExchangesContract();\n    }\n\n    /**\n     * @notice Admin function to update to a new ExchangesContract\n     * @dev onlyOwner - only open to element36 Account\n     * @param _symbol Symbol of the Token to be updated\n     * @param _newExchangesAddress Address of the new Compliance contract\n     */\n    function updateExchanges(string calldata _symbol, address _newExchangesAddress) external onlyOwner {\n        require(registeredSymbol[_symbol]);\n        Token36Controller controller = Token36Controller(Token36(tokens[tokenIndexBySymbol[_symbol]]).controller());\n        controller.updateExchangesContract(_newExchangesAddress);\n    }\n\n    /**\n     * @notice Admin function to update to a new ControllerContract\n     * @dev onlyOwner - only open to element36 Account\n     * @param _symbol Symbol of the Token to be updated\n     * @param _newControllerAddress Address of the new Controller contract\n     */\n    function updateController(string calldata _symbol, address _newControllerAddress) external onlyOwner {\n        require(registeredSymbol[_symbol]);\n        Token36Controller controller = Token36Controller(Token36(tokens[tokenIndexBySymbol[_symbol]]).controller());\n        controller.changeController(_newControllerAddress);\n    }\n\n    /**\n     * @notice Admin function to enable/disable Token transfer\n     * @dev onlyOwner - only open to element36 Account\n     * @param _symbol Symbol of the Token to be enabled/disabled\n     * @param _transfersEnabled Pass 'true' to enable, 'false' to disable\n     */\n    function enableTransfers(string calldata _symbol, bool _transfersEnabled) external onlyOwner {\n        require(registeredSymbol[_symbol]);\n        Token36Controller controller = Token36Controller(Token36(tokens[tokenIndexBySymbol[_symbol]]).controller());\n        controller.enableTransfers(_transfersEnabled);\n    }\n}",
  "sourcePath": "/Users/bum/element36/dev/cash36/contracts/contracts/Cash36.sol",
  "compiler": {
    "name": "solc",
    "version": "0.5.9+commit.e560f70d.Emscripten.clang"
  },
  "schemaVersion": "3.0.11",
  "updatedAt": "2019-06-19T07:52:24.290Z",
  "devdoc": {
    "author": "element36.io",
    "methods": {
      "enableTransfers(string,bool)": {
        "details": "onlyOwner - only open to element36 Account",
        "params": {
          "_symbol": "Symbol of the Token to be enabled/disabled",
          "_transfersEnabled": "Pass 'true' to enable, 'false' to disable"
        }
      },
      "getCompliance(string)": {
        "details": "onlyOwner - only open to element36 Account",
        "params": {
          "_symbol": "Symbol of the Token to be checked"
        },
        "return": "{  bool: True when Token is a registered and active Cash36 Token }"
      },
      "getExchanges(string)": {
        "details": "onlyOwner - only open to element36 Account",
        "params": {
          "_symbol": "Symbol of the Token to be checked"
        },
        "return": "{  bool: True when Token is a registered and active Cash36 Token }"
      },
      "getTokenBySymbol(string)": {
        "params": {
          "_symbol": "Symbol of the Token"
        },
        "return": "{  address: Address of the Cash36 Token }"
      },
      "getTokens()": {
        "return": "Array of addresses of all Cash36 Tokens"
      },
      "isCash36Token(string)": {
        "params": {
          "_symbol": "Symbol of the Token to be checked"
        },
        "return": "{  bool: True when Token is a registered and active Cash36 Token }"
      },
      "isOwner()": {
        "details": "Returns true if the caller is the current owner."
      },
      "owner()": {
        "details": "Returns the address of the current owner."
      },
      "registerToken(string,address)": {
        "details": "onlyOwner - only open to element36 Account",
        "params": {
          "_symbol": "Symbol of the Token",
          "_tokenAddress": "Address of the token"
        }
      },
      "renounceOwnership()": {
        "details": "Leaves the contract without owner. It will not be possible to call `onlyOwner` functions anymore. Can only be called by the current owner.     * > Note: Renouncing ownership will leave the contract without an owner, thereby removing any functionality that is only available to the owner."
      },
      "transferOwnership(address)": {
        "details": "Transfers ownership of the contract to a new account (`newOwner`). Can only be called by the current owner."
      },
      "updateCompliance(string,address)": {
        "details": "onlyOwner - only open to element36 Account",
        "params": {
          "_newComplianceAddress": "Address of the new Compliance contract",
          "_symbol": "Symbol of the Token to be updated"
        }
      },
      "updateController(string,address)": {
        "details": "onlyOwner - only open to element36 Account",
        "params": {
          "_newControllerAddress": "Address of the new Controller contract",
          "_symbol": "Symbol of the Token to be updated"
        }
      },
      "updateExchanges(string,address)": {
        "details": "onlyOwner - only open to element36 Account",
        "params": {
          "_newExchangesAddress": "Address of the new Compliance contract",
          "_symbol": "Symbol of the Token to be updated"
        }
      }
    },
    "title": "Cash36 Main Index Contract"
  },
  "userdoc": {
    "methods": {
      "enableTransfers(string,bool)": {
        "notice": "Admin function to enable/disable Token transfer"
      },
      "getCompliance(string)": {
        "notice": "Check if a Token with given symbol is a registered Cash36 Token"
      },
      "getExchanges(string)": {
        "notice": "Check if a Token with given symbol is a registered Cash36 Token"
      },
      "getTokenBySymbol(string)": {
        "notice": "Get the Token address by symbol"
      },
      "getTokens()": {
        "notice": "Get all Cash36 Tokens"
      },
      "isCash36Token(string)": {
        "notice": "Check if a Token with given symbol is a registered Cash36 Token"
      },
      "registerToken(string,address)": {
        "notice": "Registers a new token for the cash36 System"
      },
      "updateCompliance(string,address)": {
        "notice": "Admin function to update to a new ComplianceContract"
      },
      "updateController(string,address)": {
        "notice": "Admin function to update to a new ControllerContract"
      },
      "updateExchanges(string,address)": {
        "notice": "Admin function to update to a new ExchangesContract"
      }
    },
    "notice": "Main Contract of cash36. Acts as an Index to keep track of all official cash36 token contracts and more."
  }
}