{
  "contractName": "Cash36Compliance",
  "abi": [
    {
      "constant": true,
      "inputs": [
        {
          "name": "_addressToCheck",
          "type": "address"
        }
      ],
      "name": "isOfficer",
      "outputs": [
        {
          "name": "",
          "type": "bool"
        }
      ],
      "payable": false,
      "stateMutability": "view",
      "type": "function"
    },
    {
      "constant": false,
      "inputs": [],
      "name": "renounceOwnership",
      "outputs": [],
      "payable": false,
      "stateMutability": "nonpayable",
      "type": "function"
    },
    {
      "constant": false,
      "inputs": [
        {
          "name": "_newComplianceOfficer",
          "type": "address"
        }
      ],
      "name": "changeOfficer",
      "outputs": [],
      "payable": false,
      "stateMutability": "nonpayable",
      "type": "function"
    },
    {
      "constant": true,
      "inputs": [],
      "name": "owner",
      "outputs": [
        {
          "name": "",
          "type": "address"
        }
      ],
      "payable": false,
      "stateMutability": "view",
      "type": "function"
    },
    {
      "constant": true,
      "inputs": [],
      "name": "complianceOfficer",
      "outputs": [
        {
          "name": "",
          "type": "address"
        }
      ],
      "payable": false,
      "stateMutability": "view",
      "type": "function"
    },
    {
      "constant": false,
      "inputs": [
        {
          "name": "_newOwner",
          "type": "address"
        }
      ],
      "name": "transferOwnership",
      "outputs": [],
      "payable": false,
      "stateMutability": "nonpayable",
      "type": "function"
    },
    {
      "anonymous": false,
      "inputs": [
        {
          "indexed": true,
          "name": "previousOwner",
          "type": "address"
        }
      ],
      "name": "OwnershipRenounced",
      "type": "event"
    },
    {
      "anonymous": false,
      "inputs": [
        {
          "indexed": true,
          "name": "previousOwner",
          "type": "address"
        },
        {
          "indexed": true,
          "name": "newOwner",
          "type": "address"
        }
      ],
      "name": "OwnershipTransferred",
      "type": "event"
    },
    {
      "constant": false,
      "inputs": [
        {
          "name": "_user",
          "type": "address"
        }
      ],
      "name": "addUser",
      "outputs": [],
      "payable": false,
      "stateMutability": "nonpayable",
      "type": "function"
    },
    {
      "constant": true,
      "inputs": [
        {
          "name": "_user",
          "type": "address"
        }
      ],
      "name": "checkUser",
      "outputs": [
        {
          "name": "",
          "type": "bool"
        }
      ],
      "payable": false,
      "stateMutability": "view",
      "type": "function"
    },
    {
      "constant": true,
      "inputs": [
        {
          "name": "_user",
          "type": "address"
        },
        {
          "name": "_amount",
          "type": "uint256"
        },
        {
          "name": "_balance",
          "type": "uint256"
        }
      ],
      "name": "checkUserLimit",
      "outputs": [
        {
          "name": "",
          "type": "bool"
        }
      ],
      "payable": false,
      "stateMutability": "view",
      "type": "function"
    },
    {
      "constant": true,
      "inputs": [
        {
          "name": "_user",
          "type": "address"
        }
      ],
      "name": "getUserLimit",
      "outputs": [
        {
          "name": "",
          "type": "uint256"
        }
      ],
      "payable": false,
      "stateMutability": "view",
      "type": "function"
    },
    {
      "constant": false,
      "inputs": [
        {
          "name": "_user",
          "type": "address"
        },
        {
          "name": "_limit",
          "type": "uint256"
        }
      ],
      "name": "setUserLimit",
      "outputs": [],
      "payable": false,
      "stateMutability": "nonpayable",
      "type": "function"
    },
    {
      "constant": false,
      "inputs": [
        {
          "name": "_user",
          "type": "address"
        }
      ],
      "name": "blockUser",
      "outputs": [],
      "payable": false,
      "stateMutability": "nonpayable",
      "type": "function"
    },
    {
      "constant": false,
      "inputs": [
        {
          "name": "_user",
          "type": "address"
        }
      ],
      "name": "unblockUser",
      "outputs": [],
      "payable": false,
      "stateMutability": "nonpayable",
      "type": "function"
    },
    {
      "constant": true,
      "inputs": [
        {
          "name": "_user",
          "type": "address"
        }
      ],
      "name": "isOnBlacklist",
      "outputs": [
        {
          "name": "",
          "type": "bool"
        }
      ],
      "payable": false,
      "stateMutability": "view",
      "type": "function"
    },
    {
      "constant": false,
      "inputs": [
        {
          "name": "_exchange",
          "type": "address"
        },
        {
          "name": "_token",
          "type": "address"
        }
      ],
      "name": "addExchange",
      "outputs": [],
      "payable": false,
      "stateMutability": "nonpayable",
      "type": "function"
    },
    {
      "constant": false,
      "inputs": [
        {
          "name": "_exchange",
          "type": "address"
        },
        {
          "name": "_token",
          "type": "address"
        }
      ],
      "name": "removeExchange",
      "outputs": [],
      "payable": false,
      "stateMutability": "nonpayable",
      "type": "function"
    },
    {
      "constant": true,
      "inputs": [
        {
          "name": "_exchange",
          "type": "address"
        },
        {
          "name": "_token",
          "type": "address"
        }
      ],
      "name": "isAllowedExchange",
      "outputs": [
        {
          "name": "",
          "type": "bool"
        }
      ],
      "payable": false,
      "stateMutability": "view",
      "type": "function"
    }
  ],
  "bytecode": "0x60806040526000805433600160a060020a0319918216811783556001805490921617905561079790819061003390396000f3006080604052600436106100f05763ffffffff7c01000000000000000000000000000000000000000000000000000000006000350416631e62205081146100f55780631e9d48cf1461012a57806339d319e51461014b5780633da013251461016e578063421b2d8b1461018f5780636816442d146101b05780636b618ff9146101d1578063715018a6146101f857806376ed9f5e1461020d5780637f604b451461022e5780638da5cb5b14610255578063c4a56fc814610286578063dc9f235b1461029b578063e9587e86146102bf578063ea13d8a1146102f2578063f00065b614610319578063f2fde38b14610340575b600080fd5b34801561010157600080fd5b50610116600160a060020a0360043516610361565b604080519115158252519081900360200190f35b34801561013657600080fd5b50610116600160a060020a0360043516610383565b34801561015757600080fd5b5061016c600160a060020a03600435166103d9565b005b34801561017a57600080fd5b5061016c600160a060020a0360043516610411565b34801561019b57600080fd5b5061016c600160a060020a036004351661044c565b3480156101bc57600080fd5b50610116600160a060020a0360043516610492565b3480156101dd57600080fd5b50610116600160a060020a03600435166024356044356104a6565b34801561020457600080fd5b5061016c6104db565b34801561021957600080fd5b5061016c600160a060020a0360043516610547565b34801561023a57600080fd5b5061016c600160a060020a036004358116906024351661058d565b34801561026157600080fd5b5061026a6105ec565b60408051600160a060020a039092168252519081900360200190f35b34801561029257600080fd5b5061026a6105fb565b3480156102a757600080fd5b5061016c600160a060020a036004351660243561060a565b3480156102cb57600080fd5b506102e0600160a060020a036004351661063d565b60408051918252519081900360200190f35b3480156102fe57600080fd5b50610116600160a060020a0360043581169060243516610658565b34801561032557600080fd5b5061016c600160a060020a0360043581169060243516610687565b34801561034c57600080fd5b5061016c600160a060020a036004351661069e565b600160a060020a03811660009081526003602052604090205460ff165b919050565b600160a060020a03811660009081526002602052604081205460ff1680156103c45750600160a060020a03821660009081526003602052604090205460ff16155b156103d15750600161037e565b506000919050565b600154600160a060020a031633146103f057600080fd5b600160a060020a03166000908152600360205260409020805460ff19169055565b600154600160a060020a0316331461042857600080fd5b600160a060020a03166000908152600360205260409020805460ff19166001179055565b600154600160a060020a0316331461046357600080fd5b600160a060020a03166000908152600260209081526040808320805460ff191660011790556004909152812055565b600154600160a060020a0391821691161490565b600160a060020a03831660009081526004602052604081205482840110156104d0575060016104d4565b5060005b9392505050565b600054600160a060020a031633146104f257600080fd5b60008054604051600160a060020a03909116917ff8df31144d9c2f0f6b59d69b8b98abd5459d07f2742c4df920b25aae33c6482091a26000805473ffffffffffffffffffffffffffffffffffffffff19169055565b600154600160a060020a0316331461055e57600080fd5b6001805473ffffffffffffffffffffffffffffffffffffffff1916600160a060020a0392909216919091179055565b600054600160a060020a031633146105a457600080fd5b6105ad826106c1565b156105b757600080fd5b600160a060020a039081166000908152600560209081526040808320949093168252929092529020805460ff19166001179055565b600054600160a060020a031681565b600154600160a060020a031681565b600154600160a060020a0316331461062157600080fd5b600160a060020a03909116600090815260046020526040902055565b600160a060020a031660009081526004602052604090205490565b600160a060020a0380821660009081526005602090815260408083209386168352929052205460ff1692915050565b600054600160a060020a031633146105b757600080fd5b600054600160a060020a031633146106b557600080fd5b6106be816106ee565b50565b600080600160a060020a03831615156106dd57600091506106e8565b823b90506000811191505b50919050565b600160a060020a038116151561070357600080fd5b60008054604051600160a060020a03808516939216917f8be0079c531659141344cd1fd0a4f28419497f9722a3daafe3b4186f6b6457e091a36000805473ffffffffffffffffffffffffffffffffffffffff1916600160a060020a03929092169190911790555600a165627a7a72305820fc7ff544915977f72b2ca74d5c7bbb8e76b2bf5f8f9a2d2ab84d44f0286b13aa0029",
  "source": "pragma solidity ^0.4.24;\n\nimport \"openzeppelin-solidity/contracts/ownership/Ownable.sol\";\nimport \"./HasOfficer.sol\";\n\n\n/// @title Cash36 Compliance Contract\n/// @notice Is responsible for keeping track of all KYCed users, users blacklist and white-listed exchanges.\n/// @author element36.io\ncontract Cash36Compliance is Ownable, HasOfficer {\n\n    // Tracks KYCed users\n    mapping(address => bool) internal users;\n\n    // Tracks blacklisted users - 'overrides' KYCed users\n    mapping(address => bool) internal blacklist;\n\n    // Tracks current User transfer limits\n    mapping(address => uint256) internal userLimits;\n\n    // Whitelisted Exchanges per token\n    mapping(address => mapping(address => bool)) internal allowedExchanges;\n\n    /**\n     * @notice Add user once he passed KYC process\n     * @dev onlyComplianceOfficer - only open to assigned Compliance Officer Account\n     * @param _user Address of the KYCed user\n     */\n    function addUser(address _user) public onlyComplianceOfficer {\n        users[_user] = true;\n        userLimits[_user] = 0;\n    }\n\n    /**\n     * @notice Check User if registered, its limits and Blacklist\n     * @param _user Address of the user\n     * @return {\n     *   \"bool\": \"True when User is KYCed, within limits and not on Blacklist\"\n     * }\n     */\n    function checkUser(address _user) public view returns (bool) {\n        if (users[_user] && !blacklist[_user]) {\n            return true;\n        }\n        return false;\n    }\n\n    function checkUserLimit(address _user, uint256 _amount, uint256 _balance) public view returns (bool) {\n        if (_balance + _amount < userLimits[_user]) {\n            return true;\n        }\n        return false;\n    }\n\n    function getUserLimit(address _user) public view returns (uint256) {\n        return userLimits[_user];\n    }\n\n    function setUserLimit(address _user, uint256 _limit) public onlyComplianceOfficer {\n        userLimits[_user] = _limit;\n    }\n\n    /**\n     * @notice Blocking User by adding him onto the Blacklist\n     * @dev onlyComplianceOfficer - only open to assigned Compliance Officer Account\n     * @param _user Address of the user\n     */\n    function blockUser(address _user) public onlyComplianceOfficer {\n        blacklist[_user] = true;\n    }\n\n    /**\n     * @notice Unblocking User by removing him from the Blacklist\n     * @dev onlyComplianceOfficer - only open to assigned Compliance Officer Account\n     * @param _user Address of the user\n     */\n    function unblockUser(address _user) public onlyComplianceOfficer {\n        blacklist[_user] = false;\n    }\n\n    /**\n     * @notice Check User if on Blacklist\n     * @param _user Address of the user\n     * @return {\n     *   \"bool\": \"True when User is listed on Blacklist\"\n     * }\n     */\n    function isOnBlacklist(address _user) public view returns (bool) {\n        return blacklist[_user];\n    }\n\n    /**\n     * @notice Add an exchange to the list of accepted Exchanges\n     * @dev Exchange can not be another Smart Contract\n     * @dev onlyOwner - only open to element36 Account\n     * @param _exchange Address of the exchange\n     */\n    function addExchange(address _exchange, address _token) external onlyOwner {\n        require(isContract(_exchange) == false);\n        allowedExchanges[_token][_exchange] = true;\n    }\n\n    /**\n     * @notice Remove an exchange from the list of accepted Exchanges\n     * @dev onlyOwner - only open to element36 Account\n     * @param _exchange Address of the exchange\n     */\n    function removeExchange(address _exchange, address _token) external onlyOwner {\n        allowedExchanges[_token][_exchange] = true;\n    }\n\n    /**\n     * @notice Check if an exchange is on the list of accepted Exchanges\n     * @param _exchange Address of the exchange\n     * @return {\n     *   \"bool\": \"True when Exchange is listed\"\n     * }\n     */\n    function isAllowedExchange(address _exchange, address _token) external view returns (bool) {\n        return allowedExchanges[_token][_exchange];\n    }\n\n    /// INTERNAL\n\n    /**\n      @notice Checks if a given address is a contract or EOA\n      @param _address Address to check\n    */\n    function isContract(address _address) internal view returns(bool) {\n        uint size;\n        if (_address == 0) {\n            return false;\n        }\n        assembly {\n            size := extcodesize(_address)\n        }\n        return size > 0;\n    }\n}",
  "sourcePath": "/Users/bum/element36/dev/cash36/contracts/contracts/Cash36Compliance.sol",
  "compiler": {
    "name": "solc",
    "version": "0.4.24+commit.e67f0147.Emscripten.clang"
  },
  "schemaVersion": "2.0.1",
  "updatedAt": "2018-07-30T15:19:27.202Z"
}