{
  "contractName": "Cash36Compliance",
  "abi": [
    {
      "constant": true,
      "inputs": [
        {
          "name": "addressToCheck",
          "type": "address"
        }
      ],
      "name": "isOfficer",
      "outputs": [
        {
          "name": "",
          "type": "bool"
        }
      ],
      "payable": false,
      "stateMutability": "view",
      "type": "function"
    },
    {
      "constant": false,
      "inputs": [
        {
          "name": "newComplianceOfficer",
          "type": "address"
        }
      ],
      "name": "changeOfficer",
      "outputs": [],
      "payable": false,
      "stateMutability": "nonpayable",
      "type": "function"
    },
    {
      "constant": true,
      "inputs": [],
      "name": "complianceOfficer",
      "outputs": [
        {
          "name": "",
          "type": "address"
        }
      ],
      "payable": false,
      "stateMutability": "view",
      "type": "function"
    },
    {
      "constant": false,
      "inputs": [
        {
          "name": "_user",
          "type": "address"
        }
      ],
      "name": "addUser",
      "outputs": [],
      "payable": false,
      "stateMutability": "nonpayable",
      "type": "function"
    },
    {
      "constant": true,
      "inputs": [
        {
          "name": "_user",
          "type": "address"
        }
      ],
      "name": "isCompany",
      "outputs": [
        {
          "name": "",
          "type": "bool"
        }
      ],
      "payable": false,
      "stateMutability": "view",
      "type": "function"
    },
    {
      "constant": true,
      "inputs": [
        {
          "name": "_user",
          "type": "address"
        }
      ],
      "name": "checkUser",
      "outputs": [
        {
          "name": "",
          "type": "bool"
        }
      ],
      "payable": false,
      "stateMutability": "view",
      "type": "function"
    },
    {
      "constant": true,
      "inputs": [
        {
          "name": "_user",
          "type": "address"
        },
        {
          "name": "_amount",
          "type": "uint256"
        },
        {
          "name": "_balance",
          "type": "uint256"
        }
      ],
      "name": "checkUserLimit",
      "outputs": [
        {
          "name": "",
          "type": "bool"
        }
      ],
      "payable": false,
      "stateMutability": "view",
      "type": "function"
    },
    {
      "constant": true,
      "inputs": [
        {
          "name": "_user",
          "type": "address"
        }
      ],
      "name": "getUserLimit",
      "outputs": [
        {
          "name": "",
          "type": "uint256"
        }
      ],
      "payable": false,
      "stateMutability": "view",
      "type": "function"
    },
    {
      "constant": false,
      "inputs": [
        {
          "name": "_user",
          "type": "address"
        },
        {
          "name": "_limit",
          "type": "uint256"
        }
      ],
      "name": "setUserLimit",
      "outputs": [],
      "payable": false,
      "stateMutability": "nonpayable",
      "type": "function"
    },
    {
      "constant": false,
      "inputs": [
        {
          "name": "_user",
          "type": "address"
        }
      ],
      "name": "setUserLimitToUnlimited",
      "outputs": [],
      "payable": false,
      "stateMutability": "nonpayable",
      "type": "function"
    },
    {
      "constant": false,
      "inputs": [
        {
          "name": "_user",
          "type": "address"
        },
        {
          "name": "_attribute",
          "type": "bytes32"
        },
        {
          "name": "_value",
          "type": "uint256"
        }
      ],
      "name": "setAttribute",
      "outputs": [],
      "payable": false,
      "stateMutability": "nonpayable",
      "type": "function"
    },
    {
      "constant": true,
      "inputs": [
        {
          "name": "_user",
          "type": "address"
        },
        {
          "name": "_attribute",
          "type": "bytes32"
        }
      ],
      "name": "hasAttribute",
      "outputs": [
        {
          "name": "",
          "type": "bool"
        }
      ],
      "payable": false,
      "stateMutability": "view",
      "type": "function"
    },
    {
      "constant": true,
      "inputs": [
        {
          "name": "_user",
          "type": "address"
        }
      ],
      "name": "isOnBlacklist",
      "outputs": [
        {
          "name": "",
          "type": "bool"
        }
      ],
      "payable": false,
      "stateMutability": "view",
      "type": "function"
    },
    {
      "constant": false,
      "inputs": [
        {
          "name": "_user",
          "type": "address"
        }
      ],
      "name": "blockUser",
      "outputs": [],
      "payable": false,
      "stateMutability": "nonpayable",
      "type": "function"
    },
    {
      "constant": false,
      "inputs": [
        {
          "name": "_user",
          "type": "address"
        }
      ],
      "name": "unblockUser",
      "outputs": [],
      "payable": false,
      "stateMutability": "nonpayable",
      "type": "function"
    },
    {
      "constant": false,
      "inputs": [
        {
          "name": "_user",
          "type": "address"
        }
      ],
      "name": "lockAccountForever",
      "outputs": [],
      "payable": false,
      "stateMutability": "nonpayable",
      "type": "function"
    }
  ],
  "bytecode": "0x6080604052600080546001600160a01b031916331790556109b2806100256000396000f3fe608060405234801561001057600080fd5b50600436106101005760003560e01c80637338c25c11610097578063c4a56fc811610066578063c4a56fc814610301578063cd54adea14610325578063dc9f235b1461034b578063e9587e861461037757610100565b80637338c25c1461025757806376ed9f5e14610283578063a0406ce2146102a9578063af3105e5146102cf57610100565b8063421b2d8b116100d3578063421b2d8b146101b3578063601c0a7a146101d95780636816442d146101ff5780636b618ff91461022557610100565b80631e622050146101055780631e9d48cf1461013f57806339d319e5146101655780633da013251461018d575b600080fd5b61012b6004803603602081101561011b57600080fd5b50356001600160a01b03166103af565b604080519115158252519081900360200190f35b61012b6004803603602081101561015557600080fd5b50356001600160a01b03166103d1565b61018b6004803603602081101561017b57600080fd5b50356001600160a01b031661044c565b005b61018b600480360360208110156101a357600080fd5b50356001600160a01b03166104b6565b61018b600480360360208110156101c957600080fd5b50356001600160a01b0316610523565b61018b600480360360208110156101ef57600080fd5b50356001600160a01b0316610667565b61012b6004803603602081101561021557600080fd5b50356001600160a01b03166106ce565b61012b6004803603606081101561023b57600080fd5b506001600160a01b0381351690602081013590604001356106e2565b61012b6004803603604081101561026d57600080fd5b506001600160a01b038135169060200135610716565b61018b6004803603602081101561029957600080fd5b50356001600160a01b0316610743565b61012b600480360360208110156102bf57600080fd5b50356001600160a01b03166107ae565b61018b600480360360608110156102e557600080fd5b506001600160a01b0381351690602081013590604001356107cc565b610309610857565b604080516001600160a01b039092168252519081900360200190f35b61018b6004803603602081101561033b57600080fd5b50356001600160a01b0316610866565b61018b6004803603604081101561036157600080fd5b506001600160a01b0381351690602001356108d3565b61039d6004803603602081101561038d57600080fd5b50356001600160a01b0316610938565b60408051918252519081900360200190f35b6001600160a01b03811660009081526005602052604090205460ff165b919050565b6001600160a01b03811660009081526001602052604081205460ff16801561041257506001600160a01b03821660009081526005602052604090205460ff16155b801561043757506001600160a01b03821660009081526006602052604090205460ff16155b15610444575060016103cc565b506000919050565b6000546001600160a01b031633146104955760405162461bcd60e51b815260040180806020018281038252602a815260200180610954602a913960400191505060405180910390fd5b6001600160a01b03166000908152600560205260409020805460ff19169055565b6000546001600160a01b031633146104ff5760405162461bcd60e51b815260040180806020018281038252602a815260200180610954602a913960400191505060405180910390fd5b6001600160a01b03166000908152600560205260409020805460ff19166001179055565b6000546001600160a01b0316331461056c5760405162461bcd60e51b815260040180806020018281038252602a815260200180610954602a913960400191505060405180910390fd5b6001600160a01b03166000818152600160208181526040808420805460ff1916841790556004825280842060c890558051808201825267415454525f42555960c01b808252818401858152968652600384528286209086528084528286209151825595519084015580518082018252681055151497d4d1531360ba1b80825281840185815290865286845282862091518255519084015580518082018252681055151497d4d1539160ba1b808252818401858152908652868452828620915182555190840155805180820182526b415454525f5245434549564560a01b80825281840185815290865295909252909220915182559151910155565b6000546001600160a01b031633146106b05760405162461bcd60e51b815260040180806020018281038252602a815260200180610954602a913960400191505060405180910390fd5b6001600160a01b031660009081526004602052604090206000199055565b6000546001600160a01b0391821691161490565b6001600160a01b0383166000908152600460205260408120548284011161070b5750600161070f565b5060005b9392505050565b6001600160a01b039190911660009081526003602090815260408083209383529290522060010154151590565b6000546001600160a01b0316331461078c5760405162461bcd60e51b815260040180806020018281038252602a815260200180610954602a913960400191505060405180910390fd5b600080546001600160a01b0319166001600160a01b0392909216919091179055565b6001600160a01b031660009081526002602052604090205460ff1690565b6000546001600160a01b031633146108155760405162461bcd60e51b815260040180806020018281038252602a815260200180610954602a913960400191505060405180910390fd5b60408051808201825283815260208082019384526001600160a01b03909516600090815260038652828120948152939094529091209151825551600190910155565b6000546001600160a01b031690565b6000546001600160a01b031633146108af5760405162461bcd60e51b815260040180806020018281038252602a815260200180610954602a913960400191505060405180910390fd5b6001600160a01b03166000908152600660205260409020805460ff19166001179055565b6000546001600160a01b0316331461091c5760405162461bcd60e51b815260040180806020018281038252602a815260200180610954602a913960400191505060405180910390fd5b6001600160a01b03909116600090815260046020526040902055565b6001600160a01b03166000908152600460205260409020549056fe616363657373206e6f7420616c6c6f7765642c206f6e6c7920636f6d706c69616e63654f666669636572a265627a7a723058208c48095ef242a0c89a3081f6476d2e8eef8f36a263134fc23379b862beab58ee64736f6c63430005090032",
  "source": "pragma solidity ^0.5.9;\n\nimport \"./HasOfficer.sol\";\n\n\n/// @title Cash36 Compliance Contract\n/// @notice Is responsible for keeping track of all KYCed users (and possibly Companies), blacklist and attributes.\n/// @notice Changes to users can only be done be assigned compliance officer (=part of Compliance Backend Service)\n/// @author element36.io\ncontract Cash36Compliance is HasOfficer {\n\n    // Tracks KYCed users and companies\n    mapping(address => bool) private users;\n    mapping(address => bool) private companies;\n\n    // Allow attributes for KYCed Users for a better ACL like BUY, SELL, SEND, RECEIVE\n    struct Attribute {\n        bytes32 attribute;\n        uint256 value;\n    }\n    mapping(address => mapping(bytes32 => Attribute)) private attributes;\n\n    // Tracks current User transfer limits\n    mapping(address => uint256) private userLimits;\n\n    // Tracks blacklisted users - 'overrides' KYCed users\n    mapping(address => bool) private blacklist;\n\n    // Tracks forever locked accounts - like Credit cards - no unlocks\n    mapping(address => bool) private lockedAccounts;\n\n    /**\n     * @notice Add user once he passed KYC process\n     * @dev onlyComplianceOfficer - only open to assigned Compliance Officer Account\n     * @param _user Address of the KYCed user\n     */\n    function addUser(address _user) public onlyComplianceOfficer {\n        users[_user] = true;\n        userLimits[_user] = 200;\n        attributes[_user][\"ATTR_BUY\"] = Attribute(\"ATTR_BUY\", 1);\n        attributes[_user][\"ATTR_SELL\"] = Attribute(\"ATTR_SELL\", 1);\n        attributes[_user][\"ATTR_SEND\"] = Attribute(\"ATTR_SEND\", 1);\n        attributes[_user][\"ATTR_RECEIVE\"] = Attribute(\"ATTR_RECEIVE\", 1);\n    }\n\n    /**\n     * @notice Check if a registered address is a KYCed element36 company\n     * @param _user Address of the user\n     * @return {\n     *   \"bool\": \"True when User is a registered company\"\n     * }\n     */\n    function isCompany(address _user) public view returns (bool) {\n        return companies[_user];\n    }\n\n    /**\n     * @notice Check User if registered and if on blacklist or account is locked\n     * @param _user Address of the user\n     * @return {\n     *   \"bool\": \"True when User is KYCed and not on Blacklist\"\n     * }\n     */\n    function checkUser(address _user) public view returns (bool) {\n        if (users[_user] && !blacklist[_user] && !lockedAccounts[_user]) {\n            return true;\n        }\n        return false;\n    }\n\n    /**\n     * @notice Check if a given amount is within the current limit of the User\n     * @param _user Address of the user\n     * @param _amount Amount of the transaction\n     * @param _balance Current balance of the user\n     * @return {\n     *   \"bool\": \"True when balance plus amount is smaller than the user limit\"\n     * }\n     */\n    function checkUserLimit(address _user, uint256 _amount, uint256 _balance) public view returns (bool) {\n        if (_balance + _amount <= userLimits[_user]) {\n            return true;\n        }\n        return false;\n    }\n\n    /**\n     * @notice Get the limit of the user\n     * @param _user Address of the user\n     * @return {\n     *   \"uint256\": \"The current user limit\"\n     * }\n     */\n    function getUserLimit(address _user) public view returns (uint256) {\n        return userLimits[_user];\n    }\n\n    /**\n     * @notice Set the limit of the user\n     * @dev onlyComplianceOfficer - only open to assigned Compliance Officer Account\n     * @param _user Address of the user\n     * @param _limit New limit of the user\n     */\n    function setUserLimit(address _user, uint256 _limit) public onlyComplianceOfficer {\n        userLimits[_user] = _limit;\n    }\n\n    /**\n     * @notice Helper for web3j as passing -1 fails\n     * @dev onlyComplianceOfficer - only open to assigned Compliance Officer Account\n     * @param _user Address of the user\n     */\n    function setUserLimitToUnlimited(address _user) public onlyComplianceOfficer {\n        userLimits[_user] = uint256(-1);\n    }\n\n    /**\n     * @notice Set an attribute of the User\n     * @dev onlyComplianceOfficer - only open to assigned Compliance Officer Account\n     * @param _user Address of the user\n     * @param _attribute Name of the attribute\n     * @param _value value of the attribute (1 or 0)\n     */\n    function setAttribute(address _user, bytes32 _attribute, uint256 _value) public onlyComplianceOfficer {\n        attributes[_user][_attribute] = Attribute(_attribute, _value);\n    }\n\n    /**\n     * @notice Check if a User has a given attribute\n     * @param _user Address of the user\n     * @param _attribute Name of the attribute\n     */\n    function hasAttribute(address _user, bytes32 _attribute) public view returns (bool) {\n        return attributes[_user][_attribute].value != 0;\n    }\n\n    /**\n     * @notice Check User if on Blacklist\n     * @param _user Address of the user\n     * @return {\n     *   \"bool\": \"True when User is listed on Blacklist\"\n     * }\n     */\n    function isOnBlacklist(address _user) public view returns (bool) {\n        return blacklist[_user];\n    }\n\n    /**\n     * @notice Blocking User by adding him onto the Blacklist\n     * @dev onlyComplianceOfficer - only open to assigned Compliance Officer Account\n     * @param _user Address of the user\n     */\n    function blockUser(address _user) public onlyComplianceOfficer {\n        blacklist[_user] = true;\n    }\n\n    /**\n     * @notice Unblocking User by removing him from the Blacklist\n     * @dev onlyComplianceOfficer - only open to assigned Compliance Officer Account\n     * @param _user Address of the user\n     */\n    function unblockUser(address _user) public onlyComplianceOfficer {\n        blacklist[_user] = false;\n    }\n\n    /**\n     * @notice Lock the account of a given user - Irreversible call - like Credit card\n     * @dev onlyComplianceOfficer - only open to assigned Compliance Officer Account\n     * @param _user Address of the user\n     */\n    function lockAccountForever(address _user) public onlyComplianceOfficer {\n        lockedAccounts[_user] = true;\n    }\n}",
  "sourcePath": "/Users/bum/element36/dev/cash36/contracts/contracts/Cash36Compliance.sol",
  "compiler": {
    "name": "solc",
    "version": "0.5.9+commit.e560f70d.Emscripten.clang"
  },
  "schemaVersion": "3.0.11",
  "updatedAt": "2019-08-16T07:18:32.085Z",
  "devdoc": {
    "author": "element36.io",
    "methods": {
      "addUser(address)": {
        "details": "onlyComplianceOfficer - only open to assigned Compliance Officer Account",
        "params": {
          "_user": "Address of the KYCed user"
        }
      },
      "blockUser(address)": {
        "details": "onlyComplianceOfficer - only open to assigned Compliance Officer Account",
        "params": {
          "_user": "Address of the user"
        }
      },
      "changeOfficer(address)": {
        "details": "onlyComplianceOfficer - only open to the currently assigned compliance Officer",
        "params": {
          "newComplianceOfficer": "The new compliance officer of the contract"
        }
      },
      "checkUser(address)": {
        "params": {
          "_user": "Address of the user"
        },
        "return": "{  \"bool\": \"True when User is KYCed and not on Blacklist\" }"
      },
      "checkUserLimit(address,uint256,uint256)": {
        "params": {
          "_amount": "Amount of the transaction",
          "_balance": "Current balance of the user",
          "_user": "Address of the user"
        },
        "return": "{  \"bool\": \"True when balance plus amount is smaller than the user limit\" }"
      },
      "getUserLimit(address)": {
        "params": {
          "_user": "Address of the user"
        },
        "return": "{  \"uint256\": \"The current user limit\" }"
      },
      "hasAttribute(address,bytes32)": {
        "params": {
          "_attribute": "Name of the attribute",
          "_user": "Address of the user"
        }
      },
      "isCompany(address)": {
        "params": {
          "_user": "Address of the user"
        },
        "return": "{  \"bool\": \"True when User is a registered company\" }"
      },
      "isOfficer(address)": {
        "params": {
          "addressToCheck": "Address to be checked"
        },
        "return": "{  \"bool\": \"True when address is the currently assigned complianceOfficer\" }"
      },
      "isOnBlacklist(address)": {
        "params": {
          "_user": "Address of the user"
        },
        "return": "{  \"bool\": \"True when User is listed on Blacklist\" }"
      },
      "lockAccountForever(address)": {
        "details": "onlyComplianceOfficer - only open to assigned Compliance Officer Account",
        "params": {
          "_user": "Address of the user"
        }
      },
      "setAttribute(address,bytes32,uint256)": {
        "details": "onlyComplianceOfficer - only open to assigned Compliance Officer Account",
        "params": {
          "_attribute": "Name of the attribute",
          "_user": "Address of the user",
          "_value": "value of the attribute (1 or 0)"
        }
      },
      "setUserLimit(address,uint256)": {
        "details": "onlyComplianceOfficer - only open to assigned Compliance Officer Account",
        "params": {
          "_limit": "New limit of the user",
          "_user": "Address of the user"
        }
      },
      "setUserLimitToUnlimited(address)": {
        "details": "onlyComplianceOfficer - only open to assigned Compliance Officer Account",
        "params": {
          "_user": "Address of the user"
        }
      },
      "unblockUser(address)": {
        "details": "onlyComplianceOfficer - only open to assigned Compliance Officer Account",
        "params": {
          "_user": "Address of the user"
        }
      }
    },
    "title": "Cash36 Compliance Contract"
  },
  "userdoc": {
    "methods": {
      "addUser(address)": {
        "notice": "Add user once he passed KYC process"
      },
      "blockUser(address)": {
        "notice": "Blocking User by adding him onto the Blacklist"
      },
      "changeOfficer(address)": {
        "notice": "Changes the ComplianceOfficer of the contract"
      },
      "checkUser(address)": {
        "notice": "Check User if registered and if on blacklist or account is locked"
      },
      "checkUserLimit(address,uint256,uint256)": {
        "notice": "Check if a given amount is within the current limit of the User"
      },
      "getUserLimit(address)": {
        "notice": "Get the limit of the user"
      },
      "hasAttribute(address,bytes32)": {
        "notice": "Check if a User has a given attribute"
      },
      "isCompany(address)": {
        "notice": "Check if a registered address is a KYCed element36 company"
      },
      "isOfficer(address)": {
        "notice": "Check if given address it the assigned Compliance Officer"
      },
      "isOnBlacklist(address)": {
        "notice": "Check User if on Blacklist"
      },
      "lockAccountForever(address)": {
        "notice": "Lock the account of a given user - Irreversible call - like Credit card"
      },
      "setAttribute(address,bytes32,uint256)": {
        "notice": "Set an attribute of the User"
      },
      "setUserLimit(address,uint256)": {
        "notice": "Set the limit of the user"
      },
      "setUserLimitToUnlimited(address)": {
        "notice": "Helper for web3j as passing -1 fails"
      },
      "unblockUser(address)": {
        "notice": "Unblocking User by removing him from the Blacklist"
      }
    },
    "notice": "Is responsible for keeping track of all KYCed users (and possibly Companies), blacklist and attributes.Changes to users can only be done be assigned compliance officer (=part of Compliance Backend Service)"
  }
}