{
  "contractName": "Cash36",
  "abi": [
    {
      "constant": false,
      "inputs": [],
      "name": "renounceOwnership",
      "outputs": [],
      "payable": false,
      "stateMutability": "nonpayable",
      "type": "function"
    },
    {
      "constant": true,
      "inputs": [],
      "name": "owner",
      "outputs": [
        {
          "name": "",
          "type": "address"
        }
      ],
      "payable": false,
      "stateMutability": "view",
      "type": "function"
    },
    {
      "constant": true,
      "inputs": [],
      "name": "isOwner",
      "outputs": [
        {
          "name": "",
          "type": "bool"
        }
      ],
      "payable": false,
      "stateMutability": "view",
      "type": "function"
    },
    {
      "constant": false,
      "inputs": [
        {
          "name": "newOwner",
          "type": "address"
        }
      ],
      "name": "transferOwnership",
      "outputs": [],
      "payable": false,
      "stateMutability": "nonpayable",
      "type": "function"
    },
    {
      "anonymous": false,
      "inputs": [
        {
          "indexed": true,
          "name": "previousOwner",
          "type": "address"
        },
        {
          "indexed": true,
          "name": "newOwner",
          "type": "address"
        }
      ],
      "name": "OwnershipTransferred",
      "type": "event"
    },
    {
      "constant": false,
      "inputs": [
        {
          "name": "_symbol",
          "type": "string"
        },
        {
          "name": "_tokenAddress",
          "type": "address"
        }
      ],
      "name": "registerToken",
      "outputs": [],
      "payable": false,
      "stateMutability": "nonpayable",
      "type": "function"
    },
    {
      "constant": true,
      "inputs": [],
      "name": "getTokens",
      "outputs": [
        {
          "name": "",
          "type": "address[]"
        }
      ],
      "payable": false,
      "stateMutability": "view",
      "type": "function"
    },
    {
      "constant": true,
      "inputs": [
        {
          "name": "_symbol",
          "type": "string"
        }
      ],
      "name": "getTokenBySymbol",
      "outputs": [
        {
          "name": "",
          "type": "address"
        }
      ],
      "payable": false,
      "stateMutability": "view",
      "type": "function"
    },
    {
      "constant": true,
      "inputs": [
        {
          "name": "_symbol",
          "type": "string"
        }
      ],
      "name": "isCash36Token",
      "outputs": [
        {
          "name": "",
          "type": "bool"
        }
      ],
      "payable": false,
      "stateMutability": "view",
      "type": "function"
    },
    {
      "constant": true,
      "inputs": [
        {
          "name": "_symbol",
          "type": "string"
        }
      ],
      "name": "getCompliance",
      "outputs": [
        {
          "name": "",
          "type": "address"
        }
      ],
      "payable": false,
      "stateMutability": "view",
      "type": "function"
    },
    {
      "constant": false,
      "inputs": [
        {
          "name": "_symbol",
          "type": "string"
        },
        {
          "name": "_newComplianceAddress",
          "type": "address"
        }
      ],
      "name": "updateCompliance",
      "outputs": [],
      "payable": false,
      "stateMutability": "nonpayable",
      "type": "function"
    },
    {
      "constant": true,
      "inputs": [
        {
          "name": "_symbol",
          "type": "string"
        }
      ],
      "name": "getExchangesContract",
      "outputs": [
        {
          "name": "",
          "type": "address"
        }
      ],
      "payable": false,
      "stateMutability": "view",
      "type": "function"
    },
    {
      "constant": false,
      "inputs": [
        {
          "name": "_symbol",
          "type": "string"
        },
        {
          "name": "_newExchangesAddress",
          "type": "address"
        }
      ],
      "name": "updateExchanges",
      "outputs": [],
      "payable": false,
      "stateMutability": "nonpayable",
      "type": "function"
    },
    {
      "constant": false,
      "inputs": [
        {
          "name": "_symbol",
          "type": "string"
        },
        {
          "name": "_newControllerAddress",
          "type": "address"
        }
      ],
      "name": "updateController",
      "outputs": [],
      "payable": false,
      "stateMutability": "nonpayable",
      "type": "function"
    },
    {
      "constant": false,
      "inputs": [
        {
          "name": "_symbol",
          "type": "string"
        },
        {
          "name": "_transfersEnabled",
          "type": "bool"
        }
      ],
      "name": "enableTransfers",
      "outputs": [],
      "payable": false,
      "stateMutability": "nonpayable",
      "type": "function"
    },
    {
      "constant": false,
      "inputs": [
        {
          "name": "_symbol",
          "type": "string"
        },
        {
          "name": "_cap",
          "type": "uint256"
        }
      ],
      "name": "updateCap",
      "outputs": [],
      "payable": false,
      "stateMutability": "nonpayable",
      "type": "function"
    }
  ],
  "bytecode": "0x60806040819052600080546001600160a01b03191633178082556001600160a01b0316917f8be0079c531659141344cd1fd0a4f28419497f9722a3daafe3b4186f6b6457e0908290a3611848806100576000396000f3fe608060405234801561001057600080fd5b50600436106100f55760003560e01c80639121125911610097578063aa6ca80811610066578063aa6ca80814610507578063b2cacb041461055f578063efa74f1f146105d6578063f2fde38b1461067a576100f5565b806391211259146103105780639161c2791461038757806396800dfd146103f5578063a10aa96414610463576100f5565b806369f667ed116100d357806369f667ed1461026d578063715018a6146102e45780638da5cb5b146102ec5780638f32d59b146102f4576100f5565b80630ec2bbd7146100fa5780631077cf521461018457806346b1599a146101fd575b600080fd5b6101686004803603602081101561011057600080fd5b810190602081018135600160201b81111561012a57600080fd5b82018360208201111561013c57600080fd5b803590602001918460018302840111600160201b8311171561015d57600080fd5b5090925090506106a0565b604080516001600160a01b039092168252519081900360200190f35b6101fb6004803603604081101561019a57600080fd5b810190602081018135600160201b8111156101b457600080fd5b8201836020820111156101c657600080fd5b803590602001918460018302840111600160201b831117156101e757600080fd5b9193509150356001600160a01b0316610877565b005b6101fb6004803603604081101561021357600080fd5b810190602081018135600160201b81111561022d57600080fd5b82018360208201111561023f57600080fd5b803590602001918460018302840111600160201b8311171561026057600080fd5b9193509150351515610a40565b6101fb6004803603604081101561028357600080fd5b810190602081018135600160201b81111561029d57600080fd5b8201836020820111156102af57600080fd5b803590602001918460018302840111600160201b831117156102d057600080fd5b9193509150356001600160a01b0316610bea565b6101fb610d67565b610168610df8565b6102fc610e07565b604080519115158252519081900360200190f35b6101fb6004803603604081101561032657600080fd5b810190602081018135600160201b81111561034057600080fd5b82018360208201111561035257600080fd5b803590602001918460018302840111600160201b8311171561037357600080fd5b9193509150356001600160a01b0316610e18565b6101686004803603602081101561039d57600080fd5b810190602081018135600160201b8111156103b757600080fd5b8201836020820111156103c957600080fd5b803590602001918460018302840111600160201b831117156103ea57600080fd5b509092509050610fc3565b6101fb6004803603604081101561040b57600080fd5b810190602081018135600160201b81111561042557600080fd5b82018360208201111561043757600080fd5b803590602001918460018302840111600160201b8311171561045857600080fd5b919350915035611166565b6102fc6004803603602081101561047957600080fd5b810190602081018135600160201b81111561049357600080fd5b8201836020820111156104a557600080fd5b803590602001918460018302840111600160201b831117156104c657600080fd5b91908080601f01602080910402602001604051908101604052809392919081815260200183838082843760009201919091525092955061130f945050505050565b61050f61137a565b60408051602080825283518183015283519192839290830191858101910280838360005b8381101561054b578181015183820152602001610533565b505050509050019250505060405180910390f35b6101fb6004803603604081101561057557600080fd5b810190602081018135600160201b81111561058f57600080fd5b8201836020820111156105a157600080fd5b803590602001918460018302840111600160201b831117156105c257600080fd5b9193509150356001600160a01b03166113dc565b610168600480360360208110156105ec57600080fd5b810190602081018135600160201b81111561060657600080fd5b82018360208201111561061857600080fd5b803590602001918460018302840111600160201b8311171561063957600080fd5b91908080601f016020809104026020016040519081016040528093929190818152602001838380828437600092019190915250929550611587945050505050565b6101fb6004803603602081101561069057600080fd5b50356001600160a01b03166116ba565b60006106aa610e07565b6106e9576040805162461bcd60e51b815260206004820181905260248201526000805160206117f4833981519152604482015290519081900360640190fd5b6002838360405180838380828437919091019485525050604051928390036020019092205460ff1691506107549050576040805162461bcd60e51b815260206004820152601760248201526000805160206117ae833981519152604482015290519081900360640190fd5b60006001600385856040518083838082843780830192505050925050509081526020016040518091039020548154811061078a57fe5b600091825260209182902001546040805163f77c479160e01b815290516001600160a01b039092169263f77c479192600480840193829003018186803b1580156107d357600080fd5b505afa1580156107e7573d6000803e3d6000fd5b505050506040513d60208110156107fd57600080fd5b505160408051633824109360e21b815290519192506001600160a01b0383169163e090424c91600480820192602092909190829003018186803b15801561084357600080fd5b505afa158015610857573d6000803e3d6000fd5b505050506040513d602081101561086d57600080fd5b5051949350505050565b61087f610e07565b6108be576040805162461bcd60e51b815260206004820181905260248201526000805160206117f4833981519152604482015290519081900360640190fd5b6002838360405180838380828437919091019485525050604051928390036020019092205460ff1691506109299050576040805162461bcd60e51b815260206004820152601760248201526000805160206117ae833981519152604482015290519081900360640190fd5b60006001600385856040518083838082843780830192505050925050509081526020016040518091039020548154811061095f57fe5b600091825260209182902001546040805163f77c479160e01b815290516001600160a01b039092169263f77c479192600480840193829003018186803b1580156109a857600080fd5b505afa1580156109bc573d6000803e3d6000fd5b505050506040513d60208110156109d257600080fd5b505160408051631c47470d60e01b81526001600160a01b038581166004830152915192935090831691631c47470d9160248082019260009290919082900301818387803b158015610a2257600080fd5b505af1158015610a36573d6000803e3d6000fd5b5050505050505050565b610a48610e07565b610a87576040805162461bcd60e51b815260206004820181905260248201526000805160206117f4833981519152604482015290519081900360640190fd5b6002838360405180838380828437919091019485525050604051928390036020019092205460ff169150610af29050576040805162461bcd60e51b815260206004820152601760248201526000805160206117ae833981519152604482015290519081900360640190fd5b600060016003858560405180838380828437808301925050509250505090815260200160405180910390205481548110610b2857fe5b600091825260209182902001546040805163f77c479160e01b815290516001600160a01b039092169263f77c479192600480840193829003018186803b158015610b7157600080fd5b505afa158015610b85573d6000803e3d6000fd5b505050506040513d6020811015610b9b57600080fd5b50516040805163f41e60c560e01b8152841515600482015290519192506001600160a01b0383169163f41e60c59160248082019260009290919082900301818387803b158015610a2257600080fd5b610bf2610e07565b610c31576040805162461bcd60e51b815260206004820181905260248201526000805160206117f4833981519152604482015290519081900360640190fd5b6002838360405180838380828437919091019485525050604051928390036020019092205460ff16159150610caf9050576040805162461bcd60e51b815260206004820152601960248201527f73796d626f6c20616c7265616479207265676973746572656400000000000000604482015290519081900360640190fd5b6001805490506003848460405180838380828437919091019485525050604051928390036020018320939093555060018054808201825560008290527fb10e2d527612073b26eecdfd717e6a320cf44b4afac2b0732d9fcbe2b7fa0cf60180546001600160a01b0386166001600160a01b03199091161790559150600290859085908083838082843791909101948552505060405192839003602001909220805493151560ff19909416939093179092555050505050565b610d6f610e07565b610dae576040805162461bcd60e51b815260206004820181905260248201526000805160206117f4833981519152604482015290519081900360640190fd5b600080546040516001600160a01b03909116907f8be0079c531659141344cd1fd0a4f28419497f9722a3daafe3b4186f6b6457e0908390a3600080546001600160a01b0319169055565b6000546001600160a01b031690565b6000546001600160a01b0316331490565b610e20610e07565b610e5f576040805162461bcd60e51b815260206004820181905260248201526000805160206117f4833981519152604482015290519081900360640190fd5b6002838360405180838380828437919091019485525050604051928390036020019092205460ff169150610eca9050576040805162461bcd60e51b815260206004820152601760248201526000805160206117ae833981519152604482015290519081900360640190fd5b600060016003858560405180838380828437808301925050509250505090815260200160405180910390205481548110610f0057fe5b600091825260209182902001546040805163f77c479160e01b815290516001600160a01b039092169263f77c479192600480840193829003018186803b158015610f4957600080fd5b505afa158015610f5d573d6000803e3d6000fd5b505050506040513d6020811015610f7357600080fd5b505160408051634d8b24f360e11b81526001600160a01b038581166004830152915192935090831691639b1649e69160248082019260009290919082900301818387803b158015610a2257600080fd5b6000610fcd610e07565b61100c576040805162461bcd60e51b815260206004820181905260248201526000805160206117f4833981519152604482015290519081900360640190fd5b6002838360405180838380828437919091019485525050604051928390036020019092205460ff1691506110779050576040805162461bcd60e51b815260206004820152601760248201526000805160206117ae833981519152604482015290519081900360640190fd5b6000600160038585604051808383808284378083019250505092505050908152602001604051809103902054815481106110ad57fe5b600091825260209182902001546040805163f77c479160e01b815290516001600160a01b039092169263f77c479192600480840193829003018186803b1580156110f657600080fd5b505afa15801561110a573d6000803e3d6000fd5b505050506040513d602081101561112057600080fd5b50516040805163706f04e360e01b815290519192506001600160a01b0383169163706f04e391600480820192602092909190829003018186803b15801561084357600080fd5b61116e610e07565b6111ad576040805162461bcd60e51b815260206004820181905260248201526000805160206117f4833981519152604482015290519081900360640190fd5b6002838360405180838380828437919091019485525050604051928390036020019092205460ff1691506112189050576040805162461bcd60e51b815260206004820152601760248201526000805160206117ae833981519152604482015290519081900360640190fd5b60006001600385856040518083838082843780830192505050925050509081526020016040518091039020548154811061124e57fe5b600091825260209182902001546040805163f77c479160e01b815290516001600160a01b039092169263f77c479192600480840193829003018186803b15801561129757600080fd5b505afa1580156112ab573d6000803e3d6000fd5b505050506040513d60208110156112c157600080fd5b5051604080516353eb444b60e11b81526004810185905290519192506001600160a01b0383169163a7d688969160248082019260009290919082900301818387803b158015610a2257600080fd5b60006002826040518082805190602001908083835b602083106113435780518252601f199092019160209182019101611324565b51815160209384036101000a600019018019909216911617905292019485525060405193849003019092205460ff16949350505050565b606060018054806020026020016040519081016040528092919081815260200182805480156113d257602002820191906000526020600020905b81546001600160a01b031681526001909101906020018083116113b4575b5050505050905090565b6113e4610e07565b611423576040805162461bcd60e51b815260206004820181905260248201526000805160206117f4833981519152604482015290519081900360640190fd5b6002838360405180838380828437919091019485525050604051928390036020019092205460ff16915061148e9050576040805162461bcd60e51b815260206004820152601760248201526000805160206117ae833981519152604482015290519081900360640190fd5b6000600160038585604051808383808284378083019250505092505050908152602001604051809103902054815481106114c457fe5b600091825260209182902001546040805163f77c479160e01b815290516001600160a01b039092169263f77c479192600480840193829003018186803b15801561150d57600080fd5b505afa158015611521573d6000803e3d6000fd5b505050506040513d602081101561153757600080fd5b505160408051633cebb82360e01b81526001600160a01b038581166004830152915192935090831691633cebb8239160248082019260009290919082900301818387803b158015610a2257600080fd5b60006002826040518082805190602001908083835b602083106115bb5780518252601f19909201916020918201910161159c565b51815160209384036101000a600019018019909216911617905292019485525060405193849003019092205460ff16915061162d9050576040805162461bcd60e51b815260206004820152601760248201526000805160206117ae833981519152604482015290519081900360640190fd5b600060016003846040518082805190602001908083835b602083106116635780518252601f199092019160209182019101611644565b51815160209384036101000a600019018019909216911617905292019485525060405193849003019092205483549092508210905061169e57fe5b6000918252602090912001546001600160a01b03169392505050565b6116c2610e07565b611701576040805162461bcd60e51b815260206004820181905260248201526000805160206117f4833981519152604482015290519081900360640190fd5b61170a8161170d565b50565b6001600160a01b0381166117525760405162461bcd60e51b81526004018080602001828103825260268152602001806117ce6026913960400191505060405180910390fd5b600080546040516001600160a01b03808516939216917f8be0079c531659141344cd1fd0a4f28419497f9722a3daafe3b4186f6b6457e091a3600080546001600160a01b0319166001600160a01b039290921691909117905556fe6e6f74206120726567697374657265642073796d626f6c0000000000000000004f776e61626c653a206e6577206f776e657220697320746865207a65726f20616464726573734f776e61626c653a2063616c6c6572206973206e6f7420746865206f776e6572a265627a7a72305820906e50df0816343c69320c5d6e8cb1b18e0f7ef49a824cc212dfd25811751c8564736f6c63430005090032",
  "source": "pragma solidity ^0.5.9;\n\nimport \"openzeppelin-solidity/contracts/ownership/Ownable.sol\";\nimport \"./Token36.sol\";\nimport \"./Token36Controller.sol\";\n\n\n/// @title Cash36 Main Index Contract\n/// @notice Main Contract of cash36. Acts as an Index to keep track of all official cash36 token contracts and contains\n///         major admin functions for the owner.\n/// @author element36.io\ncontract Cash36 is Ownable {\n\n    // Token Storage\n    address[] private tokens;\n    mapping(string => bool) private registeredSymbol;\n    mapping(string => uint256) private tokenIndexBySymbol;\n\n    /**\n     * @notice Registers a new token for the cash36 System\n     * @dev onlyOwner - only open to element36 Account\n     * @param _symbol Symbol of the Token\n     * @param _tokenAddress Address of the token\n     */\n    function registerToken(string calldata _symbol, address _tokenAddress) external onlyOwner {\n        require(!registeredSymbol[_symbol], \"symbol already registered\");\n        tokenIndexBySymbol[_symbol] = tokens.length;\n        tokens.push(_tokenAddress);\n        registeredSymbol[_symbol] = true;\n    }\n\n    /**\n     * @notice Get all Cash36 Tokens\n     * @return Array of addresses of all Cash36 Tokens\n     */\n    function getTokens() public view returns (address[] memory) {\n        return tokens;\n    }\n\n    /**\n     * @notice Get the Token address by symbol\n     * @param _symbol Symbol of the Token\n     * @return {\n     *   address: Address of the Cash36 Token\n     * }\n     */\n    function getTokenBySymbol(string memory _symbol) public view returns (address) {\n        require(registeredSymbol[_symbol], \"not a registered symbol\");\n        address tokenAddress = tokens[tokenIndexBySymbol[_symbol]];\n\n        return tokenAddress;\n    }\n\n    /**\n     * @notice Check if a Token with given symbol is a registered Cash36 Token\n     * @param _symbol Symbol of the Token to be checked\n     * @return {\n     *   bool: True when Token is a registered and active Cash36 Token\n     * }\n     */\n    function isCash36Token(string memory _symbol) public view returns (bool) {\n        return registeredSymbol[_symbol];\n    }\n\n    /**\n     * @notice Get address of compliance contract\n     * @dev onlyOwner - only open to element36 Account\n     * @param _symbol Symbol of the Token\n     * @return {\n     *   address: Address of compliance contract\n     * }\n     */\n    function getCompliance(string calldata _symbol) external view onlyOwner returns (address) {\n        require(registeredSymbol[_symbol], \"not a registered symbol\");\n        Token36Controller controller = Token36Controller(Token36(tokens[tokenIndexBySymbol[_symbol]]).controller());\n        return controller.getComplianceContract();\n    }\n\n    /**\n     * @notice Admin function to update to a new ComplianceContract\n     * @dev onlyOwner - only open to element36 Account\n     * @param _symbol Symbol of the Token to be updated\n     * @param _newComplianceAddress Address of the new Compliance contract\n     */\n    function updateCompliance(string calldata _symbol, address _newComplianceAddress) external onlyOwner {\n        require(registeredSymbol[_symbol], \"not a registered symbol\");\n        Token36Controller controller = Token36Controller(Token36(tokens[tokenIndexBySymbol[_symbol]]).controller());\n        controller.updateComplianceContract(_newComplianceAddress);\n    }\n\n    /**\n     * @notice Get address of Exchanges contract\n     * @dev onlyOwner - only open to element36 Account\n     * @param _symbol Symbol of the Token\n     * @return {\n     *   address: Address of exchanges contract\n     * }\n     */\n    function getExchangesContract(string calldata _symbol) external view onlyOwner returns (address) {\n        require(registeredSymbol[_symbol], \"not a registered symbol\");\n        Token36Controller controller = Token36Controller(Token36(tokens[tokenIndexBySymbol[_symbol]]).controller());\n        return controller.getExchangesContract();\n    }\n\n    /**\n     * @notice Admin function to update to a new ExchangesContract\n     * @dev onlyOwner - only open to element36 Account\n     * @param _symbol Symbol of the Token to be updated\n     * @param _newExchangesAddress Address of the new Exchanges contract\n     */\n    function updateExchanges(string calldata _symbol, address _newExchangesAddress) external onlyOwner {\n        require(registeredSymbol[_symbol], \"not a registered symbol\");\n        Token36Controller controller = Token36Controller(Token36(tokens[tokenIndexBySymbol[_symbol]]).controller());\n        controller.updateExchangesContract(_newExchangesAddress);\n    }\n\n    /**\n     * @notice Admin function to update to a new ControllerContract\n     * @dev onlyOwner - only open to element36 Account\n     * @param _symbol Symbol of the Token to be updated\n     * @param _newControllerAddress Address of the new Controller contract\n     */\n    function updateController(string calldata _symbol, address _newControllerAddress) external onlyOwner {\n        require(registeredSymbol[_symbol], \"not a registered symbol\");\n        Token36Controller controller = Token36Controller(Token36(tokens[tokenIndexBySymbol[_symbol]]).controller());\n        controller.changeController(_newControllerAddress);\n    }\n\n    /**\n     * @notice Admin function to enable/disable Token transfer\n     * @dev onlyOwner - only open to element36 Account\n     * @param _symbol Symbol of the Token to be enabled/disabled\n     * @param _transfersEnabled Pass 'true' to enable, 'false' to disable\n     */\n    function enableTransfers(string calldata _symbol, bool _transfersEnabled) external onlyOwner {\n        require(registeredSymbol[_symbol], \"not a registered symbol\");\n        Token36Controller controller = Token36Controller(Token36(tokens[tokenIndexBySymbol[_symbol]]).controller());\n        controller.enableTransfers(_transfersEnabled);\n    }\n\n    /**\n     * @notice Admin function to update the capped amount\n     * @dev onlyOwner - only open to element36 Account\n     * @param _symbol Symbol of the Token to be enabled/disabled\n     * @param _cap New cap amount to be set for given token\n     */\n    function updateCap(string calldata _symbol, uint256 _cap) external onlyOwner {\n        require(registeredSymbol[_symbol], \"not a registered symbol\");\n        Token36Controller controller = Token36Controller(Token36(tokens[tokenIndexBySymbol[_symbol]]).controller());\n        controller.updateCap(_cap);\n    }\n}",
  "sourcePath": "/Users/bum/element36/dev/cash36/contracts/contracts/Cash36.sol",
  "compiler": {
    "name": "solc",
    "version": "0.5.9+commit.e560f70d.Emscripten.clang"
  },
  "schemaVersion": "3.0.11",
  "updatedAt": "2019-08-21T12:49:29.686Z",
  "devdoc": {
    "author": "element36.io",
    "methods": {
      "enableTransfers(string,bool)": {
        "details": "onlyOwner - only open to element36 Account",
        "params": {
          "_symbol": "Symbol of the Token to be enabled/disabled",
          "_transfersEnabled": "Pass 'true' to enable, 'false' to disable"
        }
      },
      "getCompliance(string)": {
        "details": "onlyOwner - only open to element36 Account",
        "params": {
          "_symbol": "Symbol of the Token"
        },
        "return": "{  address: Address of compliance contract }"
      },
      "getExchangesContract(string)": {
        "details": "onlyOwner - only open to element36 Account",
        "params": {
          "_symbol": "Symbol of the Token"
        },
        "return": "{  address: Address of exchanges contract }"
      },
      "getTokenBySymbol(string)": {
        "params": {
          "_symbol": "Symbol of the Token"
        },
        "return": "{  address: Address of the Cash36 Token }"
      },
      "getTokens()": {
        "return": "Array of addresses of all Cash36 Tokens"
      },
      "isCash36Token(string)": {
        "params": {
          "_symbol": "Symbol of the Token to be checked"
        },
        "return": "{  bool: True when Token is a registered and active Cash36 Token }"
      },
      "isOwner()": {
        "details": "Returns true if the caller is the current owner."
      },
      "owner()": {
        "details": "Returns the address of the current owner."
      },
      "registerToken(string,address)": {
        "details": "onlyOwner - only open to element36 Account",
        "params": {
          "_symbol": "Symbol of the Token",
          "_tokenAddress": "Address of the token"
        }
      },
      "renounceOwnership()": {
        "details": "Leaves the contract without owner. It will not be possible to call `onlyOwner` functions anymore. Can only be called by the current owner.     * > Note: Renouncing ownership will leave the contract without an owner, thereby removing any functionality that is only available to the owner."
      },
      "transferOwnership(address)": {
        "details": "Transfers ownership of the contract to a new account (`newOwner`). Can only be called by the current owner."
      },
      "updateCap(string,uint256)": {
        "details": "onlyOwner - only open to element36 Account",
        "params": {
          "_cap": "New cap amount to be set for given token",
          "_symbol": "Symbol of the Token to be enabled/disabled"
        }
      },
      "updateCompliance(string,address)": {
        "details": "onlyOwner - only open to element36 Account",
        "params": {
          "_newComplianceAddress": "Address of the new Compliance contract",
          "_symbol": "Symbol of the Token to be updated"
        }
      },
      "updateController(string,address)": {
        "details": "onlyOwner - only open to element36 Account",
        "params": {
          "_newControllerAddress": "Address of the new Controller contract",
          "_symbol": "Symbol of the Token to be updated"
        }
      },
      "updateExchanges(string,address)": {
        "details": "onlyOwner - only open to element36 Account",
        "params": {
          "_newExchangesAddress": "Address of the new Exchanges contract",
          "_symbol": "Symbol of the Token to be updated"
        }
      }
    },
    "title": "Cash36 Main Index Contract"
  },
  "userdoc": {
    "methods": {
      "enableTransfers(string,bool)": {
        "notice": "Admin function to enable/disable Token transfer"
      },
      "getCompliance(string)": {
        "notice": "Get address of compliance contract"
      },
      "getExchangesContract(string)": {
        "notice": "Get address of Exchanges contract"
      },
      "getTokenBySymbol(string)": {
        "notice": "Get the Token address by symbol"
      },
      "getTokens()": {
        "notice": "Get all Cash36 Tokens"
      },
      "isCash36Token(string)": {
        "notice": "Check if a Token with given symbol is a registered Cash36 Token"
      },
      "registerToken(string,address)": {
        "notice": "Registers a new token for the cash36 System"
      },
      "updateCap(string,uint256)": {
        "notice": "Admin function to update the capped amount"
      },
      "updateCompliance(string,address)": {
        "notice": "Admin function to update to a new ComplianceContract"
      },
      "updateController(string,address)": {
        "notice": "Admin function to update to a new ControllerContract"
      },
      "updateExchanges(string,address)": {
        "notice": "Admin function to update to a new ExchangesContract"
      }
    },
    "notice": "Main Contract of cash36. Acts as an Index to keep track of all official cash36 token contracts and contains         major admin functions for the owner."
  }
}