{
  "contractName": "Cash36KYC",
  "abi": [
    {
      "constant": true,
      "inputs": [],
      "name": "owner",
      "outputs": [
        {
          "name": "",
          "type": "address"
        }
      ],
      "payable": false,
      "stateMutability": "view",
      "type": "function"
    },
    {
      "constant": false,
      "inputs": [
        {
          "name": "newOwner",
          "type": "address"
        }
      ],
      "name": "transferOwnership",
      "outputs": [],
      "payable": false,
      "stateMutability": "nonpayable",
      "type": "function"
    },
    {
      "inputs": [
        {
          "name": "_registryAddress",
          "type": "address"
        },
        {
          "name": "_cash36MNID",
          "type": "address"
        }
      ],
      "payable": false,
      "stateMutability": "nonpayable",
      "type": "constructor"
    },
    {
      "anonymous": false,
      "inputs": [
        {
          "indexed": true,
          "name": "previousOwner",
          "type": "address"
        },
        {
          "indexed": true,
          "name": "newOwner",
          "type": "address"
        }
      ],
      "name": "OwnershipTransferred",
      "type": "event"
    },
    {
      "constant": true,
      "inputs": [
        {
          "name": "_user",
          "type": "address"
        }
      ],
      "name": "checkUser",
      "outputs": [
        {
          "name": "",
          "type": "bool"
        }
      ],
      "payable": false,
      "stateMutability": "view",
      "type": "function"
    },
    {
      "constant": false,
      "inputs": [
        {
          "name": "_user",
          "type": "address"
        }
      ],
      "name": "removeClaim",
      "outputs": [],
      "payable": false,
      "stateMutability": "nonpayable",
      "type": "function"
    }
  ],
  "bytecode": "0x6060604052341561000f57600080fd5b604051604080610387833981016040528080519190602001805160008054600160a060020a03338116600160a060020a03199283161790925560028054968316968216969096179095556001805491909216941693909317909255505061030c8061007b6000396000f3006060604052600436106100485763ffffffff60e060020a6000350416631e9d48cf811461004d5780634401f86a146100805780638da5cb5b146100a1578063f2fde38b146100d0575b600080fd5b341561005857600080fd5b61006c600160a060020a03600435166100ef565b604051901515815260200160405180910390f35b341561008b57600080fd5b61009f600160a060020a036004351661019b565b005b34156100ac57600080fd5b6100b4610236565b604051600160a060020a03909116815260200160405180910390f35b34156100db57600080fd5b61009f600160a060020a0360043516610245565b600254600154600091600160a060020a03908116918391839163e1661eff91168660405160e060020a63ffffffff8516028152600160a060020a039283166004820152911660248201527f6361736833364b594300000000000000000000000000000000000000000000006044820152606401602060405180830381600087803b151561017b57600080fd5b5af1151561018857600080fd5b5050506040518051151595945050505050565b600254600154600160a060020a0391821691829163c7508ec791168460405160e060020a63ffffffff8516028152600160a060020a039283166004820152911660248201527f6361736833364b594300000000000000000000000000000000000000000000006044820152606401600060405180830381600087803b151561022257600080fd5b5af1151561022f57600080fd5b5050505050565b600054600160a060020a031681565b60005433600160a060020a0390811691161461026057600080fd5b600160a060020a038116151561027557600080fd5b600054600160a060020a0380831691167f8be0079c531659141344cd1fd0a4f28419497f9722a3daafe3b4186f6b6457e060405160405180910390a36000805473ffffffffffffffffffffffffffffffffffffffff1916600160a060020a03929092169190911790555600a165627a7a72305820940f4bcfc9a924e3975226885f4fd301f9f5b736df61e95a82e989d97006cc140029",
  "source": "pragma solidity 0.4.21;\n\nimport \"openzeppelin-solidity/contracts/ownership/Ownable.sol\";\nimport \"./lib/uport/EthereumClaimsRegistry.sol\";\n\n\n/// @title Cash36 Index Contract\n/// @author element36.io\ncontract Cash36KYC is Ownable {\n\n    address cash36MNID;\n    address registryAddress;\n\n    // Constructor\n    function Cash36KYC(address _registryAddress, address _cash36MNID) public {\n        registryAddress = _registryAddress;\n        cash36MNID = _cash36MNID;\n    }\n\n    /**\n     * @notice Check user for a valid claim from cash36\n     * @dev Forwards to EthereumClaimsRegistry by uport\n     * @param _user Address of the user\n     */\n    function checkUser(address _user) external view returns(bool) {\n        EthereumClaimsRegistry registry = EthereumClaimsRegistry(registryAddress);\n        bytes32 claim = registry.getClaim(cash36MNID, _user, \"cash36KYC\");\n        return claim != \"\";\n    }\n\n    /**\n     * @notice Remove the claim from the user\n     * @dev Forwards to EthereumClaimsRegistry by uport\n     * @param _user Address of the user\n     */\n    function removeClaim(address _user) external {\n        EthereumClaimsRegistry registry = EthereumClaimsRegistry(registryAddress);\n        registry.removeClaim(cash36MNID, _user, \"cash36KYC\");\n    }\n}",
  "sourcePath": "/builds/cash36/contracts/contracts/Cash36KYC.sol",
  "compiler": {
    "name": "solc",
    "version": "0.4.21+commit.dfe3193c.Emscripten.clang"
  },
  "schemaVersion": "2.0.0",
  "updatedAt": "2018-06-15T10:39:10.435Z"
}