{
  "contractName": "Cash36",
  "abi": [
    {
      "constant": true,
      "inputs": [],
      "name": "owner",
      "outputs": [
        {
          "name": "",
          "type": "address"
        }
      ],
      "payable": false,
      "stateMutability": "view",
      "type": "function"
    },
    {
      "constant": false,
      "inputs": [
        {
          "name": "newOwner",
          "type": "address"
        }
      ],
      "name": "transferOwnership",
      "outputs": [],
      "payable": false,
      "stateMutability": "nonpayable",
      "type": "function"
    },
    {
      "anonymous": false,
      "inputs": [
        {
          "indexed": false,
          "name": "_name",
          "type": "string"
        },
        {
          "indexed": false,
          "name": "_symbol",
          "type": "string"
        },
        {
          "indexed": false,
          "name": "tokenAddress",
          "type": "address"
        },
        {
          "indexed": false,
          "name": "tokenControllerAddress",
          "type": "address"
        }
      ],
      "name": "TokenCreated",
      "type": "event"
    },
    {
      "anonymous": false,
      "inputs": [
        {
          "indexed": true,
          "name": "previousOwner",
          "type": "address"
        },
        {
          "indexed": true,
          "name": "newOwner",
          "type": "address"
        }
      ],
      "name": "OwnershipTransferred",
      "type": "event"
    },
    {
      "constant": false,
      "inputs": [
        {
          "name": "_name",
          "type": "string"
        },
        {
          "name": "_symbol",
          "type": "string"
        },
        {
          "name": "_kycProvider",
          "type": "address"
        }
      ],
      "name": "createNewToken",
      "outputs": [],
      "payable": false,
      "stateMutability": "nonpayable",
      "type": "function"
    },
    {
      "constant": true,
      "inputs": [],
      "name": "getTokens",
      "outputs": [
        {
          "name": "",
          "type": "address[]"
        }
      ],
      "payable": false,
      "stateMutability": "view",
      "type": "function"
    },
    {
      "constant": true,
      "inputs": [
        {
          "name": "_symbol",
          "type": "string"
        }
      ],
      "name": "isCash36Token",
      "outputs": [
        {
          "name": "",
          "type": "bool"
        }
      ],
      "payable": false,
      "stateMutability": "view",
      "type": "function"
    },
    {
      "constant": true,
      "inputs": [
        {
          "name": "_symbol",
          "type": "string"
        }
      ],
      "name": "getTokenBySymbol",
      "outputs": [
        {
          "name": "",
          "type": "address"
        }
      ],
      "payable": false,
      "stateMutability": "view",
      "type": "function"
    },
    {
      "constant": true,
      "inputs": [
        {
          "name": "_tokenAddress",
          "type": "address"
        }
      ],
      "name": "getTokenController",
      "outputs": [
        {
          "name": "",
          "type": "address"
        }
      ],
      "payable": false,
      "stateMutability": "view",
      "type": "function"
    },
    {
      "constant": false,
      "inputs": [
        {
          "name": "_exchange",
          "type": "address"
        }
      ],
      "name": "addExchange",
      "outputs": [],
      "payable": false,
      "stateMutability": "nonpayable",
      "type": "function"
    },
    {
      "constant": false,
      "inputs": [
        {
          "name": "_exchange",
          "type": "address"
        }
      ],
      "name": "removeExchange",
      "outputs": [],
      "payable": false,
      "stateMutability": "nonpayable",
      "type": "function"
    },
    {
      "constant": true,
      "inputs": [
        {
          "name": "_exchange",
          "type": "address"
        }
      ],
      "name": "isAllowedExchange",
      "outputs": [
        {
          "name": "",
          "type": "bool"
        }
      ],
      "payable": false,
      "stateMutability": "view",
      "type": "function"
    }
  ],
  "bytecode": "0x606060405260008054600160a060020a033316600160a060020a031990911617905561221c806100306000396000f30060606040526004361061008a5763ffffffff60e060020a6000350416634661aecb811461008f5780638da5cb5b146100c25780638df1d642146100f15780638e0be36914610129578063a10aa96414610148578063aa10ce2214610166578063aa6ca80814610185578063df4fc054146101eb578063efa74f1f1461020a578063f2fde38b14610228575b600080fd5b341561009a57600080fd5b6100ae600160a060020a0360043516610247565b604051901515815260200160405180910390f35b34156100cd57600080fd5b6100d5610265565b604051600160a060020a03909116815260200160405180910390f35b34156100fc57600080fd5b6101276024600480358281019290820135918135918201910135600160a060020a0360443516610274565b005b341561013457600080fd5b610127600160a060020a036004351661060e565b341561015357600080fd5b6100ae600480356024810191013561064a565b341561017157600080fd5b610127600160a060020a036004351661067d565b341561019057600080fd5b6101986106cf565b60405160208082528190810183818151815260200191508051906020019060200280838360005b838110156101d75780820151838201526020016101bf565b505050509050019250505060405180910390f35b34156101f657600080fd5b6100d5600160a060020a0360043516610738565b341561021557600080fd5b6100d5600480356024810191013561077e565b341561023357600080fd5b610127600160a060020a0360043516610806565b600160a060020a031660009081526005602052604090205460ff1690565b600054600160a060020a031681565b600160a060020a033316600090815260056020526040812054819060ff16151561029d57600080fd5b60405160405190819003902087876040518083838082843782019150509250505060405190819003902014156102d257600080fd5b604051604051908190039020858560405180838380828437820191505092505050604051908190039020141561030757600080fd5b60028585604051808383808284378201915050925050509081526020016040519081900390205460ff161561033b57600080fd5b610344836108a1565b151561034f57600080fd5b8686868661035b6108ce565b604080825281018490528060208101606082018787808284379091018481038352858152602001905085858082843782019150509650505050505050604051809103906000f08015156103ad57600080fd5b600154909250600386866040518083838082843782019150509250505090815260200160405190819003902055600180548082016103eb83826108de565b506000918252602090912001805473ffffffffffffffffffffffffffffffffffffffff1916600160a060020a03841617905560016002868660405180838380828437820191505092505050908152602001604051908190039020805460ff1916911515919091179055818361045e610907565b600160a060020a0392831681529116602082015260409081019051809103906000f080151561048c57600080fd5b600160a060020a0383811660009081526004602052604090819020805473ffffffffffffffffffffffffffffffffffffffff191692841692831790559192509063f2fde38b9033905160e060020a63ffffffff8416028152600160a060020a039091166004820152602401600060405180830381600087803b151561051057600080fd5b5af1151561051d57600080fd5b50505081600160a060020a0316633cebb8238260405160e060020a63ffffffff8416028152600160a060020a039091166004820152602401600060405180830381600087803b151561056e57600080fd5b5af1151561057b57600080fd5b5050507fb3773c23b761d9f7b0ece5a1dc5f679ab7c2e67f4707f7bc08aa9c3d07d196df878787878686604051600160a060020a0380841660408301528216606082015260808082528101869052806020810160a082018989808284379091018481038352878152602001905087878082843782019150509850505050505050505060405180910390a150505050505050565b60005433600160a060020a0390811691161461062957600080fd5b600160a060020a03166000908152600560205260409020805460ff19169055565b600060028383604051808383808284378201915050925050509081526020016040519081900390205460ff169392505050565b60005433600160a060020a0390811691161461069857600080fd5b6106a1816108a1565b156106ab57600080fd5b600160a060020a03166000908152600560205260409020805460ff19166001179055565b6106d7610917565b600180548060200260200160405190810160405280929190818152602001828054801561072d57602002820191906000526020600020905b8154600160a060020a0316815260019091019060200180831161070f575b505050505090505b90565b600160a060020a03331660009081526005602052604081205460ff16151561075f57600080fd5b50600160a060020a039081166000908152600460205260409020541690565b60008060028484604051808383808284378201915050925050509081526020016040519081900390205460ff1615156107b657600080fd5b6001600385856040518083838082843782019150509250505090815260200160405190819003902054815481106107e957fe5b600091825260209091200154600160a060020a0316949350505050565b60005433600160a060020a0390811691161461082157600080fd5b600160a060020a038116151561083657600080fd5b600054600160a060020a0380831691167f8be0079c531659141344cd1fd0a4f28419497f9722a3daafe3b4186f6b6457e060405160405180910390a36000805473ffffffffffffffffffffffffffffffffffffffff1916600160a060020a0392909216919091179055565b600080600160a060020a03831615156108bd57600091506108c8565b823b90506000811191505b50919050565b60405161101f8061094883390190565b81548183558181151161090257600083815260209020610902918101908301610929565b505050565b60405161088a8061196783390190565b60206040519081016040526000815290565b61073591905b80821115610943576000815560010161092f565b50905600606060405234156200001057600080fd5b6040516200101f3803806200101f8339810160405280805182019190602001805160008054600160a060020a03191633600160a060020a0316179055919091019050600282805162000067929160200190620000db565b5060038180516200007d929160200190620000db565b506007805460ff19166001179055620000a364010000000062000e48620000ab82021704565b50506200017d565b60015415620000b957600080fd5b620000d164010000000062000e62620000d682021704565b600155565b435b90565b828054600181600116156101000203166002900490600052602060002090601f016020900481019282601f106200011e57805160ff19168380011785556200014e565b828001600101855582156200014e579182015b828111156200014e57825182559160200191906001019062000131565b506200015c92915062000160565b5090565b620000d891905b808211156200015c576000815560010162000167565b610e92806200018d6000396000f3006060604052600436106100e25763ffffffff60e060020a60003504166306fdde0381146100e7578063095ea7b31461017157806318160ddd146101a757806323b872dd146101cc5780632e0f2625146101f45780633cebb8231461021d5780634ee2cd7e1461023e57806370a0823114610260578063827f32c01461027f5780638b3dd749146102a157806395d89b41146102b4578063981b24d0146102c7578063a9059cbb146102dd578063bef97c87146102ff578063d3ce77fe14610312578063dd62ed3e14610334578063f41e60c514610359578063f77c479114610371575b600080fd5b34156100f257600080fd5b6100fa6103a0565b60405160208082528190810183818151815260200191508051906020019080838360005b8381101561013657808201518382015260200161011e565b50505050905090810190601f1680156101635780820380516001836020036101000a031916815260200191505b509250505060405180910390f35b341561017c57600080fd5b610193600160a060020a036004351660243561043e565b604051901515815260200160405180910390f35b34156101b257600080fd5b6101ba610598565b60405190815260200160405180910390f35b34156101d757600080fd5b610193600160a060020a03600435811690602435166044356105a9565b34156101ff57600080fd5b61020761064b565b60405160ff909116815260200160405180910390f35b341561022857600080fd5b61023c600160a060020a0360043516610650565b005b341561024957600080fd5b6101ba600160a060020a036004351660243561069a565b341561026b57600080fd5b6101ba600160a060020a03600435166106bc565b341561028a57600080fd5b610193600160a060020a03600435166024356106ce565b34156102ac57600080fd5b6101ba61079e565b34156102bf57600080fd5b6100fa6107a4565b34156102d257600080fd5b6101ba60043561080f565b34156102e857600080fd5b610193600160a060020a036004351660243561081c565b341561030a57600080fd5b61019361083b565b341561031d57600080fd5b610193600160a060020a0360043516602435610844565b341561033f57600080fd5b6101ba600160a060020a036004358116906024351661090e565b341561036457600080fd5b61023c6004351515610939565b341561037c57600080fd5b610384610967565b604051600160a060020a03909116815260200160405180910390f35b60028054600181600116156101000203166002900480601f0160208091040260200160405190810160405280929190818152602001828054600181600116156101000203166002900480156104365780601f1061040b57610100808354040283529160200191610436565b820191906000526020600020905b81548152906001019060200180831161041957829003601f168201915b505050505081565b60075460009060ff16151561045257600080fd5b8115806104825750600160a060020a03338116600090815260066020908152604080832093871683529290522054155b151561048d57600080fd5b6000546104a290600160a060020a0316610976565b1561052f57600054600160a060020a031663da682aeb33858560405160e060020a63ffffffff8616028152600160a060020a0393841660048201529190921660248201526044810191909152606401602060405180830381600087803b151561050a57600080fd5b5af1151561051757600080fd5b50505060405180511515600114905061052f57600080fd5b600160a060020a03338116600081815260066020908152604080832094881680845294909152908190208590557f8c5be1e5ebec7d5bd14f71427d1e84f3dd0314c0f7b2291e5b200ac8c7c3b9259085905190815260200160405180910390a350600192915050565b60006105a34361080f565b90505b90565b6000805433600160a060020a039081169116146106365760075460ff1615156105d157600080fd5b600160a060020a03808516600090815260066020908152604080832033909416835292905220548290101561060857506000610644565b600160a060020a03808516600090815260066020908152604080832033909416835292905220805483900390555b6106418484846109a3565b90505b9392505050565b601281565b60005433600160a060020a0390811691161461066b57600080fd5b6000805473ffffffffffffffffffffffffffffffffffffffff1916600160a060020a0392909216919091179055565b600160a060020a03821660009081526004602052604081206106449083610b64565b60006106c8824361069a565b92915050565b600080548190819033600160a060020a039081169116146106ee57600080fd5b6106f6610598565b91508382018290101561070857600080fd5b610711856106bc565b90508381018190101561072357600080fd5b6107306005858401610cf0565b600160a060020a038516600090815260046020526040902061075490828601610cf0565b84600160a060020a031660007fddf252ad1be2c89b69c2b068fc378daa952ba7f163c4a11628f55a4df523b3ef8660405190815260200160405180910390a3506001949350505050565b60015490565b60038054600181600116156101000203166002900480601f0160208091040260200160405190810160405280929190818152602001828054600181600116156101000203166002900480156104365780601f1061040b57610100808354040283529160200191610436565b60006106c8600583610b64565b60075460009060ff16151561083057600080fd5b6106443384846109a3565b60075460ff1681565b600080548190819033600160a060020a0390811691161461086457600080fd5b61086c610598565b91508382101561087b57600080fd5b610884856106bc565b90508381101561089357600080fd5b6108a06005858403610cf0565b600160a060020a03851660009081526004602052604090206108c490858303610cf0565b600085600160a060020a03167fddf252ad1be2c89b69c2b068fc378daa952ba7f163c4a11628f55a4df523b3ef8660405190815260200160405180910390a3506001949350505050565b600160a060020a03918216600090815260066020908152604080832093909416825291909152205490565b60005433600160a060020a0390811691161461095457600080fd5b6007805460ff1916911515919091179055565b600054600160a060020a031681565b600080600160a060020a0383161515610992576000915061099d565b823b90506000811191505b50919050565b600080808315156109b75760019250610b5b565b600160a060020a038516158015906109e1575030600160a060020a031685600160a060020a031614155b15156109ec57600080fd5b6109f6864361069a565b915083821015610a095760009250610b5b565b600054610a1e90600160a060020a0316610976565b15610aab57600054600160a060020a0316634a39314987878760405160e060020a63ffffffff8616028152600160a060020a0393841660048201529190921660248201526044810191909152606401602060405180830381600087803b1515610a8657600080fd5b5af11515610a9357600080fd5b505050604051805115156001149050610aab57600080fd5b600160a060020a0386166000908152600460205260409020610acf90858403610cf0565b610ad9854361069a565b905083810181901015610aeb57600080fd5b600160a060020a0385166000908152600460205260409020610b0f90828601610cf0565b84600160a060020a031686600160a060020a03167fddf252ad1be2c89b69c2b068fc378daa952ba7f163c4a11628f55a4df523b3ef8660405190815260200160405180910390a3600192505b50509392505050565b600080600080858054905060001415610b805760009350610ce7565b855486906000198101908110610b9257fe5b6000918252602090912001546fffffffffffffffffffffffffffffffff168510610c0157855486906000198101908110610bc857fe5b60009182526020909120015470010000000000000000000000000000000090046fffffffffffffffffffffffffffffffff169350610ce7565b856000815481101515610c1057fe5b6000918252602090912001546fffffffffffffffffffffffffffffffff16851015610c3e5760009350610ce7565b8554600093506000190191505b82821115610ca4576002600183850101049050848682815481101515610c6d57fe5b6000918252602090912001546fffffffffffffffffffffffffffffffff1611610c9857809250610c9f565b6001810391505b610c4b565b8583815481101515610cb257fe5b60009182526020909120015470010000000000000000000000000000000090046fffffffffffffffffffffffffffffffff1693505b50505092915050565b815460009081901580610d3257508354439085906000198101908110610d1257fe5b6000918252602090912001546fffffffffffffffffffffffffffffffff16105b15610dad5783548490610d488260018301610e01565b81548110610d5257fe5b600091825260209091200180546fffffffffffffffffffffffffffffffff858116700100000000000000000000000000000000024382166fffffffffffffffffffffffffffffffff1990931692909217161781559150610dfb565b835484906000198101908110610dbf57fe5b600091825260209091200180546fffffffffffffffffffffffffffffffff80861670010000000000000000000000000000000002911617815590505b50505050565b815481835581811511610e2557600083815260209020610e25918101908301610e2a565b505050565b6105a691905b80821115610e445760008155600101610e30565b5090565b60015415610e5557600080fd5b610e5d610e62565b600155565b43905600a165627a7a72305820dba7390c2135c3bc493ca7c02d1404d8eb3274fb902c4879f11dcf5b33d1af7b00296060604052341561000f57600080fd5b60405160408061088a833981016040528080519190602001805160008054600160a060020a03338116600160a060020a03199283161790925560018054968316968216969096179095556002805491909216941693909317909255505061080f8061007b6000396000f3006060604052600436106100a05763ffffffff60e060020a6000350416632a11ced081146100a557806340c10f19146100d75780634a393149146100fb578063798deed7146101375780638da5cb5b146101565780639dc29fac14610169578063c80a3aa61461018b578063da682aeb146101f1578063f2fde38b14610219578063f41e60c514610238578063f48c305414610250578063fc0c546a14610264575b600080fd5b34156100b057600080fd5b6100bb600435610277565b604051600160a060020a03909116815260200160405180910390f35b34156100e257600080fd5b6100f9600160a060020a036004351660243561029f565b005b341561010657600080fd5b610123600160a060020a03600435811690602435166044356103b6565b604051901515815260200160405180910390f35b341561014257600080fd5b6100f9600160a060020a036004351661044c565b341561016157600080fd5b6100bb610496565b341561017457600080fd5b6100f9600160a060020a03600435166024356104a5565b341561019657600080fd5b61019e610531565b60405160208082528190810183818151815260200191508051906020019060200280838360005b838110156101dd5780820151838201526020016101c5565b505050509050019250505060405180910390f35b34156101fc57600080fd5b610123600160a060020a036004358116906024351660443561059a565b341561022457600080fd5b6100f9600160a060020a03600435166105a3565b341561024357600080fd5b6100f9600435151561063e565b610123600160a060020a03600435166106b4565b341561026f57600080fd5b6100bb6106ba565b600380548290811061028557fe5b600091825260209091200154600160a060020a0316905081565b60005433600160a060020a039081169116146102ba57600080fd5b6102c3826106c9565b151561033b57600254600160a060020a0316631e9d48cf8360405160e060020a63ffffffff8416028152600160a060020a039091166004820152602401602060405180830381600087803b151561031957600080fd5b5af1151561032657600080fd5b50505060405180519050151561033b57600080fd5b600154600160a060020a031663827f32c0838360405160e060020a63ffffffff8516028152600160a060020a0390921660048301526024820152604401602060405180830381600087803b151561039157600080fd5b5af1151561039e57600080fd5b50505060405180519050506103b2826106f6565b5050565b60006103c1836106c9565b151561043957600254600160a060020a0316631e9d48cf8460405160e060020a63ffffffff8416028152600160a060020a039091166004820152602401602060405180830381600087803b151561041757600080fd5b5af1151561042457600080fd5b50505060405180519050151561043957600080fd5b610442836106f6565b5060019392505050565b60005433600160a060020a0390811691161461046757600080fd5b6002805473ffffffffffffffffffffffffffffffffffffffff1916600160a060020a0392909216919091179055565b600054600160a060020a031681565b60005433600160a060020a039081169116146104c057600080fd5b600154600160a060020a031663d3ce77fe838360405160e060020a63ffffffff8516028152600160a060020a0390921660048301526024820152604401602060405180830381600087803b151561051657600080fd5b5af1151561052357600080fd5b505050604051805150505050565b61053961078a565b600380548060200260200160405190810160405280929190818152602001828054801561058f57602002820191906000526020600020905b8154600160a060020a03168152600190910190602001808311610571575b505050505090505b90565b60019392505050565b60005433600160a060020a039081169116146105be57600080fd5b600160a060020a03811615156105d357600080fd5b600054600160a060020a0380831691167f8be0079c531659141344cd1fd0a4f28419497f9722a3daafe3b4186f6b6457e060405160405180910390a36000805473ffffffffffffffffffffffffffffffffffffffff1916600160a060020a0392909216919091179055565b60005433600160a060020a0390811691161461065957600080fd5b600154600160a060020a031663f41e60c58260405160e060020a63ffffffff84160281529015156004820152602401600060405180830381600087803b15156106a157600080fd5b5af115156106ae57600080fd5b50505050565b50600190565b600154600160a060020a031681565b600080600160a060020a03831615156106e557600091506106f0565b823b90506000811191505b50919050565b600160a060020a03811660009081526004602052604090205460ff161561071c57610787565b600160a060020a0381166000908152600460205260409020805460ff191660019081179091556003805490918101610754838261079c565b506000918252602090912001805473ffffffffffffffffffffffffffffffffffffffff1916600160a060020a0383161790555b50565b60206040519081016040526000815290565b8154818355818115116107c0576000838152602090206107c09181019083016107c5565b505050565b61059791905b808211156107df57600081556001016107cb565b50905600a165627a7a7230582035672fce176f2260bf90a0ec464d1c3cbae51b13d0d68ffcd6043f3b2a5acf1c0029a165627a7a7230582024a5ea728551a5a3024b5f5a6a4997275ebe82d2558249033f22b03fa2dbbeb10029",
  "source": "pragma solidity 0.4.21;\n\nimport \"openzeppelin-solidity/contracts/ownership/Ownable.sol\";\nimport \"./Token36.sol\";\nimport \"./Token36Controller.sol\";\n\n\n/// @title Cash36 Index Contract\n/// @author element36.io\ncontract Cash36 is Ownable {\n\n    // Token Storage\n    address[] tokens;\n    mapping(string => bool) registeredSymbol;\n    mapping(string => uint256) tokenIndexBySymbol;\n    mapping(address => address) tokenControllerByTokenAddress;\n\n    // Whitelisted Exchanges\n    mapping(address => bool) allowedExchanges;\n\n    modifier onlyAllowedExchanges {\n        require(allowedExchanges[msg.sender]);\n        _;\n    }\n\n    // Event\n    event TokenCreated(string _name, string _symbol, address tokenAddress, address tokenControllerAddress);\n\n    /**\n     * @notice Create a new Token36\n     * @dev Also creates a token controller with given KYC Provider (Calls Event TokenCreated on success)\n     * @param _name Name of the token (as with ERC20)\n     * @param _symbol Symbol of the token (as with ERC20)\n     * @param _kycProvider Address of the KYC Provider contract\n     */\n    function createNewToken(string _name, string _symbol, address _kycProvider) external onlyAllowedExchanges {\n        require(keccak256(_name) != keccak256(\"\"));\n        require(keccak256(_symbol) != keccak256(\"\"));\n        require(registeredSymbol[_symbol] == false);\n        require(isContract(_kycProvider));\n\n        Token36 newToken = new Token36(_name, _symbol);\n\n        tokenIndexBySymbol[_symbol] = tokens.length;\n        tokens.push(newToken);\n        registeredSymbol[_symbol] = true;\n\n        Token36Controller newController = new Token36Controller(newToken, _kycProvider);\n        tokenControllerByTokenAddress[newToken] = address(newController);\n\n        // Transfer Ownership of controller to Exchange who creates the Token\n        newController.transferOwnership(msg.sender);\n\n        // Set new Controller as token controller\n        newToken.changeController(address(newController));\n\n        emit TokenCreated(_name, _symbol, address(newToken), address(newController));\n    }\n\n    /**\n      @notice Get all Cash36 Tokens\n      @return address array of all cash36 tokens\n    */\n    function getTokens() external view returns (address[]) {\n        return tokens;\n    }\n\n    /**\n      @notice Check if token with given symbl is a registered cash36 token\n      @param _symbol Symbol of the Token to be checked\n      @return bool true if token is a registered and active cash36 token\n    */\n    function isCash36Token(string _symbol) external view returns (bool) {\n        return registeredSymbol[_symbol];\n    }\n\n    /**\n      @notice Get the Token address by symbol\n      @param _symbol Symbol of the Token\n    */\n    function getTokenBySymbol(string _symbol) external view returns (address) {\n        require(registeredSymbol[_symbol]);\n        address tokenAddress = tokens[tokenIndexBySymbol[_symbol]];\n\n        return tokenAddress;\n    }\n\n    /**\n      @notice Get the TokenController address\n      @param _tokenAddress Address of the Token\n    */\n    function getTokenController(address _tokenAddress) external view onlyAllowedExchanges returns (address) {\n        return tokenControllerByTokenAddress[_tokenAddress];\n    }\n\n    /**\n      @notice Add an exchange to the whitelist\n      @param _exchange Address of the exchange\n    */\n    function addExchange(address _exchange) external onlyOwner {\n        require(isContract(_exchange) == false);\n        allowedExchanges[_exchange] = true;\n    }\n\n    /**\n      @notice Remove an exchange from the whitelist\n      @param _exchange Address of the exchange\n    */\n    function removeExchange(address _exchange) external onlyOwner {\n        allowedExchanges[_exchange] = false;\n    }\n\n    /**\n      @notice Check if an exchange is on the whitelist\n      @param _exchange Address of the exchange\n    */\n    function isAllowedExchange(address _exchange) external view returns (bool) {\n        return allowedExchanges[_exchange];\n    }\n\n    /// INTERNAL\n    function isContract(address _address) internal view returns(bool) {\n        uint size;\n        if (_address == 0) {\n            return false;\n        }\n        assembly {\n            size := extcodesize(_address)\n        }\n        return size > 0;\n    }\n}",
  "sourcePath": "/builds/cash36/contracts/contracts/Cash36.sol",
  "compiler": {
    "name": "solc",
    "version": "0.4.21+commit.dfe3193c.Emscripten.clang"
  },
  "schemaVersion": "2.0.0",
  "updatedAt": "2018-06-12T09:04:06.316Z"
}