{
  "contractName": "Cash36Compliance",
  "abi": [
    {
      "constant": true,
      "inputs": [
        {
          "name": "addressToCheck",
          "type": "address"
        }
      ],
      "name": "isOfficer",
      "outputs": [
        {
          "name": "",
          "type": "bool"
        }
      ],
      "payable": false,
      "stateMutability": "view",
      "type": "function"
    },
    {
      "constant": false,
      "inputs": [
        {
          "name": "newComplianceOfficer",
          "type": "address"
        }
      ],
      "name": "changeOfficer",
      "outputs": [],
      "payable": false,
      "stateMutability": "nonpayable",
      "type": "function"
    },
    {
      "constant": true,
      "inputs": [],
      "name": "complianceOfficer",
      "outputs": [
        {
          "name": "",
          "type": "address"
        }
      ],
      "payable": false,
      "stateMutability": "view",
      "type": "function"
    },
    {
      "constant": false,
      "inputs": [
        {
          "name": "_user",
          "type": "address"
        }
      ],
      "name": "addUser",
      "outputs": [],
      "payable": false,
      "stateMutability": "nonpayable",
      "type": "function"
    },
    {
      "constant": false,
      "inputs": [
        {
          "name": "_company",
          "type": "address"
        }
      ],
      "name": "addCompany",
      "outputs": [],
      "payable": false,
      "stateMutability": "nonpayable",
      "type": "function"
    },
    {
      "constant": true,
      "inputs": [
        {
          "name": "_company",
          "type": "address"
        }
      ],
      "name": "isCompany",
      "outputs": [
        {
          "name": "",
          "type": "bool"
        }
      ],
      "payable": false,
      "stateMutability": "view",
      "type": "function"
    },
    {
      "constant": true,
      "inputs": [
        {
          "name": "_user",
          "type": "address"
        }
      ],
      "name": "checkUser",
      "outputs": [
        {
          "name": "",
          "type": "bool"
        }
      ],
      "payable": false,
      "stateMutability": "view",
      "type": "function"
    },
    {
      "constant": true,
      "inputs": [
        {
          "name": "_user",
          "type": "address"
        },
        {
          "name": "_amount",
          "type": "uint256"
        },
        {
          "name": "_balance",
          "type": "uint256"
        }
      ],
      "name": "checkUserLimit",
      "outputs": [
        {
          "name": "",
          "type": "bool"
        }
      ],
      "payable": false,
      "stateMutability": "view",
      "type": "function"
    },
    {
      "constant": true,
      "inputs": [
        {
          "name": "_user",
          "type": "address"
        }
      ],
      "name": "getUserLimit",
      "outputs": [
        {
          "name": "",
          "type": "uint256"
        }
      ],
      "payable": false,
      "stateMutability": "view",
      "type": "function"
    },
    {
      "constant": false,
      "inputs": [
        {
          "name": "_user",
          "type": "address"
        },
        {
          "name": "_limit",
          "type": "uint256"
        }
      ],
      "name": "setUserLimit",
      "outputs": [],
      "payable": false,
      "stateMutability": "nonpayable",
      "type": "function"
    },
    {
      "constant": false,
      "inputs": [
        {
          "name": "_user",
          "type": "address"
        }
      ],
      "name": "setUserLimitToUnlimited",
      "outputs": [],
      "payable": false,
      "stateMutability": "nonpayable",
      "type": "function"
    },
    {
      "constant": false,
      "inputs": [
        {
          "name": "_user",
          "type": "address"
        },
        {
          "name": "_attribute",
          "type": "bytes32"
        },
        {
          "name": "_value",
          "type": "uint256"
        }
      ],
      "name": "setAttribute",
      "outputs": [],
      "payable": false,
      "stateMutability": "nonpayable",
      "type": "function"
    },
    {
      "constant": true,
      "inputs": [
        {
          "name": "_user",
          "type": "address"
        },
        {
          "name": "_attribute",
          "type": "bytes32"
        }
      ],
      "name": "hasAttribute",
      "outputs": [
        {
          "name": "",
          "type": "bool"
        }
      ],
      "payable": false,
      "stateMutability": "view",
      "type": "function"
    },
    {
      "constant": true,
      "inputs": [
        {
          "name": "_user",
          "type": "address"
        }
      ],
      "name": "isOnBlacklist",
      "outputs": [
        {
          "name": "",
          "type": "bool"
        }
      ],
      "payable": false,
      "stateMutability": "view",
      "type": "function"
    },
    {
      "constant": false,
      "inputs": [
        {
          "name": "_user",
          "type": "address"
        }
      ],
      "name": "blockUser",
      "outputs": [],
      "payable": false,
      "stateMutability": "nonpayable",
      "type": "function"
    },
    {
      "constant": false,
      "inputs": [
        {
          "name": "_user",
          "type": "address"
        }
      ],
      "name": "unblockUser",
      "outputs": [],
      "payable": false,
      "stateMutability": "nonpayable",
      "type": "function"
    },
    {
      "constant": false,
      "inputs": [
        {
          "name": "_user",
          "type": "address"
        }
      ],
      "name": "lockAccountForever",
      "outputs": [],
      "payable": false,
      "stateMutability": "nonpayable",
      "type": "function"
    }
  ],
  "bytecode": "0x6080604052600080546001600160a01b03191633179055610aaa806100256000396000f3fe608060405234801561001057600080fd5b506004361061010b5760003560e01c80636b618ff9116100a2578063af3105e511610071578063af3105e514610300578063c4a56fc814610332578063cd54adea14610356578063dc9f235b1461037c578063e9587e86146103a85761010b565b80636b618ff9146102565780637338c25c1461028857806376ed9f5e146102b4578063a0406ce2146102da5761010b565b8063421b2d8b116100de578063421b2d8b146101be578063601c0a7a146101e4578063634513ca1461020a5780636816442d146102305761010b565b80631e622050146101105780631e9d48cf1461014a57806339d319e5146101705780633da0132514610198575b600080fd5b6101366004803603602081101561012657600080fd5b50356001600160a01b03166103e0565b604080519115158252519081900360200190f35b6101366004803603602081101561016057600080fd5b50356001600160a01b0316610402565b6101966004803603602081101561018657600080fd5b50356001600160a01b031661047d565b005b610196600480360360208110156101ae57600080fd5b50356001600160a01b03166104e7565b610196600480360360208110156101d457600080fd5b50356001600160a01b0316610554565b610196600480360360208110156101fa57600080fd5b50356001600160a01b0316610607565b6101966004803603602081101561022057600080fd5b50356001600160a01b031661066e565b6101366004803603602081101561024657600080fd5b50356001600160a01b03166107c6565b6101366004803603606081101561026c57600080fd5b506001600160a01b0381351690602081013590604001356107da565b6101366004803603604081101561029e57600080fd5b506001600160a01b03813516906020013561080e565b610196600480360360208110156102ca57600080fd5b50356001600160a01b031661083b565b610136600480360360208110156102f057600080fd5b50356001600160a01b03166108a6565b6101966004803603606081101561031657600080fd5b506001600160a01b0381351690602081013590604001356108c4565b61033a61094f565b604080516001600160a01b039092168252519081900360200190f35b6101966004803603602081101561036c57600080fd5b50356001600160a01b031661095e565b6101966004803603604081101561039257600080fd5b506001600160a01b0381351690602001356109cb565b6103ce600480360360208110156103be57600080fd5b50356001600160a01b0316610a30565b60408051918252519081900360200190f35b6001600160a01b03811660009081526005602052604090205460ff165b919050565b6001600160a01b03811660009081526001602052604081205460ff16801561044357506001600160a01b03821660009081526005602052604090205460ff16155b801561046857506001600160a01b03821660009081526006602052604090205460ff16155b15610475575060016103fd565b506000919050565b6000546001600160a01b031633146104c65760405162461bcd60e51b815260040180806020018281038252602a815260200180610a4c602a913960400191505060405180910390fd5b6001600160a01b03166000908152600560205260409020805460ff19169055565b6000546001600160a01b031633146105305760405162461bcd60e51b815260040180806020018281038252602a815260200180610a4c602a913960400191505060405180910390fd5b6001600160a01b03166000908152600560205260409020805460ff19166001179055565b6000546001600160a01b0316331461059d5760405162461bcd60e51b815260040180806020018281038252602a815260200180610a4c602a913960400191505060405180910390fd5b6001600160a01b03166000818152600160208181526040808420805460ff1916841790556004825280842060001990558051808201825267415454525f42555960c01b80825281840185815296865260038452828620908652909252909220915182559151910155565b6000546001600160a01b031633146106505760405162461bcd60e51b815260040180806020018281038252602a815260200180610a4c602a913960400191505060405180910390fd5b6001600160a01b031660009081526004602052604090206000199055565b6000546001600160a01b031633146106b75760405162461bcd60e51b815260040180806020018281038252602a815260200180610a4c602a913960400191505060405180910390fd5b6001600160a01b03166000818152600160208181526040808420805460ff199081168517909155600283528185208054909116841790556004825280842060001990558051808201825267415454525f42555960c01b808252818401858152968652600384528286209086528084528286209151825595519084015580518082018252681055151497d4d1531360ba1b808252818401858152908652868452828620915182555190840155805180820182526b415454525f5245434549564560a01b80825281840185815290865286845282862091518255519084015580518082018252681055151497d4d1539160ba1b80825281840185815290865295909252909220915182559151910155565b6000546001600160a01b0391821691161490565b6001600160a01b0383166000908152600460205260408120548284011161080357506001610807565b5060005b9392505050565b6001600160a01b039190911660009081526003602090815260408083209383529290522060010154151590565b6000546001600160a01b031633146108845760405162461bcd60e51b815260040180806020018281038252602a815260200180610a4c602a913960400191505060405180910390fd5b600080546001600160a01b0319166001600160a01b0392909216919091179055565b6001600160a01b031660009081526002602052604090205460ff1690565b6000546001600160a01b0316331461090d5760405162461bcd60e51b815260040180806020018281038252602a815260200180610a4c602a913960400191505060405180910390fd5b60408051808201825283815260208082019384526001600160a01b03909516600090815260038652828120948152939094529091209151825551600190910155565b6000546001600160a01b031690565b6000546001600160a01b031633146109a75760405162461bcd60e51b815260040180806020018281038252602a815260200180610a4c602a913960400191505060405180910390fd5b6001600160a01b03166000908152600660205260409020805460ff19166001179055565b6000546001600160a01b03163314610a145760405162461bcd60e51b815260040180806020018281038252602a815260200180610a4c602a913960400191505060405180910390fd5b6001600160a01b03909116600090815260046020526040902055565b6001600160a01b03166000908152600460205260409020549056fe616363657373206e6f7420616c6c6f7765642c206f6e6c7920636f6d706c69616e63654f666669636572a265627a7a723058207447ffd80a2d5ce8c78e61a4900281f932ecf15b6d088126511a7b60d9f77b1f64736f6c63430005090032",
  "source": "pragma solidity ^0.5.9;\n\nimport \"./HasOfficer.sol\";\n\n\n/// @title Cash36 Compliance Contract\n/// @notice Is responsible for keeping track of all KYCed users (and possibly Companies), blacklist and attributes.\n/// @notice Changes to users can only be done be assigned compliance officer (=part of Compliance Backend Service)\n/// @author element36.io\ncontract Cash36Compliance is HasOfficer {\n\n    // Tracks KYCed users and companies\n    mapping(address => bool) private users;\n    mapping(address => bool) private companies;\n\n    // Allow attributes for KYCed Users for a better ACL like BUY, SELL, SEND, RECEIVE\n    struct Attribute {\n        bytes32 attribute;\n        uint256 value;\n    }\n    mapping(address => mapping(bytes32 => Attribute)) private attributes;\n\n    // Tracks current User transfer limits\n    mapping(address => uint256) private userLimits;\n\n    // Tracks blacklisted users - 'overrides' KYCed users\n    mapping(address => bool) private blacklist;\n\n    // Tracks forever locked accounts - like Credit cards - no unlocks\n    mapping(address => bool) private lockedAccounts;\n\n    /**\n     * @notice Add user once he passed KYC process\n     * @dev onlyComplianceOfficer - only open to assigned Compliance Officer Account\n     * @param _user Address of the KYCed user\n     */\n    function addUser(address _user) public onlyComplianceOfficer {\n        users[_user] = true;\n        userLimits[_user] = uint256(-1);\n        attributes[_user][\"ATTR_BUY\"] = Attribute(\"ATTR_BUY\", 1);\n    }\n\n    /**\n     * @notice Add company once it passed KYC process - after that Company is handled as a User\n     * @dev onlyComplianceOfficer - only open to assigned Compliance Officer Account\n     * @param _company Address of the KYCed company\n     */\n    function addCompany(address _company) public onlyComplianceOfficer {\n        users[_company] = true;\n        companies[_company] = true;\n        userLimits[_company] = uint256(-1);\n        attributes[_company][\"ATTR_BUY\"] = Attribute(\"ATTR_BUY\", 1);\n        attributes[_company][\"ATTR_SELL\"] = Attribute(\"ATTR_SELL\", 1);\n        attributes[_company][\"ATTR_RECEIVE\"] = Attribute(\"ATTR_RECEIVE\", 1);\n        attributes[_company][\"ATTR_SEND\"] = Attribute(\"ATTR_SEND\", 1);\n    }\n\n    /**\n     * @notice Check if a registered address is a KYCed element36 company\n     * @param _company Address of the user\n     * @return {\n     *   \"bool\": \"True when User is a registered company\"\n     * }\n     */\n    function isCompany(address _company) public view returns (bool) {\n        return companies[_company];\n    }\n\n    /**\n     * @notice Check User if registered and if on blacklist or account is locked\n     * @param _user Address of the user\n     * @return {\n     *   \"bool\": \"True when User is KYCed and not on Blacklist\"\n     * }\n     */\n    function checkUser(address _user) public view returns (bool) {\n        if (users[_user] && !blacklist[_user] && !lockedAccounts[_user]) {\n            return true;\n        }\n        return false;\n    }\n\n    /**\n     * @notice Check if a given amount is within the current limit of the User\n     * @param _user Address of the user\n     * @param _amount Amount of the transaction\n     * @param _balance Current balance of the user\n     * @return {\n     *   \"bool\": \"True when balance plus amount is smaller than the user limit\"\n     * }\n     */\n    function checkUserLimit(address _user, uint256 _amount, uint256 _balance) public view returns (bool) {\n        if (_balance + _amount <= userLimits[_user]) {\n            return true;\n        }\n        return false;\n    }\n\n    /**\n     * @notice Get the limit of the user\n     * @param _user Address of the user\n     * @return {\n     *   \"uint256\": \"The current user limit\"\n     * }\n     */\n    function getUserLimit(address _user) public view returns (uint256) {\n        return userLimits[_user];\n    }\n\n    /**\n     * @notice Set the limit of the user\n     * @dev onlyComplianceOfficer - only open to assigned Compliance Officer Account\n     * @param _user Address of the user\n     * @param _limit New limit of the user\n     */\n    function setUserLimit(address _user, uint256 _limit) public onlyComplianceOfficer {\n        userLimits[_user] = _limit;\n    }\n\n    /**\n     * @notice Helper for web3j as passing -1 fails\n     * @dev onlyComplianceOfficer - only open to assigned Compliance Officer Account\n     * @param _user Address of the user\n     */\n    function setUserLimitToUnlimited(address _user) public onlyComplianceOfficer {\n        userLimits[_user] = uint256(-1);\n    }\n\n    /**\n     * @notice Set an attribute of the User\n     * @dev onlyComplianceOfficer - only open to assigned Compliance Officer Account\n     * @param _user Address of the user\n     * @param _attribute Name of the attribute\n     * @param _value value of the attribute (1 or 0)\n     */\n    function setAttribute(address _user, bytes32 _attribute, uint256 _value) public onlyComplianceOfficer {\n        attributes[_user][_attribute] = Attribute(_attribute, _value);\n    }\n\n    /**\n     * @notice Check if a User has a given attribute\n     * @param _user Address of the user\n     * @param _attribute Name of the attribute\n     */\n    function hasAttribute(address _user, bytes32 _attribute) public view returns (bool) {\n        return attributes[_user][_attribute].value != 0;\n    }\n\n    /**\n     * @notice Check User if on Blacklist\n     * @param _user Address of the user\n     * @return {\n     *   \"bool\": \"True when User is listed on Blacklist\"\n     * }\n     */\n    function isOnBlacklist(address _user) public view returns (bool) {\n        return blacklist[_user];\n    }\n\n    /**\n     * @notice Blocking User by adding him onto the Blacklist\n     * @dev onlyComplianceOfficer - only open to assigned Compliance Officer Account\n     * @param _user Address of the user\n     */\n    function blockUser(address _user) public onlyComplianceOfficer {\n        blacklist[_user] = true;\n    }\n\n    /**\n     * @notice Unblocking User by removing him from the Blacklist\n     * @dev onlyComplianceOfficer - only open to assigned Compliance Officer Account\n     * @param _user Address of the user\n     */\n    function unblockUser(address _user) public onlyComplianceOfficer {\n        blacklist[_user] = false;\n    }\n\n    /**\n     * @notice Lock the account of a given user - Irreversible call - like Credit card\n     * @dev onlyComplianceOfficer - only open to assigned Compliance Officer Account\n     * @param _user Address of the user\n     */\n    function lockAccountForever(address _user) public onlyComplianceOfficer {\n        lockedAccounts[_user] = true;\n    }\n}",
  "sourcePath": "/Users/bum/element36/dev/cash36/contracts/contracts/Cash36Compliance.sol",
  "compiler": {
    "name": "solc",
    "version": "0.5.9+commit.e560f70d.Emscripten.clang"
  },
  "schemaVersion": "3.0.11",
  "updatedAt": "2019-09-11T09:38:27.609Z",
  "devdoc": {
    "author": "element36.io",
    "methods": {
      "addCompany(address)": {
        "details": "onlyComplianceOfficer - only open to assigned Compliance Officer Account",
        "params": {
          "_company": "Address of the KYCed company"
        }
      },
      "addUser(address)": {
        "details": "onlyComplianceOfficer - only open to assigned Compliance Officer Account",
        "params": {
          "_user": "Address of the KYCed user"
        }
      },
      "blockUser(address)": {
        "details": "onlyComplianceOfficer - only open to assigned Compliance Officer Account",
        "params": {
          "_user": "Address of the user"
        }
      },
      "changeOfficer(address)": {
        "details": "onlyComplianceOfficer - only open to the currently assigned compliance Officer",
        "params": {
          "newComplianceOfficer": "The new compliance officer of the contract"
        }
      },
      "checkUser(address)": {
        "params": {
          "_user": "Address of the user"
        },
        "return": "{  \"bool\": \"True when User is KYCed and not on Blacklist\" }"
      },
      "checkUserLimit(address,uint256,uint256)": {
        "params": {
          "_amount": "Amount of the transaction",
          "_balance": "Current balance of the user",
          "_user": "Address of the user"
        },
        "return": "{  \"bool\": \"True when balance plus amount is smaller than the user limit\" }"
      },
      "getUserLimit(address)": {
        "params": {
          "_user": "Address of the user"
        },
        "return": "{  \"uint256\": \"The current user limit\" }"
      },
      "hasAttribute(address,bytes32)": {
        "params": {
          "_attribute": "Name of the attribute",
          "_user": "Address of the user"
        }
      },
      "isCompany(address)": {
        "params": {
          "_company": "Address of the user"
        },
        "return": "{  \"bool\": \"True when User is a registered company\" }"
      },
      "isOfficer(address)": {
        "params": {
          "addressToCheck": "Address to be checked"
        },
        "return": "{  \"bool\": \"True when address is the currently assigned complianceOfficer\" }"
      },
      "isOnBlacklist(address)": {
        "params": {
          "_user": "Address of the user"
        },
        "return": "{  \"bool\": \"True when User is listed on Blacklist\" }"
      },
      "lockAccountForever(address)": {
        "details": "onlyComplianceOfficer - only open to assigned Compliance Officer Account",
        "params": {
          "_user": "Address of the user"
        }
      },
      "setAttribute(address,bytes32,uint256)": {
        "details": "onlyComplianceOfficer - only open to assigned Compliance Officer Account",
        "params": {
          "_attribute": "Name of the attribute",
          "_user": "Address of the user",
          "_value": "value of the attribute (1 or 0)"
        }
      },
      "setUserLimit(address,uint256)": {
        "details": "onlyComplianceOfficer - only open to assigned Compliance Officer Account",
        "params": {
          "_limit": "New limit of the user",
          "_user": "Address of the user"
        }
      },
      "setUserLimitToUnlimited(address)": {
        "details": "onlyComplianceOfficer - only open to assigned Compliance Officer Account",
        "params": {
          "_user": "Address of the user"
        }
      },
      "unblockUser(address)": {
        "details": "onlyComplianceOfficer - only open to assigned Compliance Officer Account",
        "params": {
          "_user": "Address of the user"
        }
      }
    },
    "title": "Cash36 Compliance Contract"
  },
  "userdoc": {
    "methods": {
      "addCompany(address)": {
        "notice": "Add company once it passed KYC process - after that Company is handled as a User"
      },
      "addUser(address)": {
        "notice": "Add user once he passed KYC process"
      },
      "blockUser(address)": {
        "notice": "Blocking User by adding him onto the Blacklist"
      },
      "changeOfficer(address)": {
        "notice": "Changes the ComplianceOfficer of the contract"
      },
      "checkUser(address)": {
        "notice": "Check User if registered and if on blacklist or account is locked"
      },
      "checkUserLimit(address,uint256,uint256)": {
        "notice": "Check if a given amount is within the current limit of the User"
      },
      "getUserLimit(address)": {
        "notice": "Get the limit of the user"
      },
      "hasAttribute(address,bytes32)": {
        "notice": "Check if a User has a given attribute"
      },
      "isCompany(address)": {
        "notice": "Check if a registered address is a KYCed element36 company"
      },
      "isOfficer(address)": {
        "notice": "Check if given address it the assigned Compliance Officer"
      },
      "isOnBlacklist(address)": {
        "notice": "Check User if on Blacklist"
      },
      "lockAccountForever(address)": {
        "notice": "Lock the account of a given user - Irreversible call - like Credit card"
      },
      "setAttribute(address,bytes32,uint256)": {
        "notice": "Set an attribute of the User"
      },
      "setUserLimit(address,uint256)": {
        "notice": "Set the limit of the user"
      },
      "setUserLimitToUnlimited(address)": {
        "notice": "Helper for web3j as passing -1 fails"
      },
      "unblockUser(address)": {
        "notice": "Unblocking User by removing him from the Blacklist"
      }
    },
    "notice": "Is responsible for keeping track of all KYCed users (and possibly Companies), blacklist and attributes.Changes to users can only be done be assigned compliance officer (=part of Compliance Backend Service)"
  }
}