{
  "contractName": "Cash36Compliance",
  "abi": [
    {
      "constant": true,
      "inputs": [
        {
          "name": "_addressToCheck",
          "type": "address"
        }
      ],
      "name": "isOfficer",
      "outputs": [
        {
          "name": "",
          "type": "bool"
        }
      ],
      "payable": false,
      "stateMutability": "view",
      "type": "function"
    },
    {
      "constant": false,
      "inputs": [],
      "name": "renounceOwnership",
      "outputs": [],
      "payable": false,
      "stateMutability": "nonpayable",
      "type": "function"
    },
    {
      "constant": false,
      "inputs": [
        {
          "name": "_newComplianceOfficer",
          "type": "address"
        }
      ],
      "name": "changeOfficer",
      "outputs": [],
      "payable": false,
      "stateMutability": "nonpayable",
      "type": "function"
    },
    {
      "constant": true,
      "inputs": [],
      "name": "owner",
      "outputs": [
        {
          "name": "",
          "type": "address"
        }
      ],
      "payable": false,
      "stateMutability": "view",
      "type": "function"
    },
    {
      "constant": true,
      "inputs": [],
      "name": "complianceOfficer",
      "outputs": [
        {
          "name": "",
          "type": "address"
        }
      ],
      "payable": false,
      "stateMutability": "view",
      "type": "function"
    },
    {
      "constant": false,
      "inputs": [
        {
          "name": "_newOwner",
          "type": "address"
        }
      ],
      "name": "transferOwnership",
      "outputs": [],
      "payable": false,
      "stateMutability": "nonpayable",
      "type": "function"
    },
    {
      "anonymous": false,
      "inputs": [
        {
          "indexed": true,
          "name": "previousOwner",
          "type": "address"
        }
      ],
      "name": "OwnershipRenounced",
      "type": "event"
    },
    {
      "anonymous": false,
      "inputs": [
        {
          "indexed": true,
          "name": "previousOwner",
          "type": "address"
        },
        {
          "indexed": true,
          "name": "newOwner",
          "type": "address"
        }
      ],
      "name": "OwnershipTransferred",
      "type": "event"
    },
    {
      "constant": false,
      "inputs": [
        {
          "name": "_user",
          "type": "address"
        }
      ],
      "name": "addUser",
      "outputs": [],
      "payable": false,
      "stateMutability": "nonpayable",
      "type": "function"
    },
    {
      "constant": true,
      "inputs": [
        {
          "name": "_user",
          "type": "address"
        }
      ],
      "name": "checkUser",
      "outputs": [
        {
          "name": "",
          "type": "bool"
        }
      ],
      "payable": false,
      "stateMutability": "view",
      "type": "function"
    },
    {
      "constant": true,
      "inputs": [
        {
          "name": "_user",
          "type": "address"
        },
        {
          "name": "_amount",
          "type": "uint256"
        },
        {
          "name": "_balance",
          "type": "uint256"
        }
      ],
      "name": "checkUserLimit",
      "outputs": [
        {
          "name": "",
          "type": "bool"
        }
      ],
      "payable": false,
      "stateMutability": "view",
      "type": "function"
    },
    {
      "constant": true,
      "inputs": [
        {
          "name": "_user",
          "type": "address"
        }
      ],
      "name": "getUserLimit",
      "outputs": [
        {
          "name": "",
          "type": "uint256"
        }
      ],
      "payable": false,
      "stateMutability": "view",
      "type": "function"
    },
    {
      "constant": false,
      "inputs": [
        {
          "name": "_user",
          "type": "address"
        },
        {
          "name": "_limit",
          "type": "uint256"
        }
      ],
      "name": "setUserLimit",
      "outputs": [],
      "payable": false,
      "stateMutability": "nonpayable",
      "type": "function"
    },
    {
      "constant": false,
      "inputs": [
        {
          "name": "_user",
          "type": "address"
        }
      ],
      "name": "setUserLimitToUnlimited",
      "outputs": [],
      "payable": false,
      "stateMutability": "nonpayable",
      "type": "function"
    },
    {
      "constant": false,
      "inputs": [
        {
          "name": "_user",
          "type": "address"
        }
      ],
      "name": "blockUser",
      "outputs": [],
      "payable": false,
      "stateMutability": "nonpayable",
      "type": "function"
    },
    {
      "constant": false,
      "inputs": [
        {
          "name": "_user",
          "type": "address"
        }
      ],
      "name": "unblockUser",
      "outputs": [],
      "payable": false,
      "stateMutability": "nonpayable",
      "type": "function"
    },
    {
      "constant": true,
      "inputs": [
        {
          "name": "_user",
          "type": "address"
        }
      ],
      "name": "isOnBlacklist",
      "outputs": [
        {
          "name": "",
          "type": "bool"
        }
      ],
      "payable": false,
      "stateMutability": "view",
      "type": "function"
    },
    {
      "constant": false,
      "inputs": [
        {
          "name": "_exchange",
          "type": "address"
        },
        {
          "name": "_token",
          "type": "address"
        }
      ],
      "name": "addExchange",
      "outputs": [],
      "payable": false,
      "stateMutability": "nonpayable",
      "type": "function"
    },
    {
      "constant": false,
      "inputs": [
        {
          "name": "_exchange",
          "type": "address"
        },
        {
          "name": "_token",
          "type": "address"
        }
      ],
      "name": "removeExchange",
      "outputs": [],
      "payable": false,
      "stateMutability": "nonpayable",
      "type": "function"
    },
    {
      "constant": true,
      "inputs": [
        {
          "name": "_exchange",
          "type": "address"
        },
        {
          "name": "_token",
          "type": "address"
        }
      ],
      "name": "isAllowedExchange",
      "outputs": [
        {
          "name": "",
          "type": "bool"
        }
      ],
      "payable": false,
      "stateMutability": "view",
      "type": "function"
    },
    {
      "constant": true,
      "inputs": [
        {
          "name": "_token",
          "type": "address"
        }
      ],
      "name": "getAllowedExchanges",
      "outputs": [
        {
          "name": "",
          "type": "address[]"
        }
      ],
      "payable": false,
      "stateMutability": "view",
      "type": "function"
    }
  ],
  "bytecode": "0x60806040526000805433600160a060020a0319918216811783556001805490921617905561095a90819061003390396000f3006080604052600436106101065763ffffffff7c01000000000000000000000000000000000000000000000000000000006000350416631e622050811461010b5780631e9d48cf1461014057806339d319e5146101615780633da0132514610184578063421b2d8b146101a5578063601c0a7a146101c65780636816442d146101e75780636b618ff914610208578063715018a61461022f57806376ed9f5e146102445780637f604b45146102655780638da5cb5b1461028c5780639a0f8719146102bd578063c4a56fc81461032e578063dc9f235b14610343578063e9587e8614610367578063ea13d8a11461039a578063f00065b6146103c1578063f2fde38b146103e8575b600080fd5b34801561011757600080fd5b5061012c600160a060020a0360043516610409565b604080519115158252519081900360200190f35b34801561014c57600080fd5b5061012c600160a060020a036004351661042b565b34801561016d57600080fd5b50610182600160a060020a0360043516610481565b005b34801561019057600080fd5b50610182600160a060020a03600435166104b9565b3480156101b157600080fd5b50610182600160a060020a03600435166104f4565b3480156101d257600080fd5b50610182600160a060020a036004351661053e565b3480156101f357600080fd5b5061012c600160a060020a0360043516610573565b34801561021457600080fd5b5061012c600160a060020a0360043516602435604435610587565b34801561023b57600080fd5b506101826105bb565b34801561025057600080fd5b50610182600160a060020a0360043516610627565b34801561027157600080fd5b50610182600160a060020a036004358116906024351661066d565b34801561029857600080fd5b506102a1610707565b60408051600160a060020a039092168252519081900360200190f35b3480156102c957600080fd5b506102de600160a060020a0360043516610716565b60408051602080825283518183015283519192839290830191858101910280838360005b8381101561031a578181015183820152602001610302565b505050509050019250505060405180910390f35b34801561033a57600080fd5b506102a161078c565b34801561034f57600080fd5b50610182600160a060020a036004351660243561079b565b34801561037357600080fd5b50610388600160a060020a03600435166107ce565b60408051918252519081900360200190f35b3480156103a657600080fd5b5061012c600160a060020a03600435811690602435166107e9565b3480156103cd57600080fd5b50610182600160a060020a0360043581169060243516610818565b3480156103f457600080fd5b50610182600160a060020a0360043516610861565b600160a060020a03811660009081526003602052604090205460ff165b919050565b600160a060020a03811660009081526002602052604081205460ff16801561046c5750600160a060020a03821660009081526003602052604090205460ff16155b1561047957506001610426565b506000919050565b600154600160a060020a0316331461049857600080fd5b600160a060020a03166000908152600360205260409020805460ff19169055565b600154600160a060020a031633146104d057600080fd5b600160a060020a03166000908152600360205260409020805460ff19166001179055565b600154600160a060020a0316331461050b57600080fd5b600160a060020a03166000908152600260209081526040808320805460ff19166001179055600490915290206103e89055565b600154600160a060020a0316331461055557600080fd5b600160a060020a031660009081526004602052604090206000199055565b600154600160a060020a0391821691161490565b600160a060020a038316600090815260046020526040812054828401116105b0575060016105b4565b5060005b9392505050565b600054600160a060020a031633146105d257600080fd5b60008054604051600160a060020a03909116917ff8df31144d9c2f0f6b59d69b8b98abd5459d07f2742c4df920b25aae33c6482091a26000805473ffffffffffffffffffffffffffffffffffffffff19169055565b600154600160a060020a0316331461063e57600080fd5b6001805473ffffffffffffffffffffffffffffffffffffffff1916600160a060020a0392909216919091179055565b600054600160a060020a0316331461068457600080fd5b61068d82610884565b1561069757600080fd5b600160a060020a03908116600081815260056020908152604080832080546001808201835591855283852001805473ffffffffffffffffffffffffffffffffffffffff1916979096169687179095559282526006815282822094825293909352909120805460ff19169091179055565b600054600160a060020a031681565b600160a060020a03811660009081526005602090815260409182902080548351818402810184019094528084526060939283018282801561078057602002820191906000526020600020905b8154600160a060020a03168152600190910190602001808311610762575b50505050509050919050565b600154600160a060020a031681565b600154600160a060020a031633146107b257600080fd5b600160a060020a03909116600090815260046020526040902055565b600160a060020a031660009081526004602052604090205490565b600160a060020a0380821660009081526006602090815260408083209386168352929052205460ff1692915050565b600054600160a060020a0316331461082f57600080fd5b600160a060020a039081166000908152600660209081526040808320949093168252929092529020805460ff19169055565b600054600160a060020a0316331461087857600080fd5b610881816108b1565b50565b600080600160a060020a03831615156108a057600091506108ab565b823b90506000811191505b50919050565b600160a060020a03811615156108c657600080fd5b60008054604051600160a060020a03808516939216917f8be0079c531659141344cd1fd0a4f28419497f9722a3daafe3b4186f6b6457e091a36000805473ffffffffffffffffffffffffffffffffffffffff1916600160a060020a03929092169190911790555600a165627a7a7230582039d9b8f1b7ca9e7646e80ad75a9dd521caad09eb0e01e59164fd67857ba3ef460029",
  "source": "pragma solidity ^0.4.24;\n\nimport \"openzeppelin-solidity/contracts/ownership/Ownable.sol\";\nimport \"./HasOfficer.sol\";\n\n\n/// @title Cash36 Compliance Contract\n/// @notice Is responsible for keeping track of all KYCed users, users blacklist and white-listed exchanges.\n/// @author element36.io\ncontract Cash36Compliance is Ownable, HasOfficer {\n\n    // Tracks KYCed users\n    mapping(address => bool) internal users;\n\n    // Tracks blacklisted users - 'overrides' KYCed users\n    mapping(address => bool) internal blacklist;\n\n    // Tracks current User transfer limits\n    mapping(address => uint256) internal userLimits;\n\n    // Whitelisted Exchanges per token\n    mapping(address => address[]) internal allExchanges;\n    mapping(address => mapping(address => bool)) internal allowedExchanges;\n\n    /**\n     * @notice Add user once he passed KYC process\n     * @dev onlyComplianceOfficer - only open to assigned Compliance Officer Account\n     * @param _user Address of the KYCed user\n     */\n    function addUser(address _user) public onlyComplianceOfficer {\n        users[_user] = true;\n        userLimits[_user] = 1000;\n    }\n\n    /**\n     * @notice Check User if registered, its limits and Blacklist\n     * @param _user Address of the user\n     * @return {\n     *   \"bool\": \"True when User is KYCed, within limits and not on Blacklist\"\n     * }\n     */\n    function checkUser(address _user) public view returns (bool) {\n        if (users[_user] && !blacklist[_user]) {\n            return true;\n        }\n        return false;\n    }\n\n    /**\n     * @notice Check if a given amount is within the current limit of the User\n     * @param _user Address of the user\n     * @param _amount Amount of the transaction\n     * @param _balance Current balance of the user\n     * @return {\n     *   \"bool\": \"True when balance plus amount is smaller than the user limit\"\n     * }\n     */\n    function checkUserLimit(address _user, uint256 _amount, uint256 _balance) public view returns (bool) {\n        if (_balance + _amount <= userLimits[_user]) {\n            return true;\n        }\n        return false;\n    }\n\n    /**\n     * @notice Get the limit of the user\n     * @param _user Address of the user\n     * @return {\n     *   \"uint256\": \"The current user limit\"\n     * }\n     */\n    function getUserLimit(address _user) public view returns (uint256) {\n        return userLimits[_user];\n    }\n\n    /**\n     * @notice Set the limit of the user\n     * @dev onlyComplianceOfficer - only open to assigned Compliance Officer Account\n     * @param _user Address of the user\n     * @param _limit New limit of the user\n     */\n    function setUserLimit(address _user, uint256 _limit) public onlyComplianceOfficer {\n        userLimits[_user] = _limit;\n    }\n    /**\n     * @notice Helper for web3j as passing -1 fails\n     * @dev onlyComplianceOfficer - only open to assigned Compliance Officer Account\n     * @param _user Address of the user\n     */\n    function setUserLimitToUnlimited(address _user) public onlyComplianceOfficer {\n        userLimits[_user] = uint256(-1);\n    }\n\n    /**\n     * @notice Blocking User by adding him onto the Blacklist\n     * @dev onlyComplianceOfficer - only open to assigned Compliance Officer Account\n     * @param _user Address of the user\n     */\n    function blockUser(address _user) public onlyComplianceOfficer {\n        blacklist[_user] = true;\n    }\n\n    /**\n     * @notice Unblocking User by removing him from the Blacklist\n     * @dev onlyComplianceOfficer - only open to assigned Compliance Officer Account\n     * @param _user Address of the user\n     */\n    function unblockUser(address _user) public onlyComplianceOfficer {\n        blacklist[_user] = false;\n    }\n\n    /**\n     * @notice Check User if on Blacklist\n     * @param _user Address of the user\n     * @return {\n     *   \"bool\": \"True when User is listed on Blacklist\"\n     * }\n     */\n    function isOnBlacklist(address _user) public view returns (bool) {\n        return blacklist[_user];\n    }\n\n    /**\n     * @notice Add an exchange to the list of accepted Exchanges\n     * @dev Exchange can not be another Smart Contract\n     * @dev onlyOwner - only open to element36 Account\n     * @param _exchange Address of the exchange\n     */\n    function addExchange(address _exchange, address _token) external onlyOwner {\n        require(isContract(_exchange) == false);\n        allExchanges[_token].push(_exchange);\n        allowedExchanges[_token][_exchange] = true;\n    }\n\n    /**\n     * @notice Remove an exchange from the list of accepted Exchanges\n     * @dev onlyOwner - only open to element36 Account\n     * @param _exchange Address of the exchange\n     */\n    function removeExchange(address _exchange, address _token) external onlyOwner {\n        allowedExchanges[_token][_exchange] = false;\n    }\n\n    /**\n     * @notice Check if an exchange is on the list of accepted Exchanges\n     * @param _exchange Address of the exchange\n     * @return {\n     *   \"bool\": \"True when Exchange is listed\"\n     * }\n     */\n    function isAllowedExchange(address _exchange, address _token) external view returns (bool) {\n        return allowedExchanges[_token][_exchange];\n    }\n\n    /**\n     * @notice Returns all registered exchange addresses for a given token address.\n     * @dev Note: Due to limitations of solidity, this method returns the full list of every address ever registered.\n     * @dev It does not consider exchanges, which might have been flagged false afterwards.\n     * @dev Therefore to be sure, an additional call to isAllowedExchange, would be necessary.\n     * @param _token Address of the token\n     * @return {\n     *   \"address[]\": List of address of exchanges\n     * }\n    */\n    function getAllowedExchanges(address _token) external view returns (address[]) {\n        return allExchanges[_token];\n    }\n\n    /// INTERNAL\n\n    /**\n      @notice Checks if a given address is a contract or EOA\n      @param _address Address to check\n    */\n    function isContract(address _address) internal view returns(bool) {\n        uint size;\n        if (_address == 0) {\n            return false;\n        }\n        assembly {\n            size := extcodesize(_address)\n        }\n        return size > 0;\n    }\n}",
  "sourcePath": "/Users/bum/element36/dev/cash36/contracts/contracts/Cash36Compliance.sol",
  "compiler": {
    "name": "solc",
    "version": "0.4.24+commit.e67f0147.Emscripten.clang"
  },
  "schemaVersion": "2.0.1",
  "updatedAt": "2018-12-10T18:11:17.539Z"
}