{
  "contractName": "Cash36",
  "abi": [
    {
      "constant": false,
      "inputs": [],
      "name": "renounceOwnership",
      "outputs": [],
      "payable": false,
      "stateMutability": "nonpayable",
      "type": "function"
    },
    {
      "constant": true,
      "inputs": [],
      "name": "owner",
      "outputs": [
        {
          "name": "",
          "type": "address"
        }
      ],
      "payable": false,
      "stateMutability": "view",
      "type": "function"
    },
    {
      "constant": false,
      "inputs": [
        {
          "name": "_newOwner",
          "type": "address"
        }
      ],
      "name": "transferOwnership",
      "outputs": [],
      "payable": false,
      "stateMutability": "nonpayable",
      "type": "function"
    },
    {
      "anonymous": false,
      "inputs": [
        {
          "indexed": true,
          "name": "previousOwner",
          "type": "address"
        }
      ],
      "name": "OwnershipRenounced",
      "type": "event"
    },
    {
      "anonymous": false,
      "inputs": [
        {
          "indexed": true,
          "name": "previousOwner",
          "type": "address"
        },
        {
          "indexed": true,
          "name": "newOwner",
          "type": "address"
        }
      ],
      "name": "OwnershipTransferred",
      "type": "event"
    },
    {
      "constant": false,
      "inputs": [
        {
          "name": "_symbol",
          "type": "string"
        },
        {
          "name": "_tokenAddress",
          "type": "address"
        }
      ],
      "name": "registerToken",
      "outputs": [],
      "payable": false,
      "stateMutability": "nonpayable",
      "type": "function"
    },
    {
      "constant": true,
      "inputs": [],
      "name": "getTokens",
      "outputs": [
        {
          "name": "",
          "type": "address[]"
        }
      ],
      "payable": false,
      "stateMutability": "view",
      "type": "function"
    },
    {
      "constant": true,
      "inputs": [
        {
          "name": "_symbol",
          "type": "string"
        }
      ],
      "name": "isCash36Token",
      "outputs": [
        {
          "name": "",
          "type": "bool"
        }
      ],
      "payable": false,
      "stateMutability": "view",
      "type": "function"
    },
    {
      "constant": true,
      "inputs": [
        {
          "name": "_symbol",
          "type": "string"
        }
      ],
      "name": "getTokenBySymbol",
      "outputs": [
        {
          "name": "",
          "type": "address"
        }
      ],
      "payable": false,
      "stateMutability": "view",
      "type": "function"
    },
    {
      "constant": false,
      "inputs": [
        {
          "name": "_symbol",
          "type": "string"
        },
        {
          "name": "_newComplianceAddress",
          "type": "address"
        }
      ],
      "name": "updateCompliance",
      "outputs": [],
      "payable": false,
      "stateMutability": "nonpayable",
      "type": "function"
    },
    {
      "constant": false,
      "inputs": [
        {
          "name": "_symbol",
          "type": "string"
        },
        {
          "name": "_newControllerAddress",
          "type": "address"
        }
      ],
      "name": "updateController",
      "outputs": [],
      "payable": false,
      "stateMutability": "nonpayable",
      "type": "function"
    },
    {
      "constant": false,
      "inputs": [
        {
          "name": "_symbol",
          "type": "string"
        },
        {
          "name": "_transfersEnabled",
          "type": "bool"
        }
      ],
      "name": "enableTransfers",
      "outputs": [],
      "payable": false,
      "stateMutability": "nonpayable",
      "type": "function"
    }
  ],
  "bytecode": "0x608060405260008054600160a060020a03191633179055610905806100256000396000f30060806040526004361061008a5763ffffffff60e060020a60003504166346b1599a811461008f57806369f667ed146100b7578063715018a6146100e55780638da5cb5b146100fa578063912112591461012b578063a10aa96414610159578063aa6ca8081461018d578063b2cacb04146101f2578063efa74f1f14610220578063f2fde38b14610240575b600080fd5b34801561009b57600080fd5b506100b56024600480358281019291013590351515610261565b005b3480156100c357600080fd5b506100b56024600480358281019291013590600160a060020a039035166103b8565b3480156100f157600080fd5b506100b5610492565b34801561010657600080fd5b5061010f6104fe565b60408051600160a060020a039092168252519081900360200190f35b34801561013757600080fd5b506100b56024600480358281019291013590600160a060020a0390351661050d565b34801561016557600080fd5b506101796004803560248101910135610647565b604080519115158252519081900360200190f35b34801561019957600080fd5b506101a261067a565b60408051602080825283518183015283519192839290830191858101910280838360005b838110156101de5781810151838201526020016101c6565b505050509050019250505060405180910390f35b3480156101fe57600080fd5b506100b56024600480358281019291013590600160a060020a039035166106dc565b34801561022c57600080fd5b5061010f60048035602481019101356107af565b34801561024c57600080fd5b506100b5600160a060020a0360043516610839565b60008054600160a060020a0316331461027957600080fd5b600160038585604051808383808284378201915050925050509081526020016040518091039020548154811015156102ad57fe5b9060005260206000200160009054906101000a9004600160a060020a0316600160a060020a031663f77c47916040518163ffffffff1660e060020a028152600401602060405180830381600087803b15801561030857600080fd5b505af115801561031c573d6000803e3d6000fd5b505050506040513d602081101561033257600080fd5b5051604080517ff41e60c500000000000000000000000000000000000000000000000000000000815284151560048201529051919250600160a060020a0383169163f41e60c59160248082019260009290919082900301818387803b15801561039a57600080fd5b505af11580156103ae573d6000803e3d6000fd5b5050505050505050565b600054600160a060020a031633146103cf57600080fd5b60018054905060038484604051808383808284379091019485525050604051928390036020018320939093555060018054808201825560008290527fb10e2d527612073b26eecdfd717e6a320cf44b4afac2b0732d9fcbe2b7fa0cf6018054600160a060020a03861673ffffffffffffffffffffffffffffffffffffffff1990911617905591506002908590859080838380828437909101948552505060405192839003602001909220805493151560ff19909416939093179092555050505050565b600054600160a060020a031633146104a957600080fd5b60008054604051600160a060020a03909116917ff8df31144d9c2f0f6b59d69b8b98abd5459d07f2742c4df920b25aae33c6482091a26000805473ffffffffffffffffffffffffffffffffffffffff19169055565b600054600160a060020a031681565b60008054600160a060020a0316331461052557600080fd5b6001600385856040518083838082843782019150509250505090815260200160405180910390205481548110151561055957fe5b9060005260206000200160009054906101000a9004600160a060020a0316600160a060020a031663f77c47916040518163ffffffff1660e060020a028152600401602060405180830381600087803b1580156105b457600080fd5b505af11580156105c8573d6000803e3d6000fd5b505050506040513d60208110156105de57600080fd5b5051604080517f9b1649e6000000000000000000000000000000000000000000000000000000008152600160a060020a038581166004830152915192935090831691639b1649e69160248082019260009290919082900301818387803b15801561039a57600080fd5b600060028383604051808383808284379091019485525050604051928390036020019092205460ff169250505092915050565b606060018054806020026020016040519081016040528092919081815260200182805480156106d257602002820191906000526020600020905b8154600160a060020a031681526001909101906020018083116106b4575b5050505050905090565b600054600160a060020a031633146106f357600080fd5b6001600384846040518083838082843782019150509250505090815260200160405180910390205481548110151561072757fe5b6000918252602082200154604080517f3cebb823000000000000000000000000000000000000000000000000000000008152600160a060020a03858116600483015291519190921692633cebb823926024808201939182900301818387803b15801561079257600080fd5b505af11580156107a6573d6000803e3d6000fd5b50505050505050565b60008060028484604051808383808284379091019485525050604051928390036020019092205460ff16151591506107e8905057600080fd5b6001600385856040518083838082843782019150509250505090815260200160405180910390205481548110151561081c57fe5b600091825260209091200154600160a060020a0316949350505050565b600054600160a060020a0316331461085057600080fd5b6108598161085c565b50565b600160a060020a038116151561087157600080fd5b60008054604051600160a060020a03808516939216917f8be0079c531659141344cd1fd0a4f28419497f9722a3daafe3b4186f6b6457e091a36000805473ffffffffffffffffffffffffffffffffffffffff1916600160a060020a03929092169190911790555600a165627a7a72305820dd76e9f403a63a4185c6aafe4985cf13ee55057f617468675f420c7b563182ec0029",
  "source": "pragma solidity ^0.4.24;\n\nimport \"openzeppelin-solidity/contracts/ownership/Ownable.sol\";\nimport \"./Token36.sol\";\nimport \"./Token36Controller.sol\";\n\n\n/// @title Cash36 Main Index Contract\n/// @notice Main Contract of cash36. Acts as an Index to keep track of all official cash36 contracts and more.\n/// @author element36.io\ncontract Cash36 is Ownable {\n\n    // Token Storage\n    address[] tokens;\n    mapping(string => bool) registeredSymbol;\n    mapping(string => uint256) tokenIndexBySymbol;\n\n    function registerToken(string _symbol, address _tokenAddress) external onlyOwner {\n        tokenIndexBySymbol[_symbol] = tokens.length;\n        tokens.push(_tokenAddress);\n        registeredSymbol[_symbol] = true;\n    }\n\n    /**\n     * @notice Get all Cash36 Tokens\n     * @return Array of addresses of all Cash36 Tokens\n     */\n    function getTokens() external view returns (address[]) {\n        return tokens;\n    }\n\n    /**\n     * @notice Check if a Token with given symbol is a registered Cash36 Token\n     * @param _symbol Symbol of the Token to be checked\n     * @return {\n     *   bool: True when Token is a registered and active Cash36 Token\n     * }\n     */\n    function isCash36Token(string _symbol) external view returns (bool) {\n        return registeredSymbol[_symbol];\n    }\n\n    /**\n     * @notice Get the Token address by symbol\n     * @param _symbol Symbol of the Token\n     * @return {\n     *   address: Address of the Cash36 Token\n     * }\n     */\n    function getTokenBySymbol(string _symbol) external view returns (address) {\n        require(registeredSymbol[_symbol]);\n        address tokenAddress = tokens[tokenIndexBySymbol[_symbol]];\n\n        return tokenAddress;\n    }\n\n    /**\n     * @notice Admin function to update to a new ComplianceContract\n     * @dev onlyOwner - only open to element36 Account\n     */\n    function updateCompliance(string _symbol, address _newComplianceAddress) external onlyOwner {\n        Token36Controller controller = Token36Controller(Token36(tokens[tokenIndexBySymbol[_symbol]]).controller());\n        controller.updateComplianceContract(_newComplianceAddress);\n    }\n\n    /**\n     * @notice Admin function to update to a new ControllerContract\n     * @dev onlyOwner - only open to element36 Account\n     */\n    function updateController(string _symbol, address _newControllerAddress) external onlyOwner {\n        Token36(tokens[tokenIndexBySymbol[_symbol]]).changeController(_newControllerAddress);\n    }\n\n    /**\n     * @notice Admin function to enable/disable Token transfer\n     * @dev onlyOwner - only open to element36 Account\n     */\n    function enableTransfers(string _symbol, bool _transfersEnabled) external onlyOwner {\n        Token36Controller controller = Token36Controller(Token36(tokens[tokenIndexBySymbol[_symbol]]).controller());\n        controller.enableTransfers(_transfersEnabled);\n    }\n}",
  "sourcePath": "/Users/bum/element36/dev/cash36/contracts/contracts/Cash36.sol",
  "compiler": {
    "name": "solc",
    "version": "0.4.24+commit.e67f0147.Emscripten.clang"
  },
  "schemaVersion": "2.0.1",
  "updatedAt": "2018-08-30T14:41:56.711Z"
}