{
  "contractName": "Cash36Company",
  "abi": [
    {
      "inputs": [
        {
          "internalType": "string",
          "name": "name",
          "type": "string"
        }
      ],
      "payable": false,
      "stateMutability": "nonpayable",
      "type": "constructor"
    },
    {
      "constant": true,
      "inputs": [],
      "name": "name",
      "outputs": [
        {
          "internalType": "string",
          "name": "",
          "type": "string"
        }
      ],
      "payable": false,
      "stateMutability": "view",
      "type": "function"
    },
    {
      "constant": true,
      "inputs": [],
      "name": "metaData",
      "outputs": [
        {
          "internalType": "string",
          "name": "",
          "type": "string"
        }
      ],
      "payable": false,
      "stateMutability": "view",
      "type": "function"
    },
    {
      "constant": false,
      "inputs": [
        {
          "internalType": "string",
          "name": "name",
          "type": "string"
        }
      ],
      "name": "changeName",
      "outputs": [],
      "payable": false,
      "stateMutability": "nonpayable",
      "type": "function"
    },
    {
      "constant": false,
      "inputs": [
        {
          "internalType": "string",
          "name": "metaData",
          "type": "string"
        }
      ],
      "name": "setMetaData",
      "outputs": [],
      "payable": false,
      "stateMutability": "nonpayable",
      "type": "function"
    },
    {
      "constant": false,
      "inputs": [
        {
          "internalType": "address",
          "name": "_newOwner",
          "type": "address"
        }
      ],
      "name": "addOwner",
      "outputs": [],
      "payable": false,
      "stateMutability": "nonpayable",
      "type": "function"
    },
    {
      "constant": false,
      "inputs": [
        {
          "internalType": "address",
          "name": "_owner",
          "type": "address"
        }
      ],
      "name": "removeOwner",
      "outputs": [],
      "payable": false,
      "stateMutability": "nonpayable",
      "type": "function"
    },
    {
      "constant": false,
      "inputs": [
        {
          "internalType": "contract ERC20Burnable",
          "name": "_token",
          "type": "address"
        },
        {
          "internalType": "address",
          "name": "_to",
          "type": "address"
        },
        {
          "internalType": "uint256",
          "name": "_amount",
          "type": "uint256"
        }
      ],
      "name": "transfer",
      "outputs": [],
      "payable": false,
      "stateMutability": "nonpayable",
      "type": "function"
    },
    {
      "constant": false,
      "inputs": [
        {
          "internalType": "contract ERC20Burnable",
          "name": "_token",
          "type": "address"
        },
        {
          "internalType": "address",
          "name": "_from",
          "type": "address"
        },
        {
          "internalType": "address",
          "name": "_to",
          "type": "address"
        },
        {
          "internalType": "uint256",
          "name": "_amount",
          "type": "uint256"
        }
      ],
      "name": "transferFrom",
      "outputs": [],
      "payable": false,
      "stateMutability": "nonpayable",
      "type": "function"
    },
    {
      "constant": false,
      "inputs": [
        {
          "internalType": "contract ERC20Burnable",
          "name": "_token",
          "type": "address"
        },
        {
          "internalType": "uint256",
          "name": "_amount",
          "type": "uint256"
        }
      ],
      "name": "burn",
      "outputs": [],
      "payable": false,
      "stateMutability": "nonpayable",
      "type": "function"
    },
    {
      "constant": false,
      "inputs": [
        {
          "internalType": "contract ERC20Burnable",
          "name": "_token",
          "type": "address"
        },
        {
          "internalType": "address",
          "name": "_from",
          "type": "address"
        },
        {
          "internalType": "uint256",
          "name": "_amount",
          "type": "uint256"
        }
      ],
      "name": "burnFrom",
      "outputs": [],
      "payable": false,
      "stateMutability": "nonpayable",
      "type": "function"
    }
  ],
  "bytecode": "0x608060405234801561001057600080fd5b50604051610bd6380380610bd68339818101604052602081101561003357600080fd5b810190808051604051939291908464010000000082111561005357600080fd5b90830190602082018581111561006857600080fd5b825164010000000081118282018810171561008257600080fd5b82525081516020918201929091019080838360005b838110156100af578181015183820152602001610097565b50505050905090810190601f1680156100dc5780820380516001836020036101000a031916815260200191505b50604052505081516100f691506000906020840190610117565b5050336000908152600260205260409020805460ff191660011790556101b2565b828054600181600116156101000203166002900490600052602060002090601f016020900481019282601f1061015857805160ff1916838001178555610185565b82800160010185558215610185579182015b8281111561018557825182559160200191906001019061016a565b50610191929150610195565b5090565b6101af91905b80821115610191576000815560010161019b565b90565b610a15806101c16000396000f3fe608060405234801561001057600080fd5b506004361061009e5760003560e01c80639dc29fac116100665780639dc29fac1461021a578063baf2a4eb14610246578063beabacc81461024e578063d821f81a14610284578063ec60bcf3146102f45761009e565b806306fdde03146100a357806315dacbea14610120578063173825d91461015e5780635353a2d8146101845780637065cb48146101f4575b600080fd5b6100ab61032a565b6040805160208082528351818301528351919283929083019185019080838360005b838110156100e55781810151838201526020016100cd565b50505050905090810190601f1680156101125780820380516001836020036101000a031916815260200191505b509250505060405180910390f35b61015c6004803603608081101561013657600080fd5b506001600160a01b038135811691602081013582169160408201351690606001356103c1565b005b61015c6004803603602081101561017457600080fd5b50356001600160a01b03166104a8565b61015c6004803603602081101561019a57600080fd5b8101906020810181356401000000008111156101b557600080fd5b8201836020820111156101c757600080fd5b803590602001918460018302840111640100000000831117156101e957600080fd5b509092509050610523565b61015c6004803603602081101561020a57600080fd5b50356001600160a01b031661058e565b61015c6004803603604081101561023057600080fd5b506001600160a01b03813516906020013561060c565b6100ab6106c0565b61015c6004803603606081101561026457600080fd5b506001600160a01b03813581169160208101359091169060400135610720565b61015c6004803603602081101561029a57600080fd5b8101906020810181356401000000008111156102b557600080fd5b8201836020820111156102c757600080fd5b803590602001918460018302840111640100000000831117156102e957600080fd5b50909250905061080b565b61015c6004803603606081101561030a57600080fd5b506001600160a01b03813581169160208101359091169060400135610871565b60008054604080516020601f60026000196101006001881615020190951694909404938401819004810282018101909252828152606093909290918301828280156103b65780601f1061038b576101008083540402835291602001916103b6565b820191906000526020600020905b81548152906001019060200180831161039957829003601f168201915b505050505090505b90565b3360009081526002602052604090205460ff1661041b576040805162461bcd60e51b81526020600482015260136024820152721bdb9b1e481bdddb995c9cc8185b1b1bddd959606a1b604482015290519081900360640190fd5b604080516323b872dd60e01b81526001600160a01b0385811660048301528481166024830152604482018490529151918616916323b872dd916064808201926020929091908290030181600087803b15801561047657600080fd5b505af115801561048a573d6000803e3d6000fd5b505050506040513d60208110156104a057600080fd5b505050505050565b3360009081526002602052604090205460ff16610502576040805162461bcd60e51b81526020600482015260136024820152721bdb9b1e481bdddb995c9cc8185b1b1bddd959606a1b604482015290519081900360640190fd5b6001600160a01b03166000908152600260205260409020805460ff19169055565b3360009081526002602052604090205460ff1661057d576040805162461bcd60e51b81526020600482015260136024820152721bdb9b1e481bdddb995c9cc8185b1b1bddd959606a1b604482015290519081900360640190fd5b61058960008383610948565b505050565b3360009081526002602052604090205460ff166105e8576040805162461bcd60e51b81526020600482015260136024820152721bdb9b1e481bdddb995c9cc8185b1b1bddd959606a1b604482015290519081900360640190fd5b6001600160a01b03166000908152600260205260409020805460ff19166001179055565b3360009081526002602052604090205460ff16610666576040805162461bcd60e51b81526020600482015260136024820152721bdb9b1e481bdddb995c9cc8185b1b1bddd959606a1b604482015290519081900360640190fd5b816001600160a01b03166342966c68826040518263ffffffff1660e01b815260040180828152602001915050600060405180830381600087803b1580156106ac57600080fd5b505af11580156104a0573d6000803e3d6000fd5b60018054604080516020601f600260001961010087891615020190951694909404938401819004810282018101909252828152606093909290918301828280156103b65780601f1061038b576101008083540402835291602001916103b6565b3360009081526002602052604090205460ff1661077a576040805162461bcd60e51b81526020600482015260136024820152721bdb9b1e481bdddb995c9cc8185b1b1bddd959606a1b604482015290519081900360640190fd5b826001600160a01b031663a9059cbb83836040518363ffffffff1660e01b815260040180836001600160a01b03166001600160a01b0316815260200182815260200192505050602060405180830381600087803b1580156107da57600080fd5b505af11580156107ee573d6000803e3d6000fd5b505050506040513d602081101561080457600080fd5b5050505050565b3360009081526002602052604090205460ff16610865576040805162461bcd60e51b81526020600482015260136024820152721bdb9b1e481bdddb995c9cc8185b1b1bddd959606a1b604482015290519081900360640190fd5b61058960018383610948565b3360009081526002602052604090205460ff166108cb576040805162461bcd60e51b81526020600482015260136024820152721bdb9b1e481bdddb995c9cc8185b1b1bddd959606a1b604482015290519081900360640190fd5b826001600160a01b03166379cc679083836040518363ffffffff1660e01b815260040180836001600160a01b03166001600160a01b0316815260200182815260200192505050600060405180830381600087803b15801561092b57600080fd5b505af115801561093f573d6000803e3d6000fd5b50505050505050565b828054600181600116156101000203166002900490600052602060002090601f016020900481019282601f106109895782800160ff198235161785556109b6565b828001600101855582156109b6579182015b828111156109b657823582559160200191906001019061099b565b506109c29291506109c6565b5090565b6103be91905b808211156109c257600081556001016109cc56fea265627a7a72315820a44a664376bd20f281ed82712a8ce1748dec8080282868632b55d2b6f431197964736f6c634300050f0032",
  "source": "pragma solidity ^0.5.9;\n\nimport \"openzeppelin-solidity/contracts/token/ERC20/ERC20Burnable.sol\";\n\n\n/// @title Cash36 Company Contract\n/// @notice Represents a Company in cash36 - needed for Onboarding of Companies with Accounts and Beneficial Owners\n/// @author element36.io\ncontract Cash36Company {\n\n    // Company name\n    string private _name;\n\n    // Some additional data about the company (could also be an ipfsHash in future)\n    string private _metaData;\n\n    // List of beneficial owners of the company\n    mapping(address => bool) private owners;\n\n    modifier onlyOwners {\n        require(owners[msg.sender], \"only owners allowed\");\n        _;\n    }\n\n    constructor(string memory name) public {\n        _name = name;\n        owners[msg.sender] = true;\n    }\n\n    function name() external view returns (string memory) {\n        return _name;\n    }\n\n    function metaData() external view returns (string memory) {\n        return _metaData;\n    }\n\n    function changeName(string calldata name) external onlyOwners {\n        _name = name;\n    }\n\n    function setMetaData(string calldata metaData) external onlyOwners {\n        _metaData = metaData;\n    }\n\n    function addOwner(address _newOwner) external onlyOwners {\n        owners[_newOwner] = true;\n    }\n\n    function removeOwner(address _owner) external onlyOwners {\n        owners[_owner] = false;\n    }\n\n    function transfer(ERC20Burnable _token, address _to, uint256 _amount) external onlyOwners {\n        _token.transfer(_to, _amount);\n    }\n\n    function transferFrom(ERC20Burnable _token, address _from, address _to, uint256 _amount) external onlyOwners {\n        _token.transferFrom(_from, _to, _amount);\n    }\n\n    function burn(ERC20Burnable _token, uint256 _amount) external onlyOwners {\n        _token.burn(_amount);\n    }\n\n    function burnFrom(ERC20Burnable _token, address _from, uint256 _amount) external onlyOwners {\n        _token.burnFrom(_from, _amount);\n    }\n}\n",
  "sourcePath": "/home/w/workspace/contracts/contracts/Cash36Company.sol",
  "compiler": {
    "name": "solc",
    "version": "0.5.15+commit.6a57276f.Emscripten.clang"
  },
  "schemaVersion": "3.0.20",
  "updatedAt": "2020-03-16T13:08:02.048Z",
  "networkType": "ethereum",
  "devdoc": {
    "author": "element36.io",
    "methods": {},
    "title": "Cash36 Company Contract"
  },
  "userdoc": {
    "methods": {},
    "notice": "Represents a Company in cash36 - needed for Onboarding of Companies with Accounts and Beneficial Owners"
  }
}