{
  "contractName": "Cash36KYC",
  "abi": [
    {
      "constant": true,
      "inputs": [],
      "name": "owner",
      "outputs": [
        {
          "name": "",
          "type": "address"
        }
      ],
      "payable": false,
      "stateMutability": "view",
      "type": "function"
    },
    {
      "constant": false,
      "inputs": [
        {
          "name": "newOwner",
          "type": "address"
        }
      ],
      "name": "transferOwnership",
      "outputs": [],
      "payable": false,
      "stateMutability": "nonpayable",
      "type": "function"
    },
    {
      "inputs": [
        {
          "name": "_registryAddress",
          "type": "address"
        },
        {
          "name": "_cash36MNID",
          "type": "address"
        }
      ],
      "payable": false,
      "stateMutability": "nonpayable",
      "type": "constructor"
    },
    {
      "anonymous": false,
      "inputs": [
        {
          "indexed": true,
          "name": "previousOwner",
          "type": "address"
        },
        {
          "indexed": true,
          "name": "newOwner",
          "type": "address"
        }
      ],
      "name": "OwnershipTransferred",
      "type": "event"
    },
    {
      "constant": true,
      "inputs": [
        {
          "name": "_user",
          "type": "address"
        }
      ],
      "name": "checkUser",
      "outputs": [
        {
          "name": "",
          "type": "bool"
        }
      ],
      "payable": false,
      "stateMutability": "view",
      "type": "function"
    }
  ],
  "bytecode": "0x6060604052341561000f57600080fd5b6040516040806102f4833981016040528080519190602001805160008054600160a060020a03338116600160a060020a0319928316179092556002805496831696821696909617909555600180549190921694169390931790925550506102798061007b6000396000f3006060604052600436106100565763ffffffff7c01000000000000000000000000000000000000000000000000000000006000350416631e9d48cf811461005b5780638da5cb5b1461008e578063f2fde38b146100bd575b600080fd5b341561006657600080fd5b61007a600160a060020a03600435166100de565b604051901515815260200160405180910390f35b341561009957600080fd5b6100a16101a3565b604051600160a060020a03909116815260200160405180910390f35b34156100c857600080fd5b6100dc600160a060020a03600435166101b2565b005b600254600154600091600160a060020a03908116918391839163e1661eff9116866040517c010000000000000000000000000000000000000000000000000000000063ffffffff8516028152600160a060020a039283166004820152911660248201527f6361736833364b594300000000000000000000000000000000000000000000006044820152606401602060405180830381600087803b151561018357600080fd5b5af1151561019057600080fd5b5050506040518051151595945050505050565b600054600160a060020a031681565b60005433600160a060020a039081169116146101cd57600080fd5b600160a060020a03811615156101e257600080fd5b600054600160a060020a0380831691167f8be0079c531659141344cd1fd0a4f28419497f9722a3daafe3b4186f6b6457e060405160405180910390a36000805473ffffffffffffffffffffffffffffffffffffffff1916600160a060020a03929092169190911790555600a165627a7a723058204c2d931f8c87cd828e385690bbe39bf2d197f0c23ae5e22a4cbd6af4c6d165740029",
  "source": "pragma solidity 0.4.21;\n\nimport \"openzeppelin-solidity/contracts/ownership/Ownable.sol\";\nimport \"./lib/uport/EthereumClaimsRegistry.sol\";\n\n\n/// @title Cash36 Index Contract\n/// @author element36.io\ncontract Cash36KYC is Ownable {\n\n    address cash36MNID;\n    address registryAddress;\n\n    function Cash36KYC(address _registryAddress, address _cash36MNID) {\n        registryAddress = _registryAddress;\n        cash36MNID = _cash36MNID;\n    }\n\n    function checkUser(address _user) public view returns(bool) {\n        EthereumClaimsRegistry registry = EthereumClaimsRegistry(registryAddress);\n        bytes32 claim = registry.getClaim(cash36MNID, _user, \"cash36KYC\");\n        return claim != \"\";\n    }\n}",
  "sourcePath": "/builds/cash36/contracts/contracts/Cash36KYC.sol",
  "compiler": {
    "name": "solc",
    "version": "0.4.21+commit.dfe3193c.Emscripten.clang"
  },
  "schemaVersion": "2.0.0",
  "updatedAt": "2018-06-12T21:17:51.397Z"
}