{
  "contractName": "Cash36",
  "abi": [
    {
      "constant": false,
      "inputs": [],
      "name": "renounceOwnership",
      "outputs": [],
      "payable": false,
      "stateMutability": "nonpayable",
      "type": "function"
    },
    {
      "constant": true,
      "inputs": [],
      "name": "owner",
      "outputs": [
        {
          "name": "",
          "type": "address"
        }
      ],
      "payable": false,
      "stateMutability": "view",
      "type": "function"
    },
    {
      "constant": false,
      "inputs": [
        {
          "name": "_newOwner",
          "type": "address"
        }
      ],
      "name": "transferOwnership",
      "outputs": [],
      "payable": false,
      "stateMutability": "nonpayable",
      "type": "function"
    },
    {
      "inputs": [
        {
          "name": "_complianceAddress",
          "type": "address"
        }
      ],
      "payable": false,
      "stateMutability": "nonpayable",
      "type": "constructor"
    },
    {
      "anonymous": false,
      "inputs": [
        {
          "indexed": false,
          "name": "_name",
          "type": "string"
        },
        {
          "indexed": false,
          "name": "_symbol",
          "type": "string"
        },
        {
          "indexed": false,
          "name": "tokenAddress",
          "type": "address"
        },
        {
          "indexed": false,
          "name": "tokenControllerAddress",
          "type": "address"
        }
      ],
      "name": "TokenCreated",
      "type": "event"
    },
    {
      "anonymous": false,
      "inputs": [
        {
          "indexed": true,
          "name": "previousOwner",
          "type": "address"
        }
      ],
      "name": "OwnershipRenounced",
      "type": "event"
    },
    {
      "anonymous": false,
      "inputs": [
        {
          "indexed": true,
          "name": "previousOwner",
          "type": "address"
        },
        {
          "indexed": true,
          "name": "newOwner",
          "type": "address"
        }
      ],
      "name": "OwnershipTransferred",
      "type": "event"
    },
    {
      "constant": false,
      "inputs": [
        {
          "name": "_name",
          "type": "string"
        },
        {
          "name": "_symbol",
          "type": "string"
        }
      ],
      "name": "createNewToken",
      "outputs": [],
      "payable": false,
      "stateMutability": "nonpayable",
      "type": "function"
    },
    {
      "constant": true,
      "inputs": [],
      "name": "getTokens",
      "outputs": [
        {
          "name": "",
          "type": "address[]"
        }
      ],
      "payable": false,
      "stateMutability": "view",
      "type": "function"
    },
    {
      "constant": true,
      "inputs": [
        {
          "name": "_symbol",
          "type": "string"
        }
      ],
      "name": "isCash36Token",
      "outputs": [
        {
          "name": "",
          "type": "bool"
        }
      ],
      "payable": false,
      "stateMutability": "view",
      "type": "function"
    },
    {
      "constant": true,
      "inputs": [
        {
          "name": "_symbol",
          "type": "string"
        }
      ],
      "name": "getTokenBySymbol",
      "outputs": [
        {
          "name": "",
          "type": "address"
        }
      ],
      "payable": false,
      "stateMutability": "view",
      "type": "function"
    },
    {
      "constant": false,
      "inputs": [
        {
          "name": "_newComplianceAddress",
          "type": "address"
        }
      ],
      "name": "updateCompliance",
      "outputs": [],
      "payable": false,
      "stateMutability": "nonpayable",
      "type": "function"
    },
    {
      "constant": false,
      "inputs": [
        {
          "name": "_symbol",
          "type": "string"
        },
        {
          "name": "_transfersEnabled",
          "type": "bool"
        }
      ],
      "name": "enableTransfers",
      "outputs": [],
      "payable": false,
      "stateMutability": "nonpayable",
      "type": "function"
    }
  ],
  "bytecode": "0x608060405234801561001057600080fd5b50604051602080612993833981016040525160008054600160a060020a0319908116331790915560018054600160a060020a03909316929091169190911790556129348061005f6000396000f3006080604052600436106100985763ffffffff7c01000000000000000000000000000000000000000000000000000000006000350416633adb2cff811461009d57806346b1599a146100c0578063715018a6146100e657806385ba7269146100fb5780638da5cb5b14610127578063a10aa96414610158578063aa6ca8081461018c578063efa74f1f146101f1578063f2fde38b14610211575b600080fd5b3480156100a957600080fd5b506100be600160a060020a0360043516610232565b005b3480156100cc57600080fd5b506100be6024600480358281019291013590351515610278565b3480156100f257600080fd5b506100be610349565b34801561010757600080fd5b506100be60246004803582810192908201359181359182019101356103b5565b34801561013357600080fd5b5061013c610a3f565b60408051600160a060020a039092168252519081900360200190f35b34801561016457600080fd5b506101786004803560248101910135610a4e565b604080519115158252519081900360200190f35b34801561019857600080fd5b506101a1610a81565b60408051602080825283518183015283519192839290830191858101910280838360005b838110156101dd5781810151838201526020016101c5565b505050509050019250505060405180910390f35b3480156101fd57600080fd5b5061013c6004803560248101910135610ae3565b34801561021d57600080fd5b506100be600160a060020a0360043516610b6d565b600054600160a060020a0316331461024957600080fd5b6001805473ffffffffffffffffffffffffffffffffffffffff1916600160a060020a0392909216919091179055565b600054600160a060020a0316331461028f57600080fd5b600260048484604051808383808284378201915050925050509081526020016040518091039020548154811015156102c357fe5b6000918252602082200154604080517ff41e60c500000000000000000000000000000000000000000000000000000000815284151560048201529051600160a060020a039092169263f41e60c59260248084019382900301818387803b15801561032c57600080fd5b505af1158015610340573d6000803e3d6000fd5b50505050505050565b600054600160a060020a0316331461036057600080fd5b60008054604051600160a060020a03909116917ff8df31144d9c2f0f6b59d69b8b98abd5459d07f2742c4df920b25aae33c6482091a26000805473ffffffffffffffffffffffffffffffffffffffff19169055565b600080548190600160a060020a031633146103cf57600080fd5b604080516000815260208101918290528051909190819081908082805b6020831061040b5780518252601f1990920191602091820191016103ec565b51815160209384036101000a600019018019909216911617905260405191909301819003812094508a93508992019050808383808284378201915050925050506040516020818303038152906040526040518082805190602001908083835b602083106104895780518252601f19909201916020918201910161046a565b6001836020036101000a0380198251168184511680821785525050505050509050019150506040518091039020600019161415151561052957604080517f08c379a000000000000000000000000000000000000000000000000000000000815260206004820152601460248201527f6e616d652063616e6e6f7420626520656d707479000000000000000000000000604482015290519081900360640190fd5b604080516000815260208101918290528051909190819081908082805b602083106105655780518252601f199092019160209182019101610546565b51815160209384036101000a600019018019909216911617905260405191909301819003812094508893508792019050808383808284378201915050925050506040516020818303038152906040526040518082805190602001908083835b602083106105e35780518252601f1990920191602091820191016105c4565b6001836020036101000a0380198251168184511680821785525050505050509050019150506040518091039020600019161415151561068357604080517f08c379a000000000000000000000000000000000000000000000000000000000815260206004820152601660248201527f73796d626f6c2063616e6e6f7420626520656d70747900000000000000000000604482015290519081900360640190fd5b60038484604051808383808284379091019485525050604051928390036020019092205460ff1615915061071a905057604080517f08c379a000000000000000000000000000000000000000000000000000000000815260206004820152601960248201527f73796d626f6c20616c7265616479207265676973746572656400000000000000604482015290519081900360640190fd5b85858585610726610c0d565b604080825281018490528060208101606082018787808284379091018481038352858152602001905085858082843782019150509650505050505050604051809103906000f08015801561077e573d6000803e3d6000fd5b50604080517f9245290d0000000000000000000000000000000000000000000000000000000081523360048201529051919350600160a060020a03841691639245290d9160248082019260009290919082900301818387803b1580156107e357600080fd5b505af11580156107f7573d6000803e3d6000fd5b5050505060028054905060048585604051808383808284379091019485525050604051928390036020018320939093555060028054600181810183556000929092527f405787fa12a823e0f2b7631cc41b3ba8828b3321ca811111fa75cd3aa3bb5ace018054600160a060020a03871673ffffffffffffffffffffffffffffffffffffffff1990911617905591506003908690869080838380828437909101948552505060405192839003602001909220805493151560ff199094169390931790925550506001548290600160a060020a03166108d2610c1d565b600160a060020a03928316815291166020820152604080519182900301906000f080158015610905573d6000803e3d6000fd5b50905081600160a060020a0316633cebb823826040518263ffffffff167c01000000000000000000000000000000000000000000000000000000000281526004018082600160a060020a0316600160a060020a03168152602001915050600060405180830381600087803b15801561097c57600080fd5b505af1158015610990573d6000803e3d6000fd5b505050507fb3773c23b761d9f7b0ece5a1dc5f679ab7c2e67f4707f7bc08aa9c3d07d196df86868686868660405180806020018060200185600160a060020a0316600160a060020a0316815260200184600160a060020a0316600160a060020a0316815260200183810383528989828181526020019250808284379091018481038352878152602001905087878082843760405192018290039a509098505050505050505050a1505050505050565b600054600160a060020a031681565b600060038383604051808383808284379091019485525050604051928390036020019092205460ff169250505092915050565b60606002805480602002602001604051908101604052809291908181526020018280548015610ad957602002820191906000526020600020905b8154600160a060020a03168152600190910190602001808311610abb575b5050505050905090565b60008060038484604051808383808284379091019485525050604051928390036020019092205460ff1615159150610b1c905057600080fd5b60026004858560405180838380828437820191505092505050908152602001604051809103902054815481101515610b5057fe5b600091825260209091200154600160a060020a0316949350505050565b600054600160a060020a03163314610b8457600080fd5b610b8d81610b90565b50565b600160a060020a0381161515610ba557600080fd5b60008054604051600160a060020a03808516939216917f8be0079c531659141344cd1fd0a4f28419497f9722a3daafe3b4186f6b6457e091a36000805473ffffffffffffffffffffffffffffffffffffffff1916600160a060020a0392909216919091179055565b60405161132f80610c2e83390190565b6040516109ac80611f5d833901905600608060405260146003556103e86004553480156200001c57600080fd5b506040516200132f3803806200132f833981016040528051602082015160018054600160a060020a03191633179055908201910162000063640100000000620000b6810204565b815162000078906005906020850190620000e1565b5080516200008e906006906020840190620000e1565b5050600a805460ff191660011790555060028054600160a060020a0319163317905562000183565b60005415620000c457600080fd5b620000d7640100000000620000dc810204565b600055565b435b90565b828054600181600116156101000203166002900490600052602060002090601f016020900481019282601f106200012457805160ff191683800117855562000154565b8280016001018555821562000154579182015b828111156200015457825182559160200191906001019062000137565b506200016292915062000166565b5090565b620000de91905b808211156200016257600081556001016200016d565b61119c80620001936000396000f3006080604052600436106101275763ffffffff7c010000000000000000000000000000000000000000000000000000000060003504166306fdde03811461012c578063095ea7b3146101b657806318160ddd146101ee57806323b872dd146102155780632e0f26251461023f5780633cebb8231461026a57806342966c681461028d57806366188463146102a557806370a08231146102c957806375dc7d8c146102ea5780638b3dd749146103025780639245290d1461031757806395d89b4114610338578063a9059cbb1461034d578063bef97c8714610371578063c415b95c14610386578063d73dd623146103b7578063dd62ed3e146103db578063e3ca2d6514610402578063f0dda65c1461041d578063f41e60c514610441578063f77c47911461045b575b600080fd5b34801561013857600080fd5b50610141610470565b6040805160208082528351818301528351919283929083019185019080838360005b8381101561017b578181015183820152602001610163565b50505050905090810190601f1680156101a85780820380516001836020036101000a031916815260200191505b509250505060405180910390f35b3480156101c257600080fd5b506101da600160a060020a03600435166024356104fe565b604080519115158252519081900360200190f35b3480156101fa57600080fd5b506102036105c5565b60408051918252519081900360200190f35b34801561022157600080fd5b506101da600160a060020a03600435811690602435166044356105cb565b34801561024b57600080fd5b506102546108fb565b6040805160ff9092168252519081900360200190f35b34801561027657600080fd5b5061028b600160a060020a0360043516610900565b005b34801561029957600080fd5b5061028b600435610946565b3480156102b157600080fd5b506101da600160a060020a0360043516602435610a5b565b3480156102d557600080fd5b50610203600160a060020a0360043516610b4b565b3480156102f657600080fd5b50610203600435610b66565b34801561030e57600080fd5b50610203610b8f565b34801561032357600080fd5b5061028b600160a060020a0360043516610b95565b34801561034457600080fd5b50610141610bdb565b34801561035957600080fd5b506101da600160a060020a0360043516602435610c36565b34801561037d57600080fd5b506101da610ead565b34801561039257600080fd5b5061039b610eb6565b60408051600160a060020a039092168252519081900360200190f35b3480156103c357600080fd5b506101da600160a060020a0360043516602435610ec5565b3480156103e757600080fd5b50610203600160a060020a0360043581169060243516610f5e565b34801561040e57600080fd5b5061028b600435602435610f89565b34801561042957600080fd5b506101da600160a060020a0360043516602435610fab565b34801561044d57600080fd5b5061028b600435151561108d565b34801561046757600080fd5b5061039b6110b7565b6005805460408051602060026001851615610100026000190190941693909304601f810184900484028201840190925281815292918301828280156104f65780601f106104cb576101008083540402835291602001916104f6565b820191906000526020600020905b8154815290600101906020018083116104d957829003601f168201915b505050505081565b600a5460009060ff16151561055d576040805160e560020a62461bcd02815260206004820152601660248201527f7472616e7366657273206172652064697361626c656400000000000000000000604482015290519081900360640190fd5b336000818152600760209081526040808320600160a060020a03881680855290835292819020869055805186815290519293927f8c5be1e5ebec7d5bd14f71427d1e84f3dd0314c0f7b2291e5b200ac8c7c3b925929181900390910190a35060015b92915050565b60095490565b600a5460009060ff16151561062a576040805160e560020a62461bcd02815260206004820152601660248201527f7472616e7366657273206172652064697361626c656400000000000000000000604482015290519081900360640190fd5b600160a060020a038316151561063f57600080fd5b600160a060020a03841660009081526008602052604090205482111561066457600080fd5b811515610673575060016108f4565b60015461068890600160a060020a03166110c6565b156107af57600154604080517f4a393149000000000000000000000000000000000000000000000000000000008152600160a060020a03878116600483015286811660248301526044820186905291519190921691634a3931499160648083019260209291908290030181600087803b15801561070457600080fd5b505af1158015610718573d6000803e3d6000fd5b505050506040513d602081101561072e57600080fd5b505115156001146107af576040805160e560020a62461bcd02815260206004820152602760248201527f546f6b656e3336436f6e74726f6c6c65722072656a656374656420746865207460448201527f72616e7366657200000000000000000000000000000000000000000000000000606482015290519081900360840190fd5b600154600160a060020a0316331461084d57600160a060020a03841660009081526007602090815260408083203384529091529020548211156107f4575060006108f4565b600160a060020a0384166000908152600760209081526040808320338452909152902054610828908363ffffffff6110f316565b600160a060020a03851660009081526007602090815260408083203384529091529020555b600160a060020a038416600090815260086020526040902054610876908363ffffffff6110f316565b600160a060020a0380861660009081526008602052604080822093909355908516815220546108ab908363ffffffff61110516565b600160a060020a03808516600081815260086020908152604091829020949094558051868152905191939288169260008051602061115183398151915292918290030190a35060015b9392505050565b601281565b600154600160a060020a0316331461091757600080fd5b6001805473ffffffffffffffffffffffffffffffffffffffff1916600160a060020a0392909216919091179055565b33600090815260086020526040812054819083111561096457600080fd5b61096d83610b66565b600254600160a060020a031660009081526008602052604090205490925082840391506109a0908363ffffffff61110516565b600254600160a060020a03166000908152600860205260408082209290925533815220546109d4908463ffffffff6110f316565b336000908152600860205260409020556009546109f7908263ffffffff6110f316565b60095560408051848152905133917fcc16f5dbb4873280815c1ee09dbd06736cffcc184412cf7a71a0fdb75d397ca5919081900360200190a260408051848152905160009133916000805160206111518339815191529181900360200190a3505050565b336000908152600760209081526040808320600160a060020a038616845290915281205480831115610ab057336000908152600760209081526040808320600160a060020a0388168452909152812055610ae5565b610ac0818463ffffffff6110f316565b336000908152600760209081526040808320600160a060020a03891684529091529020555b336000818152600760209081526040808320600160a060020a0389168085529083529281902054815190815290519293927f8c5be1e5ebec7d5bd14f71427d1e84f3dd0314c0f7b2291e5b200ac8c7c3b925929181900390910190a35060019392505050565b600160a060020a031660009081526008602052604090205490565b60006105bf600454610b836003548561111290919063ffffffff16565b9063ffffffff61113b16565b60005490565b600254600160a060020a03163314610bac57600080fd5b6002805473ffffffffffffffffffffffffffffffffffffffff1916600160a060020a0392909216919091179055565b6006805460408051602060026001851615610100026000190190941693909304601f810184900484028201840190925281815292918301828280156104f65780601f106104cb576101008083540402835291602001916104f6565b600a5460009060ff161515610c95576040805160e560020a62461bcd02815260206004820152601660248201527f7472616e7366657273206172652064697361626c656400000000000000000000604482015290519081900360640190fd5b600160a060020a0383161515610caa57600080fd5b33600090815260086020526040902054821115610cc657600080fd5b811515610cd5575060016105bf565b600154610cea90600160a060020a03166110c6565b15610e0f57600154604080517f4a393149000000000000000000000000000000000000000000000000000000008152336004820152600160a060020a0386811660248301526044820186905291519190921691634a3931499160648083019260209291908290030181600087803b158015610d6457600080fd5b505af1158015610d78573d6000803e3d6000fd5b505050506040513d6020811015610d8e57600080fd5b50511515600114610e0f576040805160e560020a62461bcd02815260206004820152602760248201527f546f6b656e3336436f6e74726f6c6c65722072656a656374656420746865207460448201527f72616e7366657200000000000000000000000000000000000000000000000000606482015290519081900360840190fd5b33600090815260086020526040902054610e2f908363ffffffff6110f316565b3360009081526008602052604080822092909255600160a060020a03851681522054610e61908363ffffffff61110516565b600160a060020a0384166000818152600860209081526040918290209390935580518581529051919233926000805160206111518339815191529281900390910190a350600192915050565b600a5460ff1681565b600254600160a060020a031681565b336000908152600760209081526040808320600160a060020a0386168452909152812054610ef9908363ffffffff61110516565b336000818152600760209081526040808320600160a060020a0389168085529083529281902085905580519485525191937f8c5be1e5ebec7d5bd14f71427d1e84f3dd0314c0f7b2291e5b200ac8c7c3b925929081900390910190a350600192915050565b600160a060020a03918216600090815260076020908152604080832093909416825291909152205490565b600254600160a060020a03163314610fa057600080fd5b600391909155600455565b600154600090600160a060020a03163314610fc557600080fd5b6009548281011015610fd657600080fd5b600160a060020a0383166000908152600860205260409020548281011015610ffd57600080fd5b600160a060020a038316600090815260086020526040902054611026908363ffffffff61110516565b600160a060020a038416600090815260086020526040902055600954611052908363ffffffff61110516565b600955604080518381529051600160a060020a038516916000916000805160206111518339815191529181900360200190a350600192915050565b600154600160a060020a031633146110a457600080fd5b600a805460ff1916911515919091179055565b600154600160a060020a031681565b600080600160a060020a03831615156110e257600091506110ed565b823b90506000811191505b50919050565b6000828211156110ff57fe5b50900390565b818101828110156105bf57fe5b6000821515611123575060006105bf565b5081810281838281151561113357fe5b04146105bf57fe5b6000818381151561114857fe5b0493925050505600ddf252ad1be2c89b69c2b068fc378daa952ba7f163c4a11628f55a4df523b3efa165627a7a7230582039c1ad4c8d3361010e692ec70b9bff2c72e808c7d970d6a7d680dfdf958d4e3d0029608060405260001960035534801561001657600080fd5b506040516040806109ac83398101604052805160209091015160008054600160a060020a0319908116331790915560018054600160a060020a0394851690831617905560028054939092169216919091179055610934806100786000396000f3006080604052600436106100985763ffffffff7c010000000000000000000000000000000000000000000000000000000060003504166340c10f19811461009d5780634a393149146100c3578063715018a6146101015780638da5cb5b146101165780639b1649e614610147578063ecfda43214610168578063f2fde38b1461018f578063f41e60c5146101b0578063fbb64114146101ca575b600080fd5b3480156100a957600080fd5b506100c1600160a060020a03600435166024356101e2565b005b3480156100cf57600080fd5b506100ed600160a060020a03600435811690602435166044356103d7565b604080519115158252519081900360200190f35b34801561010d57600080fd5b506100c1610567565b34801561012257600080fd5b5061012b6105d3565b60408051600160a060020a039092168252519081900360200190f35b34801561015357600080fd5b506100c1600160a060020a03600435166105e2565b34801561017457600080fd5b5061017d610628565b60408051918252519081900360200190f35b34801561019b57600080fd5b506100c1600160a060020a036004351661062e565b3480156101bc57600080fd5b506100c16004351515610651565b3480156101d657600080fd5b506100c16004356106ea565b600254600154604080517fea13d8a1000000000000000000000000000000000000000000000000000000008152336004820152600160a060020a0392831660248201529051919092169163ea13d8a19160448083019260209291908290030181600087803b15801561025357600080fd5b505af1158015610267573d6000803e3d6000fd5b505050506040513d602081101561027d57600080fd5b5051151561028a57600080fd5b61029382610797565b151561033857600254604080517f1e9d48cf000000000000000000000000000000000000000000000000000000008152600160a060020a03858116600483015291519190921691631e9d48cf9160248083019260209291908290030181600087803b15801561030157600080fd5b505af1158015610315573d6000803e3d6000fd5b505050506040513d602081101561032b57600080fd5b5051151561033857600080fd5b600154604080517ff0dda65c000000000000000000000000000000000000000000000000000000008152600160a060020a038581166004830152602482018590529151919092169163f0dda65c9160448083019260209291908290030181600087803b1580156103a757600080fd5b505af11580156103bb573d6000803e3d6000fd5b505050506040513d60208110156103d157600080fd5b50505050565b600154600090600160a060020a031633146103f157600080fd5b6103fa83610797565b151561055c57600254604080517f1e9d48cf000000000000000000000000000000000000000000000000000000008152600160a060020a03868116600483015291519190921691631e9d48cf9160248083019260209291908290030181600087803b15801561046857600080fd5b505af115801561047c573d6000803e3d6000fd5b505050506040513d602081101561049257600080fd5b505115156104a257506000610560565b600254604080517f1e9d48cf000000000000000000000000000000000000000000000000000000008152600160a060020a03878116600483015291519190921691631e9d48cf9160248083019260209291908290030181600087803b15801561050a57600080fd5b505af115801561051e573d6000803e3d6000fd5b505050506040513d602081101561053457600080fd5b5051151561054457506000610560565b61054e83836107c4565b151561055c57506000610560565b5060015b9392505050565b600054600160a060020a0316331461057e57600080fd5b60008054604051600160a060020a03909116917ff8df31144d9c2f0f6b59d69b8b98abd5459d07f2742c4df920b25aae33c6482091a26000805473ffffffffffffffffffffffffffffffffffffffff19169055565b600054600160a060020a031681565b600054600160a060020a031633146105f957600080fd5b6002805473ffffffffffffffffffffffffffffffffffffffff1916600160a060020a0392909216919091179055565b60035481565b600054600160a060020a0316331461064557600080fd5b61064e81610878565b50565b600054600160a060020a0316331461066857600080fd5b600154604080517ff41e60c500000000000000000000000000000000000000000000000000000000815283151560048201529051600160a060020a039092169163f41e60c59160248082019260009290919082900301818387803b1580156106cf57600080fd5b505af11580156106e3573d6000803e3d6000fd5b5050505050565b600254600154604080517fea13d8a1000000000000000000000000000000000000000000000000000000008152336004820152600160a060020a0392831660248201529051919092169163ea13d8a19160448083019260209291908290030181600087803b15801561075b57600080fd5b505af115801561076f573d6000803e3d6000fd5b505050506040513d602081101561078557600080fd5b5051151561079257600080fd5b600355565b600080600160a060020a03831615156107b357600091506107be565b823b90506000811191505b50919050565b600354600154604080517f70a08231000000000000000000000000000000000000000000000000000000008152600160a060020a03868116600483015291516000949361086f9387939116916370a082319160248082019260209290919082900301818a87803b15801561083757600080fd5b505af115801561084b573d6000803e3d6000fd5b505050506040513d602081101561086157600080fd5b50519063ffffffff6108f516565b11159392505050565b600160a060020a038116151561088d57600080fd5b60008054604051600160a060020a03808516939216917f8be0079c531659141344cd1fd0a4f28419497f9722a3daafe3b4186f6b6457e091a36000805473ffffffffffffffffffffffffffffffffffffffff1916600160a060020a0392909216919091179055565b8181018281101561090257fe5b929150505600a165627a7a72305820b63baa7374e845cdee62c9f0480f0399ba8f92902cebda9d5142ae41b63e9ccb0029a165627a7a72305820bdfce394132c215b17403c8a8d9cb3add511248f048f49af180bdc4b8e0e2ad00029",
  "source": "pragma solidity ^0.4.24;\n\nimport \"openzeppelin-solidity/contracts/ownership/Ownable.sol\";\nimport \"./Token36.sol\";\nimport \"./Token36Controller.sol\";\n\n\n/// @title Cash36 Main Index Contract\n/// @notice Main Contract of cash36. Acts as an Index to keep track of all official cash36 contracts and more.\n/// @author element36.io\ncontract Cash36 is Ownable {\n\n    // Compliance Contract address\n    address complianceAddress;\n\n    // Token Storage\n    address[] tokens;\n    mapping(string => bool) registeredSymbol;\n    mapping(string => uint256) tokenIndexBySymbol;\n\n    // Constructor\n    constructor(address _complianceAddress) public {\n        complianceAddress = _complianceAddress;\n    }\n\n    // Event\n    event TokenCreated(string _name, string _symbol, address tokenAddress, address tokenControllerAddress);\n\n    /**\n     * @notice Create a new Cash36 Token\n     * @dev Also creates a token controller (calls Event TokenCreated on success)\n     * @dev Symbol must be unique.\n     * @dev onlyOwner - only open to element36 Account\n     * @param _name Name of the token (as with ERC20)\n     * @param _symbol Symbol of the token (as with ERC20)\n     */\n    function createNewToken(string _name, string _symbol) external onlyOwner {\n        require(keccak256(abi.encodePacked(_name)) != keccak256(abi.encodePacked(\"\")), \"name cannot be empty\");\n        require(keccak256(abi.encodePacked(_symbol)) != keccak256(abi.encodePacked(\"\")), \"symbol cannot be empty\");\n        require(registeredSymbol[_symbol] == false, \"symbol already registered\");\n\n        Token36 newToken = new Token36(_name, _symbol);\n        newToken.changeFeeCollector(msg.sender);\n\n        tokenIndexBySymbol[_symbol] = tokens.length;\n        tokens.push(newToken);\n        registeredSymbol[_symbol] = true;\n\n        // Create and Set new Controller as token controller - will be owned by this contract\n        Token36Controller newController = new Token36Controller(newToken, complianceAddress);\n        newToken.changeController(address(newController));\n\n        emit TokenCreated(_name, _symbol, address(newToken), address(newController));\n    }\n\n    /**\n     * @notice Get all Cash36 Tokens\n     * @return Array of addresses of all Cash36 Tokens\n     */\n    function getTokens() external view returns (address[]) {\n        return tokens;\n    }\n\n    /**\n     * @notice Check if a Token with given symbol is a registered Cash36 Token\n     * @param _symbol Symbol of the Token to be checked\n     * @return {\n     *   bool: True when Token is a registered and active Cash36 Token\n     * }\n     */\n    function isCash36Token(string _symbol) external view returns (bool) {\n        return registeredSymbol[_symbol];\n    }\n\n    /**\n     * @notice Get the Token address by symbol\n     * @param _symbol Symbol of the Token\n     * @return {\n     *   address: Address of the Cash36 Token\n     * }\n     */\n    function getTokenBySymbol(string _symbol) external view returns (address) {\n        require(registeredSymbol[_symbol]);\n        address tokenAddress = tokens[tokenIndexBySymbol[_symbol]];\n\n        return tokenAddress;\n    }\n\n    /**\n     * @notice Admin function to update to a new ComplianceContract\n     * @dev onlyOwner - only open to element36 Account\n     * @dev not yet implemented\n     */\n    function updateCompliance(address _newComplianceAddress) external onlyOwner {\n        complianceAddress = _newComplianceAddress;\n\n        // TODO: update all Token36Controller\n        // controller.updateCompliance(complianceAddress);\n    }\n\n    /**\n     * @notice Admin function to enable/disable Token transfer\n     * @dev onlyOwner - only open to element36 Account\n     */\n    function enableTransfers(string _symbol, bool _transfersEnabled) external onlyOwner {\n        Token36(tokens[tokenIndexBySymbol[_symbol]]).enableTransfers(_transfersEnabled);\n    }\n}",
  "sourcePath": "/Users/bum/element36/dev/cash36/contracts/contracts/Cash36.sol",
  "compiler": {
    "name": "solc",
    "version": "0.4.24+commit.e67f0147.Emscripten.clang"
  },
  "schemaVersion": "2.0.1",
  "updatedAt": "2018-07-20T16:27:24.537Z"
}