{
  "contractName": "CHF36",
  "abi": [
    {
      "constant": true,
      "inputs": [],
      "name": "name",
      "outputs": [
        {
          "name": "",
          "type": "string"
        }
      ],
      "payable": false,
      "stateMutability": "view",
      "type": "function"
    },
    {
      "constant": false,
      "inputs": [
        {
          "name": "spender",
          "type": "address"
        },
        {
          "name": "value",
          "type": "uint256"
        }
      ],
      "name": "approve",
      "outputs": [
        {
          "name": "",
          "type": "bool"
        }
      ],
      "payable": false,
      "stateMutability": "nonpayable",
      "type": "function"
    },
    {
      "constant": true,
      "inputs": [],
      "name": "totalSupply",
      "outputs": [
        {
          "name": "",
          "type": "uint256"
        }
      ],
      "payable": false,
      "stateMutability": "view",
      "type": "function"
    },
    {
      "constant": false,
      "inputs": [
        {
          "name": "from",
          "type": "address"
        },
        {
          "name": "to",
          "type": "address"
        },
        {
          "name": "value",
          "type": "uint256"
        }
      ],
      "name": "transferFrom",
      "outputs": [
        {
          "name": "",
          "type": "bool"
        }
      ],
      "payable": false,
      "stateMutability": "nonpayable",
      "type": "function"
    },
    {
      "constant": true,
      "inputs": [],
      "name": "decimals",
      "outputs": [
        {
          "name": "",
          "type": "uint8"
        }
      ],
      "payable": false,
      "stateMutability": "view",
      "type": "function"
    },
    {
      "constant": false,
      "inputs": [
        {
          "name": "spender",
          "type": "address"
        },
        {
          "name": "addedValue",
          "type": "uint256"
        }
      ],
      "name": "increaseAllowance",
      "outputs": [
        {
          "name": "",
          "type": "bool"
        }
      ],
      "payable": false,
      "stateMutability": "nonpayable",
      "type": "function"
    },
    {
      "constant": false,
      "inputs": [
        {
          "name": "_newController",
          "type": "address"
        }
      ],
      "name": "changeController",
      "outputs": [],
      "payable": false,
      "stateMutability": "nonpayable",
      "type": "function"
    },
    {
      "constant": false,
      "inputs": [],
      "name": "unpause",
      "outputs": [],
      "payable": false,
      "stateMutability": "nonpayable",
      "type": "function"
    },
    {
      "constant": false,
      "inputs": [
        {
          "name": "to",
          "type": "address"
        },
        {
          "name": "value",
          "type": "uint256"
        }
      ],
      "name": "mint",
      "outputs": [
        {
          "name": "",
          "type": "bool"
        }
      ],
      "payable": false,
      "stateMutability": "nonpayable",
      "type": "function"
    },
    {
      "constant": false,
      "inputs": [
        {
          "name": "value",
          "type": "uint256"
        }
      ],
      "name": "burn",
      "outputs": [],
      "payable": false,
      "stateMutability": "nonpayable",
      "type": "function"
    },
    {
      "constant": true,
      "inputs": [
        {
          "name": "account",
          "type": "address"
        }
      ],
      "name": "isPauser",
      "outputs": [
        {
          "name": "",
          "type": "bool"
        }
      ],
      "payable": false,
      "stateMutability": "view",
      "type": "function"
    },
    {
      "constant": true,
      "inputs": [],
      "name": "paused",
      "outputs": [
        {
          "name": "",
          "type": "bool"
        }
      ],
      "payable": false,
      "stateMutability": "view",
      "type": "function"
    },
    {
      "constant": false,
      "inputs": [],
      "name": "renouncePauser",
      "outputs": [],
      "payable": false,
      "stateMutability": "nonpayable",
      "type": "function"
    },
    {
      "constant": true,
      "inputs": [
        {
          "name": "owner",
          "type": "address"
        }
      ],
      "name": "balanceOf",
      "outputs": [
        {
          "name": "",
          "type": "uint256"
        }
      ],
      "payable": false,
      "stateMutability": "view",
      "type": "function"
    },
    {
      "constant": true,
      "inputs": [
        {
          "name": "_value",
          "type": "uint256"
        }
      ],
      "name": "calcFee",
      "outputs": [
        {
          "name": "",
          "type": "uint256"
        }
      ],
      "payable": false,
      "stateMutability": "view",
      "type": "function"
    },
    {
      "constant": false,
      "inputs": [
        {
          "name": "from",
          "type": "address"
        },
        {
          "name": "value",
          "type": "uint256"
        }
      ],
      "name": "burnFrom",
      "outputs": [],
      "payable": false,
      "stateMutability": "nonpayable",
      "type": "function"
    },
    {
      "constant": false,
      "inputs": [
        {
          "name": "account",
          "type": "address"
        }
      ],
      "name": "addPauser",
      "outputs": [],
      "payable": false,
      "stateMutability": "nonpayable",
      "type": "function"
    },
    {
      "constant": false,
      "inputs": [],
      "name": "pause",
      "outputs": [],
      "payable": false,
      "stateMutability": "nonpayable",
      "type": "function"
    },
    {
      "constant": true,
      "inputs": [],
      "name": "getInitializationBlock",
      "outputs": [
        {
          "name": "",
          "type": "uint256"
        }
      ],
      "payable": false,
      "stateMutability": "view",
      "type": "function"
    },
    {
      "constant": false,
      "inputs": [
        {
          "name": "_newAddress",
          "type": "address"
        }
      ],
      "name": "changeFeeCollector",
      "outputs": [],
      "payable": false,
      "stateMutability": "nonpayable",
      "type": "function"
    },
    {
      "constant": true,
      "inputs": [],
      "name": "symbol",
      "outputs": [
        {
          "name": "",
          "type": "string"
        }
      ],
      "payable": false,
      "stateMutability": "view",
      "type": "function"
    },
    {
      "constant": false,
      "inputs": [
        {
          "name": "spender",
          "type": "address"
        },
        {
          "name": "subtractedValue",
          "type": "uint256"
        }
      ],
      "name": "decreaseAllowance",
      "outputs": [
        {
          "name": "",
          "type": "bool"
        }
      ],
      "payable": false,
      "stateMutability": "nonpayable",
      "type": "function"
    },
    {
      "constant": false,
      "inputs": [
        {
          "name": "to",
          "type": "address"
        },
        {
          "name": "value",
          "type": "uint256"
        }
      ],
      "name": "transfer",
      "outputs": [
        {
          "name": "",
          "type": "bool"
        }
      ],
      "payable": false,
      "stateMutability": "nonpayable",
      "type": "function"
    },
    {
      "constant": true,
      "inputs": [],
      "name": "feeCollector",
      "outputs": [
        {
          "name": "",
          "type": "address"
        }
      ],
      "payable": false,
      "stateMutability": "view",
      "type": "function"
    },
    {
      "constant": true,
      "inputs": [
        {
          "name": "owner",
          "type": "address"
        },
        {
          "name": "spender",
          "type": "address"
        }
      ],
      "name": "allowance",
      "outputs": [
        {
          "name": "",
          "type": "uint256"
        }
      ],
      "payable": false,
      "stateMutability": "view",
      "type": "function"
    },
    {
      "constant": false,
      "inputs": [
        {
          "name": "_newFeeNominator",
          "type": "uint256"
        },
        {
          "name": "_newFeeDenominator",
          "type": "uint256"
        }
      ],
      "name": "changeFee",
      "outputs": [],
      "payable": false,
      "stateMutability": "nonpayable",
      "type": "function"
    },
    {
      "constant": true,
      "inputs": [],
      "name": "controller",
      "outputs": [
        {
          "name": "",
          "type": "address"
        }
      ],
      "payable": false,
      "stateMutability": "view",
      "type": "function"
    },
    {
      "inputs": [],
      "payable": false,
      "stateMutability": "nonpayable",
      "type": "constructor"
    },
    {
      "anonymous": false,
      "inputs": [
        {
          "indexed": true,
          "name": "burner",
          "type": "address"
        },
        {
          "indexed": false,
          "name": "value",
          "type": "uint256"
        }
      ],
      "name": "Burn",
      "type": "event"
    },
    {
      "anonymous": false,
      "inputs": [
        {
          "indexed": false,
          "name": "account",
          "type": "address"
        }
      ],
      "name": "Paused",
      "type": "event"
    },
    {
      "anonymous": false,
      "inputs": [
        {
          "indexed": false,
          "name": "account",
          "type": "address"
        }
      ],
      "name": "Unpaused",
      "type": "event"
    },
    {
      "anonymous": false,
      "inputs": [
        {
          "indexed": true,
          "name": "account",
          "type": "address"
        }
      ],
      "name": "PauserAdded",
      "type": "event"
    },
    {
      "anonymous": false,
      "inputs": [
        {
          "indexed": true,
          "name": "account",
          "type": "address"
        }
      ],
      "name": "PauserRemoved",
      "type": "event"
    },
    {
      "anonymous": false,
      "inputs": [
        {
          "indexed": true,
          "name": "from",
          "type": "address"
        },
        {
          "indexed": true,
          "name": "to",
          "type": "address"
        },
        {
          "indexed": false,
          "name": "value",
          "type": "uint256"
        }
      ],
      "name": "Transfer",
      "type": "event"
    },
    {
      "anonymous": false,
      "inputs": [
        {
          "indexed": true,
          "name": "owner",
          "type": "address"
        },
        {
          "indexed": true,
          "name": "spender",
          "type": "address"
        },
        {
          "indexed": false,
          "name": "value",
          "type": "uint256"
        }
      ],
      "name": "Approval",
      "type": "event"
    }
  ],
  "bytecode": "0x608060405260146007556103e86008553480156200001c57600080fd5b50604080518082018252600b81527f5377697373204672616e6300000000000000000000000000000000000000000060208083019182528351808501909452600584527f43484633360000000000000000000000000000000000000000000000000000009084015281519192916012916200009b9160009190620003d5565b508151620000b1906001906020850190620003d5565b506002805460ff191660ff9290921691909117905550620000d490503362000138565b600580546001600160a81b0319166101003390810291909117909155600680546001600160a01b03191690911790556200010d6200018a565b600680546001600160a01b03191633179055620001326001600160e01b03620001b016565b62000477565b62000153816004620001c660201b620015fa1790919060201c565b6040516001600160a01b038216907f6719d08c1888103bea251a4ed56406bd0c3e69723c8a1686e017e7bbe159b6f890600090a250565b600354156200019857600080fd5b620001ab6001600160e01b036200026d16565b600355565b620001c4336001600160e01b036200027216565b565b620001db82826001600160e01b03620002c416565b156200024857604080517f08c379a000000000000000000000000000000000000000000000000000000000815260206004820152601f60248201527f526f6c65733a206163636f756e7420616c72656164792068617320726f6c6500604482015290519081900360640190fd5b6001600160a01b0316600090815260209190915260409020805460ff19166001179055565b435b90565b6200028d8160046200034760201b620015931790919060201c565b6040516001600160a01b038216907fcd265ebaf09df2871cc7bd4133404a235ba12eff2041bb89d9c714a2621c7c7e90600090a250565b60006001600160a01b03821662000327576040517f08c379a000000000000000000000000000000000000000000000000000000000815260040180806020018281038252602281526020018062001c136022913960400191505060405180910390fd5b506001600160a01b03166000908152602091909152604090205460ff1690565b6200035c82826001600160e01b03620002c416565b620003b3576040517f08c379a000000000000000000000000000000000000000000000000000000000815260040180806020018281038252602181526020018062001bf26021913960400191505060405180910390fd5b6001600160a01b0316600090815260209190915260409020805460ff19169055565b828054600181600116156101000203166002900490600052602060002090601f016020900481019282601f106200041857805160ff191683800117855562000448565b8280016001018555821562000448579182015b82811115620004485782518255916020019190600101906200042b565b50620004569291506200045a565b5090565b6200026f91905b8082111562000456576000815560010162000461565b61176b80620004876000396000f3fe608060405234801561001057600080fd5b50600436106101a95760003560e01c806370a08231116100f957806395d89b4111610097578063c415b95c11610071578063c415b95c146104df578063dd62ed3e14610503578063e3ca2d6514610531578063f77c479114610554576101a9565b806395d89b411461047f578063a457c2d714610487578063a9059cbb146104b3576101a9565b806382dc1ec4116100d357806382dc1ec4146104235780638456cb59146104495780638b3dd749146104515780639245290d14610459576101a9565b806370a08231146103b457806375dc7d8c146103da57806379cc6790146103f7576101a9565b80633cebb8231161016657806342966c681161014057806342966c681461036157806346fbf68e1461037e5780635c975abb146103a45780636ef8d66d146103ac576101a9565b80633cebb823146103055780633f4ba83a1461032d57806340c10f1914610335576101a9565b806306fdde03146101ae578063095ea7b31461022b57806318160ddd1461026b57806323b872dd14610285578063313ce567146102bb57806339509351146102d9575b600080fd5b6101b661055c565b6040805160208082528351818301528351919283929083019185019080838360005b838110156101f05781810151838201526020016101d8565b50505050905090810190601f16801561021d5780820380516001836020036101000a031916815260200191505b509250505060405180910390f35b6102576004803603604081101561024157600080fd5b506001600160a01b0381351690602001356105f2565b604080519115158252519081900360200190f35b610273610655565b60408051918252519081900360200190f35b6102576004803603606081101561029b57600080fd5b506001600160a01b0381358116916020810135909116906040013561065b565b6102c36107f3565b6040805160ff9092168252519081900360200190f35b610257600480360360408110156102ef57600080fd5b506001600160a01b0381351690602001356107fc565b61032b6004803603602081101561031b57600080fd5b50356001600160a01b0316610885565b005b61032b6108c9565b6102576004803603604081101561034b57600080fd5b506001600160a01b03813516906020013561099a565b61032b6004803603602081101561037757600080fd5b5035610a0e565b6102576004803603602081101561039457600080fd5b50356001600160a01b0316610a66565b610257610a79565b61032b610a82565b610273600480360360208110156103ca57600080fd5b50356001600160a01b0316610a8d565b610273600480360360208110156103f057600080fd5b5035610aa8565b61032b6004803603604081101561040d57600080fd5b506001600160a01b038135169060200135610ad1565b61032b6004803603602081101561043957600080fd5b50356001600160a01b0316610b2a565b61032b610b77565b610273610c48565b61032b6004803603602081101561046f57600080fd5b50356001600160a01b0316610c4e565b6101b6610ccf565b6102576004803603604081101561049d57600080fd5b506001600160a01b038135169060200135610d2f565b610257600480360360408110156104c957600080fd5b506001600160a01b038135169060200135610db8565b6104e7610edd565b604080516001600160a01b039092168252519081900360200190f35b6102736004803603604081101561051957600080fd5b506001600160a01b0381358116916020013516610eec565b61032b6004803603604081101561054757600080fd5b5080359060200135610f17565b6104e7610f81565b60008054604080516020601f60026000196101006001881615020190951694909404938401819004810282018101909252828152606093909290918301828280156105e85780601f106105bd576101008083540402835291602001916105e8565b820191906000526020600020905b8154815290600101906020018083116105cb57829003601f168201915b5050505050905090565b60055460009060ff1615610640576040805162461bcd60e51b815260206004820152601060248201526f14185d5cd8589b194e881c185d5cd95960821b604482015290519081900360640190fd5b61064b338484610f95565b5060015b92915050565b600b5490565b60055460009060ff16156106a9576040805162461bcd60e51b815260206004820152601060248201526f14185d5cd8589b194e881c185d5cd95960821b604482015290519081900360640190fd5b60055460408051634a39314960e01b81526001600160a01b038781166004830152868116602483015260448201869052915161010090930490911691634a39314991606480820192602092909190829003018186803b15801561070b57600080fd5b505afa15801561071f573d6000803e3d6000fd5b505050506040513d602081101561073557600080fd5b505115156001146107775760405162461bcd60e51b81526004018080602001828103825260278152602001806117106027913960400191505060405180910390fd5b60055461010090046001600160a01b031633146107de5761079984848461101d565b6001600160a01b0384166000908152600a60209081526040808320338085529252909120546107d99186916107d4908663ffffffff6110ea16565b610f95565b6107e9565b6107e984848461101d565b5060019392505050565b60025460ff1690565b60055460009060ff161561084a576040805162461bcd60e51b815260206004820152601060248201526f14185d5cd8589b194e881c185d5cd95960821b604482015290519081900360640190fd5b336000818152600a602090815260408083206001600160a01b038816845290915290205461064b919085906107d4908663ffffffff61114716565b60055461010090046001600160a01b031633146108a157600080fd5b600580546001600160a01b0390921661010002610100600160a81b0319909216919091179055565b6108d233610a66565b61090d5760405162461bcd60e51b815260040180806020018281038252603081526020018061167c6030913960400191505060405180910390fd5b60055460ff1661095b576040805162461bcd60e51b815260206004820152601460248201527314185d5cd8589b194e881b9bdd081c185d5cd95960621b604482015290519081900360640190fd5b6005805460ff191690556040805133815290517f5db9ee0a495bf2e6ff9c91a7834c1ba4fdd244a5e8aa4e537bd38aeae4b073aa9181900360200190a1565b60055460009061010090046001600160a01b031633146109b957600080fd5b60055460ff1615610a04576040805162461bcd60e51b815260206004820152601060248201526f14185d5cd8589b194e881c185d5cd95960821b604482015290519081900360640190fd5b61064b83836111a8565b60055460ff1615610a59576040805162461bcd60e51b815260206004820152601060248201526f14185d5cd8589b194e881c185d5cd95960821b604482015290519081900360640190fd5b610a633382611252565b50565b600061064f60048363ffffffff61139416565b60055460ff1690565b610a8b336113fb565b565b6001600160a01b031660009081526009602052604090205490565b600061064f600854610ac56007548561144390919063ffffffff16565b9063ffffffff61149c16565b60055460ff1615610b1c576040805162461bcd60e51b815260206004820152601060248201526f14185d5cd8589b194e881c185d5cd95960821b604482015290519081900360640190fd5b610b268282611506565b5050565b610b3333610a66565b610b6e5760405162461bcd60e51b815260040180806020018281038252603081526020018061167c6030913960400191505060405180910390fd5b610a638161154b565b610b8033610a66565b610bbb5760405162461bcd60e51b815260040180806020018281038252603081526020018061167c6030913960400191505060405180910390fd5b60055460ff1615610c06576040805162461bcd60e51b815260206004820152601060248201526f14185d5cd8589b194e881c185d5cd95960821b604482015290519081900360640190fd5b6005805460ff191660011790556040805133815290517f62e78cea01bee320cd4e420270b5ea74000d11b0c9f74754ebdbfc544b05a2589181900360200190a1565b60035490565b6006546001600160a01b03163314610cad576040805162461bcd60e51b815260206004820152601d60248201527f4f6e6c792046656520436f6c6c6563746f7220697320616c6c6f776564000000604482015290519081900360640190fd5b600680546001600160a01b0319166001600160a01b0392909216919091179055565b60018054604080516020601f600260001961010087891615020190951694909404938401819004810282018101909252828152606093909290918301828280156105e85780601f106105bd576101008083540402835291602001916105e8565b60055460009060ff1615610d7d576040805162461bcd60e51b815260206004820152601060248201526f14185d5cd8589b194e881c185d5cd95960821b604482015290519081900360640190fd5b336000818152600a602090815260408083206001600160a01b038816845290915290205461064b919085906107d4908663ffffffff6110ea16565b60055460009060ff1615610e06576040805162461bcd60e51b815260206004820152601060248201526f14185d5cd8589b194e881c185d5cd95960821b604482015290519081900360640190fd5b60055460408051634a39314960e01b81523360048201526001600160a01b03868116602483015260448201869052915161010090930490911691634a39314991606480820192602092909190829003018186803b158015610e6657600080fd5b505afa158015610e7a573d6000803e3d6000fd5b505050506040513d6020811015610e9057600080fd5b50511515600114610ed25760405162461bcd60e51b81526004018080602001828103825260278152602001806117106027913960400191505060405180910390fd5b61064b33848461101d565b6006546001600160a01b031681565b6001600160a01b039182166000908152600a6020908152604080832093909416825291909152205490565b6006546001600160a01b03163314610f76576040805162461bcd60e51b815260206004820152601d60248201527f4f6e6c792046656520436f6c6c6563746f7220697320616c6c6f776564000000604482015290519081900360640190fd5b600791909155600855565b60055461010090046001600160a01b031690565b6001600160a01b038216610fa857600080fd5b6001600160a01b038316610fbb57600080fd5b6001600160a01b038084166000818152600a6020908152604080832094871680845294825291829020859055815185815291517f8c5be1e5ebec7d5bd14f71427d1e84f3dd0314c0f7b2291e5b200ac8c7c3b9259281900390910190a3505050565b6001600160a01b03821661103057600080fd5b6001600160a01b038316600090815260096020526040902054611059908263ffffffff6110ea16565b6001600160a01b03808516600090815260096020526040808220939093559084168152205461108e908263ffffffff61114716565b6001600160a01b0380841660008181526009602090815260409182902094909455805185815290519193928716927fddf252ad1be2c89b69c2b068fc378daa952ba7f163c4a11628f55a4df523b3ef92918290030190a3505050565b600082821115611141576040805162461bcd60e51b815260206004820152601e60248201527f536166654d6174683a207375627472616374696f6e206f766572666c6f770000604482015290519081900360640190fd5b50900390565b6000828201838110156111a1576040805162461bcd60e51b815260206004820152601b60248201527f536166654d6174683a206164646974696f6e206f766572666c6f770000000000604482015290519081900360640190fd5b9392505050565b6001600160a01b0382166111bb57600080fd5b600b546111ce908263ffffffff61114716565b600b556001600160a01b0382166000908152600960205260409020546111fa908263ffffffff61114716565b6001600160a01b03831660008181526009602090815260408083209490945583518581529351929391927fddf252ad1be2c89b69c2b068fc378daa952ba7f163c4a11628f55a4df523b3ef9281900390910190a35050565b6001600160a01b03821661126557600080fd5b600061127082610aa8565b6006546001600160a01b0316600090815260096020526040902054909150818303906112a2908363ffffffff61114716565b6006546001600160a01b0316600090815260096020526040902055600b546112d0908263ffffffff6110ea16565b600b556001600160a01b0384166000908152600960205260409020546112fc908463ffffffff6110ea16565b6001600160a01b0385166000818152600960209081526040808320949094558351878152935191937fddf252ad1be2c89b69c2b068fc378daa952ba7f163c4a11628f55a4df523b3ef929081900390910190a36040805184815290516001600160a01b038616917fcc16f5dbb4873280815c1ee09dbd06736cffcc184412cf7a71a0fdb75d397ca5919081900360200190a250505050565b60006001600160a01b0382166113db5760405162461bcd60e51b81526004018080602001828103825260228152602001806116ee6022913960400191505060405180910390fd5b506001600160a01b03166000908152602091909152604090205460ff1690565b61140c60048263ffffffff61159316565b6040516001600160a01b038216907fcd265ebaf09df2871cc7bd4133404a235ba12eff2041bb89d9c714a2621c7c7e90600090a250565b6000826114525750600061064f565b8282028284828161145f57fe5b04146111a15760405162461bcd60e51b81526004018080602001828103825260218152602001806116cd6021913960400191505060405180910390fd5b60008082116114f2576040805162461bcd60e51b815260206004820152601a60248201527f536166654d6174683a206469766973696f6e206279207a65726f000000000000604482015290519081900360640190fd5b60008284816114fd57fe5b04949350505050565b6115108282611252565b6001600160a01b0382166000908152600a6020908152604080832033808552925290912054610b269184916107d4908563ffffffff6110ea16565b61155c60048263ffffffff6115fa16565b6040516001600160a01b038216907f6719d08c1888103bea251a4ed56406bd0c3e69723c8a1686e017e7bbe159b6f890600090a250565b61159d8282611394565b6115d85760405162461bcd60e51b81526004018080602001828103825260218152602001806116ac6021913960400191505060405180910390fd5b6001600160a01b0316600090815260209190915260409020805460ff19169055565b6116048282611394565b15611656576040805162461bcd60e51b815260206004820152601f60248201527f526f6c65733a206163636f756e7420616c72656164792068617320726f6c6500604482015290519081900360640190fd5b6001600160a01b0316600090815260209190915260409020805460ff1916600117905556fe506175736572526f6c653a2063616c6c657220646f6573206e6f742068617665207468652050617573657220726f6c65526f6c65733a206163636f756e7420646f6573206e6f74206861766520726f6c65536166654d6174683a206d756c7469706c69636174696f6e206f766572666c6f77526f6c65733a206163636f756e7420697320746865207a65726f2061646472657373546f6b656e3336436f6e74726f6c6c65722072656a656374656420746865207472616e73666572a265627a7a7230582057badfefc7a4404d1644112e02f4a53becb7ad67fb5fce5f17ee22ae8b84979a64736f6c63430005090032526f6c65733a206163636f756e7420646f6573206e6f74206861766520726f6c65526f6c65733a206163636f756e7420697320746865207a65726f2061646472657373",
  "source": "pragma solidity ^0.5.9;\n\nimport \"./../Token36.sol\";\n\n\n/// @title CHF36 Token Contract\n/// @author element36.io\ncontract CHF36 is Token36 {\n\n    // Constructor\n    constructor() public ERC20Detailed(\"Swiss Franc\", \"CHF36\", 18) {\n    }\n}",
  "sourcePath": "/Users/bum/element36/dev/cash36/contracts/contracts/CHF36/CHF36.sol",
  "compiler": {
    "name": "solc",
    "version": "0.5.9+commit.e560f70d.Emscripten.clang"
  },
  "schemaVersion": "3.0.11",
  "updatedAt": "2019-06-19T07:52:24.311Z",
  "devdoc": {
    "author": "element36.io",
    "methods": {
      "allowance(address,address)": {
        "details": "Function to check the amount of tokens that an owner allowed to a spender.",
        "params": {
          "owner": "address The address which owns the funds.",
          "spender": "address The address which will spend the funds."
        },
        "return": "A uint256 specifying the amount of tokens still available for the spender."
      },
      "approve(address,uint256)": {
        "details": "Approve the passed address to spend the specified amount of tokens on behalf of msg.sender. Beware that changing an allowance with this method brings the risk that someone may use both the old and the new allowance by unfortunate transaction ordering. One possible solution to mitigate this race condition is to first reduce the spender's allowance to 0 and set the desired value afterwards: https://github.com/ethereum/EIPs/issues/20#issuecomment-263524729",
        "params": {
          "spender": "The address which will spend the funds.",
          "value": "The amount of tokens to be spent."
        }
      },
      "balanceOf(address)": {
        "details": "Gets the balance of the specified address.",
        "params": {
          "owner": "The address to query the balance of."
        },
        "return": "A uint256 representing the amount owned by the passed address."
      },
      "burn(uint256)": {
        "details": "Burns a specific amount of tokens.",
        "params": {
          "value": "The amount of token to be burned."
        }
      },
      "burnFrom(address,uint256)": {
        "details": "Burns a specific amount of tokens from the target address and decrements allowance",
        "params": {
          "from": "address The account whose tokens will be burned.",
          "value": "uint256 The amount of token to be burned."
        }
      },
      "calcFee(uint256)": {
        "params": {
          "_value": "Value to calculate fee for"
        },
        "return": "{  \"uint256\": \"The calculated Fee\" }"
      },
      "changeController(address)": {
        "details": "onlyController - only open to the currently assigned controller",
        "params": {
          "_newController": "The new controller of the contract"
        }
      },
      "changeFee(uint256,uint256)": {
        "details": "onlyFeeCollector - only open to the fee collector",
        "params": {
          "_newFeeDenominator": "Fee denominator",
          "_newFeeNominator": "Fee nominator"
        }
      },
      "changeFeeCollector(address)": {
        "details": "onlyFeeCollector - only open to the fee collector",
        "params": {
          "_newAddress": "New fee collector address"
        }
      },
      "decimals()": {
        "details": "Returns the number of decimals used to get its user representation. For example, if `decimals` equals `2`, a balance of `505` tokens should be displayed to a user as `5,05` (`505 / 10 ** 2`).     * Tokens usually opt for a value of 18, imitating the relationship between Ether and Wei.     * > Note that this information is only used for _display_ purposes: it in no way affects any of the arithmetic of the contract, including `IERC20.balanceOf` and `IERC20.transfer`."
      },
      "decreaseAllowance(address,uint256)": {
        "details": "Decrease the amount of tokens that an owner allowed to a spender. approve should be called when _allowed[msg.sender][spender] == 0. To decrement allowed value is better to use this function to avoid 2 calls (and wait until the first transaction is mined) From MonolithDAO Token.sol Emits an Approval event.",
        "params": {
          "spender": "The address which will spend the funds.",
          "subtractedValue": "The amount of tokens to decrease the allowance by."
        }
      },
      "increaseAllowance(address,uint256)": {
        "details": "Increase the amount of tokens that an owner allowed to a spender. approve should be called when _allowed[msg.sender][spender] == 0. To increment allowed value is better to use this function to avoid 2 calls (and wait until the first transaction is mined) From MonolithDAO Token.sol Emits an Approval event.",
        "params": {
          "addedValue": "The amount of tokens to increase the allowance by.",
          "spender": "The address which will spend the funds."
        }
      },
      "mint(address,uint256)": {
        "details": "Function to mint tokens",
        "params": {
          "to": "The address that will receive the minted tokens.",
          "value": "The amount of tokens to mint."
        },
        "return": "A boolean that indicates if the operation was successful."
      },
      "name()": {
        "details": "Returns the name of the token."
      },
      "pause()": {
        "details": "Called by a pauser to pause, triggers stopped state."
      },
      "paused()": {
        "details": "Returns true if the contract is paused, and false otherwise."
      },
      "symbol()": {
        "details": "Returns the symbol of the token, usually a shorter version of the name."
      },
      "totalSupply()": {
        "details": "Total number of tokens in existence"
      },
      "transfer(address,uint256)": {
        "details": "Transfer token to a specified address",
        "params": {
          "to": "The address to transfer to.",
          "value": "The amount to be transferred."
        }
      },
      "transferFrom(address,address,uint256)": {
        "details": "Transfer tokens from one address to another. Note that while this function emits an Approval event, this is not required as per the specification, and other compliant implementations may not emit the event.",
        "params": {
          "from": "address The address which you want to send tokens from",
          "to": "address The address which you want to transfer to",
          "value": "uint256 the amount of tokens to be transferred"
        }
      },
      "unpause()": {
        "details": "Called by a pauser to unpause, returns to normal state."
      }
    },
    "title": "CHF36 Token Contract"
  },
  "userdoc": {
    "methods": {
      "calcFee(uint256)": {
        "notice": "Calculate the Fee for given value"
      },
      "changeController(address)": {
        "notice": "Changes the controller of the contract"
      },
      "changeFee(uint256,uint256)": {
        "notice": "Change the fees"
      },
      "changeFeeCollector(address)": {
        "notice": "Change the fee collector"
      },
      "getInitializationBlock()": {
        "notice": "@return Block number in which the contract was initialized"
      }
    }
  }
}