{
  "contractName": "EthereumClaimsRegistry",
  "abi": [
    {
      "constant": true,
      "inputs": [
        {
          "name": "",
          "type": "address"
        },
        {
          "name": "",
          "type": "address"
        },
        {
          "name": "",
          "type": "bytes32"
        }
      ],
      "name": "registry",
      "outputs": [
        {
          "name": "",
          "type": "bytes32"
        }
      ],
      "payable": false,
      "stateMutability": "view",
      "type": "function"
    },
    {
      "anonymous": false,
      "inputs": [
        {
          "indexed": true,
          "name": "issuer",
          "type": "address"
        },
        {
          "indexed": true,
          "name": "subject",
          "type": "address"
        },
        {
          "indexed": true,
          "name": "key",
          "type": "bytes32"
        },
        {
          "indexed": false,
          "name": "value",
          "type": "bytes32"
        },
        {
          "indexed": false,
          "name": "updatedAt",
          "type": "uint256"
        }
      ],
      "name": "ClaimSet",
      "type": "event"
    },
    {
      "anonymous": false,
      "inputs": [
        {
          "indexed": true,
          "name": "issuer",
          "type": "address"
        },
        {
          "indexed": true,
          "name": "subject",
          "type": "address"
        },
        {
          "indexed": true,
          "name": "key",
          "type": "bytes32"
        },
        {
          "indexed": false,
          "name": "removedAt",
          "type": "uint256"
        }
      ],
      "name": "ClaimRemoved",
      "type": "event"
    },
    {
      "constant": false,
      "inputs": [
        {
          "name": "subject",
          "type": "address"
        },
        {
          "name": "key",
          "type": "bytes32"
        },
        {
          "name": "value",
          "type": "bytes32"
        }
      ],
      "name": "setClaim",
      "outputs": [],
      "payable": false,
      "stateMutability": "nonpayable",
      "type": "function"
    },
    {
      "constant": false,
      "inputs": [
        {
          "name": "key",
          "type": "bytes32"
        },
        {
          "name": "value",
          "type": "bytes32"
        }
      ],
      "name": "setSelfClaim",
      "outputs": [],
      "payable": false,
      "stateMutability": "nonpayable",
      "type": "function"
    },
    {
      "constant": true,
      "inputs": [
        {
          "name": "issuer",
          "type": "address"
        },
        {
          "name": "subject",
          "type": "address"
        },
        {
          "name": "key",
          "type": "bytes32"
        }
      ],
      "name": "getClaim",
      "outputs": [
        {
          "name": "",
          "type": "bytes32"
        }
      ],
      "payable": false,
      "stateMutability": "view",
      "type": "function"
    },
    {
      "constant": false,
      "inputs": [
        {
          "name": "issuer",
          "type": "address"
        },
        {
          "name": "subject",
          "type": "address"
        },
        {
          "name": "key",
          "type": "bytes32"
        }
      ],
      "name": "removeClaim",
      "outputs": [],
      "payable": false,
      "stateMutability": "nonpayable",
      "type": "function"
    }
  ],
  "bytecode": "0x6060604052341561000f57600080fd5b6103268061001e6000396000f30060606040526004361061006c5763ffffffff7c01000000000000000000000000000000000000000000000000000000006000350416639155b01a81146100715780639918925d1461008c578063c7508ec7146100b1578063e1661eff146100d9578063e6d970aa14610113575b600080fd5b341561007c57600080fd5b61008a60043560243561013b565b005b341561009757600080fd5b61008a600160a060020a036004351660243560443561014a565b34156100bc57600080fd5b61008a600160a060020a03600435811690602435166044356101c1565b34156100e457600080fd5b610101600160a060020a03600435811690602435166044356102a8565b60405190815260200160405180910390f35b341561011e57600080fd5b610101600160a060020a03600435811690602435166044356102d8565b61014633838361014a565b5050565b600160a060020a0333811660008181526020818152604080832094881680845294825280832087845290915290819020849055849291907f8c9f893548e8429f9352aba6698e6f4dca2e390604f6e8c5881a7a505d94ae5090859042905191825260208201526040908101905180910390a4505050565b82600160a060020a031633600160a060020a031614806101f2575081600160a060020a031633600160a060020a0316145b15156101fd57600080fd5b600160a060020a03808416600090815260208181526040808320938616835292815282822084835290522054151561023457600080fd5b600160a060020a03808416600090815260208181526040808320868516808552908352818420868552909252808320929092558392909133909116907f7bc046ef9f2fccd4c99778d7e0fbed67ddb16e63e1a266894769de9516b8039a9042905190815260200160405180910390a4505050565b600160a060020a039283166000908152602081815260408083209490951682529283528381209181529152205490565b60006020818152938152604080822085529281528281209093528252902054815600a165627a7a7230582067b89a55fefcbc84796c13be6016e3eb3891f63424aae847cd3ce68b71796f3e0029",
  "source": "pragma solidity 0.4.21;\n\n\n/// @title Ethereum Claims Registry - A repository storing claims issued\n///        from any Ethereum account to any other Ethereum account.\ncontract EthereumClaimsRegistry {\n\n    mapping(address => mapping(address => mapping(bytes32 => bytes32))) public registry;\n\n    event ClaimSet(\n        address indexed issuer,\n        address indexed subject,\n        bytes32 indexed key,\n        bytes32 value,\n        uint updatedAt);\n\n    event ClaimRemoved(\n        address indexed issuer,\n        address indexed subject,\n        bytes32 indexed key,\n        uint removedAt);\n\n    /// @dev Create or update a claim\n    /// @param subject The address the claim is being issued to\n    /// @param key The key used to identify the claim\n    /// @param value The data associated with the claim\n    function setClaim(address subject, bytes32 key, bytes32 value) public {\n        registry[msg.sender][subject][key] = value;\n        emit ClaimSet(msg.sender, subject, key, value, now);\n    }\n\n    /// @dev Create or update a claim about yourself\n    /// @param key The key used to identify the claim\n    /// @param value The data associated with the claim\n    function setSelfClaim(bytes32 key, bytes32 value) public {\n        setClaim(msg.sender, key, value);\n    }\n\n    /// @dev Allows to retrieve claims from other contracts as well as other off-chain interfaces\n    /// @param issuer The address of the issuer of the claim\n    /// @param subject The address to which the claim was issued to\n    /// @param key The key used to identify the claim\n    function getClaim(address issuer, address subject, bytes32 key) public constant returns(bytes32) {\n        return registry[issuer][subject][key];\n    }\n\n    /// @dev Allows to remove a claims from the registry.\n    ///      This can only be done by the issuer or the subject of the claim.\n    /// @param issuer The address of the issuer of the claim\n    /// @param subject The address to which the claim was issued to\n    /// @param key The key used to identify the claim\n    function removeClaim(address issuer, address subject, bytes32 key) public {\n        require(msg.sender == issuer || msg.sender == subject);\n        require(registry[issuer][subject][key] != 0);\n        delete registry[issuer][subject][key];\n        emit ClaimRemoved(msg.sender, subject, key, now);\n    }\n}\n",
  "sourcePath": "/builds/cash36/contracts/contracts/lib/uport/EthereumClaimsRegistry.sol",
  "compiler": {
    "name": "solc",
    "version": "0.4.21+commit.dfe3193c.Emscripten.clang"
  },
  "schemaVersion": "2.0.0",
  "updatedAt": "2018-06-15T10:39:10.470Z"
}