{
  "contractName": "EUR36Controller",
  "abi": [
    {
      "constant": false,
      "inputs": [
        {
          "name": "_newController",
          "type": "address"
        }
      ],
      "name": "changeController",
      "outputs": [],
      "payable": false,
      "stateMutability": "nonpayable",
      "type": "function"
    },
    {
      "constant": false,
      "inputs": [
        {
          "name": "_receiver",
          "type": "address"
        },
        {
          "name": "_amount",
          "type": "uint256"
        }
      ],
      "name": "mint",
      "outputs": [],
      "payable": false,
      "stateMutability": "nonpayable",
      "type": "function"
    },
    {
      "constant": true,
      "inputs": [
        {
          "name": "_from",
          "type": "address"
        },
        {
          "name": "_to",
          "type": "address"
        },
        {
          "name": "_amount",
          "type": "uint256"
        }
      ],
      "name": "onTransfer",
      "outputs": [
        {
          "name": "",
          "type": "bool"
        }
      ],
      "payable": false,
      "stateMutability": "view",
      "type": "function"
    },
    {
      "constant": false,
      "inputs": [],
      "name": "renounceOwnership",
      "outputs": [],
      "payable": false,
      "stateMutability": "nonpayable",
      "type": "function"
    },
    {
      "constant": true,
      "inputs": [],
      "name": "owner",
      "outputs": [
        {
          "name": "",
          "type": "address"
        }
      ],
      "payable": false,
      "stateMutability": "view",
      "type": "function"
    },
    {
      "constant": false,
      "inputs": [
        {
          "name": "_newComplianceContract",
          "type": "address"
        }
      ],
      "name": "updateComplianceContract",
      "outputs": [],
      "payable": false,
      "stateMutability": "nonpayable",
      "type": "function"
    },
    {
      "constant": true,
      "inputs": [],
      "name": "maxAccountTokens",
      "outputs": [
        {
          "name": "",
          "type": "uint256"
        }
      ],
      "payable": false,
      "stateMutability": "view",
      "type": "function"
    },
    {
      "constant": false,
      "inputs": [
        {
          "name": "_newOwner",
          "type": "address"
        }
      ],
      "name": "transferOwnership",
      "outputs": [],
      "payable": false,
      "stateMutability": "nonpayable",
      "type": "function"
    },
    {
      "constant": false,
      "inputs": [
        {
          "name": "_transfersEnabled",
          "type": "bool"
        }
      ],
      "name": "enableTransfers",
      "outputs": [],
      "payable": false,
      "stateMutability": "nonpayable",
      "type": "function"
    },
    {
      "constant": false,
      "inputs": [
        {
          "name": "_maxAccountTokens",
          "type": "uint256"
        }
      ],
      "name": "setMaxAccountTokens",
      "outputs": [],
      "payable": false,
      "stateMutability": "nonpayable",
      "type": "function"
    },
    {
      "inputs": [
        {
          "name": "_token",
          "type": "address"
        },
        {
          "name": "_compliance",
          "type": "address"
        }
      ],
      "payable": false,
      "stateMutability": "nonpayable",
      "type": "constructor"
    },
    {
      "anonymous": false,
      "inputs": [
        {
          "indexed": true,
          "name": "previousOwner",
          "type": "address"
        }
      ],
      "name": "OwnershipRenounced",
      "type": "event"
    },
    {
      "anonymous": false,
      "inputs": [
        {
          "indexed": true,
          "name": "previousOwner",
          "type": "address"
        },
        {
          "indexed": true,
          "name": "newOwner",
          "type": "address"
        }
      ],
      "name": "OwnershipTransferred",
      "type": "event"
    }
  ],
  "bytecode": "0x608060405260001960035534801561001657600080fd5b50604051604080610c0c83398101604052805160209091015160008054600160a060020a0319908116331790915560018054600160a060020a0394851690831617905560028054939092169216919091179055610b94806100786000396000f30060806040526004361061008a5763ffffffff60e060020a6000350416633cebb823811461008f57806340c10f19146100b25780634a393149146100d6578063715018a6146101145780638da5cb5b146101295780639b1649e61461015a578063ecfda4321461017b578063f2fde38b146101a2578063f41e60c5146101c3578063fbb64114146101dd575b600080fd5b34801561009b57600080fd5b506100b0600160a060020a03600435166101f5565b005b3480156100be57600080fd5b506100b0600160a060020a036004351660243561028e565b3480156100e257600080fd5b50610100600160a060020a0360043581169060243516604435610483565b604080519115158252519081900360200190f35b34801561012057600080fd5b506100b0610873565b34801561013557600080fd5b5061013e6108df565b60408051600160a060020a039092168252519081900360200190f35b34801561016657600080fd5b506100b0600160a060020a03600435166108ee565b34801561018757600080fd5b50610190610934565b60408051918252519081900360200190f35b3480156101ae57600080fd5b506100b0600160a060020a036004351661093a565b3480156101cf57600080fd5b506100b0600435151561095d565b3480156101e957600080fd5b506100b06004356109db565b600054600160a060020a0316331461020c57600080fd5b600154604080517f3cebb823000000000000000000000000000000000000000000000000000000008152600160a060020a03848116600483015291519190921691633cebb82391602480830192600092919082900301818387803b15801561027357600080fd5b505af1158015610287573d6000803e3d6000fd5b5050505050565b600254600154604080517fea13d8a1000000000000000000000000000000000000000000000000000000008152336004820152600160a060020a0392831660248201529051919092169163ea13d8a19160448083019260209291908290030181600087803b1580156102ff57600080fd5b505af1158015610313573d6000803e3d6000fd5b505050506040513d602081101561032957600080fd5b5051151561033657600080fd5b61033f826109f7565b15156103e457600254604080517f1e9d48cf000000000000000000000000000000000000000000000000000000008152600160a060020a03858116600483015291519190921691631e9d48cf9160248083019260209291908290030181600087803b1580156103ad57600080fd5b505af11580156103c1573d6000803e3d6000fd5b505050506040513d60208110156103d757600080fd5b505115156103e457600080fd5b600154604080517ff0dda65c000000000000000000000000000000000000000000000000000000008152600160a060020a038581166004830152602482018590529151919092169163f0dda65c9160448083019260209291908290030181600087803b15801561045357600080fd5b505af1158015610467573d6000803e3d6000fd5b505050506040513d602081101561047d57600080fd5b50505050565b600154600090600160a060020a0316331461049d57600080fd5b6104a6836109f7565b1515610868576104b68383610a24565b15156104c45750600061086c565b600254604080517f1e9d48cf000000000000000000000000000000000000000000000000000000008152600160a060020a03868116600483015291519190921691631e9d48cf9160248083019260209291908290030181600087803b15801561052c57600080fd5b505af1158015610540573d6000803e3d6000fd5b505050506040513d602081101561055657600080fd5b505115156105665750600061086c565b600254600154604080517f70a08231000000000000000000000000000000000000000000000000000000008152600160a060020a038781166004830152915193821693636b618ff993889388939116916370a08231916024808201926020929091908290030181600087803b1580156105de57600080fd5b505af11580156105f2573d6000803e3d6000fd5b505050506040513d602081101561060857600080fd5b50516040805160e060020a63ffffffff8716028152600160a060020a039094166004850152602484019290925260448301525160648083019260209291908290030181600087803b15801561065c57600080fd5b505af1158015610670573d6000803e3d6000fd5b505050506040513d602081101561068657600080fd5b505115156106965750600061086c565b600254604080517f1e9d48cf000000000000000000000000000000000000000000000000000000008152600160a060020a03878116600483015291519190921691631e9d48cf9160248083019260209291908290030181600087803b1580156106fe57600080fd5b505af1158015610712573d6000803e3d6000fd5b505050506040513d602081101561072857600080fd5b505115156107385750600061086c565b600254600154604080517f70a08231000000000000000000000000000000000000000000000000000000008152600160a060020a038881166004830152915193821693636b618ff993899388939116916370a08231916024808201926020929091908290030181600087803b1580156107b057600080fd5b505af11580156107c4573d6000803e3d6000fd5b505050506040513d60208110156107da57600080fd5b50516040805160e060020a63ffffffff8716028152600160a060020a039094166004850152602484019290925260448301525160648083019260209291908290030181600087803b15801561082e57600080fd5b505af1158015610842573d6000803e3d6000fd5b505050506040513d602081101561085857600080fd5b505115156108685750600061086c565b5060015b9392505050565b600054600160a060020a0316331461088a57600080fd5b60008054604051600160a060020a03909116917ff8df31144d9c2f0f6b59d69b8b98abd5459d07f2742c4df920b25aae33c6482091a26000805473ffffffffffffffffffffffffffffffffffffffff19169055565b600054600160a060020a031681565b600054600160a060020a0316331461090557600080fd5b6002805473ffffffffffffffffffffffffffffffffffffffff1916600160a060020a0392909216919091179055565b60035481565b600054600160a060020a0316331461095157600080fd5b61095a81610ad8565b50565b600054600160a060020a0316331461097457600080fd5b600154604080517ff41e60c500000000000000000000000000000000000000000000000000000000815283151560048201529051600160a060020a039092169163f41e60c59160248082019260009290919082900301818387803b15801561027357600080fd5b600054600160a060020a031633146109f257600080fd5b600355565b600080600160a060020a0383161515610a135760009150610a1e565b823b90506000811191505b50919050565b600354600154604080517f70a08231000000000000000000000000000000000000000000000000000000008152600160a060020a038681166004830152915160009493610acf9387939116916370a082319160248082019260209290919082900301818a87803b158015610a9757600080fd5b505af1158015610aab573d6000803e3d6000fd5b505050506040513d6020811015610ac157600080fd5b50519063ffffffff610b5516565b11159392505050565b600160a060020a0381161515610aed57600080fd5b60008054604051600160a060020a03808516939216917f8be0079c531659141344cd1fd0a4f28419497f9722a3daafe3b4186f6b6457e091a36000805473ffffffffffffffffffffffffffffffffffffffff1916600160a060020a0392909216919091179055565b81810182811015610b6257fe5b929150505600a165627a7a72305820356eba6a116a1138f825a12f029cc3dda02b7c14b7f50d0593bb580460a8fec50029",
  "source": "pragma solidity ^0.4.24;\n\nimport \"./../Token36Controller.sol\";\n\n\n/// @title Cash36 Main Index Contract\n/// @notice Main Contract of cash36. Acts as an Index to keep track of all official cash36 contracts and more.\n/// @author element36.io\ncontract EUR36Controller is Token36Controller {\n\n    // Constructor\n    constructor(Token36 _token, address _compliance) public {\n        token = _token;\n        compliance = Cash36Compliance(_compliance);\n    }\n}",
  "sourcePath": "/Users/bum/element36/dev/cash36/contracts/contracts/USD36/USD36Controller.sol",
  "compiler": {
    "name": "solc",
    "version": "0.4.24+commit.e67f0147.Emscripten.clang"
  },
  "schemaVersion": "2.0.1",
  "updatedAt": "2018-08-30T14:41:56.704Z"
}