{
  "contractName": "GBP36Controller",
  "abi": [
    {
      "inputs": [
        {
          "internalType": "contract Token36",
          "name": "_token",
          "type": "address"
        },
        {
          "internalType": "address",
          "name": "_compliance",
          "type": "address"
        },
        {
          "internalType": "address",
          "name": "_exchanges",
          "type": "address"
        }
      ],
      "payable": false,
      "stateMutability": "nonpayable",
      "type": "constructor"
    },
    {
      "anonymous": false,
      "inputs": [
        {
          "indexed": true,
          "internalType": "address",
          "name": "previousOwner",
          "type": "address"
        },
        {
          "indexed": true,
          "internalType": "address",
          "name": "newOwner",
          "type": "address"
        }
      ],
      "name": "OwnershipTransferred",
      "type": "event"
    },
    {
      "constant": false,
      "inputs": [
        {
          "internalType": "address",
          "name": "_from",
          "type": "address"
        },
        {
          "internalType": "uint256",
          "name": "_amount",
          "type": "uint256"
        }
      ],
      "name": "burn",
      "outputs": [],
      "payable": false,
      "stateMutability": "nonpayable",
      "type": "function"
    },
    {
      "constant": false,
      "inputs": [
        {
          "internalType": "address",
          "name": "_newController",
          "type": "address"
        }
      ],
      "name": "changeController",
      "outputs": [],
      "payable": false,
      "stateMutability": "nonpayable",
      "type": "function"
    },
    {
      "constant": false,
      "inputs": [
        {
          "internalType": "bool",
          "name": "_transfersEnabled",
          "type": "bool"
        }
      ],
      "name": "enableTransfers",
      "outputs": [],
      "payable": false,
      "stateMutability": "nonpayable",
      "type": "function"
    },
    {
      "constant": true,
      "inputs": [],
      "name": "getComplianceContract",
      "outputs": [
        {
          "internalType": "address",
          "name": "",
          "type": "address"
        }
      ],
      "payable": false,
      "stateMutability": "view",
      "type": "function"
    },
    {
      "constant": true,
      "inputs": [],
      "name": "getExchangesContract",
      "outputs": [
        {
          "internalType": "address",
          "name": "",
          "type": "address"
        }
      ],
      "payable": false,
      "stateMutability": "view",
      "type": "function"
    },
    {
      "constant": true,
      "inputs": [],
      "name": "isOwner",
      "outputs": [
        {
          "internalType": "bool",
          "name": "",
          "type": "bool"
        }
      ],
      "payable": false,
      "stateMutability": "view",
      "type": "function"
    },
    {
      "constant": false,
      "inputs": [
        {
          "internalType": "address",
          "name": "_receiver",
          "type": "address"
        },
        {
          "internalType": "uint256",
          "name": "_amount",
          "type": "uint256"
        }
      ],
      "name": "mint",
      "outputs": [],
      "payable": false,
      "stateMutability": "nonpayable",
      "type": "function"
    },
    {
      "constant": true,
      "inputs": [
        {
          "internalType": "address",
          "name": "_from",
          "type": "address"
        }
      ],
      "name": "onBurn",
      "outputs": [
        {
          "internalType": "bool",
          "name": "",
          "type": "bool"
        }
      ],
      "payable": false,
      "stateMutability": "view",
      "type": "function"
    },
    {
      "constant": true,
      "inputs": [
        {
          "internalType": "address",
          "name": "_from",
          "type": "address"
        },
        {
          "internalType": "address",
          "name": "_to",
          "type": "address"
        },
        {
          "internalType": "uint256",
          "name": "_amount",
          "type": "uint256"
        }
      ],
      "name": "onTransfer",
      "outputs": [
        {
          "internalType": "bool",
          "name": "",
          "type": "bool"
        }
      ],
      "payable": false,
      "stateMutability": "view",
      "type": "function"
    },
    {
      "constant": true,
      "inputs": [
        {
          "internalType": "address",
          "name": "_from",
          "type": "address"
        },
        {
          "internalType": "uint256",
          "name": "_amount",
          "type": "uint256"
        }
      ],
      "name": "onTransfer",
      "outputs": [
        {
          "internalType": "bool",
          "name": "",
          "type": "bool"
        }
      ],
      "payable": false,
      "stateMutability": "view",
      "type": "function"
    },
    {
      "constant": true,
      "inputs": [],
      "name": "owner",
      "outputs": [
        {
          "internalType": "address",
          "name": "",
          "type": "address"
        }
      ],
      "payable": false,
      "stateMutability": "view",
      "type": "function"
    },
    {
      "constant": false,
      "inputs": [],
      "name": "renounceOwnership",
      "outputs": [],
      "payable": false,
      "stateMutability": "nonpayable",
      "type": "function"
    },
    {
      "constant": false,
      "inputs": [
        {
          "internalType": "address",
          "name": "newOwner",
          "type": "address"
        }
      ],
      "name": "transferOwnership",
      "outputs": [],
      "payable": false,
      "stateMutability": "nonpayable",
      "type": "function"
    },
    {
      "constant": false,
      "inputs": [
        {
          "internalType": "uint256",
          "name": "_cap",
          "type": "uint256"
        }
      ],
      "name": "updateCap",
      "outputs": [],
      "payable": false,
      "stateMutability": "nonpayable",
      "type": "function"
    },
    {
      "constant": false,
      "inputs": [
        {
          "internalType": "address",
          "name": "_newComplianceContract",
          "type": "address"
        }
      ],
      "name": "updateComplianceContract",
      "outputs": [],
      "payable": false,
      "stateMutability": "nonpayable",
      "type": "function"
    },
    {
      "constant": false,
      "inputs": [
        {
          "internalType": "address",
          "name": "_newExchangesContract",
          "type": "address"
        }
      ],
      "name": "updateExchangesContract",
      "outputs": [],
      "payable": false,
      "stateMutability": "nonpayable",
      "type": "function"
    }
  ],
  "bytecode": "0x608060405234801561001057600080fd5b5060405161195b38038061195b8339818101604052606081101561003357600080fd5b508051602082015160409092015190919060006100576001600160e01b036100e316565b600080546001600160a01b0319166001600160a01b0383169081178255604051929350917f8be0079c531659141344cd1fd0a4f28419497f9722a3daafe3b4186f6b6457e0908290a350600180546001600160a01b039485166001600160a01b0319918216179091556002805493851693821693909317909255600380549190931691161790556100e7565b3390565b611865806100f66000396000f3fe608060405234801561001057600080fd5b50600436106101005760003560e01c80639b1649e611610097578063e090424c11610066578063e090424c1461029a578063e81e9b64146102a2578063f2fde38b146102ce578063f41e60c5146102f457610100565b80639b1649e6146102055780639dc29fac1461022b578063a3a08d4814610257578063a7d688961461027d57610100565b8063706f04e3116100d3578063706f04e3146101c9578063715018a6146101ed5780638da5cb5b146101f55780638f32d59b146101fd57610100565b80631c47470d146101055780633cebb8231461012d57806340c10f19146101535780634a3931491461017f575b600080fd5b61012b6004803603602081101561011b57600080fd5b50356001600160a01b0316610313565b005b61012b6004803603602081101561014357600080fd5b50356001600160a01b031661037c565b61012b6004803603604081101561016957600080fd5b506001600160a01b03813516906020013561042c565b6101b56004803603606081101561019557600080fd5b506001600160a01b038135811691602081013590911690604001356105fb565b604080519115158252519081900360200190f35b6101d1610bba565b604080516001600160a01b039092168252519081900360200190f35b61012b610c13565b6101d1610ca4565b6101b5610cb3565b61012b6004803603602081101561021b57600080fd5b50356001600160a01b0316610cd7565b61012b6004803603604081101561024157600080fd5b506001600160a01b038135169060200135610d40565b6101b56004803603602081101561026d57600080fd5b50356001600160a01b0316610efa565b61012b6004803603602081101561029357600080fd5b503561118d565b6101d1611221565b6101b5600480360360408110156102b857600080fd5b506001600160a01b03813516906020013561127a565b61012b600480360360208110156102e457600080fd5b50356001600160a01b0316611585565b61012b6004803603602081101561030a57600080fd5b503515156115d8565b61031b610cb3565b61035a576040805162461bcd60e51b815260206004820181905260248201526000805160206117ee833981519152604482015290519081900360640190fd5b600380546001600160a01b0319166001600160a01b0392909216919091179055565b610384610cb3565b6103c3576040805162461bcd60e51b815260206004820181905260248201526000805160206117ee833981519152604482015290519081900360640190fd5b60015460408051633cebb82360e01b81526001600160a01b03848116600483015291519190921691633cebb82391602480830192600092919082900301818387803b15801561041157600080fd5b505af1158015610425573d6000803e3d6000fd5b5050505050565b6003546001546040805163ea13d8a160e01b81523360048201526001600160a01b0392831660248201529051919092169163ea13d8a1916044808301926020929190829003018186803b15801561048257600080fd5b505afa158015610496573d6000803e3d6000fd5b505050506040513d60208110156104ac57600080fd5b50518061052c575060025460408051636816442d60e01b815233600482015290516001600160a01b0390921691636816442d91602480820192602092909190829003018186803b1580156104ff57600080fd5b505afa158015610513573d6000803e3d6000fd5b505050506040513d602081101561052957600080fd5b50515b610575576040805162461bcd60e51b81526020600482015260156024820152741cd95b99195c881b9bdd081c9959da5cdd195c9959605a1b604482015290519081900360640190fd5b600154604080516340c10f1960e01b81526001600160a01b03858116600483015260248201859052915191909216916340c10f199160448083019260209291908290030181600087803b1580156105cb57600080fd5b505af11580156105df573d6000803e3d6000fd5b505050506040513d60208110156105f557600080fd5b50505050565b6001546000906001600160a01b031633146106475760405162461bcd60e51b815260040180806020018281038252602381526020018061180e6023913960400191505060405180910390fd5b610650836116e7565b15806106d1575060025460408051635020367160e11b81526001600160a01b0386811660048301529151919092169163a0406ce2916024808301926020929190829003018186803b1580156106a457600080fd5b505afa1580156106b8573d6000803e3d6000fd5b505050506040513d60208110156106ce57600080fd5b50515b156108fa5760025460408051631e9d48cf60e01b81526001600160a01b03868116600483015291519190921691631e9d48cf916024808301926020929190829003018186803b15801561072357600080fd5b505afa158015610737573d6000803e3d6000fd5b505050506040513d602081101561074d57600080fd5b505161075b57506000610bb3565b600254600154604080516370a0823160e01b81526001600160a01b038781166004830152915193821693636b618ff993889388939116916370a0823191602480820192602092909190829003018186803b1580156107b857600080fd5b505afa1580156107cc573d6000803e3d6000fd5b505050506040513d60208110156107e257600080fd5b5051604080516001600160e01b031960e087901b1681526001600160a01b03909416600485015260248401929092526044830152516064808301926020929190829003018186803b15801561083657600080fd5b505afa15801561084a573d6000803e3d6000fd5b505050506040513d602081101561086057600080fd5b505161086e57506000610bb3565b60025460408051631ca451a360e01b81526001600160a01b0386811660048301526003602483015291519190921691631ca451a3916044808301926020929190829003018186803b1580156108c257600080fd5b505afa1580156108d6573d6000803e3d6000fd5b505050506040513d60208110156108ec57600080fd5b50516108fa57506000610bb3565b610903846116e7565b1580610984575060025460408051635020367160e11b81526001600160a01b0387811660048301529151919092169163a0406ce2916024808301926020929190829003018186803b15801561095757600080fd5b505afa15801561096b573d6000803e3d6000fd5b505050506040513d602081101561098157600080fd5b50515b15610baf5760025460408051631e9d48cf60e01b81526001600160a01b03878116600483015291519190921691631e9d48cf916024808301926020929190829003018186803b1580156109d657600080fd5b505afa1580156109ea573d6000803e3d6000fd5b505050506040513d6020811015610a0057600080fd5b5051610a0e57506000610bb3565b600254600154604080516370a0823160e01b81526001600160a01b038881166004830152915193821693636b618ff993899388939116916370a0823191602480820192602092909190829003018186803b158015610a6b57600080fd5b505afa158015610a7f573d6000803e3d6000fd5b505050506040513d6020811015610a9557600080fd5b5051604080516001600160e01b031960e087901b1681526001600160a01b03909416600485015260248401929092526044830152516064808301926020929190829003018186803b158015610ae957600080fd5b505afa158015610afd573d6000803e3d6000fd5b505050506040513d6020811015610b1357600080fd5b5051610b2157506000610bb3565b60025460408051631ca451a360e01b81526001600160a01b03878116600480840191909152602483015291519190921691631ca451a3916044808301926020929190829003018186803b158015610b7757600080fd5b505afa158015610b8b573d6000803e3d6000fd5b505050506040513d6020811015610ba157600080fd5b5051610baf57506000610bb3565b5060015b9392505050565b6000610bc4610cb3565b610c03576040805162461bcd60e51b815260206004820181905260248201526000805160206117ee833981519152604482015290519081900360640190fd5b506003546001600160a01b031690565b610c1b610cb3565b610c5a576040805162461bcd60e51b815260206004820181905260248201526000805160206117ee833981519152604482015290519081900360640190fd5b600080546040516001600160a01b03909116907f8be0079c531659141344cd1fd0a4f28419497f9722a3daafe3b4186f6b6457e0908390a3600080546001600160a01b0319169055565b6000546001600160a01b031690565b600080546001600160a01b0316610cc8611723565b6001600160a01b031614905090565b610cdf610cb3565b610d1e576040805162461bcd60e51b815260206004820181905260248201526000805160206117ee833981519152604482015290519081900360640190fd5b600280546001600160a01b0319166001600160a01b0392909216919091179055565b6003546001546040805163ea13d8a160e01b81523360048201526001600160a01b0392831660248201529051919092169163ea13d8a1916044808301926020929190829003018186803b158015610d9657600080fd5b505afa158015610daa573d6000803e3d6000fd5b505050506040513d6020811015610dc057600080fd5b505180610e40575060025460408051636816442d60e01b815233600482015290516001600160a01b0390921691636816442d91602480820192602092909190829003018186803b158015610e1357600080fd5b505afa158015610e27573d6000803e3d6000fd5b505050506040513d6020811015610e3d57600080fd5b50515b610e89576040805162461bcd60e51b81526020600482015260156024820152741cd95b99195c881b9bdd081c9959da5cdd195c9959605a1b604482015290519081900360640190fd5b6001546040805163079cc67960e41b81526001600160a01b03858116600483015260248201859052915191909216916379cc679091604480830192600092919082900301818387803b158015610ede57600080fd5b505af1158015610ef2573d6000803e3d6000fd5b505050505050565b6001546000906001600160a01b03163314610f465760405162461bcd60e51b815260040180806020018281038252602381526020018061180e6023913960400191505060405180910390fd5b610f4f826116e7565b151560011415610f6157506001611188565b610f6a826116e7565b1580610feb575060025460408051635020367160e11b81526001600160a01b0385811660048301529151919092169163a0406ce2916024808301926020929190829003018186803b158015610fbe57600080fd5b505afa158015610fd2573d6000803e3d6000fd5b505050506040513d6020811015610fe857600080fd5b50515b8061106c575060025460408051636816442d60e01b81526001600160a01b03858116600483015291519190921691636816442d916024808301926020929190829003018186803b15801561103e57600080fd5b505afa158015611052573d6000803e3d6000fd5b505050506040513d602081101561106857600080fd5b5051155b156111845760025460408051631e9d48cf60e01b81526001600160a01b03858116600483015291519190921691631e9d48cf916024808301926020929190829003018186803b1580156110be57600080fd5b505afa1580156110d2573d6000803e3d6000fd5b505050506040513d60208110156110e857600080fd5b50516110f657506000611188565b60028054604051631ca451a360e01b81526001600160a01b0385811660048301908152921692631ca451a39286926024018260ff1681526020019250505060206040518083038186803b15801561114c57600080fd5b505afa158015611160573d6000803e3d6000fd5b505050506040513d602081101561117657600080fd5b505161118457506000611188565b5060015b919050565b611195610cb3565b6111d4576040805162461bcd60e51b815260206004820181905260248201526000805160206117ee833981519152604482015290519081900360640190fd5b600154604080516353eb444b60e11b81526004810184905290516001600160a01b039092169163a7d688969160248082019260009290919082900301818387803b15801561041157600080fd5b600061122b610cb3565b61126a576040805162461bcd60e51b815260206004820181905260248201526000805160206117ee833981519152604482015290519081900360640190fd5b506002546001600160a01b031690565b6001546000906001600160a01b031633146112c65760405162461bcd60e51b815260040180806020018281038252602381526020018061180e6023913960400191505060405180910390fd5b6112cf836116e7565b1580611350575060025460408051635020367160e11b81526001600160a01b0386811660048301529151919092169163a0406ce2916024808301926020929190829003018186803b15801561132357600080fd5b505afa158015611337573d6000803e3d6000fd5b505050506040513d602081101561134d57600080fd5b50515b1561157b5760025460408051631e9d48cf60e01b81526001600160a01b03868116600483015291519190921691631e9d48cf916024808301926020929190829003018186803b1580156113a257600080fd5b505afa1580156113b6573d6000803e3d6000fd5b505050506040513d60208110156113cc57600080fd5b50516113da5750600061157f565b600254600154604080516370a0823160e01b81526001600160a01b038781166004830152915193821693636b618ff993889388939116916370a0823191602480820192602092909190829003018186803b15801561143757600080fd5b505afa15801561144b573d6000803e3d6000fd5b505050506040513d602081101561146157600080fd5b5051604080516001600160e01b031960e087901b1681526001600160a01b03909416600485015260248401929092526044830152516064808301926020929190829003018186803b1580156114b557600080fd5b505afa1580156114c9573d6000803e3d6000fd5b505050506040513d60208110156114df57600080fd5b50516114ed5750600061157f565b60025460408051631ca451a360e01b81526001600160a01b03868116600480840191909152602483015291519190921691631ca451a3916044808301926020929190829003018186803b15801561154357600080fd5b505afa158015611557573d6000803e3d6000fd5b505050506040513d602081101561156d57600080fd5b505161157b5750600061157f565b5060015b92915050565b61158d610cb3565b6115cc576040805162461bcd60e51b815260206004820181905260248201526000805160206117ee833981519152604482015290519081900360640190fd5b6115d581611727565b50565b6115e0610cb3565b61161f576040805162461bcd60e51b815260206004820181905260248201526000805160206117ee833981519152604482015290519081900360640190fd5b6001811515141561169757600160009054906101000a90046001600160a01b03166001600160a01b0316633f4ba83a6040518163ffffffff1660e01b8152600401600060405180830381600087803b15801561167a57600080fd5b505af115801561168e573d6000803e3d6000fd5b505050506115d5565b600160009054906101000a90046001600160a01b03166001600160a01b0316638456cb596040518163ffffffff1660e01b8152600401600060405180830381600087803b15801561041157600080fd5b6000813f7fc5d2460186f7233c927e7db2dcc703c0e500b653ca82273b7bfad8045d85a47081811480159061171b57508115155b949350505050565b3390565b6001600160a01b03811661176c5760405162461bcd60e51b81526004018080602001828103825260268152602001806117c86026913960400191505060405180910390fd5b600080546040516001600160a01b03808516939216917f8be0079c531659141344cd1fd0a4f28419497f9722a3daafe3b4186f6b6457e091a3600080546001600160a01b0319166001600160a01b039290921691909117905556fe4f776e61626c653a206e6577206f776e657220697320746865207a65726f20616464726573734f776e61626c653a2063616c6c6572206973206e6f7420746865206f776e65724f6e6c792063616c6c61626c652066726f6d20636f6e74726f6c6c656420546f6b656ea265627a7a72315820ebf2ac92158c74dcf539369d6305fbe0d866b9e3ae99b3df9a57ee6da12f6bd564736f6c634300050f0032",
  "source": "pragma solidity ^0.5.9;\n\nimport \"./../Token36Controller.sol\";\n\n\n/// @title GBP36 Token Controller Contract\n/// @author element36.io\ncontract GBP36Controller is Token36Controller {\n\n    // Constructor\n    constructor(Token36 _token, address _compliance, address _exchanges) public {\n        token = _token;\n        compliance = Cash36Compliance(_compliance);\n        exchanges = Cash36Exchanges(_exchanges);\n    }\n}",
  "sourcePath": "/home/w/workspace/contracts/contracts/GBP36/GBP36Controller.sol",
  "compiler": {
    "name": "solc",
    "version": "0.5.15+commit.6a57276f.Emscripten.clang"
  },
  "schemaVersion": "3.0.23",
  "updatedAt": "2020-03-20T09:04:29.293Z",
  "devdoc": {
    "author": "element36.io",
    "methods": {
      "burn(address,uint256)": {
        "details": "onlyAllowedExchanges - only open to white listed exchange accounts",
        "params": {
          "_amount": "Amount to burn",
          "_from": "Account address from which tokens are burnt"
        }
      },
      "changeController(address)": {
        "details": "onlyOwner - only open to element36 Account",
        "params": {
          "_newController": "New controller Address"
        }
      },
      "enableTransfers(bool)": {
        "details": "onlyOwner - only open to element36 Account",
        "params": {
          "_transfersEnabled": "true to enable, false to disable"
        }
      },
      "getComplianceContract()": {
        "details": "onlyOwner - only open to element36 Account"
      },
      "getExchangesContract()": {
        "details": "onlyOwner - only open to element36 Account"
      },
      "isOwner()": {
        "details": "Returns true if the caller is the current owner."
      },
      "mint(address,uint256)": {
        "details": "onlyAllowedExchanges - only open to white listed exchange accounts",
        "params": {
          "_amount": "Amount to mint",
          "_receiver": "Recipient account address"
        }
      },
      "onBurn(address)": {
        "params": {
          "_from": "Sender account address"
        }
      },
      "onTransfer(address,address,uint256)": {
        "params": {
          "_amount": "Amount",
          "_from": "Sender account address",
          "_to": "Recipient accounts address"
        }
      },
      "onTransfer(address,uint256)": {
        "params": {
          "_amount": "Amount",
          "_from": "Sender account address"
        }
      },
      "owner()": {
        "details": "Returns the address of the current owner."
      },
      "renounceOwnership()": {
        "details": "Leaves the contract without owner. It will not be possible to call `onlyOwner` functions anymore. Can only be called by the current owner.     * NOTE: Renouncing ownership will leave the contract without an owner, thereby removing any functionality that is only available to the owner."
      },
      "transferOwnership(address)": {
        "details": "Transfers ownership of the contract to a new account (`newOwner`). Can only be called by the current owner."
      },
      "updateCap(uint256)": {
        "details": "onlyOwner - only open to element36 Account",
        "params": {
          "_cap": "New value for token cap"
        }
      },
      "updateComplianceContract(address)": {
        "details": "onlyOwner - only open to element36 Account",
        "params": {
          "_newComplianceContract": "New Compliance contract address"
        }
      },
      "updateExchangesContract(address)": {
        "details": "onlyOwner - only open to element36 Account",
        "params": {
          "_newExchangesContract": "New Exchange contracts address"
        }
      }
    },
    "title": "GBP36 Token Controller Contract"
  },
  "userdoc": {
    "methods": {
      "burn(address,uint256)": {
        "notice": "Burn tokens for given account address"
      },
      "changeController(address)": {
        "notice": "Change to a new controller address"
      },
      "enableTransfers(bool)": {
        "notice": "Enables or disables the token globally"
      },
      "getComplianceContract()": {
        "notice": "Get address of current compliance contract"
      },
      "getExchangesContract()": {
        "notice": "Get address of current exchanges contract"
      },
      "mint(address,uint256)": {
        "notice": "Mints new tokens for given account address"
      },
      "onBurn(address)": {
        "notice": "Controller Hook called in controlled Token on every burn.Does all required compliance checks and only allows the burn if user passes them all."
      },
      "onTransfer(address,address,uint256)": {
        "notice": "Controller Hook called in controlled Token on every transfer.Does all required compliance checks and only allows the transfer if user passes them all."
      },
      "onTransfer(address,uint256)": {
        "notice": "Controller Hook called in Token on transfer. Has no _to because this fx is used in a wallet-free contextDoes all required compliance checks and only allows the transfer if user passes them all."
      },
      "updateCap(uint256)": {
        "notice": "Set a new Cap for the Token"
      },
      "updateComplianceContract(address)": {
        "notice": "Update to a new compliance contract"
      },
      "updateExchangesContract(address)": {
        "notice": "Update to a new exchanges contract"
      }
    }
  }
}