{
  "contractName": "GBP36",
  "abi": [
    {
      "constant": true,
      "inputs": [],
      "name": "name",
      "outputs": [
        {
          "name": "",
          "type": "string"
        }
      ],
      "payable": false,
      "stateMutability": "view",
      "type": "function"
    },
    {
      "constant": false,
      "inputs": [
        {
          "name": "spender",
          "type": "address"
        },
        {
          "name": "value",
          "type": "uint256"
        }
      ],
      "name": "approve",
      "outputs": [
        {
          "name": "",
          "type": "bool"
        }
      ],
      "payable": false,
      "stateMutability": "nonpayable",
      "type": "function"
    },
    {
      "constant": true,
      "inputs": [],
      "name": "totalSupply",
      "outputs": [
        {
          "name": "",
          "type": "uint256"
        }
      ],
      "payable": false,
      "stateMutability": "view",
      "type": "function"
    },
    {
      "constant": false,
      "inputs": [
        {
          "name": "from",
          "type": "address"
        },
        {
          "name": "to",
          "type": "address"
        },
        {
          "name": "value",
          "type": "uint256"
        }
      ],
      "name": "transferFrom",
      "outputs": [
        {
          "name": "",
          "type": "bool"
        }
      ],
      "payable": false,
      "stateMutability": "nonpayable",
      "type": "function"
    },
    {
      "constant": true,
      "inputs": [],
      "name": "decimals",
      "outputs": [
        {
          "name": "",
          "type": "uint8"
        }
      ],
      "payable": false,
      "stateMutability": "view",
      "type": "function"
    },
    {
      "constant": true,
      "inputs": [],
      "name": "cap",
      "outputs": [
        {
          "name": "",
          "type": "uint256"
        }
      ],
      "payable": false,
      "stateMutability": "view",
      "type": "function"
    },
    {
      "constant": false,
      "inputs": [
        {
          "name": "spender",
          "type": "address"
        },
        {
          "name": "addedValue",
          "type": "uint256"
        }
      ],
      "name": "increaseAllowance",
      "outputs": [
        {
          "name": "",
          "type": "bool"
        }
      ],
      "payable": false,
      "stateMutability": "nonpayable",
      "type": "function"
    },
    {
      "constant": false,
      "inputs": [
        {
          "name": "_newController",
          "type": "address"
        }
      ],
      "name": "changeController",
      "outputs": [],
      "payable": false,
      "stateMutability": "nonpayable",
      "type": "function"
    },
    {
      "constant": false,
      "inputs": [],
      "name": "unpause",
      "outputs": [],
      "payable": false,
      "stateMutability": "nonpayable",
      "type": "function"
    },
    {
      "constant": false,
      "inputs": [
        {
          "name": "to",
          "type": "address"
        },
        {
          "name": "value",
          "type": "uint256"
        }
      ],
      "name": "mint",
      "outputs": [
        {
          "name": "",
          "type": "bool"
        }
      ],
      "payable": false,
      "stateMutability": "nonpayable",
      "type": "function"
    },
    {
      "constant": false,
      "inputs": [
        {
          "name": "amount",
          "type": "uint256"
        }
      ],
      "name": "burn",
      "outputs": [],
      "payable": false,
      "stateMutability": "nonpayable",
      "type": "function"
    },
    {
      "constant": true,
      "inputs": [
        {
          "name": "account",
          "type": "address"
        }
      ],
      "name": "isPauser",
      "outputs": [
        {
          "name": "",
          "type": "bool"
        }
      ],
      "payable": false,
      "stateMutability": "view",
      "type": "function"
    },
    {
      "constant": true,
      "inputs": [],
      "name": "paused",
      "outputs": [
        {
          "name": "",
          "type": "bool"
        }
      ],
      "payable": false,
      "stateMutability": "view",
      "type": "function"
    },
    {
      "constant": false,
      "inputs": [],
      "name": "renouncePauser",
      "outputs": [],
      "payable": false,
      "stateMutability": "nonpayable",
      "type": "function"
    },
    {
      "constant": true,
      "inputs": [
        {
          "name": "owner",
          "type": "address"
        }
      ],
      "name": "balanceOf",
      "outputs": [
        {
          "name": "",
          "type": "uint256"
        }
      ],
      "payable": false,
      "stateMutability": "view",
      "type": "function"
    },
    {
      "constant": false,
      "inputs": [
        {
          "name": "account",
          "type": "address"
        },
        {
          "name": "amount",
          "type": "uint256"
        }
      ],
      "name": "burnFrom",
      "outputs": [],
      "payable": false,
      "stateMutability": "nonpayable",
      "type": "function"
    },
    {
      "constant": false,
      "inputs": [
        {
          "name": "account",
          "type": "address"
        }
      ],
      "name": "addPauser",
      "outputs": [],
      "payable": false,
      "stateMutability": "nonpayable",
      "type": "function"
    },
    {
      "constant": false,
      "inputs": [],
      "name": "pause",
      "outputs": [],
      "payable": false,
      "stateMutability": "nonpayable",
      "type": "function"
    },
    {
      "constant": true,
      "inputs": [],
      "name": "getInitializationBlock",
      "outputs": [
        {
          "name": "",
          "type": "uint256"
        }
      ],
      "payable": false,
      "stateMutability": "view",
      "type": "function"
    },
    {
      "constant": true,
      "inputs": [],
      "name": "symbol",
      "outputs": [
        {
          "name": "",
          "type": "string"
        }
      ],
      "payable": false,
      "stateMutability": "view",
      "type": "function"
    },
    {
      "constant": false,
      "inputs": [
        {
          "name": "spender",
          "type": "address"
        },
        {
          "name": "subtractedValue",
          "type": "uint256"
        }
      ],
      "name": "decreaseAllowance",
      "outputs": [
        {
          "name": "",
          "type": "bool"
        }
      ],
      "payable": false,
      "stateMutability": "nonpayable",
      "type": "function"
    },
    {
      "constant": false,
      "inputs": [
        {
          "name": "newCap",
          "type": "uint256"
        }
      ],
      "name": "updateCap",
      "outputs": [],
      "payable": false,
      "stateMutability": "nonpayable",
      "type": "function"
    },
    {
      "constant": false,
      "inputs": [
        {
          "name": "to",
          "type": "address"
        },
        {
          "name": "value",
          "type": "uint256"
        }
      ],
      "name": "transfer",
      "outputs": [
        {
          "name": "",
          "type": "bool"
        }
      ],
      "payable": false,
      "stateMutability": "nonpayable",
      "type": "function"
    },
    {
      "constant": true,
      "inputs": [
        {
          "name": "owner",
          "type": "address"
        },
        {
          "name": "spender",
          "type": "address"
        }
      ],
      "name": "allowance",
      "outputs": [
        {
          "name": "",
          "type": "uint256"
        }
      ],
      "payable": false,
      "stateMutability": "view",
      "type": "function"
    },
    {
      "constant": true,
      "inputs": [],
      "name": "controller",
      "outputs": [
        {
          "name": "",
          "type": "address"
        }
      ],
      "payable": false,
      "stateMutability": "view",
      "type": "function"
    },
    {
      "inputs": [],
      "payable": false,
      "stateMutability": "nonpayable",
      "type": "constructor"
    },
    {
      "anonymous": false,
      "inputs": [
        {
          "indexed": true,
          "name": "burner",
          "type": "address"
        },
        {
          "indexed": false,
          "name": "value",
          "type": "uint256"
        }
      ],
      "name": "Burn",
      "type": "event"
    },
    {
      "anonymous": false,
      "inputs": [
        {
          "indexed": false,
          "name": "account",
          "type": "address"
        }
      ],
      "name": "Paused",
      "type": "event"
    },
    {
      "anonymous": false,
      "inputs": [
        {
          "indexed": false,
          "name": "account",
          "type": "address"
        }
      ],
      "name": "Unpaused",
      "type": "event"
    },
    {
      "anonymous": false,
      "inputs": [
        {
          "indexed": true,
          "name": "account",
          "type": "address"
        }
      ],
      "name": "PauserAdded",
      "type": "event"
    },
    {
      "anonymous": false,
      "inputs": [
        {
          "indexed": true,
          "name": "account",
          "type": "address"
        }
      ],
      "name": "PauserRemoved",
      "type": "event"
    },
    {
      "anonymous": false,
      "inputs": [
        {
          "indexed": true,
          "name": "from",
          "type": "address"
        },
        {
          "indexed": true,
          "name": "to",
          "type": "address"
        },
        {
          "indexed": false,
          "name": "value",
          "type": "uint256"
        }
      ],
      "name": "Transfer",
      "type": "event"
    },
    {
      "anonymous": false,
      "inputs": [
        {
          "indexed": true,
          "name": "owner",
          "type": "address"
        },
        {
          "indexed": true,
          "name": "spender",
          "type": "address"
        },
        {
          "indexed": false,
          "name": "value",
          "type": "uint256"
        }
      ],
      "name": "Approval",
      "type": "event"
    }
  ],
  "bytecode": "0x60806040523480156200001157600080fd5b506040518060400160405280600e81526020017f4272697469736820506f756e64730000000000000000000000000000000000008152506040518060400160405280600581526020017f474250333600000000000000000000000000000000000000000000000000000081525060126969e10de76676d08000008383838260009080519060200190620000a69291906200038b565b508151620000bc9060019060208501906200038b565b506002805460ff191660ff9290921691909117905550620000df90503362000182565b600580546001600160a81b0319166101003302179055806200016257604080517f08c379a000000000000000000000000000000000000000000000000000000000815260206004820152600f60248201527f6361702063616e6e6f7420626520300000000000000000000000000000000000604482015290519081900360640190fd5b620001756001600160e01b03620001d416565b600955506200042d915050565b6200019d8160046200025c60201b620017011790919060201c565b6040516001600160a01b038216907f6719d08c1888103bea251a4ed56406bd0c3e69723c8a1686e017e7bbe159b6f890600090a250565b600354156200024457604080517f08c379a000000000000000000000000000000000000000000000000000000000815260206004820152601360248201527f616c726561647920696e697469616c697a656400000000000000000000000000604482015290519081900360640190fd5b620002576001600160e01b036200030316565b600355565b6200027182826001600160e01b036200030816565b15620002de57604080517f08c379a000000000000000000000000000000000000000000000000000000000815260206004820152601f60248201527f526f6c65733a206163636f756e7420616c72656164792068617320726f6c6500604482015290519081900360640190fd5b6001600160a01b0316600090815260209190915260409020805460ff19166001179055565b435b90565b60006001600160a01b0382166200036b576040517f08c379a000000000000000000000000000000000000000000000000000000000815260040180806020018281038252602281526020018062001cd46022913960400191505060405180910390fd5b506001600160a01b03166000908152602091909152604090205460ff1690565b828054600181600116156101000203166002900490600052602060002090601f016020900481019282601f10620003ce57805160ff1916838001178555620003fe565b82800160010185558215620003fe579182015b82811115620003fe578251825591602001919060010190620003e1565b506200040c92915062000410565b5090565b6200030591905b808211156200040c576000815560010162000417565b611897806200043d6000396000f3fe608060405234801561001057600080fd5b50600436106101735760003560e01c80635c975abb116100de5780638b3dd74911610097578063a7d6889611610071578063a7d6889614610442578063a9059cbb1461045f578063dd62ed3e1461048b578063f77c4791146104b957610173565b80638b3dd7491461040657806395d89b411461040e578063a457c2d71461041657610173565b80635c975abb146103765780636ef8d66d1461037e57806370a082311461038657806379cc6790146103ac57806382dc1ec4146103d85780638456cb59146103fe57610173565b8063395093511161013057806339509351146102ab5780633cebb823146102d75780633f4ba83a146102ff57806340c10f191461030757806342966c681461033357806346fbf68e1461035057610173565b806306fdde0314610178578063095ea7b3146101f557806318160ddd1461023557806323b872dd1461024f578063313ce56714610285578063355274ea146102a3575b600080fd5b6101806104dd565b6040805160208082528351818301528351919283929083019185019080838360005b838110156101ba5781810151838201526020016101a2565b50505050905090810190601f1680156101e75780820380516001836020036101000a031916815260200191505b509250505060405180910390f35b6102216004803603604081101561020b57600080fd5b506001600160a01b038135169060200135610573565b604080519115158252519081900360200190f35b61023d6105d5565b60408051918252519081900360200190f35b6102216004803603606081101561026557600080fd5b506001600160a01b038135811691602081013590911690604001356105db565b61028d610773565b6040805160ff9092168252519081900360200190f35b61023d61077c565b610221600480360360408110156102c157600080fd5b506001600160a01b038135169060200135610782565b6102fd600480360360208110156102ed57600080fd5b50356001600160a01b031661080b565b005b6102fd610881565b6102216004803603604081101561031d57600080fd5b506001600160a01b038135169060200135610952565b6102fd6004803603602081101561034957600080fd5b50356109f8565b6102216004803603602081101561036657600080fd5b50356001600160a01b0316610a05565b610221610a1e565b6102fd610a27565b61023d6004803603602081101561039c57600080fd5b50356001600160a01b0316610a32565b6102fd600480360360408110156103c257600080fd5b506001600160a01b038135169060200135610a4d565b6102fd600480360360208110156103ee57600080fd5b50356001600160a01b0316610a5b565b6102fd610aa8565b61023d610b79565b610180610b7f565b6102216004803603604081101561042c57600080fd5b506001600160a01b038135169060200135610bdf565b6102fd6004803603602081101561045857600080fd5b5035610c68565b6102216004803603604081101561047557600080fd5b506001600160a01b038135169060200135610cbb565b61023d600480360360408110156104a157600080fd5b506001600160a01b0381358116916020013516610de0565b6104c1610e0b565b604080516001600160a01b039092168252519081900360200190f35b60008054604080516020601f60026000196101006001881615020190951694909404938401819004810282018101909252828152606093909290918301828280156105695780601f1061053e57610100808354040283529160200191610569565b820191906000526020600020905b81548152906001019060200180831161054c57829003601f168201915b5050505050905090565b60055460009060ff16156105c1576040805162461bcd60e51b815260206004820152601060248201526f14185d5cd8589b194e881c185d5cd95960821b604482015290519081900360640190fd5b6105cc338484610e1f565b50600192915050565b60085490565b60055460009060ff1615610629576040805162461bcd60e51b815260206004820152601060248201526f14185d5cd8589b194e881c185d5cd95960821b604482015290519081900360640190fd5b60055460408051634a39314960e01b81526001600160a01b038781166004830152868116602483015260448201869052915161010090930490911691634a39314991606480820192602092909190829003018186803b15801561068b57600080fd5b505afa15801561069f573d6000803e3d6000fd5b505050506040513d60208110156106b557600080fd5b505115156001146106f75760405162461bcd60e51b815260040180806020018281038252602781526020018061183c6027913960400191505060405180910390fd5b60055461010090046001600160a01b0316331461075e57610719848484610f27565b6001600160a01b038416600090815260076020908152604080832033808552925290912054610759918691610754908663ffffffff61103416565b610e1f565b610769565b610769848484610f27565b5060019392505050565b60025460ff1690565b60095490565b60055460009060ff16156107d0576040805162461bcd60e51b815260206004820152601060248201526f14185d5cd8589b194e881c185d5cd95960821b604482015290519081900360640190fd5b3360008181526007602090815260408083206001600160a01b03881684529091529020546105cc91908590610754908663ffffffff61109116565b60055461010090046001600160a01b031633146108595760405162461bcd60e51b81526004018080602001828103825260238152602001806117836023913960400191505060405180910390fd5b600580546001600160a01b0390921661010002610100600160a81b0319909216919091179055565b61088a33610a05565b6108c55760405162461bcd60e51b81526004018080602001828103825260308152602001806117a66030913960400191505060405180910390fd5b60055460ff16610913576040805162461bcd60e51b815260206004820152601460248201527314185d5cd8589b194e881b9bdd081c185d5cd95960621b604482015290519081900360640190fd5b6005805460ff191690556040805133815290517f5db9ee0a495bf2e6ff9c91a7834c1ba4fdd244a5e8aa4e537bd38aeae4b073aa9181900360200190a1565b60055460009061010090046001600160a01b031633146109a35760405162461bcd60e51b81526004018080602001828103825260238152602001806117836023913960400191505060405180910390fd5b60055460ff16156109ee576040805162461bcd60e51b815260206004820152601060248201526f14185d5cd8589b194e881c185d5cd95960821b604482015290519081900360640190fd5b6105cc83836110f2565b610a02338261123f565b50565b6000610a1860048363ffffffff61142616565b92915050565b60055460ff1690565b610a303361148d565b565b6001600160a01b031660009081526006602052604090205490565b610a5782826114d5565b5050565b610a6433610a05565b610a9f5760405162461bcd60e51b81526004018080602001828103825260308152602001806117a66030913960400191505060405180910390fd5b610a0281611652565b610ab133610a05565b610aec5760405162461bcd60e51b81526004018080602001828103825260308152602001806117a66030913960400191505060405180910390fd5b60055460ff1615610b37576040805162461bcd60e51b815260206004820152601060248201526f14185d5cd8589b194e881c185d5cd95960821b604482015290519081900360640190fd5b6005805460ff191660011790556040805133815290517f62e78cea01bee320cd4e420270b5ea74000d11b0c9f74754ebdbfc544b05a2589181900360200190a1565b60035490565b60018054604080516020601f600260001961010087891615020190951694909404938401819004810282018101909252828152606093909290918301828280156105695780601f1061053e57610100808354040283529160200191610569565b60055460009060ff1615610c2d576040805162461bcd60e51b815260206004820152601060248201526f14185d5cd8589b194e881c185d5cd95960821b604482015290519081900360640190fd5b3360008181526007602090815260408083206001600160a01b03881684529091529020546105cc91908590610754908663ffffffff61103416565b60055461010090046001600160a01b03163314610cb65760405162461bcd60e51b81526004018080602001828103825260238152602001806117836023913960400191505060405180910390fd5b600955565b60055460009060ff1615610d09576040805162461bcd60e51b815260206004820152601060248201526f14185d5cd8589b194e881c185d5cd95960821b604482015290519081900360640190fd5b60055460408051634a39314960e01b81523360048201526001600160a01b03868116602483015260448201869052915161010090930490911691634a39314991606480820192602092909190829003018186803b158015610d6957600080fd5b505afa158015610d7d573d6000803e3d6000fd5b505050506040513d6020811015610d9357600080fd5b50511515600114610dd55760405162461bcd60e51b815260040180806020018281038252602781526020018061183c6027913960400191505060405180910390fd5b6105cc338484610f27565b6001600160a01b03918216600090815260076020908152604080832093909416825291909152205490565b60055461010090046001600160a01b031690565b6001600160a01b038216610e72576040805162461bcd60e51b81526020600482015260156024820152741859191c995cdcc80c081b9bdd08185b1b1bddd959605a1b604482015290519081900360640190fd5b6001600160a01b038316610ec5576040805162461bcd60e51b81526020600482015260156024820152741859191c995cdcc80c081b9bdd08185b1b1bddd959605a1b604482015290519081900360640190fd5b6001600160a01b03808416600081815260076020908152604080832094871680845294825291829020859055815185815291517f8c5be1e5ebec7d5bd14f71427d1e84f3dd0314c0f7b2291e5b200ac8c7c3b9259281900390910190a3505050565b6001600160a01b038216610f7a576040805162461bcd60e51b81526020600482015260156024820152741859191c995cdcc80c081b9bdd08185b1b1bddd959605a1b604482015290519081900360640190fd5b6001600160a01b038316600090815260066020526040902054610fa3908263ffffffff61103416565b6001600160a01b038085166000908152600660205260408082209390935590841681522054610fd8908263ffffffff61109116565b6001600160a01b0380841660008181526006602090815260409182902094909455805185815290519193928716927fddf252ad1be2c89b69c2b068fc378daa952ba7f163c4a11628f55a4df523b3ef92918290030190a3505050565b60008282111561108b576040805162461bcd60e51b815260206004820152601e60248201527f536166654d6174683a207375627472616374696f6e206f766572666c6f770000604482015290519081900360640190fd5b50900390565b6000828201838110156110eb576040805162461bcd60e51b815260206004820152601b60248201527f536166654d6174683a206164646974696f6e206f766572666c6f770000000000604482015290519081900360640190fd5b9392505050565b6001600160a01b038216611145576040805162461bcd60e51b81526020600482015260156024820152741859191c995cdcc80c081b9bdd08185b1b1bddd959605a1b604482015290519081900360640190fd5b600954611160826111546105d5565b9063ffffffff61109116565b11156111a8576040805162461bcd60e51b81526020600482015260126024820152711d1bdad95b8818d85c08195e18d95959195960721b604482015290519081900360640190fd5b6008546111bb908263ffffffff61109116565b6008556001600160a01b0382166000908152600660205260409020546111e7908263ffffffff61109116565b6001600160a01b03831660008181526006602090815260408083209490945583518581529351929391927fddf252ad1be2c89b69c2b068fc378daa952ba7f163c4a11628f55a4df523b3ef9281900390910190a35050565b6001600160a01b038216611292576040805162461bcd60e51b81526020600482015260156024820152741859191c995cdcc80c081b9bdd08185b1b1bddd959605a1b604482015290519081900360640190fd5b6005546040805163147411a960e31b81526001600160a01b03858116600483015291516101009093049091169163a3a08d4891602480820192602092909190829003018186803b1580156112e557600080fd5b505afa1580156112f9573d6000803e3d6000fd5b505050506040513d602081101561130f57600080fd5b505115156001146113515760405162461bcd60e51b81526004018080602001828103825260238152602001806118196023913960400191505060405180910390fd5b600854611364908263ffffffff61103416565b6008556001600160a01b038216600090815260066020526040902054611390908263ffffffff61103416565b6001600160a01b0383166000818152600660209081526040808320949094558351858152935191937fddf252ad1be2c89b69c2b068fc378daa952ba7f163c4a11628f55a4df523b3ef929081900390910190a36040805182815290516001600160a01b038416917fcc16f5dbb4873280815c1ee09dbd06736cffcc184412cf7a71a0fdb75d397ca5919081900360200190a25050565b60006001600160a01b03821661146d5760405162461bcd60e51b81526004018080602001828103825260228152602001806117f76022913960400191505060405180910390fd5b506001600160a01b03166000908152602091909152604090205460ff1690565b61149e60048263ffffffff61169a16565b6040516001600160a01b038216907fcd265ebaf09df2871cc7bd4133404a235ba12eff2041bb89d9c714a2621c7c7e90600090a250565b6001600160a01b038216611528576040805162461bcd60e51b81526020600482015260156024820152741859191c995cdcc80c081b9bdd08185b1b1bddd959605a1b604482015290519081900360640190fd5b6005546040805163147411a960e31b81526001600160a01b03858116600483015291516101009093049091169163a3a08d4891602480820192602092909190829003018186803b15801561157b57600080fd5b505afa15801561158f573d6000803e3d6000fd5b505050506040513d60208110156115a557600080fd5b505115156001146115e75760405162461bcd60e51b81526004018080602001828103825260238152602001806118196023913960400191505060405180910390fd5b60055461010090046001600160a01b0316331461164857611608828261123f565b6001600160a01b038216600090815260076020908152604080832033808552925290912054611643918491610754908563ffffffff61103416565b610a57565b610a57828261123f565b61166360048263ffffffff61170116565b6040516001600160a01b038216907f6719d08c1888103bea251a4ed56406bd0c3e69723c8a1686e017e7bbe159b6f890600090a250565b6116a48282611426565b6116df5760405162461bcd60e51b81526004018080602001828103825260218152602001806117d66021913960400191505060405180910390fd5b6001600160a01b0316600090815260209190915260409020805460ff19169055565b61170b8282611426565b1561175d576040805162461bcd60e51b815260206004820152601f60248201527f526f6c65733a206163636f756e7420616c72656164792068617320726f6c6500604482015290519081900360640190fd5b6001600160a01b0316600090815260209190915260409020805460ff1916600117905556fe616363657373206e6f7420616c6c6f7765642c206f6e6c7920636f6e74726f6c6c6572506175736572526f6c653a2063616c6c657220646f6573206e6f742068617665207468652050617573657220726f6c65526f6c65733a206163636f756e7420646f6573206e6f74206861766520726f6c65526f6c65733a206163636f756e7420697320746865207a65726f2061646472657373546f6b656e3336436f6e74726f6c6c65722072656a656374656420746865206275726e546f6b656e3336436f6e74726f6c6c65722072656a656374656420746865207472616e73666572a265627a7a723058208c33de038290fc9739bced670b382d15a893597caf41293290a2fd3bbc5e42eb64736f6c63430005090032526f6c65733a206163636f756e7420697320746865207a65726f2061646472657373",
  "source": "pragma solidity ^0.5.9;\n\nimport \"./../Token36.sol\";\n\n\n/// @title GBP36 Token Contract\n/// @author element36.io\ncontract GBP36 is Token36 {\n\n    // Constructor\n    // Initial cap of 500'000 Tokens given by current sandbox limitation\n    /* solium-disable-next-line */\n    constructor() public Token36(\"British Pounds\", \"GBP36\", 18, 500000 * 10**18) {\n    }\n}",
  "sourcePath": "/Users/bum/element36/dev/cash36/contracts/contracts/GBP36/GBP36.sol",
  "compiler": {
    "name": "solc",
    "version": "0.5.9+commit.e560f70d.Emscripten.clang"
  },
  "schemaVersion": "3.0.11",
  "updatedAt": "2019-09-12T14:54:01.913Z",
  "devdoc": {
    "author": "element36.io",
    "methods": {
      "allowance(address,address)": {
        "details": "Function to check the amount of tokens that an owner allowed to a spender.",
        "params": {
          "owner": "address The address which owns the funds.",
          "spender": "address The address which will spend the funds."
        },
        "return": "A uint256 specifying the amount of tokens still available for the spender."
      },
      "approve(address,uint256)": {
        "details": "Approve the passed address to spend the specified amount of tokens on behalf of msg.sender. Beware that changing an allowance with this method brings the risk that someone may use both the old and the new allowance by unfortunate transaction ordering. One possible solution to mitigate this race condition is to first reduce the spender's allowance to 0 and set the desired value afterwards: https://github.com/ethereum/EIPs/issues/20#issuecomment-263524729",
        "params": {
          "spender": "The address which will spend the funds.",
          "value": "The amount of tokens to be spent."
        }
      },
      "balanceOf(address)": {
        "details": "Gets the balance of the specified address.",
        "params": {
          "owner": "The address to query the balance of."
        },
        "return": "A uint256 representing the amount owned by the passed address."
      },
      "burn(uint256)": {
        "details": "Destroys `amount` tokens from the caller.     * See `ERC20._burn`."
      },
      "burnFrom(address,uint256)": {
        "details": "See `ERC20._burnFrom`."
      },
      "cap()": {
        "details": "Returns the cap on the token's total supply."
      },
      "changeController(address)": {
        "details": "onlyController - only open to the currently assigned controller",
        "params": {
          "_newController": "The new controller of the contract"
        }
      },
      "decimals()": {
        "details": "Returns the number of decimals used to get its user representation. For example, if `decimals` equals `2`, a balance of `505` tokens should be displayed to a user as `5,05` (`505 / 10 ** 2`).     * Tokens usually opt for a value of 18, imitating the relationship between Ether and Wei.     * > Note that this information is only used for _display_ purposes: it in no way affects any of the arithmetic of the contract, including `IERC20.balanceOf` and `IERC20.transfer`."
      },
      "decreaseAllowance(address,uint256)": {
        "details": "Decrease the amount of tokens that an owner allowed to a spender. approve should be called when _allowed[msg.sender][spender] == 0. To decrement allowed value is better to use this function to avoid 2 calls (and wait until the first transaction is mined) From MonolithDAO Token.sol Emits an Approval event.",
        "params": {
          "spender": "The address which will spend the funds.",
          "subtractedValue": "The amount of tokens to decrease the allowance by."
        }
      },
      "increaseAllowance(address,uint256)": {
        "details": "Increase the amount of tokens that an owner allowed to a spender. approve should be called when _allowed[msg.sender][spender] == 0. To increment allowed value is better to use this function to avoid 2 calls (and wait until the first transaction is mined) From MonolithDAO Token.sol Emits an Approval event.",
        "params": {
          "addedValue": "The amount of tokens to increase the allowance by.",
          "spender": "The address which will spend the funds."
        }
      },
      "mint(address,uint256)": {
        "details": "Function to mint tokens",
        "params": {
          "to": "The address that will receive the minted tokens.",
          "value": "The amount of tokens to mint."
        },
        "return": "A boolean that indicates if the operation was successful."
      },
      "name()": {
        "details": "Returns the name of the token."
      },
      "pause()": {
        "details": "Called by a pauser to pause, triggers stopped state."
      },
      "paused()": {
        "details": "Returns true if the contract is paused, and false otherwise."
      },
      "symbol()": {
        "details": "Returns the symbol of the token, usually a shorter version of the name."
      },
      "totalSupply()": {
        "details": "Total number of tokens in existence"
      },
      "transfer(address,uint256)": {
        "details": "Transfer token to a specified address",
        "params": {
          "to": "The address to transfer to.",
          "value": "The amount to be transferred."
        }
      },
      "transferFrom(address,address,uint256)": {
        "details": "Transfer tokens from one address to another. Note that while this function emits an Approval event, this is not required as per the specification, and other compliant implementations may not emit the event.",
        "params": {
          "from": "address The address which you want to send tokens from",
          "to": "address The address which you want to transfer to",
          "value": "uint256 the amount of tokens to be transferred"
        }
      },
      "unpause()": {
        "details": "Called by a pauser to unpause, returns to normal state."
      },
      "updateCap(uint256)": {
        "details": "Set a new cap for the token",
        "params": {
          "newCap": "The new cap for the token"
        }
      }
    },
    "title": "GBP36 Token Contract"
  },
  "userdoc": {
    "methods": {
      "changeController(address)": {
        "notice": "Changes the controller of the contract"
      },
      "getInitializationBlock()": {
        "notice": "@return Block number in which the contract was initialized"
      }
    }
  }
}