{
  "contractName": "GBP36Controller",
  "abi": [
    {
      "constant": false,
      "inputs": [
        {
          "name": "_newExchangesContract",
          "type": "address"
        }
      ],
      "name": "updateExchangesContract",
      "outputs": [],
      "payable": false,
      "stateMutability": "nonpayable",
      "type": "function",
      "signature": "0x1c47470d"
    },
    {
      "constant": false,
      "inputs": [
        {
          "name": "_newController",
          "type": "address"
        }
      ],
      "name": "changeController",
      "outputs": [],
      "payable": false,
      "stateMutability": "nonpayable",
      "type": "function",
      "signature": "0x3cebb823"
    },
    {
      "constant": false,
      "inputs": [
        {
          "name": "_receiver",
          "type": "address"
        },
        {
          "name": "_amount",
          "type": "uint256"
        }
      ],
      "name": "mint",
      "outputs": [],
      "payable": false,
      "stateMutability": "nonpayable",
      "type": "function",
      "signature": "0x40c10f19"
    },
    {
      "constant": true,
      "inputs": [
        {
          "name": "_from",
          "type": "address"
        },
        {
          "name": "_to",
          "type": "address"
        },
        {
          "name": "_amount",
          "type": "uint256"
        }
      ],
      "name": "onTransfer",
      "outputs": [
        {
          "name": "",
          "type": "bool"
        }
      ],
      "payable": false,
      "stateMutability": "view",
      "type": "function",
      "signature": "0x4a393149"
    },
    {
      "constant": true,
      "inputs": [],
      "name": "getExchangesContract",
      "outputs": [
        {
          "name": "",
          "type": "address"
        }
      ],
      "payable": false,
      "stateMutability": "view",
      "type": "function",
      "signature": "0x706f04e3"
    },
    {
      "constant": false,
      "inputs": [],
      "name": "renounceOwnership",
      "outputs": [],
      "payable": false,
      "stateMutability": "nonpayable",
      "type": "function",
      "signature": "0x715018a6"
    },
    {
      "constant": true,
      "inputs": [],
      "name": "owner",
      "outputs": [
        {
          "name": "",
          "type": "address"
        }
      ],
      "payable": false,
      "stateMutability": "view",
      "type": "function",
      "signature": "0x8da5cb5b"
    },
    {
      "constant": true,
      "inputs": [],
      "name": "isOwner",
      "outputs": [
        {
          "name": "",
          "type": "bool"
        }
      ],
      "payable": false,
      "stateMutability": "view",
      "type": "function",
      "signature": "0x8f32d59b"
    },
    {
      "constant": false,
      "inputs": [
        {
          "name": "_newComplianceContract",
          "type": "address"
        }
      ],
      "name": "updateComplianceContract",
      "outputs": [],
      "payable": false,
      "stateMutability": "nonpayable",
      "type": "function",
      "signature": "0x9b1649e6"
    },
    {
      "constant": true,
      "inputs": [],
      "name": "getComplianceContract",
      "outputs": [
        {
          "name": "",
          "type": "address"
        }
      ],
      "payable": false,
      "stateMutability": "view",
      "type": "function",
      "signature": "0xe090424c"
    },
    {
      "constant": false,
      "inputs": [
        {
          "name": "newOwner",
          "type": "address"
        }
      ],
      "name": "transferOwnership",
      "outputs": [],
      "payable": false,
      "stateMutability": "nonpayable",
      "type": "function",
      "signature": "0xf2fde38b"
    },
    {
      "constant": false,
      "inputs": [
        {
          "name": "_transfersEnabled",
          "type": "bool"
        }
      ],
      "name": "enableTransfers",
      "outputs": [],
      "payable": false,
      "stateMutability": "nonpayable",
      "type": "function",
      "signature": "0xf41e60c5"
    },
    {
      "inputs": [
        {
          "name": "_token",
          "type": "address"
        },
        {
          "name": "_compliance",
          "type": "address"
        },
        {
          "name": "_exchanges",
          "type": "address"
        }
      ],
      "payable": false,
      "stateMutability": "nonpayable",
      "type": "constructor",
      "signature": "constructor"
    },
    {
      "anonymous": false,
      "inputs": [
        {
          "indexed": true,
          "name": "previousOwner",
          "type": "address"
        },
        {
          "indexed": true,
          "name": "newOwner",
          "type": "address"
        }
      ],
      "name": "OwnershipTransferred",
      "type": "event",
      "signature": "0x8be0079c531659141344cd1fd0a4f28419497f9722a3daafe3b4186f6b6457e0"
    }
  ],
  "bytecode": "0x608060405234801561001057600080fd5b50604051606080610c8e8339810180604052606081101561003057600080fd5b5080516020820151604092830151600080546001600160a01b031916331780825594519394929391926001600160a01b0316917f8be0079c531659141344cd1fd0a4f28419497f9722a3daafe3b4186f6b6457e0908290a3600180546001600160a01b039485166001600160a01b031991821617909155600280549385169382169390931790925560038054919093169116179055610bba806100d46000396000f3fe608060405234801561001057600080fd5b50600436106100b45760003560e01c80638da5cb5b116100715780638da5cb5b146101a95780638f32d59b146101b15780639b1649e6146101b9578063e090424c146101df578063f2fde38b146101e7578063f41e60c51461020d576100b4565b80631c47470d146100b95780633cebb823146100e157806340c10f19146101075780634a39314914610133578063706f04e31461017d578063715018a6146101a1575b600080fd5b6100df600480360360208110156100cf57600080fd5b50356001600160a01b031661022c565b005b6100df600480360360208110156100f757600080fd5b50356001600160a01b031661025f565b6100df6004803603604081101561011d57600080fd5b506001600160a01b0381351690602001356102dc565b6101696004803603606081101561014957600080fd5b506001600160a01b03813581169160208101359091169060400135610593565b604080519115158252519081900360200190f35b610185610930565b604080516001600160a01b039092168252519081900360200190f35b6100df610953565b6101856109ae565b6101696109bd565b6100df600480360360208110156101cf57600080fd5b50356001600160a01b03166109ce565b610185610a01565b6100df600480360360208110156101fd57600080fd5b50356001600160a01b0316610a24565b6100df6004803603602081101561022357600080fd5b50351515610a41565b6102346109bd565b61023d57600080fd5b600380546001600160a01b0319166001600160a01b0392909216919091179055565b6102676109bd565b61027057600080fd5b60015460408051600160e01b633cebb8230281526001600160a01b03848116600483015291519190921691633cebb82391602480830192600092919082900301818387803b1580156102c157600080fd5b505af11580156102d5573d6000803e3d6000fd5b5050505050565b60035460015460408051600160e01b63ea13d8a10281523360048201526001600160a01b0392831660248201529051919092169163ea13d8a1916044808301926020929190829003018186803b15801561033557600080fd5b505afa158015610349573d6000803e3d6000fd5b505050506040513d602081101561035f57600080fd5b505161036a57600080fd5b61037382610b1a565b61050a5760025460408051600160e01b631e9d48cf0281526001600160a01b03858116600483015291519190921691631e9d48cf916024808301926020929190829003018186803b1580156103c757600080fd5b505afa1580156103db573d6000803e3d6000fd5b505050506040513d60208110156103f157600080fd5b50516103fc57600080fd5b60025460015460408051600160e01b6370a082310281526001600160a01b038681166004830152915193821693636b618ff993879387939116916370a0823191602480820192602092909190829003018186803b15801561045c57600080fd5b505afa158015610470573d6000803e3d6000fd5b505050506040513d602081101561048657600080fd5b50516040805163ffffffff861660e01b81526001600160a01b03909416600485015260248401929092526044830152516064808301926020929190829003018186803b1580156104d557600080fd5b505afa1580156104e9573d6000803e3d6000fd5b505050506040513d60208110156104ff57600080fd5b505161050a57600080fd5b60015460408051600160e01b6340c10f190281526001600160a01b03858116600483015260248201859052915191909216916340c10f199160448083019260209291908290030181600087803b15801561056357600080fd5b505af1158015610577573d6000803e3d6000fd5b505050506040513d602081101561058d57600080fd5b50505050565b6001546000906001600160a01b031633146105ad57600080fd5b6105b683610b1a565b1580156105cb57506001600160a01b03831615155b156107695760025460408051600160e01b631e9d48cf0281526001600160a01b03868116600483015291519190921691631e9d48cf916024808301926020929190829003018186803b15801561062057600080fd5b505afa158015610634573d6000803e3d6000fd5b505050506040513d602081101561064a57600080fd5b505161065857506000610929565b60025460015460408051600160e01b6370a082310281526001600160a01b038781166004830152915193821693636b618ff993889388939116916370a0823191602480820192602092909190829003018186803b1580156106b857600080fd5b505afa1580156106cc573d6000803e3d6000fd5b505050506040513d60208110156106e257600080fd5b50516040805163ffffffff861660e01b81526001600160a01b03909416600485015260248401929092526044830152516064808301926020929190829003018186803b15801561073157600080fd5b505afa158015610745573d6000803e3d6000fd5b505050506040513d602081101561075b57600080fd5b505161076957506000610929565b61077284610b1a565b15801561078757506001600160a01b03841615155b156109255760025460408051600160e01b631e9d48cf0281526001600160a01b03878116600483015291519190921691631e9d48cf916024808301926020929190829003018186803b1580156107dc57600080fd5b505afa1580156107f0573d6000803e3d6000fd5b505050506040513d602081101561080657600080fd5b505161081457506000610929565b60025460015460408051600160e01b6370a082310281526001600160a01b038881166004830152915193821693636b618ff993899388939116916370a0823191602480820192602092909190829003018186803b15801561087457600080fd5b505afa158015610888573d6000803e3d6000fd5b505050506040513d602081101561089e57600080fd5b50516040805163ffffffff861660e01b81526001600160a01b03909416600485015260248401929092526044830152516064808301926020929190829003018186803b1580156108ed57600080fd5b505afa158015610901573d6000803e3d6000fd5b505050506040513d602081101561091757600080fd5b505161092557506000610929565b5060015b9392505050565b600061093a6109bd565b61094357600080fd5b506003546001600160a01b031690565b61095b6109bd565b61096457600080fd5b600080546040516001600160a01b03909116907f8be0079c531659141344cd1fd0a4f28419497f9722a3daafe3b4186f6b6457e0908390a3600080546001600160a01b0319169055565b6000546001600160a01b031690565b6000546001600160a01b0316331490565b6109d66109bd565b6109df57600080fd5b600280546001600160a01b0319166001600160a01b0392909216919091179055565b6000610a0b6109bd565b610a1457600080fd5b506002546001600160a01b031690565b610a2c6109bd565b610a3557600080fd5b610a3e81610b20565b50565b610a496109bd565b610a5257600080fd5b60018115151415610aca57600160009054906101000a90046001600160a01b03166001600160a01b0316633f4ba83a6040518163ffffffff1660e01b8152600401600060405180830381600087803b158015610aad57600080fd5b505af1158015610ac1573d6000803e3d6000fd5b50505050610a3e565b600160009054906101000a90046001600160a01b03166001600160a01b0316638456cb596040518163ffffffff1660e01b8152600401600060405180830381600087803b1580156102c157600080fd5b3b151590565b6001600160a01b038116610b3357600080fd5b600080546040516001600160a01b03808516939216917f8be0079c531659141344cd1fd0a4f28419497f9722a3daafe3b4186f6b6457e091a3600080546001600160a01b0319166001600160a01b039290921691909117905556fea165627a7a723058202dffb6ef26346c1eb629d318d646f4ee9f8a240504092ca8d9ece72a76aae8340029",
  "source": "pragma solidity ^0.5.7;\n\nimport \"./../Token36Controller.sol\";\n\n\n/// @title GBP36 Token Controller Contract\n/// @author element36.io\ncontract GBP36Controller is Token36Controller {\n\n    // Constructor\n    constructor(Token36 _token, address _compliance, address _exchanges) public {\n        token = _token;\n        compliance = Cash36Compliance(_compliance);\n        exchanges = Cash36Exchanges(_exchanges);\n    }\n}",
  "sourcePath": "/Users/bum/element36/dev/cash36/contracts/contracts/GBP36/GBP36Controller.sol",
  "compiler": {
    "name": "solc",
    "version": "0.5.7+commit.6da8b019.Emscripten.clang"
  },
  "schemaVersion": "3.0.6",
  "updatedAt": "2019-04-11T08:46:10.165Z",
  "devdoc": {
    "author": "element36.io",
    "methods": {
      "isOwner()": {
        "return": "true if `msg.sender` is the owner of the contract."
      },
      "owner()": {
        "return": "the address of the owner."
      },
      "renounceOwnership()": {
        "details": "Allows the current owner to relinquish control of the contract. It will not be possible to call the functions with the `onlyOwner` modifier anymore."
      },
      "transferOwnership(address)": {
        "details": "Allows the current owner to transfer control of the contract to a newOwner.",
        "params": {
          "newOwner": "The address to transfer ownership to."
        }
      }
    },
    "title": "GBP36 Token Controller Contract"
  },
  "userdoc": {
    "methods": {
      "renounceOwnership()": {
        "notice": "Renouncing ownership will leave the contract without an owner, thereby removing any functionality that is only available to the owner."
      }
    }
  }
}