{
  "contractName": "HasOfficer",
  "abi": [
    {
      "constant": true,
      "inputs": [],
      "name": "complianceOfficer",
      "outputs": [
        {
          "name": "",
          "type": "address"
        }
      ],
      "payable": false,
      "stateMutability": "view",
      "type": "function"
    },
    {
      "inputs": [],
      "payable": false,
      "stateMutability": "nonpayable",
      "type": "constructor"
    },
    {
      "constant": false,
      "inputs": [
        {
          "name": "_newComplianceOfficer",
          "type": "address"
        }
      ],
      "name": "changeOfficer",
      "outputs": [],
      "payable": false,
      "stateMutability": "nonpayable",
      "type": "function"
    },
    {
      "constant": true,
      "inputs": [
        {
          "name": "_addressToCheck",
          "type": "address"
        }
      ],
      "name": "isOfficer",
      "outputs": [
        {
          "name": "",
          "type": "bool"
        }
      ],
      "payable": false,
      "stateMutability": "view",
      "type": "function"
    }
  ],
  "bytecode": "0x608060405234801561001057600080fd5b5060008054600160a060020a03191633179055610179806100326000396000f3006080604052600436106100565763ffffffff7c01000000000000000000000000000000000000000000000000000000006000350416636816442d811461005b57806376ed9f5e14610090578063c4a56fc8146100b3575b600080fd5b34801561006757600080fd5b5061007c600160a060020a03600435166100e4565b604080519115158252519081900360200190f35b34801561009c57600080fd5b506100b1600160a060020a03600435166100f8565b005b3480156100bf57600080fd5b506100c861013e565b60408051600160a060020a039092168252519081900360200190f35b600054600160a060020a0391821691161490565b600054600160a060020a0316331461010f57600080fd5b6000805473ffffffffffffffffffffffffffffffffffffffff1916600160a060020a0392909216919091179055565b600054600160a060020a0316815600a165627a7a7230582073ffcfa3c9429db42ebc6db1c2086d1f154c83fed6569f33ffecb55a88d919090029",
  "source": "pragma solidity ^0.4.24;\n\n\n/// @title Cash36 Interface holding the Compliance Officer\n/// @author element36.io\ncontract HasOfficer {\n\n    // Address of the controller\n    address public complianceOfficer;\n\n    // Allow only complianceOfficer address to access\n    modifier onlyComplianceOfficer {\n        require(msg.sender == complianceOfficer);\n        _;\n    }\n\n    // Constructor\n    constructor() public {\n        complianceOfficer = msg.sender;\n    }\n\n    /**\n     * @notice Changes the ComplianceOfficer of the contract\n     * @dev onlyComplianceOfficer - only open to the currently assigned compliance Officer\n     * @param _newComplianceOfficer The new compliance officer of the contract\n     */\n    function changeOfficer(address _newComplianceOfficer) onlyComplianceOfficer public {\n        complianceOfficer = _newComplianceOfficer;\n    }\n\n    /**\n     * @notice Check if given address it the assigned Compliance Officer\n     * @param _addressToCheck Address to be checked\n     * @return {\n     *   \"bool\": \"True when address is the currently assigned complianceOfficer\"\n     * }\n     */\n    function isOfficer(address _addressToCheck) public view returns (bool){\n        return complianceOfficer == _addressToCheck;\n    }\n}",
  "sourcePath": "/Users/bum/element36/dev/cash36/contracts/contracts/HasOfficer.sol",
  "compiler": {
    "name": "solc",
    "version": "0.4.24+commit.e67f0147.Emscripten.clang"
  },
  "schemaVersion": "2.0.1",
  "updatedAt": "2018-07-04T08:53:08.227Z"
}