{
  "contractName": "HasOfficer",
  "abi": [
    {
      "inputs": [],
      "payable": false,
      "stateMutability": "nonpayable",
      "type": "constructor"
    },
    {
      "constant": true,
      "inputs": [],
      "name": "complianceOfficer",
      "outputs": [
        {
          "internalType": "address",
          "name": "",
          "type": "address"
        }
      ],
      "payable": false,
      "stateMutability": "view",
      "type": "function"
    },
    {
      "constant": false,
      "inputs": [
        {
          "internalType": "address",
          "name": "newComplianceOfficer",
          "type": "address"
        }
      ],
      "name": "changeOfficer",
      "outputs": [],
      "payable": false,
      "stateMutability": "nonpayable",
      "type": "function"
    },
    {
      "constant": true,
      "inputs": [
        {
          "internalType": "address",
          "name": "addressToCheck",
          "type": "address"
        }
      ],
      "name": "isOfficer",
      "outputs": [
        {
          "internalType": "bool",
          "name": "",
          "type": "bool"
        }
      ],
      "payable": false,
      "stateMutability": "view",
      "type": "function"
    }
  ],
  "bytecode": "0x608060405234801561001057600080fd5b50600080546001600160a01b031916331790556101b9806100326000396000f3fe608060405234801561001057600080fd5b50600436106100415760003560e01c80636816442d1461004657806376ed9f5e14610080578063c4a56fc8146100a8575b600080fd5b61006c6004803603602081101561005c57600080fd5b50356001600160a01b03166100cc565b604080519115158252519081900360200190f35b6100a66004803603602081101561009657600080fd5b50356001600160a01b03166100e0565b005b6100b061014b565b604080516001600160a01b039092168252519081900360200190f35b6000546001600160a01b0391821691161490565b6000546001600160a01b031633146101295760405162461bcd60e51b815260040180806020018281038252602a81526020018061015b602a913960400191505060405180910390fd5b600080546001600160a01b0319166001600160a01b0392909216919091179055565b6000546001600160a01b03169056fe616363657373206e6f7420616c6c6f7765642c206f6e6c7920636f6d706c69616e63654f666669636572a265627a7a72315820bf9ef51ce5a28761723a8e532da8b40dfb5769e0e6a8d8c1b3870bc98ea3c4f964736f6c634300050f0032",
  "source": "pragma solidity ^0.5.9;\n\n\n/// @title Cash36 Interface holding the Compliance Officer\n/// @author element36.io\ncontract HasOfficer {\n\n    // Address of the controller\n    address internal _complianceOfficer;\n\n    // Allow only complianceOfficer address to access\n    modifier onlyComplianceOfficer {\n        require(msg.sender == _complianceOfficer, \"access not allowed, only complianceOfficer\");\n        _;\n    }\n\n    // Constructor\n    constructor() public {\n        _complianceOfficer = msg.sender;\n    }\n\n    function complianceOfficer() public view returns (address) {\n        return _complianceOfficer;\n    }\n\n    /**\n     * @notice Changes the ComplianceOfficer of the contract\n     * @dev onlyComplianceOfficer - only open to the currently assigned compliance Officer\n     * @param newComplianceOfficer The new compliance officer of the contract\n     */\n    function changeOfficer(address newComplianceOfficer) public onlyComplianceOfficer {\n        _complianceOfficer = newComplianceOfficer;\n    }\n\n    /**\n     * @notice Check if given address it the assigned Compliance Officer\n     * @param addressToCheck Address to be checked\n     * @return {\n     *   \"bool\": \"True when address is the currently assigned complianceOfficer\"\n     * }\n     */\n    function isOfficer(address addressToCheck) public view returns (bool){\n        return _complianceOfficer == addressToCheck;\n    }\n}",
  "sourcePath": "/home/w/workspace/contracts/contracts/HasOfficer.sol",
  "compiler": {
    "name": "solc",
    "version": "0.5.15+commit.6a57276f.Emscripten.clang"
  },
  "schemaVersion": "3.0.20",
  "updatedAt": "2020-01-17T08:40:04.877Z",
  "devdoc": {
    "author": "element36.io",
    "methods": {
      "changeOfficer(address)": {
        "details": "onlyComplianceOfficer - only open to the currently assigned compliance Officer",
        "params": {
          "newComplianceOfficer": "The new compliance officer of the contract"
        }
      },
      "isOfficer(address)": {
        "params": {
          "addressToCheck": "Address to be checked"
        },
        "return": "{  \"bool\": \"True when address is the currently assigned complianceOfficer\" }"
      }
    },
    "title": "Cash36 Interface holding the Compliance Officer"
  },
  "userdoc": {
    "methods": {
      "changeOfficer(address)": {
        "notice": "Changes the ComplianceOfficer of the contract"
      },
      "isOfficer(address)": {
        "notice": "Check if given address it the assigned Compliance Officer"
      }
    }
  }
}