{
  "contractName": "Ping",
  "abi": [
    {
      "inputs": [
        {
          "internalType": "contract Token36",
          "name": "token",
          "type": "address"
        }
      ],
      "payable": false,
      "stateMutability": "nonpayable",
      "type": "constructor"
    },
    {
      "payable": true,
      "stateMutability": "payable",
      "type": "fallback"
    },
    {
      "constant": false,
      "inputs": [
        {
          "internalType": "address",
          "name": "beneficiary",
          "type": "address"
        },
        {
          "internalType": "uint256",
          "name": "value",
          "type": "uint256"
        }
      ],
      "name": "ping",
      "outputs": [],
      "payable": false,
      "stateMutability": "nonpayable",
      "type": "function"
    },
    {
      "constant": false,
      "inputs": [
        {
          "internalType": "bytes32",
          "name": "clue",
          "type": "bytes32"
        },
        {
          "internalType": "uint256",
          "name": "amount",
          "type": "uint256"
        }
      ],
      "name": "pongWalletFree",
      "outputs": [],
      "payable": false,
      "stateMutability": "nonpayable",
      "type": "function"
    },
    {
      "constant": false,
      "inputs": [],
      "name": "pong",
      "outputs": [],
      "payable": false,
      "stateMutability": "nonpayable",
      "type": "function"
    },
    {
      "constant": false,
      "inputs": [],
      "name": "steal",
      "outputs": [],
      "payable": false,
      "stateMutability": "nonpayable",
      "type": "function"
    },
    {
      "constant": true,
      "inputs": [],
      "name": "token",
      "outputs": [
        {
          "internalType": "contract IERC20",
          "name": "",
          "type": "address"
        }
      ],
      "payable": false,
      "stateMutability": "view",
      "type": "function"
    },
    {
      "constant": true,
      "inputs": [],
      "name": "beneficiary",
      "outputs": [
        {
          "internalType": "address",
          "name": "",
          "type": "address"
        }
      ],
      "payable": false,
      "stateMutability": "view",
      "type": "function"
    }
  ],
  "bytecode": "0x608060405234801561001057600080fd5b50604051610acc380380610acc8339818101604052602081101561003357600080fd5b5051600080546001600160a01b039092166001600160a01b0319909216919091179055610a67806100656000396000f3fe6080604052600436106100555760003560e01c806338af3eed146100945780635bafcceb146100c557806384d79ada146100f7578063bc9748a114610130578063cf7a896514610145578063fc0c546a1461015a575b6040805162461bcd60e51b815260206004820152600f60248201526e1b9bc8195d1a081858d8d95c1d1959608a1b604482015290519081900360640190fd5b3480156100a057600080fd5b506100a961016f565b604080516001600160a01b039092168252519081900360200190f35b3480156100d157600080fd5b506100f5600480360360408110156100e857600080fd5b508035906020013561017e565b005b34801561010357600080fd5b506100f56004803603604081101561011a57600080fd5b506001600160a01b03813516906020013561035f565b34801561013c57600080fd5b506100f56104bc565b34801561015157600080fd5b506100f5610610565b34801561016657600080fd5b506100a9610703565b6001546001600160a01b031690565b6001546001600160a01b0316156101d5576040805162461bcd60e51b815260206004820152601660248201527518995b99599a58da585c9e481c9959da5cdd195c995960521b604482015290519081900360640190fd5b60008054604080516370a0823160e01b815230600482015290516001600160a01b03909216916370a0823191602480820192602092909190829003018186803b15801561022157600080fd5b505afa158015610235573d6000803e3d6000fd5b505050506040513d602081101561024b57600080fd5b505190508061028e576040805162461bcd60e51b815260206004820152600a6024820152696e6f2062616c616e636560b01b604482015290519081900360640190fd5b818110156102d8576040805162461bcd60e51b8152602060048201526012602482015271746f6f206c6974746c652062616c616e636560701b604482015290519081900360640190fd5b60008054604080516305810b5f60e01b8152600481018790526024810186905290516001600160a01b03909216926305810b5f926044808401936020939083900390910190829087803b15801561032e57600080fd5b505af1158015610342573d6000803e3d6000fd5b505050506040513d602081101561035857600080fd5b5050505050565b806000108015610370575060c88111155b6103ab5760405162461bcd60e51b8152600401808060200182810382526024815260200180610a0f6024913960400191505060405180910390fd5b60008054604080516370a0823160e01b815230600482015290516001600160a01b03909216916370a0823191602480820192602092909190829003018186803b1580156103f757600080fd5b505afa15801561040b573d6000803e3d6000fd5b505050506040513d602081101561042157600080fd5b5051905080156104625760405162461bcd60e51b81526004018080602001828103825260278152602001806109be6027913960400191505060405180910390fd5b600280546001600160a01b03191633908117909155600054610498916001600160a01b039190911690308563ffffffff61071216565b5050600180546001600160a01b0319166001600160a01b0392909216919091179055565b60008054604080516370a0823160e01b815230600482015290516001600160a01b03909216916370a0823191602480820192602092909190829003018186803b15801561050857600080fd5b505afa15801561051c573d6000803e3d6000fd5b505050506040513d602081101561053257600080fd5b505190508061057d576040805162461bcd60e51b815260206004820152601260248201527170696e67203020746f6b656e73206865726560701b604482015290519081900360640190fd5b6001546001600160a01b03166105da576040805162461bcd60e51b815260206004820152601960248201527f6e6f2062656e6566696369617279207265676973746572656400000000000000604482015290519081900360640190fd5b6001546000546105fd916001600160a01b0391821691168363ffffffff61077216565b50600180546001600160a01b0319169055565b60008054604080516370a0823160e01b815230600482015290516001600160a01b03909216916370a0823191602480820192602092909190829003018186803b15801561065c57600080fd5b505afa158015610670573d6000803e3d6000fd5b505050506040513d602081101561068657600080fd5b50519050806106d3576040805162461bcd60e51b81526020600482015260146024820152736e6f20746f6b656e7320746f2072656c6561736560601b604482015290519081900360640190fd5b600180546001600160a01b0319169055600054610700906001600160a01b0316338363ffffffff61077216565b50565b6000546001600160a01b031690565b604080516001600160a01b0385811660248301528416604482015260648082018490528251808303909101815260849091019091526020810180516001600160e01b03166323b872dd60e01b17905261076c9085906107c9565b50505050565b604080516001600160a01b038416602482015260448082018490528251808303909101815260649091019091526020810180516001600160e01b031663a9059cbb60e01b1790526107c49084906107c9565b505050565b6107db826001600160a01b0316610981565b61082c576040805162461bcd60e51b815260206004820152601f60248201527f5361666545524332303a2063616c6c20746f206e6f6e2d636f6e747261637400604482015290519081900360640190fd5b60006060836001600160a01b0316836040518082805190602001908083835b6020831061086a5780518252601f19909201916020918201910161084b565b6001836020036101000a0380198251168184511680821785525050505050509050019150506000604051808303816000865af19150503d80600081146108cc576040519150601f19603f3d011682016040523d82523d6000602084013e6108d1565b606091505b509150915081610928576040805162461bcd60e51b815260206004820181905260248201527f5361666545524332303a206c6f772d6c6576656c2063616c6c206661696c6564604482015290519081900360640190fd5b80511561076c5780806020019051602081101561094457600080fd5b505161076c5760405162461bcd60e51b815260040180806020018281038252602a8152602001806109e5602a913960400191505060405180910390fd5b6000813f7fc5d2460186f7233c927e7db2dcc703c0e500b653ca82273b7bfad8045d85a47081158015906109b55750808214155b94935050505056fe70696e67206f63637570696564202d2075736520706f6e67206f7220737465616c2066697273745361666545524332303a204552433230206f7065726174696f6e20646964206e6f74207375636365656470696e672028746f6f206d616e7920746f6b656e732920303c746f6b656e733c3d323030a265627a7a7231582032b10b66067de004223e50fc220ea40d0a9d59b88205885ff201046590d9963864736f6c634300050f0032",
  "source": "pragma solidity ^0.5.9;\n\nimport \"./Token36.sol\";\nimport \"openzeppelin-solidity/contracts/token/ERC20/SafeERC20.sol\";\n\n// https://github.com/OpenZeppelin/openzeppelin-contracts/blob/master/contracts/token/ERC20/TokenTimelock.sol\n\n/**\n * @dev A token holder contract that will allow a beneficiary to extract the\n * tokens anytime.\n *\n * For a more complete vesting schedule, see {TokenVesting}.\n */\ncontract Ping {\n    using SafeERC20 for Token36;\n\n    // ERC20 basic token contract being held\n    Token36 private _token;\n\n    // beneficiary of tokens after they are released\n    address private _beneficiary;\n\n\n    // beneficiary of tokens after they are released\n    address private _pingSender;\n\n    /**\n    * We dont want any eth\n     */\n    function () external payable {\n        revert(\"no eth accepted\");\n    }\n\n    constructor(Token36 token) public {\n        _token = token;\n    }\n\n    /**\n    * Load the contract with tokens for a beneficiary (or to be stolen with steal-function)\n     */\n    function ping(address beneficiary, uint256 value)  public  {\n        require ((0 < value && value <= 200),\"ping (too many tokens) 0<tokens<=200\");\n        uint256 balance = _token.balanceOf(address(this));\n        require(balance == 0, \"ping occupied - use pong or steal first\");\n        _pingSender = msg.sender;\n        _token.safeTransferFrom(msg.sender,address(this),value);\n        _beneficiary = beneficiary;\n    }\n\n /**\n    * Load the contract with tokens for a beneficiary (or to be stolen with steal-function)\n     */\n    function pongWalletFree(bytes32 clue,uint256 amount)  public  {\n        require(_beneficiary == address(0), \"beneficiary registered\");\n        uint256 balance = _token.balanceOf(address(this));\n        require(0 < balance, \"no balance\");\n        require(balance >= amount, \"too little balance\");\n        _token.transferClue(clue, amount);\n        //_token.burn(amount);\n    }\n\n\n    /**\n     * @notice Transfers tokens to beneficiary - cash36 will check KYC\n     */\n    function pong() public {\n        uint256 amount = _token.balanceOf(address(this));\n        require(amount > 0, \"ping 0 tokens here\");\n        require(_beneficiary != address(0), \"no beneficiary registered\");\n        _token.safeTransfer(_beneficiary, amount);\n        _beneficiary = address(0);\n    }\n\n\n    /**\n     * @notice Transfers tokens to the caller - remark: Cash36 contract will check validate KYC\n     */\n    function steal() public {\n        uint256 amount = _token.balanceOf(address(this));\n        require(amount > 0, \"no tokens to release\");\n        _beneficiary = address(0);\n        _token.safeTransfer(msg.sender, amount);\n    }\n\n    /**\n     * @return the token being held.\n     */\n    function token() public view returns (IERC20) {\n        return _token;\n    }\n\n    /**\n     * @return the beneficiary of the tokens.\n     */\n    function beneficiary() public view returns (address) {\n        return _beneficiary;\n    }\n\n\n}",
  "sourcePath": "/home/w/workspace/contracts/contracts/Ping.sol",
  "compiler": {
    "name": "solc",
    "version": "0.5.15+commit.6a57276f.Emscripten.clang"
  },
  "schemaVersion": "3.0.20",
  "updatedAt": "2020-01-21T13:29:49.699Z",
  "networkType": "ethereum",
  "devdoc": {
    "details": "A token holder contract that will allow a beneficiary to extract the tokens anytime. * For a more complete vesting schedule, see {TokenVesting}.",
    "methods": {
      "beneficiary()": {
        "return": "the beneficiary of the tokens."
      },
      "token()": {
        "return": "the token being held."
      }
    }
  },
  "userdoc": {
    "methods": {
      "ping(address,uint256)": {
        "notice": "Load the contract with tokens for a beneficiary (or to be stolen with steal-function)"
      },
      "pong()": {
        "notice": "Transfers tokens to beneficiary - cash36 will check KYC"
      },
      "pongWalletFree(bytes32,uint256)": {
        "notice": "Load the contract with tokens for a beneficiary (or to be stolen with steal-function)"
      },
      "steal()": {
        "notice": "Transfers tokens to the caller - remark: Cash36 contract will check validate KYC"
      }
    }
  }
}