{
  "contractName": "Token36Controller",
  "abi": [
    {
      "anonymous": false,
      "inputs": [
        {
          "indexed": true,
          "internalType": "address",
          "name": "previousOwner",
          "type": "address"
        },
        {
          "indexed": true,
          "internalType": "address",
          "name": "newOwner",
          "type": "address"
        }
      ],
      "name": "OwnershipTransferred",
      "type": "event"
    },
    {
      "constant": true,
      "inputs": [],
      "name": "isOwner",
      "outputs": [
        {
          "internalType": "bool",
          "name": "",
          "type": "bool"
        }
      ],
      "payable": false,
      "stateMutability": "view",
      "type": "function"
    },
    {
      "constant": true,
      "inputs": [],
      "name": "owner",
      "outputs": [
        {
          "internalType": "address",
          "name": "",
          "type": "address"
        }
      ],
      "payable": false,
      "stateMutability": "view",
      "type": "function"
    },
    {
      "constant": false,
      "inputs": [],
      "name": "renounceOwnership",
      "outputs": [],
      "payable": false,
      "stateMutability": "nonpayable",
      "type": "function"
    },
    {
      "constant": false,
      "inputs": [
        {
          "internalType": "address",
          "name": "newOwner",
          "type": "address"
        }
      ],
      "name": "transferOwnership",
      "outputs": [],
      "payable": false,
      "stateMutability": "nonpayable",
      "type": "function"
    },
    {
      "constant": true,
      "inputs": [
        {
          "internalType": "address",
          "name": "_from",
          "type": "address"
        },
        {
          "internalType": "uint256",
          "name": "_amount",
          "type": "uint256"
        }
      ],
      "name": "onTransfer",
      "outputs": [
        {
          "internalType": "bool",
          "name": "",
          "type": "bool"
        }
      ],
      "payable": false,
      "stateMutability": "view",
      "type": "function"
    },
    {
      "constant": true,
      "inputs": [
        {
          "internalType": "address",
          "name": "_from",
          "type": "address"
        },
        {
          "internalType": "address",
          "name": "_to",
          "type": "address"
        },
        {
          "internalType": "uint256",
          "name": "_amount",
          "type": "uint256"
        }
      ],
      "name": "onTransfer",
      "outputs": [
        {
          "internalType": "bool",
          "name": "",
          "type": "bool"
        }
      ],
      "payable": false,
      "stateMutability": "view",
      "type": "function"
    },
    {
      "constant": true,
      "inputs": [
        {
          "internalType": "address",
          "name": "_from",
          "type": "address"
        }
      ],
      "name": "onBurn",
      "outputs": [
        {
          "internalType": "bool",
          "name": "",
          "type": "bool"
        }
      ],
      "payable": false,
      "stateMutability": "view",
      "type": "function"
    },
    {
      "constant": false,
      "inputs": [
        {
          "internalType": "address",
          "name": "_receiver",
          "type": "address"
        },
        {
          "internalType": "uint256",
          "name": "_amount",
          "type": "uint256"
        }
      ],
      "name": "mint",
      "outputs": [],
      "payable": false,
      "stateMutability": "nonpayable",
      "type": "function"
    },
    {
      "constant": false,
      "inputs": [
        {
          "internalType": "address",
          "name": "_from",
          "type": "address"
        },
        {
          "internalType": "uint256",
          "name": "_amount",
          "type": "uint256"
        }
      ],
      "name": "burn",
      "outputs": [],
      "payable": false,
      "stateMutability": "nonpayable",
      "type": "function"
    },
    {
      "constant": false,
      "inputs": [
        {
          "internalType": "bool",
          "name": "_transfersEnabled",
          "type": "bool"
        }
      ],
      "name": "enableTransfers",
      "outputs": [],
      "payable": false,
      "stateMutability": "nonpayable",
      "type": "function"
    },
    {
      "constant": false,
      "inputs": [
        {
          "internalType": "uint256",
          "name": "_cap",
          "type": "uint256"
        }
      ],
      "name": "updateCap",
      "outputs": [],
      "payable": false,
      "stateMutability": "nonpayable",
      "type": "function"
    },
    {
      "constant": true,
      "inputs": [],
      "name": "getComplianceContract",
      "outputs": [
        {
          "internalType": "address",
          "name": "",
          "type": "address"
        }
      ],
      "payable": false,
      "stateMutability": "view",
      "type": "function"
    },
    {
      "constant": false,
      "inputs": [
        {
          "internalType": "address",
          "name": "_newComplianceContract",
          "type": "address"
        }
      ],
      "name": "updateComplianceContract",
      "outputs": [],
      "payable": false,
      "stateMutability": "nonpayable",
      "type": "function"
    },
    {
      "constant": true,
      "inputs": [],
      "name": "getExchangesContract",
      "outputs": [
        {
          "internalType": "address",
          "name": "",
          "type": "address"
        }
      ],
      "payable": false,
      "stateMutability": "view",
      "type": "function"
    },
    {
      "constant": false,
      "inputs": [
        {
          "internalType": "address",
          "name": "_newExchangesContract",
          "type": "address"
        }
      ],
      "name": "updateExchangesContract",
      "outputs": [],
      "payable": false,
      "stateMutability": "nonpayable",
      "type": "function"
    },
    {
      "constant": false,
      "inputs": [
        {
          "internalType": "address",
          "name": "_newController",
          "type": "address"
        }
      ],
      "name": "changeController",
      "outputs": [],
      "payable": false,
      "stateMutability": "nonpayable",
      "type": "function"
    }
  ],
  "bytecode": "0x60806040526100156001600160e01b0361006216565b600080546001600160a01b0319166001600160a01b03928316178082556040519216917f8be0079c531659141344cd1fd0a4f28419497f9722a3daafe3b4186f6b6457e0908290a3610066565b3390565b61188e806100756000396000f3fe608060405234801561001057600080fd5b50600436106101005760003560e01c80639b1649e611610097578063e090424c11610066578063e090424c1461029a578063e81e9b64146102a2578063f2fde38b146102ce578063f41e60c5146102f457610100565b80639b1649e6146102055780639dc29fac1461022b578063a3a08d4814610257578063a7d688961461027d57610100565b8063706f04e3116100d3578063706f04e3146101c9578063715018a6146101ed5780638da5cb5b146101f55780638f32d59b146101fd57610100565b80631c47470d146101055780633cebb8231461012d57806340c10f19146101535780634a3931491461017f575b600080fd5b61012b6004803603602081101561011b57600080fd5b50356001600160a01b0316610313565b005b61012b6004803603602081101561014357600080fd5b50356001600160a01b031661037c565b61012b6004803603604081101561016957600080fd5b506001600160a01b03813516906020013561042c565b6101b56004803603606081101561019557600080fd5b506001600160a01b038135811691602081013590911690604001356105fb565b604080519115158252519081900360200190f35b6101d1610bd1565b604080516001600160a01b039092168252519081900360200190f35b61012b610c2a565b6101d1610cbb565b6101b5610cca565b61012b6004803603602081101561021b57600080fd5b50356001600160a01b0316610cee565b61012b6004803603604081101561024157600080fd5b506001600160a01b038135169060200135610d57565b6101b56004803603602081101561026d57600080fd5b50356001600160a01b0316610f11565b61012b6004803603602081101561029357600080fd5b50356111ad565b6101d1611241565b6101b5600480360360408110156102b857600080fd5b506001600160a01b03813516906020013561129a565b61012b600480360360208110156102e457600080fd5b50356001600160a01b03166115ae565b61012b6004803603602081101561030a57600080fd5b50351515611601565b61031b610cca565b61035a576040805162461bcd60e51b81526020600482018190526024820152600080516020611817833981519152604482015290519081900360640190fd5b600380546001600160a01b0319166001600160a01b0392909216919091179055565b610384610cca565b6103c3576040805162461bcd60e51b81526020600482018190526024820152600080516020611817833981519152604482015290519081900360640190fd5b60015460408051633cebb82360e01b81526001600160a01b03848116600483015291519190921691633cebb82391602480830192600092919082900301818387803b15801561041157600080fd5b505af1158015610425573d6000803e3d6000fd5b5050505050565b6003546001546040805163ea13d8a160e01b81523360048201526001600160a01b0392831660248201529051919092169163ea13d8a1916044808301926020929190829003018186803b15801561048257600080fd5b505afa158015610496573d6000803e3d6000fd5b505050506040513d60208110156104ac57600080fd5b50518061052c575060025460408051636816442d60e01b815233600482015290516001600160a01b0390921691636816442d91602480820192602092909190829003018186803b1580156104ff57600080fd5b505afa158015610513573d6000803e3d6000fd5b505050506040513d602081101561052957600080fd5b50515b610575576040805162461bcd60e51b81526020600482015260156024820152741cd95b99195c881b9bdd081c9959da5cdd195c9959605a1b604482015290519081900360640190fd5b600154604080516340c10f1960e01b81526001600160a01b03858116600483015260248201859052915191909216916340c10f199160448083019260209291908290030181600087803b1580156105cb57600080fd5b505af11580156105df573d6000803e3d6000fd5b505050506040513d60208110156105f557600080fd5b50505050565b6001546000906001600160a01b031633146106475760405162461bcd60e51b81526004018080602001828103825260238152602001806118376023913960400191505060405180910390fd5b61065083611710565b15806106d1575060025460408051635020367160e11b81526001600160a01b0386811660048301529151919092169163a0406ce2916024808301926020929190829003018186803b1580156106a457600080fd5b505afa1580156106b8573d6000803e3d6000fd5b505050506040513d60208110156106ce57600080fd5b50515b156109085760025460408051631e9d48cf60e01b81526001600160a01b03868116600483015291519190921691631e9d48cf916024808301926020929190829003018186803b15801561072357600080fd5b505afa158015610737573d6000803e3d6000fd5b505050506040513d602081101561074d57600080fd5b505161075b57506000610bca565b600254600154604080516370a0823160e01b81526001600160a01b038781166004830152915193821693636b618ff993889388939116916370a0823191602480820192602092909190829003018186803b1580156107b857600080fd5b505afa1580156107cc573d6000803e3d6000fd5b505050506040513d60208110156107e257600080fd5b5051604080516001600160e01b031960e087901b1681526001600160a01b03909416600485015260248401929092526044830152516064808301926020929190829003018186803b15801561083657600080fd5b505afa15801561084a573d6000803e3d6000fd5b505050506040513d602081101561086057600080fd5b505161086e57506000610bca565b60025460408051631cce309760e21b81526001600160a01b0386811660048301526b415454525f5245434549564560a01b602483015291519190921691637338c25c916044808301926020929190829003018186803b1580156108d057600080fd5b505afa1580156108e4573d6000803e3d6000fd5b505050506040513d60208110156108fa57600080fd5b505161090857506000610bca565b61091184611710565b1580610992575060025460408051635020367160e11b81526001600160a01b0387811660048301529151919092169163a0406ce2916024808301926020929190829003018186803b15801561096557600080fd5b505afa158015610979573d6000803e3d6000fd5b505050506040513d602081101561098f57600080fd5b50515b15610bc65760025460408051631e9d48cf60e01b81526001600160a01b03878116600483015291519190921691631e9d48cf916024808301926020929190829003018186803b1580156109e457600080fd5b505afa1580156109f8573d6000803e3d6000fd5b505050506040513d6020811015610a0e57600080fd5b5051610a1c57506000610bca565b600254600154604080516370a0823160e01b81526001600160a01b038881166004830152915193821693636b618ff993899388939116916370a0823191602480820192602092909190829003018186803b158015610a7957600080fd5b505afa158015610a8d573d6000803e3d6000fd5b505050506040513d6020811015610aa357600080fd5b5051604080516001600160e01b031960e087901b1681526001600160a01b03909416600485015260248401929092526044830152516064808301926020929190829003018186803b158015610af757600080fd5b505afa158015610b0b573d6000803e3d6000fd5b505050506040513d6020811015610b2157600080fd5b5051610b2f57506000610bca565b60025460408051631cce309760e21b81526001600160a01b038781166004830152681055151497d4d1539160ba1b602483015291519190921691637338c25c916044808301926020929190829003018186803b158015610b8e57600080fd5b505afa158015610ba2573d6000803e3d6000fd5b505050506040513d6020811015610bb857600080fd5b5051610bc657506000610bca565b5060015b9392505050565b6000610bdb610cca565b610c1a576040805162461bcd60e51b81526020600482018190526024820152600080516020611817833981519152604482015290519081900360640190fd5b506003546001600160a01b031690565b610c32610cca565b610c71576040805162461bcd60e51b81526020600482018190526024820152600080516020611817833981519152604482015290519081900360640190fd5b600080546040516001600160a01b03909116907f8be0079c531659141344cd1fd0a4f28419497f9722a3daafe3b4186f6b6457e0908390a3600080546001600160a01b0319169055565b6000546001600160a01b031690565b600080546001600160a01b0316610cdf61174c565b6001600160a01b031614905090565b610cf6610cca565b610d35576040805162461bcd60e51b81526020600482018190526024820152600080516020611817833981519152604482015290519081900360640190fd5b600280546001600160a01b0319166001600160a01b0392909216919091179055565b6003546001546040805163ea13d8a160e01b81523360048201526001600160a01b0392831660248201529051919092169163ea13d8a1916044808301926020929190829003018186803b158015610dad57600080fd5b505afa158015610dc1573d6000803e3d6000fd5b505050506040513d6020811015610dd757600080fd5b505180610e57575060025460408051636816442d60e01b815233600482015290516001600160a01b0390921691636816442d91602480820192602092909190829003018186803b158015610e2a57600080fd5b505afa158015610e3e573d6000803e3d6000fd5b505050506040513d6020811015610e5457600080fd5b50515b610ea0576040805162461bcd60e51b81526020600482015260156024820152741cd95b99195c881b9bdd081c9959da5cdd195c9959605a1b604482015290519081900360640190fd5b6001546040805163079cc67960e41b81526001600160a01b03858116600483015260248201859052915191909216916379cc679091604480830192600092919082900301818387803b158015610ef557600080fd5b505af1158015610f09573d6000803e3d6000fd5b505050505050565b6001546000906001600160a01b03163314610f5d5760405162461bcd60e51b81526004018080602001828103825260238152602001806118376023913960400191505060405180910390fd5b610f6682611710565b151560011415610f78575060016111a8565b610f8182611710565b1580611002575060025460408051635020367160e11b81526001600160a01b0385811660048301529151919092169163a0406ce2916024808301926020929190829003018186803b158015610fd557600080fd5b505afa158015610fe9573d6000803e3d6000fd5b505050506040513d6020811015610fff57600080fd5b50515b80611083575060025460408051636816442d60e01b81526001600160a01b03858116600483015291519190921691636816442d916024808301926020929190829003018186803b15801561105557600080fd5b505afa158015611069573d6000803e3d6000fd5b505050506040513d602081101561107f57600080fd5b5051155b156111a45760025460408051631e9d48cf60e01b81526001600160a01b03858116600483015291519190921691631e9d48cf916024808301926020929190829003018186803b1580156110d557600080fd5b505afa1580156110e9573d6000803e3d6000fd5b505050506040513d60208110156110ff57600080fd5b505161110d575060006111a8565b60025460408051631cce309760e21b81526001600160a01b038581166004830152681055151497d4d1531360ba1b602483015291519190921691637338c25c916044808301926020929190829003018186803b15801561116c57600080fd5b505afa158015611180573d6000803e3d6000fd5b505050506040513d602081101561119657600080fd5b50516111a4575060006111a8565b5060015b919050565b6111b5610cca565b6111f4576040805162461bcd60e51b81526020600482018190526024820152600080516020611817833981519152604482015290519081900360640190fd5b600154604080516353eb444b60e11b81526004810184905290516001600160a01b039092169163a7d688969160248082019260009290919082900301818387803b15801561041157600080fd5b600061124b610cca565b61128a576040805162461bcd60e51b81526020600482018190526024820152600080516020611817833981519152604482015290519081900360640190fd5b506002546001600160a01b031690565b6001546000906001600160a01b031633146112e65760405162461bcd60e51b81526004018080602001828103825260238152602001806118376023913960400191505060405180910390fd5b6112ef83611710565b1580611370575060025460408051635020367160e11b81526001600160a01b0386811660048301529151919092169163a0406ce2916024808301926020929190829003018186803b15801561134357600080fd5b505afa158015611357573d6000803e3d6000fd5b505050506040513d602081101561136d57600080fd5b50515b156115a45760025460408051631e9d48cf60e01b81526001600160a01b03868116600483015291519190921691631e9d48cf916024808301926020929190829003018186803b1580156113c257600080fd5b505afa1580156113d6573d6000803e3d6000fd5b505050506040513d60208110156113ec57600080fd5b50516113fa575060006115a8565b600254600154604080516370a0823160e01b81526001600160a01b038781166004830152915193821693636b618ff993889388939116916370a0823191602480820192602092909190829003018186803b15801561145757600080fd5b505afa15801561146b573d6000803e3d6000fd5b505050506040513d602081101561148157600080fd5b5051604080516001600160e01b031960e087901b1681526001600160a01b03909416600485015260248401929092526044830152516064808301926020929190829003018186803b1580156114d557600080fd5b505afa1580156114e9573d6000803e3d6000fd5b505050506040513d60208110156114ff57600080fd5b505161150d575060006115a8565b60025460408051631cce309760e21b81526001600160a01b038681166004830152681055151497d4d1539160ba1b602483015291519190921691637338c25c916044808301926020929190829003018186803b15801561156c57600080fd5b505afa158015611580573d6000803e3d6000fd5b505050506040513d602081101561159657600080fd5b50516115a4575060006115a8565b5060015b92915050565b6115b6610cca565b6115f5576040805162461bcd60e51b81526020600482018190526024820152600080516020611817833981519152604482015290519081900360640190fd5b6115fe81611750565b50565b611609610cca565b611648576040805162461bcd60e51b81526020600482018190526024820152600080516020611817833981519152604482015290519081900360640190fd5b600181151514156116c057600160009054906101000a90046001600160a01b03166001600160a01b0316633f4ba83a6040518163ffffffff1660e01b8152600401600060405180830381600087803b1580156116a357600080fd5b505af11580156116b7573d6000803e3d6000fd5b505050506115fe565b600160009054906101000a90046001600160a01b03166001600160a01b0316638456cb596040518163ffffffff1660e01b8152600401600060405180830381600087803b15801561041157600080fd5b6000813f7fc5d2460186f7233c927e7db2dcc703c0e500b653ca82273b7bfad8045d85a47081158015906117445750808214155b949350505050565b3390565b6001600160a01b0381166117955760405162461bcd60e51b81526004018080602001828103825260268152602001806117f16026913960400191505060405180910390fd5b600080546040516001600160a01b03808516939216917f8be0079c531659141344cd1fd0a4f28419497f9722a3daafe3b4186f6b6457e091a3600080546001600160a01b0319166001600160a01b039290921691909117905556fe4f776e61626c653a206e6577206f776e657220697320746865207a65726f20616464726573734f776e61626c653a2063616c6c6572206973206e6f7420746865206f776e65724f6e6c792063616c6c61626c652066726f6d20636f6e74726f6c6c656420546f6b656ea265627a7a723158207031496faa792188a5cdf68746e723b5da8a89fe44bdebb783e1ae575bc78b2464736f6c634300050f0032",
  "source": "pragma solidity ^0.5.9;\n\nimport \"openzeppelin-solidity/contracts/ownership/Ownable.sol\";\nimport \"openzeppelin-solidity/contracts/utils/Address.sol\";\nimport \"./IToken36Controller.sol\";\nimport \"./Token36.sol\";\nimport \"./Cash36Compliance.sol\";\nimport \"./Cash36Exchanges.sol\";\n\n\n/// @title Token Controller\n/// @author element36.io\ncontract Token36Controller is IToken36Controller, Ownable {\n\n    // Token controlled by this controller\n    Token36 internal token;\n\n    // Compliance contract\n    Cash36Compliance internal compliance;\n\n    // Exchanges contract\n    Cash36Exchanges internal exchanges;\n\n    // Only Exchanges are allowed to handle certain functions\n    modifier onlyExchangesOrOfficers {\n        require(exchanges.isAllowedExchange(msg.sender, address(token)) || compliance.isOfficer(msg.sender), \"sender not registered\");\n        _;\n    }\n\n\n    /**\n    * @notice Controller Hook called in Token on transfer. Has no _to because this fx is used in a wallet-free context \n    * @notice Does all required compliance checks and only allows the transfer if user passes them all.\n    * @param _from Sender account address\n    * @param _amount Amount\n    */\n    function onTransfer(address _from, uint _amount) public view returns (bool) {\n        // Only the Token itself can call this - msg.sender is not the \"_from\" value but the calling contract\n        require(msg.sender == address(token), \"Only callable from controlled Token\");\n\n        // Check Compliance, unless sending address is a contract\n        if (Address.isContract(_from) == false || compliance.isCompany(_from)) {\n            // Check if user _from is KYCed and not blacklisted\n            if (!compliance.checkUser(_from)) {\n                return false;\n            }\n\n            // Check if user _from within limits\n            if (!compliance.checkUserLimit(_from, _amount, token.balanceOf(_from))) {\n                return false;\n            }\n\n            if (!compliance.hasAttribute(_from, \"ATTR_SEND\")) {\n                return false;\n            }\n        }\n\n        return true;\n    }\n\n\n    /**\n    * @notice Controller Hook called in controlled Token on every transfer.\n    * @notice Does all required compliance checks and only allows the transfer if user passes them all.\n    * @param _from Sender account address\n    * @param _to Recipient accounts address\n    * @param _amount Amount\n    */\n    function onTransfer(address _from, address _to, uint _amount) public view returns (bool) {\n        // Only the Token itself can call this - msg.sender is not the \"_from\" value but the calling contract\n        require(msg.sender == address(token), \"Only callable from controlled Token\");\n\n        // Check Compliance, unless receiving address is a contract\n        if (Address.isContract(_to) == false || compliance.isCompany(_to)) {\n            // Check if user _to is KYCed and not blacklisted\n            if (!compliance.checkUser(_to)) {\n                return false;\n            }\n\n            // Check if user _to is within limits\n            if (!compliance.checkUserLimit(_to, _amount, token.balanceOf(_to))) {\n                return false;\n            }\n\n            if (!compliance.hasAttribute(_to, \"ATTR_RECEIVE\")) {\n                return false;\n            }\n        }\n\n        // Check Compliance, unless sending address is a contract\n        if (Address.isContract(_from) == false || compliance.isCompany(_from)) {\n            // Check if user _from is KYCed and not blacklisted\n            if (!compliance.checkUser(_from)) {\n                return false;\n            }\n\n            // Check if user _from within limits\n            if (!compliance.checkUserLimit(_from, _amount, token.balanceOf(_from))) {\n                return false;\n            }\n\n            if (!compliance.hasAttribute(_from, \"ATTR_SEND\")) {\n                return false;\n            }\n        }\n\n        return true;\n    }\n\n    /**\n    * @notice Controller Hook called in controlled Token on every burn.\n    * @notice Does all required compliance checks and only allows the burn if user passes them all.\n    * @param _from Sender account address\n    */\n    function onBurn(address _from) public view returns (bool) {\n        // Only the Token itself can call this\n        require(msg.sender == address(token), \"Only callable from controlled Token\");\n\n        // Check Compliance first\n        // Exceptions for contracts, compliacne officers and registered companies.\n        if (Address.isContract(_from) == true) return true; \n       \n        if (Address.isContract(_from) == false || compliance.isCompany(_from) || compliance.isOfficer(_from) == false) {\n            if (!compliance.checkUser(_from)) {\n                return false;\n            }\n            if (!compliance.hasAttribute(_from, \"ATTR_SELL\")) {\n                return false;\n            }\n        }\n\n        return true;\n    }\n\n    /**\n    * @notice Mints new tokens for given account address\n    * @dev onlyAllowedExchanges - only open to white listed exchange accounts\n    * @param _receiver Recipient account address\n    * @param _amount Amount to mint\n    */\n    function mint(address _receiver, uint256 _amount) external onlyExchangesOrOfficers {\n        token.mint(_receiver, _amount);\n    }\n\n    /**\n    * @notice Burn tokens for given account address\n    * @dev onlyAllowedExchanges - only open to white listed exchange accounts\n    * @param _from Account address from which tokens are burnt\n    * @param _amount Amount to burn\n    */\n\n    function burn(address _from, uint256 _amount) external onlyExchangesOrOfficers {\n        token.burnFrom(_from, _amount);\n    }\n\n    /**\n    * @notice Enables or disables the token globally\n    * @dev onlyOwner - only open to element36 Account\n    * @param _transfersEnabled true to enable, false to disable\n    */\n    function enableTransfers(bool _transfersEnabled) external onlyOwner {\n        if (_transfersEnabled == true) {\n            token.unpause();\n        } else {\n            token.pause();\n        }\n    }\n\n    /**\n    * @notice Set a new Cap for the Token\n    * @dev onlyOwner - only open to element36 Account\n    * @param _cap New value for token cap\n    */\n    function updateCap(uint256 _cap) external onlyOwner {\n        token.updateCap(_cap);\n    }\n\n    /**\n    * @notice Get address of current compliance contract\n    * @dev onlyOwner - only open to element36 Account\n    */\n    function getComplianceContract() external view onlyOwner returns (address) {\n        return address(compliance);\n    }\n\n    /**\n    * @notice Update to a new compliance contract\n    * @dev onlyOwner - only open to element36 Account\n    * @param _newComplianceContract New Compliance contract address\n    */\n    function updateComplianceContract(address _newComplianceContract) external onlyOwner {\n        compliance = Cash36Compliance(_newComplianceContract);\n    }\n\n    /**\n    * @notice Get address of current exchanges contract\n    * @dev onlyOwner - only open to element36 Account\n    */\n    function getExchangesContract() external view onlyOwner returns (address) {\n        return address(exchanges);\n    }\n\n    /**\n    * @notice Update to a new exchanges contract\n    * @dev onlyOwner - only open to element36 Account\n    * @param _newExchangesContract New Exchange contracts address\n    */\n    function updateExchangesContract(address _newExchangesContract) external onlyOwner {\n        exchanges = Cash36Exchanges(_newExchangesContract);\n    }\n\n    /**\n    * @notice Change to a new controller address\n    * @dev onlyOwner - only open to element36 Account\n    * @param _newController New controller Address\n    */\n    function changeController(address _newController) external onlyOwner {\n        token.changeController(_newController);\n    }\n}",
  "sourcePath": "/home/w/workspace/contracts/contracts/Token36Controller.sol",
  "compiler": {
    "name": "solc",
    "version": "0.5.15+commit.6a57276f.Emscripten.clang"
  },
  "schemaVersion": "3.0.20",
  "updatedAt": "2020-01-17T08:40:04.887Z",
  "devdoc": {
    "author": "element36.io",
    "methods": {
      "burn(address,uint256)": {
        "details": "onlyAllowedExchanges - only open to white listed exchange accounts",
        "params": {
          "_amount": "Amount to burn",
          "_from": "Account address from which tokens are burnt"
        }
      },
      "changeController(address)": {
        "details": "onlyOwner - only open to element36 Account",
        "params": {
          "_newController": "New controller Address"
        }
      },
      "enableTransfers(bool)": {
        "details": "onlyOwner - only open to element36 Account",
        "params": {
          "_transfersEnabled": "true to enable, false to disable"
        }
      },
      "getComplianceContract()": {
        "details": "onlyOwner - only open to element36 Account"
      },
      "getExchangesContract()": {
        "details": "onlyOwner - only open to element36 Account"
      },
      "isOwner()": {
        "details": "Returns true if the caller is the current owner."
      },
      "mint(address,uint256)": {
        "details": "onlyAllowedExchanges - only open to white listed exchange accounts",
        "params": {
          "_amount": "Amount to mint",
          "_receiver": "Recipient account address"
        }
      },
      "onBurn(address)": {
        "params": {
          "_from": "Sender account address"
        }
      },
      "onTransfer(address,address,uint256)": {
        "params": {
          "_amount": "Amount",
          "_from": "Sender account address",
          "_to": "Recipient accounts address"
        }
      },
      "onTransfer(address,uint256)": {
        "params": {
          "_amount": "Amount",
          "_from": "Sender account address"
        }
      },
      "owner()": {
        "details": "Returns the address of the current owner."
      },
      "renounceOwnership()": {
        "details": "Leaves the contract without owner. It will not be possible to call `onlyOwner` functions anymore. Can only be called by the current owner.     * NOTE: Renouncing ownership will leave the contract without an owner, thereby removing any functionality that is only available to the owner."
      },
      "transferOwnership(address)": {
        "details": "Transfers ownership of the contract to a new account (`newOwner`). Can only be called by the current owner."
      },
      "updateCap(uint256)": {
        "details": "onlyOwner - only open to element36 Account",
        "params": {
          "_cap": "New value for token cap"
        }
      },
      "updateComplianceContract(address)": {
        "details": "onlyOwner - only open to element36 Account",
        "params": {
          "_newComplianceContract": "New Compliance contract address"
        }
      },
      "updateExchangesContract(address)": {
        "details": "onlyOwner - only open to element36 Account",
        "params": {
          "_newExchangesContract": "New Exchange contracts address"
        }
      }
    },
    "title": "Token Controller"
  },
  "userdoc": {
    "methods": {
      "burn(address,uint256)": {
        "notice": "Burn tokens for given account address"
      },
      "changeController(address)": {
        "notice": "Change to a new controller address"
      },
      "enableTransfers(bool)": {
        "notice": "Enables or disables the token globally"
      },
      "getComplianceContract()": {
        "notice": "Get address of current compliance contract"
      },
      "getExchangesContract()": {
        "notice": "Get address of current exchanges contract"
      },
      "mint(address,uint256)": {
        "notice": "Mints new tokens for given account address"
      },
      "onBurn(address)": {
        "notice": "Controller Hook called in controlled Token on every burn.Does all required compliance checks and only allows the burn if user passes them all."
      },
      "onTransfer(address,address,uint256)": {
        "notice": "Controller Hook called in controlled Token on every transfer.Does all required compliance checks and only allows the transfer if user passes them all."
      },
      "onTransfer(address,uint256)": {
        "notice": "Controller Hook called in Token on transfer. Has no _to because this fx is used in a wallet-free context Does all required compliance checks and only allows the transfer if user passes them all."
      },
      "updateCap(uint256)": {
        "notice": "Set a new Cap for the Token"
      },
      "updateComplianceContract(address)": {
        "notice": "Update to a new compliance contract"
      },
      "updateExchangesContract(address)": {
        "notice": "Update to a new exchanges contract"
      }
    }
  }
}