{
  "contractName": "Token36",
  "abi": [
    {
      "constant": true,
      "inputs": [],
      "name": "name",
      "outputs": [
        {
          "name": "",
          "type": "string"
        }
      ],
      "payable": false,
      "stateMutability": "view",
      "type": "function"
    },
    {
      "constant": true,
      "inputs": [],
      "name": "DECIMALS",
      "outputs": [
        {
          "name": "",
          "type": "uint8"
        }
      ],
      "payable": false,
      "stateMutability": "view",
      "type": "function"
    },
    {
      "constant": false,
      "inputs": [
        {
          "name": "_newController",
          "type": "address"
        }
      ],
      "name": "changeController",
      "outputs": [],
      "payable": false,
      "stateMutability": "nonpayable",
      "type": "function"
    },
    {
      "constant": false,
      "inputs": [
        {
          "name": "_value",
          "type": "uint256"
        }
      ],
      "name": "burn",
      "outputs": [],
      "payable": false,
      "stateMutability": "nonpayable",
      "type": "function"
    },
    {
      "constant": true,
      "inputs": [],
      "name": "getInitializationBlock",
      "outputs": [
        {
          "name": "",
          "type": "uint256"
        }
      ],
      "payable": false,
      "stateMutability": "view",
      "type": "function"
    },
    {
      "constant": true,
      "inputs": [],
      "name": "symbol",
      "outputs": [
        {
          "name": "",
          "type": "string"
        }
      ],
      "payable": false,
      "stateMutability": "view",
      "type": "function"
    },
    {
      "constant": true,
      "inputs": [],
      "name": "transfersEnabled",
      "outputs": [
        {
          "name": "",
          "type": "bool"
        }
      ],
      "payable": false,
      "stateMutability": "view",
      "type": "function"
    },
    {
      "constant": true,
      "inputs": [],
      "name": "controller",
      "outputs": [
        {
          "name": "",
          "type": "address"
        }
      ],
      "payable": false,
      "stateMutability": "view",
      "type": "function"
    },
    {
      "inputs": [
        {
          "name": "_name",
          "type": "string"
        },
        {
          "name": "_symbol",
          "type": "string"
        }
      ],
      "payable": false,
      "stateMutability": "nonpayable",
      "type": "constructor"
    },
    {
      "payable": true,
      "stateMutability": "payable",
      "type": "fallback"
    },
    {
      "anonymous": false,
      "inputs": [
        {
          "indexed": true,
          "name": "burner",
          "type": "address"
        },
        {
          "indexed": false,
          "name": "value",
          "type": "uint256"
        }
      ],
      "name": "Burn",
      "type": "event"
    },
    {
      "anonymous": false,
      "inputs": [
        {
          "indexed": true,
          "name": "owner",
          "type": "address"
        },
        {
          "indexed": true,
          "name": "spender",
          "type": "address"
        },
        {
          "indexed": false,
          "name": "value",
          "type": "uint256"
        }
      ],
      "name": "Approval",
      "type": "event"
    },
    {
      "anonymous": false,
      "inputs": [
        {
          "indexed": true,
          "name": "from",
          "type": "address"
        },
        {
          "indexed": true,
          "name": "to",
          "type": "address"
        },
        {
          "indexed": false,
          "name": "value",
          "type": "uint256"
        }
      ],
      "name": "Transfer",
      "type": "event"
    },
    {
      "constant": false,
      "inputs": [
        {
          "name": "_to",
          "type": "address"
        },
        {
          "name": "_amount",
          "type": "uint256"
        }
      ],
      "name": "transfer",
      "outputs": [
        {
          "name": "success",
          "type": "bool"
        }
      ],
      "payable": false,
      "stateMutability": "nonpayable",
      "type": "function"
    },
    {
      "constant": false,
      "inputs": [
        {
          "name": "_from",
          "type": "address"
        },
        {
          "name": "_to",
          "type": "address"
        },
        {
          "name": "_amount",
          "type": "uint256"
        }
      ],
      "name": "transferFrom",
      "outputs": [
        {
          "name": "success",
          "type": "bool"
        }
      ],
      "payable": false,
      "stateMutability": "nonpayable",
      "type": "function"
    },
    {
      "constant": true,
      "inputs": [
        {
          "name": "_owner",
          "type": "address"
        }
      ],
      "name": "balanceOf",
      "outputs": [
        {
          "name": "balance",
          "type": "uint256"
        }
      ],
      "payable": false,
      "stateMutability": "view",
      "type": "function"
    },
    {
      "constant": false,
      "inputs": [
        {
          "name": "_spender",
          "type": "address"
        },
        {
          "name": "_amount",
          "type": "uint256"
        }
      ],
      "name": "approve",
      "outputs": [
        {
          "name": "success",
          "type": "bool"
        }
      ],
      "payable": false,
      "stateMutability": "nonpayable",
      "type": "function"
    },
    {
      "constant": false,
      "inputs": [
        {
          "name": "_transfersEnabled",
          "type": "bool"
        }
      ],
      "name": "enableTransfers",
      "outputs": [],
      "payable": false,
      "stateMutability": "nonpayable",
      "type": "function"
    },
    {
      "constant": false,
      "inputs": [
        {
          "name": "_owner",
          "type": "address"
        },
        {
          "name": "_amount",
          "type": "uint256"
        }
      ],
      "name": "mintTokens",
      "outputs": [
        {
          "name": "",
          "type": "bool"
        }
      ],
      "payable": false,
      "stateMutability": "nonpayable",
      "type": "function"
    },
    {
      "constant": true,
      "inputs": [
        {
          "name": "_owner",
          "type": "address"
        },
        {
          "name": "_spender",
          "type": "address"
        }
      ],
      "name": "allowance",
      "outputs": [
        {
          "name": "remaining",
          "type": "uint256"
        }
      ],
      "payable": false,
      "stateMutability": "view",
      "type": "function"
    },
    {
      "constant": true,
      "inputs": [],
      "name": "totalSupply",
      "outputs": [
        {
          "name": "",
          "type": "uint256"
        }
      ],
      "payable": false,
      "stateMutability": "view",
      "type": "function"
    },
    {
      "constant": true,
      "inputs": [
        {
          "name": "_owner",
          "type": "address"
        },
        {
          "name": "_blockNumber",
          "type": "uint256"
        }
      ],
      "name": "balanceOfAt",
      "outputs": [
        {
          "name": "",
          "type": "uint256"
        }
      ],
      "payable": false,
      "stateMutability": "view",
      "type": "function"
    },
    {
      "constant": true,
      "inputs": [
        {
          "name": "_blockNumber",
          "type": "uint256"
        }
      ],
      "name": "totalSupplyAt",
      "outputs": [
        {
          "name": "",
          "type": "uint256"
        }
      ],
      "payable": false,
      "stateMutability": "view",
      "type": "function"
    }
  ],
  "bytecode": "0x60806040523480156200001157600080fd5b506040516200128338038062001283833981016040528051602082015160038054600160a060020a0319163317905590820191016200005864010000000062000099810204565b81516200006d906004906020850190620000c4565b50805162000083906005906020840190620000c4565b50506009805460ff191660011790555062000166565b60025415620000a757600080fd5b620000ba640100000000620000bf810204565b600255565b435b90565b828054600181600116156101000203166002900490600052602060002090601f016020900481019282601f106200010757805160ff191683800117855562000137565b8280016001018555821562000137579182015b82811115620001375782518255916020019190600101906200011a565b506200014592915062000149565b5090565b620000c191905b8082111562000145576000815560010162000150565b61110d80620001766000396000f3006080604052600436106100fb5763ffffffff7c010000000000000000000000000000000000000000000000000000000060003504166306fdde0381146101be578063095ea7b31461024857806318160ddd1461028057806323b872dd146102a75780632e0f2625146102d15780633cebb823146102fc57806342966c681461031d5780634ee2cd7e1461033557806370a08231146103595780638b3dd7491461037a57806395d89b411461038f578063981b24d0146103a4578063a9059cbb146103bc578063bef97c87146103e0578063dd62ed3e146103f5578063f0dda65c1461041c578063f41e60c514610440578063f77c47911461045a575b60035461011090600160a060020a031661048b565b151561011b57600080fd5b600354604080517ff48c30540000000000000000000000000000000000000000000000000000000081523360048201529051600160a060020a039092169163f48c3054913491602480830192602092919082900301818588803b15801561018157600080fd5b505af1158015610195573d6000803e3d6000fd5b50505050506040513d60208110156101ac57600080fd5b505115156001146101bc57600080fd5b005b3480156101ca57600080fd5b506101d36104b8565b6040805160208082528351818301528351919283929083019185019080838360005b8381101561020d5781810151838201526020016101f5565b50505050905090810190601f16801561023a5780820380516001836020036101000a031916815260200191505b509250505060405180910390f35b34801561025457600080fd5b5061026c600160a060020a0360043516602435610546565b604080519115158252519081900360200190f35b34801561028c57600080fd5b506102956106b6565b60408051918252519081900360200190f35b3480156102b357600080fd5b5061026c600160a060020a03600435811690602435166044356106c7565b3480156102dd57600080fd5b506102e66107ab565b6040805160ff9092168252519081900360200190f35b34801561030857600080fd5b506101bc600160a060020a03600435166107b0565b34801561032957600080fd5b506101bc6004356107f6565b34801561034157600080fd5b50610295600160a060020a0360043516602435610803565b34801561036557600080fd5b50610295600160a060020a0360043516610825565b34801561038657600080fd5b50610295610837565b34801561039b57600080fd5b506101d361083d565b3480156103b057600080fd5b50610295600435610898565b3480156103c857600080fd5b5061026c600160a060020a03600435166024356108a5565b3480156103ec57600080fd5b5061026c61090f565b34801561040157600080fd5b50610295600160a060020a0360043581169060243516610918565b34801561042857600080fd5b5061026c600160a060020a0360043516602435610943565b34801561044c57600080fd5b506101bc6004351515610a11565b34801561046657600080fd5b5061046f610a3b565b60408051600160a060020a039092168252519081900360200190f35b600080600160a060020a03831615156104a757600091506104b2565b823b90506000811191505b50919050565b6004805460408051602060026001851615610100026000190190941693909304601f8101849004840282018401909252818152929183018282801561053e5780601f106105135761010080835404028352916020019161053e565b820191906000526020600020905b81548152906001019060200180831161052157829003601f168201915b505050505081565b60095460009060ff1615156105a5576040805160e560020a62461bcd02815260206004820152601660248201527f7472616e7366657273206172652064697361626c656400000000000000000000604482015290519081900360640190fd5b8115806105d35750336000908152600760209081526040808320600160a060020a0387168452909152902054155b151561064f576040805160e560020a62461bcd02815260206004820152602660248201527f706c6561736520726573657420617070726f766520616d6f756e7420746f203060448201527f2066697273740000000000000000000000000000000000000000000000000000606482015290519081900360840190fd5b336000818152600760209081526040808320600160a060020a03881680855290835292819020869055805186815290519293927f8c5be1e5ebec7d5bd14f71427d1e84f3dd0314c0f7b2291e5b200ac8c7c3b925929181900390910190a350600192915050565b60006106c143610898565b90505b90565b60095460009060ff161515610726576040805160e560020a62461bcd02815260206004820152601660248201527f7472616e7366657273206172652064697361626c656400000000000000000000604482015290519081900360640190fd5b600354600160a060020a0316331461079657600160a060020a038416600090815260076020908152604080832033845290915290205482111561076b575060006107a4565b600160a060020a03841660009081526007602090815260408083203384529091529020805483900390555b6107a1848484610a4a565b90505b9392505050565b601281565b600354600160a060020a031633146107c757600080fd5b6003805473ffffffffffffffffffffffffffffffffffffffff1916600160a060020a0392909216919091179055565b6108003382610cea565b50565b600160a060020a03821660009081526006602052604081206107a49083610deb565b60006108318243610803565b92915050565b60025490565b6005805460408051602060026001851615610100026000190190941693909304601f8101849004840282018401909252818152929183018282801561053e5780601f106105135761010080835404028352916020019161053e565b6000610831600883610deb565b60095460009060ff161515610904576040805160e560020a62461bcd02815260206004820152601660248201527f7472616e7366657273206172652064697361626c656400000000000000000000604482015290519081900360640190fd5b6107a4338484610a4a565b60095460ff1681565b600160a060020a03918216600090815260076020908152604080832093909416825291909152205490565b60035460009081908190600160a060020a0316331461096157600080fd5b6109696106b6565b915083820182111561097a57600080fd5b61098385610825565b905083810181111561099457600080fd5b6109a16008858401610f77565b600160a060020a03851660009081526006602052604090206109c590828601610f77565b604080518581529051600160a060020a038716916000917fddf252ad1be2c89b69c2b068fc378daa952ba7f163c4a11628f55a4df523b3ef9181900360200190a3506001949350505050565b600354600160a060020a03163314610a2857600080fd5b6009805460ff1916911515919091179055565b600354600160a060020a031681565b60008080831515610a5e5760019250610ce1565b600160a060020a03851615801590610a7f5750600160a060020a0385163014155b1515610ad5576040805160e560020a62461bcd02815260206004820152601760248201527f5f746f2061646472657373206e6f7420616c6c6f776564000000000000000000604482015290519081900360640190fd5b610adf8643610803565b915083821015610af25760009250610ce1565b600354610b0790600160a060020a031661048b565b15610c2e57600354604080517f4a393149000000000000000000000000000000000000000000000000000000008152600160a060020a03898116600483015288811660248301526044820188905291519190921691634a3931499160648083019260209291908290030181600087803b158015610b8357600080fd5b505af1158015610b97573d6000803e3d6000fd5b505050506040513d6020811015610bad57600080fd5b50511515600114610c2e576040805160e560020a62461bcd02815260206004820152602760248201527f546f6b656e3336436f6e74726f6c6c65722072656a656374656420746865207460448201527f72616e7366657200000000000000000000000000000000000000000000000000606482015290519081900360840190fd5b600160a060020a0386166000908152600660205260409020610c5290858403610f77565b610c5c8543610803565b9050838101811115610c6d57600080fd5b600160a060020a0385166000908152600660205260409020610c9190828601610f77565b84600160a060020a031686600160a060020a03167fddf252ad1be2c89b69c2b068fc378daa952ba7f163c4a11628f55a4df523b3ef866040518082815260200191505060405180910390a3600192505b50509392505050565b600160a060020a038216600090815260208190526040902054811115610d0f57600080fd5b600160a060020a038216600090815260208190526040902054610d38908263ffffffff61108816565b600160a060020a038316600090815260208190526040902055600154610d64908263ffffffff61108816565b600155604080518281529051600160a060020a038416917fcc16f5dbb4873280815c1ee09dbd06736cffcc184412cf7a71a0fdb75d397ca5919081900360200190a2604080518281529051600091600160a060020a038516917fddf252ad1be2c89b69c2b068fc378daa952ba7f163c4a11628f55a4df523b3ef9181900360200190a35050565b600080600080858054905060001415610e075760009350610f6e565b855486906000198101908110610e1957fe5b6000918252602090912001546fffffffffffffffffffffffffffffffff168510610e8857855486906000198101908110610e4f57fe5b60009182526020909120015470010000000000000000000000000000000090046fffffffffffffffffffffffffffffffff169350610f6e565b856000815481101515610e9757fe5b6000918252602090912001546fffffffffffffffffffffffffffffffff16851015610ec55760009350610f6e565b8554600093506000190191505b82821115610f2b576002600183850101049050848682815481101515610ef457fe5b6000918252602090912001546fffffffffffffffffffffffffffffffff1611610f1f57809250610f26565b6001810391505b610ed2565b8583815481101515610f3957fe5b60009182526020909120015470010000000000000000000000000000000090046fffffffffffffffffffffffffffffffff1693505b50505092915050565b815460009081901580610fb957508354439085906000198101908110610f9957fe5b6000918252602090912001546fffffffffffffffffffffffffffffffff16105b156110345783548490610fcf826001830161109a565b81548110610fd957fe5b600091825260209091200180546fffffffffffffffffffffffffffffffff858116700100000000000000000000000000000000024382166fffffffffffffffffffffffffffffffff1990931692909217161781559150611082565b83548490600019810190811061104657fe5b600091825260209091200180546fffffffffffffffffffffffffffffffff80861670010000000000000000000000000000000002911617815590505b50505050565b60008282111561109457fe5b50900390565b8154818355818111156110be576000838152602090206110be9181019083016110c3565b505050565b6106c491905b808211156110dd57600081556001016110c9565b50905600a165627a7a72305820db2887c330557c5b7f23848592021b1edecacee25a92d430cabe3c0260419fda0029",
  "source": "pragma solidity ^0.4.24;\n\nimport \"openzeppelin-solidity/contracts/token/ERC20/ERC20.sol\";\nimport \"openzeppelin-solidity/contracts/token/ERC20/BurnableToken.sol\";\nimport \"./Initializable.sol\";\nimport \"./Controlled.sol\";\nimport \"./IToken36Controller.sol\";\n\n\n/// @title Token36 Base Contract\n/// @author element36.io\ncontract Token36 is ERC20, BurnableToken, Initializable, Controlled {\n\n    string public name;\n    string public symbol;\n    uint8 public constant DECIMALS = 18;\n\n    // Stores the balances in history\n    struct Checkpoint {\n        uint128 fromBlock;\n        uint128 value;\n    }\n\n    // Tracks the balances of token holders incl. history of it\n    mapping (address => Checkpoint[]) balances;\n\n    // Tracks any extra transfer rights as in all ERC20 tokens\n    mapping (address => mapping (address => uint256)) allowed;\n\n    // Tracks the history of the totalSupply of the token\n    Checkpoint[] totalSupplyHistory;\n\n    // Flag to determine if the token is transferable or not.\n    bool public transfersEnabled;\n\n    // Constructor\n    constructor(string _name, string _symbol) public {\n        initialized();\n        name = _name;\n        symbol = _symbol;\n        transfersEnabled = true;\n    }\n\n    /**\n     * @notice Send _amount tokens to _to from msg.sender\n     * @param _to The address of the recipient\n     * @param _amount The amount of tokens to be transferred\n     * @return {\n            bool: Whether the transfer was successful or not\n        }\n     */\n    function transfer(address _to, uint256 _amount) public returns (bool success) {\n        require(transfersEnabled, \"transfers are disabled\");\n        return doTransfer(msg.sender, _to, _amount);\n    }\n\n    /**\n     * @notice Send _amount tokens to _to from _from on the condition it is approved by _from\n     * @param _from The address holding the tokens being transferred\n     * @param _to The address of the recipient\n     * @param _amount The amount of tokens to be transferred\n     * @return {\n            bool: True if the transfer was successful\n        }\n     */\n    function transferFrom(address _from, address _to, uint256 _amount) public returns (bool success) {\n        require(transfersEnabled, \"transfers are disabled\");\n\n        // The controller of this contract can move tokens around at will\n        if (msg.sender != controller) {\n            // The standard ERC 20 transferFrom functionality\n            if (allowed[_from][msg.sender] < _amount) {\n                return false;\n            }\n\n            allowed[_from][msg.sender] -= _amount;\n        }\n        return doTransfer(_from, _to, _amount);\n    }\n\n    /**\n     * @dev This is the actual transfer function in the token contract, it can only be called from this contract.\n     * @param _from The address holding the tokens being transferred\n     * @param _to The address of the recipient\n     * @param _amount The amount of tokens to be transferred\n     * @return True if the transfer was successful\n     */\n    function doTransfer(address _from, address _to, uint _amount) internal returns(bool) {\n        if (_amount == 0) {\n            return true;\n        }\n\n        // Do not allow transfer to 0x0 or the token contract itself\n        require((_to != 0) && (_to != address(this)), \"_to address not allowed\");\n\n        // If the amount being transfered is more than the balance of the\n        // account the transfer returns false\n        uint previousBalanceFrom = balanceOfAt(_from, block.number);\n        if (previousBalanceFrom < _amount) {\n            return false;\n        }\n\n        // Alerts the token controller of the transfer\n        if (isContract(controller)) {\n            require(IToken36Controller(controller).onTransfer(_from, _to, _amount) == true,\n                \"Token36Controller rejected the transfer\");\n        }\n\n        updateValueAtNow(balances[_from], previousBalanceFrom - _amount);\n        uint previousBalanceTo = balanceOfAt(_to, block.number);\n        require(previousBalanceTo + _amount >= previousBalanceTo); // Check for overflow\n        updateValueAtNow(balances[_to], previousBalanceTo + _amount);\n\n        emit Transfer(_from, _to, _amount);\n        return true;\n    }\n\n    /**\n     * @notice Returns the current balance of given address\n     * @param _owner The address that's balance is being requested\n     * @return The balance of `_owner` at the current block\n     */\n    function balanceOf(address _owner) public view returns (uint256 balance) {\n        return balanceOfAt(_owner, block.number);\n    }\n\n    /**\n     * @notice msg.sender approves _spender to spend _amount tokens on its behalf\n     * @param _spender The address of the account able to transfer the tokens\n     * @param _amount The amount of tokens to be approved for transfer\n     * @return True if the approval was successful\n     */\n    function approve(address _spender, uint256 _amount) public returns (bool success) {\n        require(transfersEnabled, \"transfers are disabled\");\n\n        // To change the approve amount you first have to reduce the addresses`\n        //  allowance to zero by calling `approve(_spender,0)` if it is not\n        //  already 0 to mitigate the race condition described here:\n        //  https://github.com/ethereum/EIPs/issues/20#issuecomment-263524729\n        require((_amount == 0) || (allowed[msg.sender][_spender] == 0), \"please reset approve amount to 0 first\");\n\n        allowed[msg.sender][_spender] = _amount;\n\n        emit Approval(msg.sender, _spender, _amount);\n        return true;\n    }\n\n    /// @notice Enables token holders to transfer their tokens freely if true\n    /// @param _transfersEnabled True if transfers are allowed in the clone\n    function enableTransfers(bool _transfersEnabled) onlyController public {\n        transfersEnabled = _transfersEnabled;\n    }\n\n    /// @notice Generates `_amount` tokens that are assigned to `_owner`\n    /// @param _owner The address that will be assigned the new tokens\n    /// @param _amount The quantity of tokens generated\n    /// @return True if the tokens are generated correctly\n    function mintTokens(address _owner, uint _amount) onlyController public returns (bool) {\n        uint curTotalSupply = totalSupply();\n        require(curTotalSupply + _amount >= curTotalSupply); // Check for overflow\n        uint previousBalanceTo = balanceOf(_owner);\n        require(previousBalanceTo + _amount >= previousBalanceTo); // Check for overflow\n        updateValueAtNow(totalSupplyHistory, curTotalSupply + _amount);\n        updateValueAtNow(balances[_owner], previousBalanceTo + _amount);\n        emit Transfer(0, _owner, _amount);\n        return true;\n    }\n\n    /**\n     * @notice This function makes it easy to read the `allowed[]` map\n     * @param _owner The address of the account that owns the token\n     * @param _spender The address of the account able to transfer the tokens\n     * @return Amount of remaining tokens of _owner that _spender is allowed to spend\n     */\n    function allowance(address _owner, address _spender) public view returns (uint256 remaining) {\n        return allowed[_owner][_spender];\n    }\n\n    /// @dev This function makes it easy to get the total number of tokens\n    /// @return The total number of tokens\n    function totalSupply() public view returns (uint) {\n        return totalSupplyAt(block.number);\n    }\n\n    /// @dev Queries the balance of `_owner` at a specific `_blockNumber`\n    /// @param _owner The address from which the balance will be retrieved\n    /// @param _blockNumber The block number when the balance is queried\n    /// @return The balance at `_blockNumber`\n    function balanceOfAt(address _owner, uint _blockNumber) public view returns (uint) {\n        return getValueAt(balances[_owner], _blockNumber);\n    }\n\n    /// @notice Total amount of tokens at a specific `_blockNumber`.\n    /// @param _blockNumber The block number when the totalSupply is queried\n    /// @return The total amount of tokens at `_blockNumber`\n    function totalSupplyAt(uint _blockNumber) public view returns(uint) {\n        return getValueAt(totalSupplyHistory, _blockNumber);\n    }\n\n    /// @dev `getValueAt` retrieves the number of tokens at a given block number\n    /// @param checkpoints The history of values being queried\n    /// @param _block The block number to retrieve the value at\n    /// @return The number of tokens being queried\n    function getValueAt(Checkpoint[] storage checkpoints, uint _block) view internal returns (uint) {\n        if (checkpoints.length == 0) {\n            return 0;\n        }\n\n        // Check for block number outside boundaries\n        if (_block >= checkpoints[checkpoints.length-1].fromBlock) {\n            return checkpoints[checkpoints.length-1].value;\n        }\n        if (_block < checkpoints[0].fromBlock) {\n            return 0;\n        }\n\n        // Binary search of the value in the array\n        uint min = 0;\n        uint max = checkpoints.length-1;\n        while (max > min) {\n            uint mid = (max + min + 1) / 2;\n            if (checkpoints[mid].fromBlock <= _block) {\n                min = mid;\n            } else {\n                max = mid-1;\n            }\n        }\n        return checkpoints[min].value;\n    }\n\n    /// @dev `updateValueAtNow` used to update the `balances` map and the\n    ///  `totalSupplyHistory`\n    /// @param checkpoints The history of data being updated\n    /// @param _value The new number of tokens\n    function updateValueAtNow(Checkpoint[] storage checkpoints, uint _value) internal {\n        if ((checkpoints.length == 0) || (checkpoints[checkpoints.length - 1].fromBlock < block.number)) {\n            Checkpoint storage newCheckPoint = checkpoints[checkpoints.length++];\n            newCheckPoint.fromBlock = uint128(block.number);\n            newCheckPoint.value = uint128(_value);\n        } else {\n            Checkpoint storage oldCheckPoint = checkpoints[checkpoints.length - 1];\n            oldCheckPoint.value = uint128(_value);\n        }\n    }\n\n    /// @dev Internal function to determine if an address is a contract\n    /// @param _addr The address being queried\n    /// @return True if `_addr` is a contract\n    function isContract(address _addr) internal view returns(bool) {\n        uint size;\n        if (_addr == 0)\n            return false;\n\n        assembly {\n            size := extcodesize(_addr)\n        }\n\n        return size > 0;\n    }\n\n    /// @dev Helper function to return a min betwen the two uints\n    function min(uint a, uint b) internal pure returns (uint) {\n        return a < b ? a : b;\n    }\n\n    /// @notice The fallback function: If the contract's controller has not been\n    ///  set to 0, then the `proxyPayment` method is called which relays the\n    ///  ether and creates tokens as described in the token controller contract\n    function () payable public {\n        require(isContract(controller));\n        require(IToken36Controller(controller).proxyPayment.value(msg.value)(msg.sender) == true);\n    }\n}\n",
  "sourcePath": "/Users/bum/element36/dev/cash36/contracts/contracts/Token36.sol",
  "compiler": {
    "name": "solc",
    "version": "0.4.24+commit.e67f0147.Emscripten.clang"
  },
  "schemaVersion": "2.0.1",
  "updatedAt": "2018-06-29T09:39:29.513Z"
}