{
  "contractName": "Token36Controller",
  "abi": [
    {
      "constant": false,
      "inputs": [],
      "name": "renounceOwnership",
      "outputs": [],
      "payable": false,
      "stateMutability": "nonpayable",
      "type": "function"
    },
    {
      "constant": true,
      "inputs": [],
      "name": "owner",
      "outputs": [
        {
          "name": "",
          "type": "address"
        }
      ],
      "payable": false,
      "stateMutability": "view",
      "type": "function"
    },
    {
      "constant": false,
      "inputs": [
        {
          "name": "_newOwner",
          "type": "address"
        }
      ],
      "name": "transferOwnership",
      "outputs": [],
      "payable": false,
      "stateMutability": "nonpayable",
      "type": "function"
    },
    {
      "anonymous": false,
      "inputs": [
        {
          "indexed": true,
          "name": "previousOwner",
          "type": "address"
        }
      ],
      "name": "OwnershipRenounced",
      "type": "event"
    },
    {
      "anonymous": false,
      "inputs": [
        {
          "indexed": true,
          "name": "previousOwner",
          "type": "address"
        },
        {
          "indexed": true,
          "name": "newOwner",
          "type": "address"
        }
      ],
      "name": "OwnershipTransferred",
      "type": "event"
    },
    {
      "constant": true,
      "inputs": [
        {
          "name": "_from",
          "type": "address"
        },
        {
          "name": "_to",
          "type": "address"
        },
        {
          "name": "_amount",
          "type": "uint256"
        }
      ],
      "name": "onTransfer",
      "outputs": [
        {
          "name": "",
          "type": "bool"
        }
      ],
      "payable": false,
      "stateMutability": "view",
      "type": "function"
    },
    {
      "constant": false,
      "inputs": [
        {
          "name": "_receiver",
          "type": "address"
        },
        {
          "name": "_amount",
          "type": "uint256"
        }
      ],
      "name": "mint",
      "outputs": [],
      "payable": false,
      "stateMutability": "nonpayable",
      "type": "function"
    },
    {
      "constant": true,
      "inputs": [],
      "name": "getMaxAccountTokens",
      "outputs": [
        {
          "name": "",
          "type": "uint256"
        }
      ],
      "payable": false,
      "stateMutability": "view",
      "type": "function"
    },
    {
      "constant": false,
      "inputs": [
        {
          "name": "_maxAccountTokens",
          "type": "uint256"
        }
      ],
      "name": "setMaxAccountTokens",
      "outputs": [],
      "payable": false,
      "stateMutability": "nonpayable",
      "type": "function"
    },
    {
      "constant": true,
      "inputs": [],
      "name": "getComplianceContract",
      "outputs": [
        {
          "name": "",
          "type": "address"
        }
      ],
      "payable": false,
      "stateMutability": "view",
      "type": "function"
    },
    {
      "constant": false,
      "inputs": [
        {
          "name": "_newComplianceContract",
          "type": "address"
        }
      ],
      "name": "updateComplianceContract",
      "outputs": [],
      "payable": false,
      "stateMutability": "nonpayable",
      "type": "function"
    },
    {
      "constant": false,
      "inputs": [
        {
          "name": "_transfersEnabled",
          "type": "bool"
        }
      ],
      "name": "enableTransfers",
      "outputs": [],
      "payable": false,
      "stateMutability": "nonpayable",
      "type": "function"
    },
    {
      "constant": false,
      "inputs": [
        {
          "name": "_newController",
          "type": "address"
        }
      ],
      "name": "changeController",
      "outputs": [],
      "payable": false,
      "stateMutability": "nonpayable",
      "type": "function"
    }
  ],
  "bytecode": "0x608060405260001960035560008054600160a060020a03191633179055610c0a8061002b6000396000f3006080604052600436106100955763ffffffff60e060020a6000350416633cebb823811461009a57806340c10f19146100bd5780634a393149146100e1578063715018a61461011f5780638da5cb5b146101345780639b1649e614610165578063a3e1f42e14610186578063e090424c146101ad578063f2fde38b146101c2578063f41e60c5146101e3578063fbb64114146101fd575b600080fd5b3480156100a657600080fd5b506100bb600160a060020a0360043516610215565b005b3480156100c957600080fd5b506100bb600160a060020a03600435166024356102ae565b3480156100ed57600080fd5b5061010b600160a060020a03600435811690602435166044356104b8565b604080519115158252519081900360200190f35b34801561012b57600080fd5b506100bb6108a8565b34801561014057600080fd5b50610149610914565b60408051600160a060020a039092168252519081900360200190f35b34801561017157600080fd5b506100bb600160a060020a0360043516610923565b34801561019257600080fd5b5061019b610969565b60408051918252519081900360200190f35b3480156101b957600080fd5b50610149610988565b3480156101ce57600080fd5b506100bb600160a060020a03600435166109b0565b3480156101ef57600080fd5b506100bb60043515156109d3565b34801561020957600080fd5b506100bb600435610a51565b600054600160a060020a0316331461022c57600080fd5b600154604080517f3cebb823000000000000000000000000000000000000000000000000000000008152600160a060020a03848116600483015291519190921691633cebb82391602480830192600092919082900301818387803b15801561029357600080fd5b505af11580156102a7573d6000803e3d6000fd5b5050505050565b600254600154604080517fea13d8a1000000000000000000000000000000000000000000000000000000008152336004820152600160a060020a0392831660248201529051919092169163ea13d8a19160448083019260209291908290030181600087803b15801561031f57600080fd5b505af1158015610333573d6000803e3d6000fd5b505050506040513d602081101561034957600080fd5b5051151561035657600080fd5b61035f82610a6d565b15156104195761036f8282610a9a565b151561037a57600080fd5b600254604080517f1e9d48cf000000000000000000000000000000000000000000000000000000008152600160a060020a03858116600483015291519190921691631e9d48cf9160248083019260209291908290030181600087803b1580156103e257600080fd5b505af11580156103f6573d6000803e3d6000fd5b505050506040513d602081101561040c57600080fd5b5051151561041957600080fd5b600154604080517ff0dda65c000000000000000000000000000000000000000000000000000000008152600160a060020a038581166004830152602482018590529151919092169163f0dda65c9160448083019260209291908290030181600087803b15801561048857600080fd5b505af115801561049c573d6000803e3d6000fd5b505050506040513d60208110156104b257600080fd5b50505050565b600154600090600160a060020a031633146104d257600080fd5b6104db83610a6d565b151561089d576104eb8383610a9a565b15156104f9575060006108a1565b600254604080517f1e9d48cf000000000000000000000000000000000000000000000000000000008152600160a060020a03868116600483015291519190921691631e9d48cf9160248083019260209291908290030181600087803b15801561056157600080fd5b505af1158015610575573d6000803e3d6000fd5b505050506040513d602081101561058b57600080fd5b5051151561059b575060006108a1565b600254600154604080517f70a08231000000000000000000000000000000000000000000000000000000008152600160a060020a038781166004830152915193821693636b618ff993889388939116916370a08231916024808201926020929091908290030181600087803b15801561061357600080fd5b505af1158015610627573d6000803e3d6000fd5b505050506040513d602081101561063d57600080fd5b50516040805160e060020a63ffffffff8716028152600160a060020a039094166004850152602484019290925260448301525160648083019260209291908290030181600087803b15801561069157600080fd5b505af11580156106a5573d6000803e3d6000fd5b505050506040513d60208110156106bb57600080fd5b505115156106cb575060006108a1565b600254604080517f1e9d48cf000000000000000000000000000000000000000000000000000000008152600160a060020a03878116600483015291519190921691631e9d48cf9160248083019260209291908290030181600087803b15801561073357600080fd5b505af1158015610747573d6000803e3d6000fd5b505050506040513d602081101561075d57600080fd5b5051151561076d575060006108a1565b600254600154604080517f70a08231000000000000000000000000000000000000000000000000000000008152600160a060020a038881166004830152915193821693636b618ff993899388939116916370a08231916024808201926020929091908290030181600087803b1580156107e557600080fd5b505af11580156107f9573d6000803e3d6000fd5b505050506040513d602081101561080f57600080fd5b50516040805160e060020a63ffffffff8716028152600160a060020a039094166004850152602484019290925260448301525160648083019260209291908290030181600087803b15801561086357600080fd5b505af1158015610877573d6000803e3d6000fd5b505050506040513d602081101561088d57600080fd5b5051151561089d575060006108a1565b5060015b9392505050565b600054600160a060020a031633146108bf57600080fd5b60008054604051600160a060020a03909116917ff8df31144d9c2f0f6b59d69b8b98abd5459d07f2742c4df920b25aae33c6482091a26000805473ffffffffffffffffffffffffffffffffffffffff19169055565b600054600160a060020a031681565b600054600160a060020a0316331461093a57600080fd5b6002805473ffffffffffffffffffffffffffffffffffffffff1916600160a060020a0392909216919091179055565b60008054600160a060020a0316331461098157600080fd5b5060035490565b60008054600160a060020a031633146109a057600080fd5b50600254600160a060020a031690565b600054600160a060020a031633146109c757600080fd5b6109d081610b4e565b50565b600054600160a060020a031633146109ea57600080fd5b600154604080517ff41e60c500000000000000000000000000000000000000000000000000000000815283151560048201529051600160a060020a039092169163f41e60c59160248082019260009290919082900301818387803b15801561029357600080fd5b600054600160a060020a03163314610a6857600080fd5b600355565b600080600160a060020a0383161515610a895760009150610a94565b823b90506000811191505b50919050565b600354600154604080517f70a08231000000000000000000000000000000000000000000000000000000008152600160a060020a038681166004830152915160009493610b459387939116916370a082319160248082019260209290919082900301818a87803b158015610b0d57600080fd5b505af1158015610b21573d6000803e3d6000fd5b505050506040513d6020811015610b3757600080fd5b50519063ffffffff610bcb16565b11159392505050565b600160a060020a0381161515610b6357600080fd5b60008054604051600160a060020a03808516939216917f8be0079c531659141344cd1fd0a4f28419497f9722a3daafe3b4186f6b6457e091a36000805473ffffffffffffffffffffffffffffffffffffffff1916600160a060020a0392909216919091179055565b81810182811015610bd857fe5b929150505600a165627a7a723058207fa9a9cf02cd06a9d7f822a4b9ce8c17420f119904b41713529cac3145b2e0190029",
  "source": "pragma solidity ^0.4.24;\n\nimport \"openzeppelin-solidity/contracts/ownership/Ownable.sol\";\nimport \"openzeppelin-solidity/contracts/math/SafeMath.sol\";\nimport \"./IToken36Controller.sol\";\nimport \"./Token36.sol\";\nimport \"./Cash36Compliance.sol\";\n\n\n/// @title Token Controller\n/// @author element36.io\ncontract Token36Controller is IToken36Controller, Ownable {\n    using SafeMath for uint256;\n\n    // Token controlled by this controller\n    Token36 internal token;\n\n    // Compliance contract\n    Cash36Compliance internal compliance;\n\n    // Max. Tokens an account can hold\n    uint256 internal maxAccountTokens = uint256(-1);\n\n    modifier onlyAllowedExchanges {\n        require(compliance.isAllowedExchange(msg.sender, address(token)));\n        _;\n    }\n\n    function onTransfer(address _from, address _to, uint _amount) public view returns (bool) {\n        require(msg.sender == address(token));\n\n        // Check Compliance, unless receiving address is a contract\n        if (isContract(_to) == false) {\n            // Check if max balance is reached\n            if (!isBalanceIncreaseAllowed(_to, _amount)) {\n                return false;\n            }\n\n            // Check if user _to is KYCed\n            if (!compliance.checkUser(_to)) {\n                return false;\n            }\n\n            // Check if user is within limits\n            if (!compliance.checkUserLimit(_to, _amount, token.balanceOf(_to))) {\n                return false;\n            }\n\n            // Check if user _from is KYCed\n            if (!compliance.checkUser(_from)) {\n                return false;\n            }\n\n            // Check if user _from within limits\n            if (!compliance.checkUserLimit(_from, _amount, token.balanceOf(_from))) {\n                return false;\n            }\n        }\n\n        return true;\n    }\n\n    function mint(address _receiver, uint256 _amount) external onlyAllowedExchanges {\n        // Check Compliance first\n        if (isContract(_receiver) == false) {\n            require(isBalanceIncreaseAllowed(_receiver, _amount));\n            require(compliance.checkUser(_receiver));\n        }\n\n        token.mintTokens(_receiver, _amount);\n    }\n\n    function getMaxAccountTokens() external view onlyOwner returns (uint256) {\n        return maxAccountTokens;\n    }\n\n    function setMaxAccountTokens(uint256 _maxAccountTokens) external onlyOwner {\n        maxAccountTokens = uint256(_maxAccountTokens);\n    }\n\n    function getComplianceContract() external view onlyOwner returns (address) {\n        return compliance;\n    }\n\n    function updateComplianceContract(address _newComplianceContract) external onlyOwner {\n        compliance = Cash36Compliance(_newComplianceContract);\n    }\n\n    function enableTransfers(bool _transfersEnabled) external onlyOwner {\n        token.enableTransfers(_transfersEnabled);\n    }\n\n    function changeController(address _newController) external onlyOwner {\n        token.changeController(_newController);\n    }\n\n    /// INTERNAL\n\n    function isBalanceIncreaseAllowed(address _receiver, uint _amount) internal view returns (bool) {\n        return token.balanceOf(_receiver).add(_amount) <= maxAccountTokens;\n    }\n\n    /**\n      @notice Checks if a given address is a contract or EOA\n      @param _address Address to check\n    */\n    function isContract(address _address) view internal returns(bool) {\n        uint size;\n        if (_address == 0)\n            return false;\n\n        assembly {\n            size := extcodesize(_address)\n        }\n\n        return size > 0;\n    }\n}",
  "sourcePath": "/Users/bum/element36/dev/cash36/contracts/contracts/Token36Controller.sol",
  "compiler": {
    "name": "solc",
    "version": "0.4.24+commit.e67f0147.Emscripten.clang"
  },
  "schemaVersion": "2.0.1",
  "updatedAt": "2018-09-04T09:13:20.220Z"
}