{
  "contractName": "Token36",
  "abi": [
    {
      "constant": true,
      "inputs": [],
      "name": "name",
      "outputs": [
        {
          "name": "",
          "type": "string"
        }
      ],
      "payable": false,
      "stateMutability": "view",
      "type": "function"
    },
    {
      "constant": true,
      "inputs": [],
      "name": "DECIMALS",
      "outputs": [
        {
          "name": "",
          "type": "uint8"
        }
      ],
      "payable": false,
      "stateMutability": "view",
      "type": "function"
    },
    {
      "constant": false,
      "inputs": [
        {
          "name": "_newController",
          "type": "address"
        }
      ],
      "name": "changeController",
      "outputs": [],
      "payable": false,
      "stateMutability": "nonpayable",
      "type": "function"
    },
    {
      "constant": false,
      "inputs": [
        {
          "name": "_value",
          "type": "uint256"
        }
      ],
      "name": "calcFee",
      "outputs": [
        {
          "name": "",
          "type": "uint256"
        }
      ],
      "payable": false,
      "stateMutability": "nonpayable",
      "type": "function"
    },
    {
      "constant": true,
      "inputs": [],
      "name": "getInitializationBlock",
      "outputs": [
        {
          "name": "",
          "type": "uint256"
        }
      ],
      "payable": false,
      "stateMutability": "view",
      "type": "function"
    },
    {
      "constant": false,
      "inputs": [
        {
          "name": "_newAddress",
          "type": "address"
        }
      ],
      "name": "changeFeeCollector",
      "outputs": [],
      "payable": false,
      "stateMutability": "nonpayable",
      "type": "function"
    },
    {
      "constant": true,
      "inputs": [],
      "name": "symbol",
      "outputs": [
        {
          "name": "",
          "type": "string"
        }
      ],
      "payable": false,
      "stateMutability": "view",
      "type": "function"
    },
    {
      "constant": true,
      "inputs": [],
      "name": "transfersEnabled",
      "outputs": [
        {
          "name": "",
          "type": "bool"
        }
      ],
      "payable": false,
      "stateMutability": "view",
      "type": "function"
    },
    {
      "constant": true,
      "inputs": [],
      "name": "feeCollector",
      "outputs": [
        {
          "name": "",
          "type": "address"
        }
      ],
      "payable": false,
      "stateMutability": "view",
      "type": "function"
    },
    {
      "constant": false,
      "inputs": [
        {
          "name": "_newFeeNominator",
          "type": "uint256"
        },
        {
          "name": "_newFeeDenominator",
          "type": "uint256"
        }
      ],
      "name": "changeFee",
      "outputs": [],
      "payable": false,
      "stateMutability": "nonpayable",
      "type": "function"
    },
    {
      "constant": true,
      "inputs": [],
      "name": "controller",
      "outputs": [
        {
          "name": "",
          "type": "address"
        }
      ],
      "payable": false,
      "stateMutability": "view",
      "type": "function"
    },
    {
      "inputs": [
        {
          "name": "_name",
          "type": "string"
        },
        {
          "name": "_symbol",
          "type": "string"
        }
      ],
      "payable": false,
      "stateMutability": "nonpayable",
      "type": "constructor"
    },
    {
      "payable": true,
      "stateMutability": "payable",
      "type": "fallback"
    },
    {
      "anonymous": false,
      "inputs": [
        {
          "indexed": true,
          "name": "burner",
          "type": "address"
        },
        {
          "indexed": false,
          "name": "value",
          "type": "uint256"
        }
      ],
      "name": "Burn",
      "type": "event"
    },
    {
      "anonymous": false,
      "inputs": [
        {
          "indexed": true,
          "name": "owner",
          "type": "address"
        },
        {
          "indexed": true,
          "name": "spender",
          "type": "address"
        },
        {
          "indexed": false,
          "name": "value",
          "type": "uint256"
        }
      ],
      "name": "Approval",
      "type": "event"
    },
    {
      "anonymous": false,
      "inputs": [
        {
          "indexed": true,
          "name": "from",
          "type": "address"
        },
        {
          "indexed": true,
          "name": "to",
          "type": "address"
        },
        {
          "indexed": false,
          "name": "value",
          "type": "uint256"
        }
      ],
      "name": "Transfer",
      "type": "event"
    },
    {
      "constant": false,
      "inputs": [
        {
          "name": "_to",
          "type": "address"
        },
        {
          "name": "_amount",
          "type": "uint256"
        }
      ],
      "name": "transfer",
      "outputs": [
        {
          "name": "success",
          "type": "bool"
        }
      ],
      "payable": false,
      "stateMutability": "nonpayable",
      "type": "function"
    },
    {
      "constant": false,
      "inputs": [
        {
          "name": "_from",
          "type": "address"
        },
        {
          "name": "_to",
          "type": "address"
        },
        {
          "name": "_amount",
          "type": "uint256"
        }
      ],
      "name": "transferFrom",
      "outputs": [
        {
          "name": "success",
          "type": "bool"
        }
      ],
      "payable": false,
      "stateMutability": "nonpayable",
      "type": "function"
    },
    {
      "constant": true,
      "inputs": [
        {
          "name": "_owner",
          "type": "address"
        }
      ],
      "name": "balanceOf",
      "outputs": [
        {
          "name": "balance",
          "type": "uint256"
        }
      ],
      "payable": false,
      "stateMutability": "view",
      "type": "function"
    },
    {
      "constant": false,
      "inputs": [
        {
          "name": "_spender",
          "type": "address"
        },
        {
          "name": "_amount",
          "type": "uint256"
        }
      ],
      "name": "approve",
      "outputs": [
        {
          "name": "success",
          "type": "bool"
        }
      ],
      "payable": false,
      "stateMutability": "nonpayable",
      "type": "function"
    },
    {
      "constant": false,
      "inputs": [
        {
          "name": "_transfersEnabled",
          "type": "bool"
        }
      ],
      "name": "enableTransfers",
      "outputs": [],
      "payable": false,
      "stateMutability": "nonpayable",
      "type": "function"
    },
    {
      "constant": false,
      "inputs": [
        {
          "name": "_value",
          "type": "uint256"
        }
      ],
      "name": "burn",
      "outputs": [],
      "payable": false,
      "stateMutability": "nonpayable",
      "type": "function"
    },
    {
      "constant": false,
      "inputs": [
        {
          "name": "_owner",
          "type": "address"
        },
        {
          "name": "_amount",
          "type": "uint256"
        }
      ],
      "name": "mintTokens",
      "outputs": [
        {
          "name": "",
          "type": "bool"
        }
      ],
      "payable": false,
      "stateMutability": "nonpayable",
      "type": "function"
    },
    {
      "constant": true,
      "inputs": [
        {
          "name": "_owner",
          "type": "address"
        },
        {
          "name": "_spender",
          "type": "address"
        }
      ],
      "name": "allowance",
      "outputs": [
        {
          "name": "remaining",
          "type": "uint256"
        }
      ],
      "payable": false,
      "stateMutability": "view",
      "type": "function"
    },
    {
      "constant": true,
      "inputs": [],
      "name": "totalSupply",
      "outputs": [
        {
          "name": "",
          "type": "uint256"
        }
      ],
      "payable": false,
      "stateMutability": "view",
      "type": "function"
    },
    {
      "constant": true,
      "inputs": [
        {
          "name": "_owner",
          "type": "address"
        },
        {
          "name": "_blockNumber",
          "type": "uint256"
        }
      ],
      "name": "balanceOfAt",
      "outputs": [
        {
          "name": "",
          "type": "uint256"
        }
      ],
      "payable": false,
      "stateMutability": "view",
      "type": "function"
    },
    {
      "constant": true,
      "inputs": [
        {
          "name": "_blockNumber",
          "type": "uint256"
        }
      ],
      "name": "totalSupplyAt",
      "outputs": [
        {
          "name": "",
          "type": "uint256"
        }
      ],
      "payable": false,
      "stateMutability": "view",
      "type": "function"
    }
  ],
  "bytecode": "0x6080604052600f6003556103e86004553480156200001c57600080fd5b506040516200134b3803806200134b833981016040528051602082015160018054600160a060020a03191633179055908201910162000063640100000000620000b6810204565b815162000078906005906020850190620000e1565b5080516200008e906006906020840190620000e1565b5050600a805460ff191660011790555060028054600160a060020a0319163317905562000183565b60005415620000c457600080fd5b620000d7640100000000620000dc810204565b600055565b435b90565b828054600181600116156101000203166002900490600052602060002090601f016020900481019282601f106200012457805160ff191683800117855562000154565b8280016001018555821562000154579182015b828111156200015457825182559160200191906001019062000137565b506200016292915062000166565b5090565b620000de91905b808211156200016257600081556001016200016d565b6111b880620001936000396000f3006080604052600436106101275763ffffffff7c010000000000000000000000000000000000000000000000000000000060003504166306fdde03811461012c578063095ea7b3146101b657806318160ddd146101ee57806323b872dd146102155780632e0f26251461023f5780633cebb8231461026a57806342966c681461028d5780634ee2cd7e146102a557806370a08231146102c957806375dc7d8c146102ea5780638b3dd749146103025780639245290d1461031757806395d89b4114610338578063981b24d01461034d578063a9059cbb14610365578063bef97c8714610389578063c415b95c1461039e578063dd62ed3e146103cf578063e3ca2d65146103f6578063f0dda65c14610411578063f41e60c514610435578063f77c47911461044f575b600080fd5b34801561013857600080fd5b50610141610464565b6040805160208082528351818301528351919283929083019185019080838360005b8381101561017b578181015183820152602001610163565b50505050905090810190601f1680156101a85780820380516001836020036101000a031916815260200191505b509250505060405180910390f35b3480156101c257600080fd5b506101da600160a060020a03600435166024356104f2565b604080519115158252519081900360200190f35b3480156101fa57600080fd5b50610203610663565b60408051918252519081900360200190f35b34801561022157600080fd5b506101da600160a060020a0360043581169060243516604435610674565b34801561024b57600080fd5b50610254610758565b6040805160ff9092168252519081900360200190f35b34801561027657600080fd5b5061028b600160a060020a036004351661075d565b005b34801561029957600080fd5b5061028b6004356107a3565b3480156102b157600080fd5b50610203600160a060020a03600435166024356108bc565b3480156102d557600080fd5b50610203600160a060020a03600435166108de565b3480156102f657600080fd5b506102036004356108ea565b34801561030e57600080fd5b50610203610913565b34801561032357600080fd5b5061028b600160a060020a0360043516610919565b34801561034457600080fd5b5061014161095f565b34801561035957600080fd5b506102036004356109ba565b34801561037157600080fd5b506101da600160a060020a03600435166024356109c7565b34801561039557600080fd5b506101da610a31565b3480156103aa57600080fd5b506103b3610a3a565b60408051600160a060020a039092168252519081900360200190f35b3480156103db57600080fd5b50610203600160a060020a0360043581169060243516610a49565b34801561040257600080fd5b5061028b600435602435610a74565b34801561041d57600080fd5b506101da600160a060020a0360043516602435610a96565b34801561044157600080fd5b5061028b6004351515610b64565b34801561045b57600080fd5b506103b3610b8e565b6005805460408051602060026001851615610100026000190190941693909304601f810184900484028201840190925281815292918301828280156104ea5780601f106104bf576101008083540402835291602001916104ea565b820191906000526020600020905b8154815290600101906020018083116104cd57829003601f168201915b505050505081565b600a5460009060ff161515610551576040805160e560020a62461bcd02815260206004820152601660248201527f7472616e7366657273206172652064697361626c656400000000000000000000604482015290519081900360640190fd5b81158061057f5750336000908152600860209081526040808320600160a060020a0387168452909152902054155b15156105fb576040805160e560020a62461bcd02815260206004820152602660248201527f706c6561736520726573657420617070726f766520616d6f756e7420746f203060448201527f2066697273740000000000000000000000000000000000000000000000000000606482015290519081900360840190fd5b336000818152600860209081526040808320600160a060020a03881680855290835292819020869055805186815290519293927f8c5be1e5ebec7d5bd14f71427d1e84f3dd0314c0f7b2291e5b200ac8c7c3b925929181900390910190a35060015b92915050565b600061066e436109ba565b90505b90565b600a5460009060ff1615156106d3576040805160e560020a62461bcd02815260206004820152601660248201527f7472616e7366657273206172652064697361626c656400000000000000000000604482015290519081900360640190fd5b600154600160a060020a0316331461074357600160a060020a038416600090815260086020908152604080832033845290915290205482111561071857506000610751565b600160a060020a03841660009081526008602090815260408083203384529091529020805483900390555b61074e848484610b9d565b90505b9392505050565b601281565b600154600160a060020a0316331461077457600080fd5b6001805473ffffffffffffffffffffffffffffffffffffffff1916600160a060020a0392909216919091179055565b60008060008060006107b533436108bc565b9450848611156107c457600080fd5b6107cd866108ea565b60025490945084870393506107eb90600160a060020a0316436108bc565b600254600160a060020a0316600090815260076020526040902090925061081490858401610e3d565b33600090815260076020526040902061082f90878703610e3d565b610837610663565b90506108466009848303610e3d565b60408051878152905133917fcc16f5dbb4873280815c1ee09dbd06736cffcc184412cf7a71a0fdb75d397ca5919081900360200190a260408051878152905160009133917fddf252ad1be2c89b69c2b068fc378daa952ba7f163c4a11628f55a4df523b3ef9181900360200190a3505050505050565b600160a060020a03821660009081526007602052604081206107519083610f4e565b600061065d82436108bc565b600061065d600454610907600354856110da90919063ffffffff16565b9063ffffffff61110316565b60005490565b600254600160a060020a0316331461093057600080fd5b6002805473ffffffffffffffffffffffffffffffffffffffff1916600160a060020a0392909216919091179055565b6006805460408051602060026001851615610100026000190190941693909304601f810184900484028201840190925281815292918301828280156104ea5780601f106104bf576101008083540402835291602001916104ea565b600061065d600983610f4e565b600a5460009060ff161515610a26576040805160e560020a62461bcd02815260206004820152601660248201527f7472616e7366657273206172652064697361626c656400000000000000000000604482015290519081900360640190fd5b610751338484610b9d565b600a5460ff1681565b600254600160a060020a031681565b600160a060020a03918216600090815260086020908152604080832093909416825291909152205490565b600254600160a060020a03163314610a8b57600080fd5b600391909155600455565b60015460009081908190600160a060020a03163314610ab457600080fd5b610abc610663565b9150838201821115610acd57600080fd5b610ad6856108de565b9050838101811115610ae757600080fd5b610af46009858401610e3d565b600160a060020a0385166000908152600760205260409020610b1890828601610e3d565b604080518581529051600160a060020a038716916000917fddf252ad1be2c89b69c2b068fc378daa952ba7f163c4a11628f55a4df523b3ef9181900360200190a3506001949350505050565b600154600160a060020a03163314610b7b57600080fd5b600a805460ff1916911515919091179055565b600154600160a060020a031681565b60008080831515610bb15760019250610e34565b600160a060020a03851615801590610bd25750600160a060020a0385163014155b1515610c28576040805160e560020a62461bcd02815260206004820152601760248201527f5f746f2061646472657373206e6f7420616c6c6f776564000000000000000000604482015290519081900360640190fd5b610c3286436108bc565b915083821015610c455760009250610e34565b600154610c5a90600160a060020a0316611118565b15610d8157600154604080517f4a393149000000000000000000000000000000000000000000000000000000008152600160a060020a03898116600483015288811660248301526044820188905291519190921691634a3931499160648083019260209291908290030181600087803b158015610cd657600080fd5b505af1158015610cea573d6000803e3d6000fd5b505050506040513d6020811015610d0057600080fd5b50511515600114610d81576040805160e560020a62461bcd02815260206004820152602760248201527f546f6b656e3336436f6e74726f6c6c65722072656a656374656420746865207460448201527f72616e7366657200000000000000000000000000000000000000000000000000606482015290519081900360840190fd5b600160a060020a0386166000908152600760205260409020610da590858403610e3d565b610daf85436108bc565b9050838101811115610dc057600080fd5b600160a060020a0385166000908152600760205260409020610de490828601610e3d565b84600160a060020a031686600160a060020a03167fddf252ad1be2c89b69c2b068fc378daa952ba7f163c4a11628f55a4df523b3ef866040518082815260200191505060405180910390a3600192505b50509392505050565b815460009081901580610e7f57508354439085906000198101908110610e5f57fe5b6000918252602090912001546fffffffffffffffffffffffffffffffff16105b15610efa5783548490610e958260018301611145565b81548110610e9f57fe5b600091825260209091200180546fffffffffffffffffffffffffffffffff858116700100000000000000000000000000000000024382166fffffffffffffffffffffffffffffffff1990931692909217161781559150610f48565b835484906000198101908110610f0c57fe5b600091825260209091200180546fffffffffffffffffffffffffffffffff80861670010000000000000000000000000000000002911617815590505b50505050565b600080600080858054905060001415610f6a57600093506110d1565b855486906000198101908110610f7c57fe5b6000918252602090912001546fffffffffffffffffffffffffffffffff168510610feb57855486906000198101908110610fb257fe5b60009182526020909120015470010000000000000000000000000000000090046fffffffffffffffffffffffffffffffff1693506110d1565b856000815481101515610ffa57fe5b6000918252602090912001546fffffffffffffffffffffffffffffffff1685101561102857600093506110d1565b8554600093506000190191505b8282111561108e57600260018385010104905084868281548110151561105757fe5b6000918252602090912001546fffffffffffffffffffffffffffffffff161161108257809250611089565b6001810391505b611035565b858381548110151561109c57fe5b60009182526020909120015470010000000000000000000000000000000090046fffffffffffffffffffffffffffffffff1693505b50505092915050565b60008215156110eb5750600061065d565b508181028183828115156110fb57fe5b041461065d57fe5b6000818381151561111057fe5b049392505050565b600080600160a060020a0383161515611134576000915061113f565b823b90506000811191505b50919050565b8154818355818111156111695760008381526020902061116991810190830161116e565b505050565b61067191905b808211156111885760008155600101611174565b50905600a165627a7a72305820843d44f0f9442011e9d7ece97ee4f329d5173d4c210301172e47a922afa0553a0029",
  "source": "pragma solidity ^0.4.24;\n\nimport \"openzeppelin-solidity/contracts/token/ERC20/ERC20.sol\";\nimport \"openzeppelin-solidity/contracts/token/ERC20/BurnableToken.sol\";\nimport \"./Initializable.sol\";\nimport \"./Controlled.sol\";\nimport \"./IToken36Controller.sol\";\nimport \"./WithFees.sol\";\n\n\n/// @title Token36 Base Contract\n/// @author element36.io\ncontract Token36 is ERC20, Initializable, Controlled, WithFees {\n\n    string public name;\n    string public symbol;\n    uint8 public constant DECIMALS = 18;\n\n    // Stores the balances in history\n    struct Checkpoint {\n        uint128 fromBlock;\n        uint128 value;\n    }\n\n    // Tracks the balances of token holders incl. history of it\n    mapping (address => Checkpoint[]) balances;\n\n    // Tracks any extra transfer rights as in all ERC20 tokens\n    mapping (address => mapping (address => uint256)) allowed;\n\n    // Tracks the history of the totalSupply of the token\n    Checkpoint[] totalSupplyHistory;\n\n    // Flag to determine if the token is transferable or not.\n    bool public transfersEnabled;\n\n    event Burn(address indexed burner, uint256 value);\n\n    // Constructor\n    constructor(string _name, string _symbol) public {\n        initialized();\n        name = _name;\n        symbol = _symbol;\n        transfersEnabled = true;\n        feeCollector = msg.sender;\n    }\n\n    /**\n     * @notice Send _amount tokens to _to from msg.sender\n     * @param _to The address of the recipient\n     * @param _amount The amount of tokens to be transferred\n     * @return {\n            bool: Whether the transfer was successful or not\n        }\n     */\n    function transfer(address _to, uint256 _amount) public returns (bool success) {\n        require(transfersEnabled, \"transfers are disabled\");\n        return doTransfer(msg.sender, _to, _amount);\n    }\n\n    /**\n     * @notice Send _amount tokens to _to from _from on the condition it is approved by _from\n     * @param _from The address holding the tokens being transferred\n     * @param _to The address of the recipient\n     * @param _amount The amount of tokens to be transferred\n     * @return {\n            bool: True if the transfer was successful\n        }\n     */\n    function transferFrom(address _from, address _to, uint256 _amount) public returns (bool success) {\n        require(transfersEnabled, \"transfers are disabled\");\n\n        // The controller of this contract can move tokens around at will\n        if (msg.sender != controller) {\n            // The standard ERC 20 transferFrom functionality\n            if (allowed[_from][msg.sender] < _amount) {\n                return false;\n            }\n\n            allowed[_from][msg.sender] -= _amount;\n        }\n        return doTransfer(_from, _to, _amount);\n    }\n\n    /**\n     * @dev This is the actual transfer function in the token contract, it can only be called from this contract.\n     * @param _from The address holding the tokens being transferred\n     * @param _to The address of the recipient\n     * @param _amount The amount of tokens to be transferred\n     * @return True if the transfer was successful\n     */\n    function doTransfer(address _from, address _to, uint _amount) internal returns(bool) {\n        if (_amount == 0) {\n            return true;\n        }\n\n        // Do not allow transfer to 0x0 or the token contract itself\n        require((_to != 0) && (_to != address(this)), \"_to address not allowed\");\n\n        // If the amount being transfered is more than the balance of the\n        // account the transfer returns false\n        uint previousBalanceFrom = balanceOfAt(_from, block.number);\n        if (previousBalanceFrom < _amount) {\n            return false;\n        }\n\n        // Alerts the token controller of the transfer\n        if (isContract(controller)) {\n            require(IToken36Controller(controller).onTransfer(_from, _to, _amount) == true, \"Token36Controller rejected the transfer\");\n        }\n\n        updateValueAtNow(balances[_from], previousBalanceFrom - _amount);\n        uint previousBalanceTo = balanceOfAt(_to, block.number);\n        require(previousBalanceTo + _amount >= previousBalanceTo); // Check for overflow\n        updateValueAtNow(balances[_to], previousBalanceTo + _amount);\n\n        emit Transfer(_from, _to, _amount);\n        return true;\n    }\n\n    /**\n     * @notice Returns the current balance of given address\n     * @param _owner The address that's balance is being requested\n     * @return The balance of `_owner` at the current block\n     */\n    function balanceOf(address _owner) public view returns (uint256 balance) {\n        return balanceOfAt(_owner, block.number);\n    }\n\n    /**\n     * @notice msg.sender approves _spender to spend _amount tokens on its behalf\n     * @param _spender The address of the account able to transfer the tokens\n     * @param _amount The amount of tokens to be approved for transfer\n     * @return True if the approval was successful\n     */\n    function approve(address _spender, uint256 _amount) public returns (bool success) {\n        require(transfersEnabled, \"transfers are disabled\");\n\n        // To change the approve amount you first have to reduce the addresses`\n        //  allowance to zero by calling `approve(_spender,0)` if it is not\n        //  already 0 to mitigate the race condition described here:\n        //  https://github.com/ethereum/EIPs/issues/20#issuecomment-263524729\n        require((_amount == 0) || (allowed[msg.sender][_spender] == 0), \"please reset approve amount to 0 first\");\n\n        allowed[msg.sender][_spender] = _amount;\n\n        emit Approval(msg.sender, _spender, _amount);\n        return true;\n    }\n\n    /// @notice Enables token holders to transfer their tokens freely if true\n    /// @param _transfersEnabled True if transfers are allowed in the clone\n    function enableTransfers(bool _transfersEnabled) public onlyController {\n        transfersEnabled = _transfersEnabled;\n    }\n\n    /**\n     * @dev Burns a specific amount of tokens.\n     * @param _value The amount of token to be burned.\n     */\n    function burn(uint256 _value) public {\n        uint previousBalanceFrom = balanceOfAt(msg.sender, block.number);\n        require(_value <= previousBalanceFrom);\n\n        // Calc and deduct fee\n        uint256 fee = calcFee(_value);\n        uint256 remainingValue = _value - fee;\n\n        // Transfer fee amount to us\n        uint previousBalanceFee = balanceOfAt(feeCollector, block.number);\n        updateValueAtNow(balances[feeCollector], previousBalanceFee + fee);\n\n        // Now burn the rest\n        updateValueAtNow(balances[msg.sender], previousBalanceFrom - _value);\n        uint curTotalSupply = totalSupply();\n        updateValueAtNow(totalSupplyHistory, curTotalSupply - remainingValue);\n\n        emit Burn(msg.sender, _value);\n        emit Transfer(msg.sender, address(0), _value);\n    }\n\n    /// @notice Generates `_amount` tokens that are assigned to `_owner`\n    /// @param _owner The address that will be assigned the new tokens\n    /// @param _amount The quantity of tokens generated\n    /// @return True if the tokens are generated correctly\n    function mintTokens(address _owner, uint _amount) onlyController public returns (bool) {\n        uint curTotalSupply = totalSupply();\n        require(curTotalSupply + _amount >= curTotalSupply); // Check for overflow\n        uint previousBalanceTo = balanceOf(_owner);\n        require(previousBalanceTo + _amount >= previousBalanceTo); // Check for overflow\n        updateValueAtNow(totalSupplyHistory, curTotalSupply + _amount);\n        updateValueAtNow(balances[_owner], previousBalanceTo + _amount);\n        emit Transfer(0, _owner, _amount);\n        return true;\n    }\n\n    /**\n     * @notice This function makes it easy to read the `allowed[]` map\n     * @param _owner The address of the account that owns the token\n     * @param _spender The address of the account able to transfer the tokens\n     * @return Amount of remaining tokens of _owner that _spender is allowed to spend\n     */\n    function allowance(address _owner, address _spender) public view returns (uint256 remaining) {\n        return allowed[_owner][_spender];\n    }\n\n    /// @dev This function makes it easy to get the total number of tokens\n    /// @return The total number of tokens\n    function totalSupply() public view returns (uint) {\n        return totalSupplyAt(block.number);\n    }\n\n    /// @dev Queries the balance of `_owner` at a specific `_blockNumber`\n    /// @param _owner The address from which the balance will be retrieved\n    /// @param _blockNumber The block number when the balance is queried\n    /// @return The balance at `_blockNumber`\n    function balanceOfAt(address _owner, uint _blockNumber) public view returns (uint) {\n        return getValueAt(balances[_owner], _blockNumber);\n    }\n\n    /// @notice Total amount of tokens at a specific `_blockNumber`.\n    /// @param _blockNumber The block number when the totalSupply is queried\n    /// @return The total amount of tokens at `_blockNumber`\n    function totalSupplyAt(uint _blockNumber) public view returns(uint) {\n        return getValueAt(totalSupplyHistory, _blockNumber);\n    }\n\n    /// @dev `getValueAt` retrieves the number of tokens at a given block number\n    /// @param checkpoints The history of values being queried\n    /// @param _block The block number to retrieve the value at\n    /// @return The number of tokens being queried\n    function getValueAt(Checkpoint[] storage checkpoints, uint _block) view internal returns (uint) {\n        if (checkpoints.length == 0) {\n            return 0;\n        }\n\n        // Check for block number outside boundaries\n        if (_block >= checkpoints[checkpoints.length-1].fromBlock) {\n            return checkpoints[checkpoints.length-1].value;\n        }\n        if (_block < checkpoints[0].fromBlock) {\n            return 0;\n        }\n\n        // Binary search of the value in the array\n        uint min = 0;\n        uint max = checkpoints.length-1;\n        while (max > min) {\n            uint mid = (max + min + 1) / 2;\n            if (checkpoints[mid].fromBlock <= _block) {\n                min = mid;\n            } else {\n                max = mid-1;\n            }\n        }\n        return checkpoints[min].value;\n    }\n\n    /// @dev `updateValueAtNow` used to update the `balances` map and the\n    ///  `totalSupplyHistory`\n    /// @param checkpoints The history of data being updated\n    /// @param _value The new number of tokens\n    function updateValueAtNow(Checkpoint[] storage checkpoints, uint _value) internal {\n        if ((checkpoints.length == 0) || (checkpoints[checkpoints.length - 1].fromBlock < block.number)) {\n            Checkpoint storage newCheckPoint = checkpoints[checkpoints.length++];\n            newCheckPoint.fromBlock = uint128(block.number);\n            newCheckPoint.value = uint128(_value);\n        } else {\n            Checkpoint storage oldCheckPoint = checkpoints[checkpoints.length - 1];\n            oldCheckPoint.value = uint128(_value);\n        }\n    }\n\n    /// @dev Internal function to determine if an address is a contract\n    /// @param _addr The address being queried\n    /// @return True if `_addr` is a contract\n    function isContract(address _addr) internal view returns(bool) {\n        uint size;\n        if (_addr == 0)\n            return false;\n\n        assembly {\n            size := extcodesize(_addr)\n        }\n\n        return size > 0;\n    }\n\n    /// @dev Helper function to return a min betwen the two uints\n    function min(uint a, uint b) internal pure returns (uint) {\n        return a < b ? a : b;\n    }\n\n    /// @notice The fallback function: If the contract's controller has not been\n    ///  set to 0, then the `proxyPayment` method is called which relays the\n    ///  ether and creates tokens as described in the token controller contract\n    function () payable public {\n        revert();\n    }\n}\n",
  "sourcePath": "/builds/cash36/contracts/contracts/Token36.sol",
  "compiler": {
    "name": "solc",
    "version": "0.4.24+commit.e67f0147.Emscripten.clang"
  },
  "schemaVersion": "2.0.1",
  "updatedAt": "2018-07-04T14:45:36.608Z"
}