{
  "contractName": "Token36Controller",
  "abi": [
    {
      "constant": false,
      "inputs": [],
      "name": "renounceOwnership",
      "outputs": [],
      "payable": false,
      "stateMutability": "nonpayable",
      "type": "function"
    },
    {
      "constant": true,
      "inputs": [],
      "name": "owner",
      "outputs": [
        {
          "name": "",
          "type": "address"
        }
      ],
      "payable": false,
      "stateMutability": "view",
      "type": "function"
    },
    {
      "constant": true,
      "inputs": [],
      "name": "isOwner",
      "outputs": [
        {
          "name": "",
          "type": "bool"
        }
      ],
      "payable": false,
      "stateMutability": "view",
      "type": "function"
    },
    {
      "constant": false,
      "inputs": [
        {
          "name": "newOwner",
          "type": "address"
        }
      ],
      "name": "transferOwnership",
      "outputs": [],
      "payable": false,
      "stateMutability": "nonpayable",
      "type": "function"
    },
    {
      "anonymous": false,
      "inputs": [
        {
          "indexed": true,
          "name": "previousOwner",
          "type": "address"
        },
        {
          "indexed": true,
          "name": "newOwner",
          "type": "address"
        }
      ],
      "name": "OwnershipTransferred",
      "type": "event"
    },
    {
      "constant": true,
      "inputs": [
        {
          "name": "_from",
          "type": "address"
        },
        {
          "name": "_to",
          "type": "address"
        },
        {
          "name": "_amount",
          "type": "uint256"
        }
      ],
      "name": "onTransfer",
      "outputs": [
        {
          "name": "",
          "type": "bool"
        }
      ],
      "payable": false,
      "stateMutability": "view",
      "type": "function"
    },
    {
      "constant": false,
      "inputs": [
        {
          "name": "_receiver",
          "type": "address"
        },
        {
          "name": "_amount",
          "type": "uint256"
        }
      ],
      "name": "mint",
      "outputs": [],
      "payable": false,
      "stateMutability": "nonpayable",
      "type": "function"
    },
    {
      "constant": false,
      "inputs": [
        {
          "name": "_transfersEnabled",
          "type": "bool"
        }
      ],
      "name": "enableTransfers",
      "outputs": [],
      "payable": false,
      "stateMutability": "nonpayable",
      "type": "function"
    },
    {
      "constant": true,
      "inputs": [],
      "name": "getComplianceContract",
      "outputs": [
        {
          "name": "",
          "type": "address"
        }
      ],
      "payable": false,
      "stateMutability": "view",
      "type": "function"
    },
    {
      "constant": false,
      "inputs": [
        {
          "name": "_newComplianceContract",
          "type": "address"
        }
      ],
      "name": "updateComplianceContract",
      "outputs": [],
      "payable": false,
      "stateMutability": "nonpayable",
      "type": "function"
    },
    {
      "constant": true,
      "inputs": [],
      "name": "getExchangesContract",
      "outputs": [
        {
          "name": "",
          "type": "address"
        }
      ],
      "payable": false,
      "stateMutability": "view",
      "type": "function"
    },
    {
      "constant": false,
      "inputs": [
        {
          "name": "_newExchangesContract",
          "type": "address"
        }
      ],
      "name": "updateExchangesContract",
      "outputs": [],
      "payable": false,
      "stateMutability": "nonpayable",
      "type": "function"
    },
    {
      "constant": false,
      "inputs": [
        {
          "name": "_newController",
          "type": "address"
        }
      ],
      "name": "changeController",
      "outputs": [],
      "payable": false,
      "stateMutability": "nonpayable",
      "type": "function"
    }
  ],
  "bytecode": "0x60806040819052600080546001600160a01b03191633178082556001600160a01b0316917f8be0079c531659141344cd1fd0a4f28419497f9722a3daafe3b4186f6b6457e0908290a3610eff806100576000396000f3fe608060405234801561001057600080fd5b50600436106100b45760003560e01c80638da5cb5b116100715780638da5cb5b146101a95780638f32d59b146101b15780639b1649e6146101b9578063e090424c146101df578063f2fde38b146101e7578063f41e60c51461020d576100b4565b80631c47470d146100b95780633cebb823146100e157806340c10f19146101075780634a39314914610133578063706f04e31461017d578063715018a6146101a1575b600080fd5b6100df600480360360208110156100cf57600080fd5b50356001600160a01b031661022c565b005b6100df600480360360208110156100f757600080fd5b50356001600160a01b0316610295565b6100df6004803603604081101561011d57600080fd5b506001600160a01b038135169060200135610345565b6101696004803603606081101561014957600080fd5b506001600160a01b0381358116916020810135909116906040013561069f565b604080519115158252519081900360200190f35b610185610a6c565b604080516001600160a01b039092168252519081900360200190f35b6100df610ac5565b610185610b56565b610169610b65565b6100df600480360360208110156101cf57600080fd5b50356001600160a01b0316610b76565b610185610bdf565b6100df600480360360208110156101fd57600080fd5b50356001600160a01b0316610c38565b6100df6004803603602081101561022357600080fd5b50351515610c8b565b610234610b65565b610273576040805162461bcd60e51b81526020600482018190526024820152600080516020610e67833981519152604482015290519081900360640190fd5b600380546001600160a01b0319166001600160a01b0392909216919091179055565b61029d610b65565b6102dc576040805162461bcd60e51b81526020600482018190526024820152600080516020610e67833981519152604482015290519081900360640190fd5b60015460408051633cebb82360e01b81526001600160a01b03848116600483015291519190921691633cebb82391602480830192600092919082900301818387803b15801561032a57600080fd5b505af115801561033e573d6000803e3d6000fd5b5050505050565b6003546001546040805163ea13d8a160e01b81523360048201526001600160a01b0392831660248201529051919092169163ea13d8a1916044808301926020929190829003018186803b15801561039b57600080fd5b505afa1580156103af573d6000803e3d6000fd5b505050506040513d60208110156103c557600080fd5b50516104025760405162461bcd60e51b8152600401808060200182810382526021815260200180610e876021913960400191505060405180910390fd5b61040b82610d9a565b6106195760025460408051631e9d48cf60e01b81526001600160a01b03858116600483015291519190921691631e9d48cf916024808301926020929190829003018186803b15801561045c57600080fd5b505afa158015610470573d6000803e3d6000fd5b505050506040513d602081101561048657600080fd5b50516104cc576040805162461bcd60e51b815260206004820152601060248201526f18da1958dad55cd95c8819985a5b195960821b604482015290519081900360640190fd5b600254600154604080516370a0823160e01b81526001600160a01b038681166004830152915193821693636b618ff993879387939116916370a0823191602480820192602092909190829003018186803b15801561052957600080fd5b505afa15801561053d573d6000803e3d6000fd5b505050506040513d602081101561055357600080fd5b5051604080516001600160e01b031960e087901b1681526001600160a01b03909416600485015260248401929092526044830152516064808301926020929190829003018186803b1580156105a757600080fd5b505afa1580156105bb573d6000803e3d6000fd5b505050506040513d60208110156105d157600080fd5b5051610619576040805162461bcd60e51b8152602060048201526012602482015271185b5bdd5b9d080f881d5cd95c931a5b5a5d60721b604482015290519081900360640190fd5b600154604080516340c10f1960e01b81526001600160a01b03858116600483015260248201859052915191909216916340c10f199160448083019260209291908290030181600087803b15801561066f57600080fd5b505af1158015610683573d6000803e3d6000fd5b505050506040513d602081101561069957600080fd5b50505050565b6001546000906001600160a01b031633146106eb5760405162461bcd60e51b8152600401808060200182810382526023815260200180610ea86023913960400191505060405180910390fd5b6106f483610d9a565b15801561070957506001600160a01b03831615155b156108a65760025460408051631e9d48cf60e01b81526001600160a01b03868116600483015291519190921691631e9d48cf916024808301926020929190829003018186803b15801561075b57600080fd5b505afa15801561076f573d6000803e3d6000fd5b505050506040513d602081101561078557600080fd5b505161079357506000610a65565b600254600154604080516370a0823160e01b81526001600160a01b038781166004830152915193821693636b618ff993889388939116916370a0823191602480820192602092909190829003018186803b1580156107f057600080fd5b505afa158015610804573d6000803e3d6000fd5b505050506040513d602081101561081a57600080fd5b5051604080516001600160e01b031960e087901b1681526001600160a01b03909416600485015260248401929092526044830152516064808301926020929190829003018186803b15801561086e57600080fd5b505afa158015610882573d6000803e3d6000fd5b505050506040513d602081101561089857600080fd5b50516108a657506000610a65565b6108af84610d9a565b1580156108c457506001600160a01b03841615155b15610a615760025460408051631e9d48cf60e01b81526001600160a01b03878116600483015291519190921691631e9d48cf916024808301926020929190829003018186803b15801561091657600080fd5b505afa15801561092a573d6000803e3d6000fd5b505050506040513d602081101561094057600080fd5b505161094e57506000610a65565b600254600154604080516370a0823160e01b81526001600160a01b038881166004830152915193821693636b618ff993899388939116916370a0823191602480820192602092909190829003018186803b1580156109ab57600080fd5b505afa1580156109bf573d6000803e3d6000fd5b505050506040513d60208110156109d557600080fd5b5051604080516001600160e01b031960e087901b1681526001600160a01b03909416600485015260248401929092526044830152516064808301926020929190829003018186803b158015610a2957600080fd5b505afa158015610a3d573d6000803e3d6000fd5b505050506040513d6020811015610a5357600080fd5b5051610a6157506000610a65565b5060015b9392505050565b6000610a76610b65565b610ab5576040805162461bcd60e51b81526020600482018190526024820152600080516020610e67833981519152604482015290519081900360640190fd5b506003546001600160a01b031690565b610acd610b65565b610b0c576040805162461bcd60e51b81526020600482018190526024820152600080516020610e67833981519152604482015290519081900360640190fd5b600080546040516001600160a01b03909116907f8be0079c531659141344cd1fd0a4f28419497f9722a3daafe3b4186f6b6457e0908390a3600080546001600160a01b0319169055565b6000546001600160a01b031690565b6000546001600160a01b0316331490565b610b7e610b65565b610bbd576040805162461bcd60e51b81526020600482018190526024820152600080516020610e67833981519152604482015290519081900360640190fd5b600280546001600160a01b0319166001600160a01b0392909216919091179055565b6000610be9610b65565b610c28576040805162461bcd60e51b81526020600482018190526024820152600080516020610e67833981519152604482015290519081900360640190fd5b506002546001600160a01b031690565b610c40610b65565b610c7f576040805162461bcd60e51b81526020600482018190526024820152600080516020610e67833981519152604482015290519081900360640190fd5b610c8881610da0565b50565b610c93610b65565b610cd2576040805162461bcd60e51b81526020600482018190526024820152600080516020610e67833981519152604482015290519081900360640190fd5b60018115151415610d4a57600160009054906101000a90046001600160a01b03166001600160a01b0316633f4ba83a6040518163ffffffff1660e01b8152600401600060405180830381600087803b158015610d2d57600080fd5b505af1158015610d41573d6000803e3d6000fd5b50505050610c88565b600160009054906101000a90046001600160a01b03166001600160a01b0316638456cb596040518163ffffffff1660e01b8152600401600060405180830381600087803b15801561032a57600080fd5b3b151590565b6001600160a01b038116610de55760405162461bcd60e51b8152600401808060200182810382526026815260200180610e416026913960400191505060405180910390fd5b600080546040516001600160a01b03808516939216917f8be0079c531659141344cd1fd0a4f28419497f9722a3daafe3b4186f6b6457e091a3600080546001600160a01b0319166001600160a01b039290921691909117905556fe4f776e61626c653a206e6577206f776e657220697320746865207a65726f20616464726573734f776e61626c653a2063616c6c6572206973206e6f7420746865206f776e65726f6e6c7920726567697374657265642065786368616e67657320616c6c6f7765644f6e6c792063616c6c61626c652066726f6d20636f6e74726f6c6c656420546f6b656ea265627a7a723058206eb8d0a43db80da9df43a51e029ddee0b23517826a8aeecbe21cd20defe3c2b464736f6c63430005090032",
  "source": "pragma solidity ^0.5.9;\n\nimport \"openzeppelin-solidity/contracts/ownership/Ownable.sol\";\nimport \"openzeppelin-solidity/contracts/utils/Address.sol\";\nimport \"./IToken36Controller.sol\";\nimport \"./Token36.sol\";\nimport \"./Cash36Compliance.sol\";\nimport \"./Cash36Exchanges.sol\";\n\n\n/// @title Token Controller\n/// @author element36.io\ncontract Token36Controller is IToken36Controller, Ownable {\n\n    // Token controlled by this controller\n    Token36 internal token;\n\n    // Compliance contract\n    Cash36Compliance internal compliance;\n\n    // Exchanges contract\n    Cash36Exchanges internal exchanges;\n\n    modifier onlyAllowedExchanges {\n        require(exchanges.isAllowedExchange(msg.sender, address(token)), \"only registered exchanges allowed\");\n        _;\n    }\n\n    /**\n    */\n    function onTransfer(address _from, address _to, uint _amount) public view returns (bool) {\n        // Only the Token itself can call this\n        require(msg.sender == address(token), \"Only callable from controlled Token\");\n\n        // Check Compliance, unless receiving address is a contract\n        if (Address.isContract(_to) == false && _to != address(0)) {\n            // Check if user _to is KYCed and not blacklisted\n            if (!compliance.checkUser(_to)) {\n                return false;\n            }\n\n            // Check if user _to is within limits\n            if (!compliance.checkUserLimit(_to, _amount, token.balanceOf(_to))) {\n                return false;\n            }\n        }\n\n        if (Address.isContract(_from) == false && _from != address(0)) {\n            // Check if user _from is KYCed and not blacklisted\n            if (!compliance.checkUser(_from)) {\n                return false;\n            }\n\n            // Check if user _from within limits\n            if (!compliance.checkUserLimit(_from, _amount, token.balanceOf(_from))) {\n                return false;\n            }\n        }\n\n        return true;\n    }\n\n    function mint(address _receiver, uint256 _amount) external onlyAllowedExchanges {\n        // Check Compliance first\n        if (Address.isContract(_receiver) == false) {\n            require(compliance.checkUser(_receiver), \"checkUser failed\");\n            require(compliance.checkUserLimit(_receiver, _amount, token.balanceOf(_receiver)), \"amount > userLimit\");\n        }\n\n        token.mint(_receiver, _amount);\n    }\n\n    function enableTransfers(bool _transfersEnabled) external onlyOwner {\n        if (_transfersEnabled == true) {\n            token.unpause();\n        } else {\n            token.pause();\n        }\n    }\n\n    function getComplianceContract() external view onlyOwner returns (address) {\n        return address(compliance);\n    }\n\n    function updateComplianceContract(address _newComplianceContract) external onlyOwner {\n        compliance = Cash36Compliance(_newComplianceContract);\n    }\n\n    function getExchangesContract() external view onlyOwner returns (address) {\n        return address(exchanges);\n    }\n\n    function updateExchangesContract(address _newExchangesContract) external onlyOwner {\n        exchanges = Cash36Exchanges(_newExchangesContract);\n    }\n\n    function changeController(address _newController) external onlyOwner {\n        token.changeController(_newController);\n    }\n}",
  "sourcePath": "/Users/bum/element36/dev/cash36/contracts/contracts/Token36Controller.sol",
  "compiler": {
    "name": "solc",
    "version": "0.5.9+commit.e560f70d.Emscripten.clang"
  },
  "schemaVersion": "3.0.11",
  "updatedAt": "2019-06-18T21:59:24.987Z",
  "devdoc": {
    "author": "element36.io",
    "methods": {
      "isOwner()": {
        "details": "Returns true if the caller is the current owner."
      },
      "owner()": {
        "details": "Returns the address of the current owner."
      },
      "renounceOwnership()": {
        "details": "Leaves the contract without owner. It will not be possible to call `onlyOwner` functions anymore. Can only be called by the current owner.     * > Note: Renouncing ownership will leave the contract without an owner, thereby removing any functionality that is only available to the owner."
      },
      "transferOwnership(address)": {
        "details": "Transfers ownership of the contract to a new account (`newOwner`). Can only be called by the current owner."
      }
    },
    "title": "Token Controller"
  },
  "userdoc": {
    "methods": {}
  }
}