{
  "contractName": "Token36Controller",
  "abi": [
    {
      "constant": true,
      "inputs": [
        {
          "name": "",
          "type": "uint256"
        }
      ],
      "name": "holders",
      "outputs": [
        {
          "name": "",
          "type": "address"
        }
      ],
      "payable": false,
      "stateMutability": "view",
      "type": "function"
    },
    {
      "constant": true,
      "inputs": [],
      "name": "owner",
      "outputs": [
        {
          "name": "",
          "type": "address"
        }
      ],
      "payable": false,
      "stateMutability": "view",
      "type": "function"
    },
    {
      "constant": false,
      "inputs": [
        {
          "name": "newOwner",
          "type": "address"
        }
      ],
      "name": "transferOwnership",
      "outputs": [],
      "payable": false,
      "stateMutability": "nonpayable",
      "type": "function"
    },
    {
      "constant": true,
      "inputs": [],
      "name": "token",
      "outputs": [
        {
          "name": "",
          "type": "address"
        }
      ],
      "payable": false,
      "stateMutability": "view",
      "type": "function"
    },
    {
      "inputs": [
        {
          "name": "_token",
          "type": "address"
        },
        {
          "name": "_kycProvider",
          "type": "address"
        }
      ],
      "payable": false,
      "stateMutability": "nonpayable",
      "type": "constructor"
    },
    {
      "anonymous": false,
      "inputs": [
        {
          "indexed": true,
          "name": "previousOwner",
          "type": "address"
        },
        {
          "indexed": true,
          "name": "newOwner",
          "type": "address"
        }
      ],
      "name": "OwnershipTransferred",
      "type": "event"
    },
    {
      "constant": true,
      "inputs": [],
      "name": "allHolders",
      "outputs": [
        {
          "name": "",
          "type": "address[]"
        }
      ],
      "payable": false,
      "stateMutability": "view",
      "type": "function"
    },
    {
      "constant": false,
      "inputs": [
        {
          "name": "_owner",
          "type": "address"
        }
      ],
      "name": "proxyPayment",
      "outputs": [
        {
          "name": "",
          "type": "bool"
        }
      ],
      "payable": true,
      "stateMutability": "payable",
      "type": "function"
    },
    {
      "constant": false,
      "inputs": [
        {
          "name": "_from",
          "type": "address"
        },
        {
          "name": "_to",
          "type": "address"
        },
        {
          "name": "_amount",
          "type": "uint256"
        }
      ],
      "name": "onTransfer",
      "outputs": [
        {
          "name": "",
          "type": "bool"
        }
      ],
      "payable": false,
      "stateMutability": "nonpayable",
      "type": "function"
    },
    {
      "constant": false,
      "inputs": [
        {
          "name": "_owner",
          "type": "address"
        },
        {
          "name": "_spender",
          "type": "address"
        },
        {
          "name": "_amount",
          "type": "uint256"
        }
      ],
      "name": "onApprove",
      "outputs": [
        {
          "name": "",
          "type": "bool"
        }
      ],
      "payable": false,
      "stateMutability": "nonpayable",
      "type": "function"
    },
    {
      "constant": false,
      "inputs": [
        {
          "name": "_receiver",
          "type": "address"
        },
        {
          "name": "_amount",
          "type": "uint256"
        }
      ],
      "name": "mint",
      "outputs": [],
      "payable": false,
      "stateMutability": "nonpayable",
      "type": "function"
    },
    {
      "constant": false,
      "inputs": [
        {
          "name": "_holder",
          "type": "address"
        },
        {
          "name": "_amount",
          "type": "uint256"
        }
      ],
      "name": "burn",
      "outputs": [],
      "payable": false,
      "stateMutability": "nonpayable",
      "type": "function"
    },
    {
      "constant": false,
      "inputs": [
        {
          "name": "_transfersEnabled",
          "type": "bool"
        }
      ],
      "name": "enableTransfers",
      "outputs": [],
      "payable": false,
      "stateMutability": "nonpayable",
      "type": "function"
    },
    {
      "constant": false,
      "inputs": [
        {
          "name": "_newProvider",
          "type": "address"
        }
      ],
      "name": "changeKycProvider",
      "outputs": [],
      "payable": false,
      "stateMutability": "nonpayable",
      "type": "function"
    }
  ],
  "bytecode": "0x6060604052341561000f57600080fd5b60405160408061088a833981016040528080519190602001805160008054600160a060020a03338116600160a060020a03199283161790925560018054968316968216969096179095556002805491909216941693909317909255505061080f8061007b6000396000f3006060604052600436106100a05763ffffffff60e060020a6000350416632a11ced081146100a557806340c10f19146100d75780634a393149146100fb578063798deed7146101375780638da5cb5b146101565780639dc29fac14610169578063c80a3aa61461018b578063da682aeb146101f1578063f2fde38b14610219578063f41e60c514610238578063f48c305414610250578063fc0c546a14610264575b600080fd5b34156100b057600080fd5b6100bb600435610277565b604051600160a060020a03909116815260200160405180910390f35b34156100e257600080fd5b6100f9600160a060020a036004351660243561029f565b005b341561010657600080fd5b610123600160a060020a03600435811690602435166044356103b6565b604051901515815260200160405180910390f35b341561014257600080fd5b6100f9600160a060020a036004351661044c565b341561016157600080fd5b6100bb610496565b341561017457600080fd5b6100f9600160a060020a03600435166024356104a5565b341561019657600080fd5b61019e610531565b60405160208082528190810183818151815260200191508051906020019060200280838360005b838110156101dd5780820151838201526020016101c5565b505050509050019250505060405180910390f35b34156101fc57600080fd5b610123600160a060020a036004358116906024351660443561059a565b341561022457600080fd5b6100f9600160a060020a03600435166105a3565b341561024357600080fd5b6100f9600435151561063e565b610123600160a060020a03600435166106b4565b341561026f57600080fd5b6100bb6106ba565b600380548290811061028557fe5b600091825260209091200154600160a060020a0316905081565b60005433600160a060020a039081169116146102ba57600080fd5b6102c3826106c9565b151561033b57600254600160a060020a0316631e9d48cf8360405160e060020a63ffffffff8416028152600160a060020a039091166004820152602401602060405180830381600087803b151561031957600080fd5b5af1151561032657600080fd5b50505060405180519050151561033b57600080fd5b600154600160a060020a031663827f32c0838360405160e060020a63ffffffff8516028152600160a060020a0390921660048301526024820152604401602060405180830381600087803b151561039157600080fd5b5af1151561039e57600080fd5b50505060405180519050506103b2826106f6565b5050565b60006103c1836106c9565b151561043957600254600160a060020a0316631e9d48cf8460405160e060020a63ffffffff8416028152600160a060020a039091166004820152602401602060405180830381600087803b151561041757600080fd5b5af1151561042457600080fd5b50505060405180519050151561043957600080fd5b610442836106f6565b5060019392505050565b60005433600160a060020a0390811691161461046757600080fd5b6002805473ffffffffffffffffffffffffffffffffffffffff1916600160a060020a0392909216919091179055565b600054600160a060020a031681565b60005433600160a060020a039081169116146104c057600080fd5b600154600160a060020a031663d3ce77fe838360405160e060020a63ffffffff8516028152600160a060020a0390921660048301526024820152604401602060405180830381600087803b151561051657600080fd5b5af1151561052357600080fd5b505050604051805150505050565b61053961078a565b600380548060200260200160405190810160405280929190818152602001828054801561058f57602002820191906000526020600020905b8154600160a060020a03168152600190910190602001808311610571575b505050505090505b90565b60019392505050565b60005433600160a060020a039081169116146105be57600080fd5b600160a060020a03811615156105d357600080fd5b600054600160a060020a0380831691167f8be0079c531659141344cd1fd0a4f28419497f9722a3daafe3b4186f6b6457e060405160405180910390a36000805473ffffffffffffffffffffffffffffffffffffffff1916600160a060020a0392909216919091179055565b60005433600160a060020a0390811691161461065957600080fd5b600154600160a060020a031663f41e60c58260405160e060020a63ffffffff84160281529015156004820152602401600060405180830381600087803b15156106a157600080fd5b5af115156106ae57600080fd5b50505050565b50600190565b600154600160a060020a031681565b600080600160a060020a03831615156106e557600091506106f0565b823b90506000811191505b50919050565b600160a060020a03811660009081526004602052604090205460ff161561071c57610787565b600160a060020a0381166000908152600460205260409020805460ff191660019081179091556003805490918101610754838261079c565b506000918252602090912001805473ffffffffffffffffffffffffffffffffffffffff1916600160a060020a0383161790555b50565b60206040519081016040526000815290565b8154818355818115116107c0576000838152602090206107c09181019083016107c5565b505050565b61059791905b808211156107df57600081556001016107cb565b50905600a165627a7a7230582035672fce176f2260bf90a0ec464d1c3cbae51b13d0d68ffcd6043f3b2a5acf1c0029",
  "source": "pragma solidity 0.4.21;\n\nimport \"./Token36.sol\";\nimport \"./IToken36Controller.sol\";\nimport \"./Cash36KYC.sol\";\n\n\n/// @title\n/// @author element36.io\ncontract Token36Controller is IToken36Controller {\n\n    Token36 public token;\n    Cash36KYC kycProvider;\n\n    // Returns all holders the token had (since managing it).\n    // Some of them can have a balance of 0.\n    address[] public holders;\n    mapping (address => bool) internal everHeld;\n\n    // Constructor\n    function Token36Controller(Token36 _token, address _kycProvider) public {\n        token = _token;\n        kycProvider = Cash36KYC(_kycProvider);\n    }\n\n    function allHolders() public view returns (address[]) {\n        return holders;\n    }\n\n    function proxyPayment(address _owner) public payable returns(bool) {\n        return true;\n    }\n\n    function onTransfer(address _from, address _to, uint _amount) public returns (bool) {\n        // Check SimpleKYC\n        if (isContract(_to) == false) {\n            require(kycProvider.checkUser(_to));\n        }\n\n        _logHolder(_to);\n\n        return true;\n    }\n\n    function onApprove(address _owner, address _spender, uint _amount) public returns(bool) {\n        return true;\n    }\n\n    function mint(address _receiver, uint256 _amount) external onlyOwner {\n        // Check SimpleKYC\n        if (isContract(_receiver) == false) {\n            require(kycProvider.checkUser(_receiver));\n        }\n\n        token.generateTokens(_receiver, _amount);\n        _logHolder(_receiver);\n    }\n\n    function burn(address _holder, uint256 _amount) external onlyOwner {\n        token.destroyTokens(_holder, _amount);\n    }\n\n    function enableTransfers(bool _transfersEnabled) external onlyOwner {\n        token.enableTransfers(_transfersEnabled);\n    }\n\n    function changeKycProvider(Cash36KYC _newProvider) external onlyOwner {\n        kycProvider = _newProvider;\n    }\n\n    /// INTERNAL\n\n    function _logHolder(address _newHolder) internal {\n        if (everHeld[_newHolder]) {\n            return;\n        }\n\n        everHeld[_newHolder] = true;\n        holders.push(_newHolder);\n    }\n\n    function isContract(address _addr) constant internal returns(bool) {\n        uint size;\n        if (_addr == 0)\n            return false;\n\n        assembly {\n            size := extcodesize(_addr)\n        }\n\n        return size > 0;\n    }\n}",
  "sourcePath": "/builds/cash36/contracts/contracts/Token36Controller.sol",
  "compiler": {
    "name": "solc",
    "version": "0.4.21+commit.dfe3193c.Emscripten.clang"
  },
  "schemaVersion": "2.0.0",
  "updatedAt": "2018-06-12T10:01:02.846Z"
}