{
  "contractName": "Token36",
  "abi": [
    {
      "inputs": [
        {
          "internalType": "string",
          "name": "name",
          "type": "string"
        },
        {
          "internalType": "string",
          "name": "symbol",
          "type": "string"
        },
        {
          "internalType": "uint8",
          "name": "decimals",
          "type": "uint8"
        },
        {
          "internalType": "uint256",
          "name": "cap",
          "type": "uint256"
        }
      ],
      "payable": false,
      "stateMutability": "nonpayable",
      "type": "constructor"
    },
    {
      "anonymous": false,
      "inputs": [
        {
          "indexed": true,
          "internalType": "address",
          "name": "owner",
          "type": "address"
        },
        {
          "indexed": true,
          "internalType": "address",
          "name": "spender",
          "type": "address"
        },
        {
          "indexed": false,
          "internalType": "uint256",
          "name": "value",
          "type": "uint256"
        }
      ],
      "name": "Approval",
      "type": "event"
    },
    {
      "anonymous": false,
      "inputs": [
        {
          "indexed": true,
          "internalType": "address",
          "name": "burner",
          "type": "address"
        },
        {
          "indexed": false,
          "internalType": "uint256",
          "name": "value",
          "type": "uint256"
        }
      ],
      "name": "Burn",
      "type": "event"
    },
    {
      "anonymous": false,
      "inputs": [
        {
          "indexed": true,
          "internalType": "address",
          "name": "from",
          "type": "address"
        },
        {
          "indexed": true,
          "internalType": "bytes32",
          "name": "transactionHash",
          "type": "bytes32"
        },
        {
          "indexed": false,
          "internalType": "uint256",
          "name": "amount",
          "type": "uint256"
        }
      ],
      "name": "InitiateTransfer",
      "type": "event"
    },
    {
      "anonymous": false,
      "inputs": [
        {
          "indexed": false,
          "internalType": "address",
          "name": "account",
          "type": "address"
        }
      ],
      "name": "Paused",
      "type": "event"
    },
    {
      "anonymous": false,
      "inputs": [
        {
          "indexed": true,
          "internalType": "address",
          "name": "account",
          "type": "address"
        }
      ],
      "name": "PauserAdded",
      "type": "event"
    },
    {
      "anonymous": false,
      "inputs": [
        {
          "indexed": true,
          "internalType": "address",
          "name": "account",
          "type": "address"
        }
      ],
      "name": "PauserRemoved",
      "type": "event"
    },
    {
      "anonymous": false,
      "inputs": [
        {
          "indexed": true,
          "internalType": "address",
          "name": "from",
          "type": "address"
        },
        {
          "indexed": true,
          "internalType": "address",
          "name": "to",
          "type": "address"
        },
        {
          "indexed": false,
          "internalType": "uint256",
          "name": "value",
          "type": "uint256"
        }
      ],
      "name": "Transfer",
      "type": "event"
    },
    {
      "anonymous": false,
      "inputs": [
        {
          "indexed": false,
          "internalType": "address",
          "name": "account",
          "type": "address"
        }
      ],
      "name": "Unpaused",
      "type": "event"
    },
    {
      "constant": false,
      "inputs": [
        {
          "internalType": "address",
          "name": "account",
          "type": "address"
        }
      ],
      "name": "addPauser",
      "outputs": [],
      "payable": false,
      "stateMutability": "nonpayable",
      "type": "function"
    },
    {
      "constant": false,
      "inputs": [
        {
          "internalType": "address",
          "name": "_newController",
          "type": "address"
        }
      ],
      "name": "changeController",
      "outputs": [],
      "payable": false,
      "stateMutability": "nonpayable",
      "type": "function"
    },
    {
      "constant": true,
      "inputs": [],
      "name": "controller",
      "outputs": [
        {
          "internalType": "address",
          "name": "",
          "type": "address"
        }
      ],
      "payable": false,
      "stateMutability": "view",
      "type": "function"
    },
    {
      "constant": true,
      "inputs": [],
      "name": "decimals",
      "outputs": [
        {
          "internalType": "uint8",
          "name": "",
          "type": "uint8"
        }
      ],
      "payable": false,
      "stateMutability": "view",
      "type": "function"
    },
    {
      "constant": true,
      "inputs": [],
      "name": "getInitializationBlock",
      "outputs": [
        {
          "internalType": "uint256",
          "name": "",
          "type": "uint256"
        }
      ],
      "payable": false,
      "stateMutability": "view",
      "type": "function"
    },
    {
      "constant": true,
      "inputs": [
        {
          "internalType": "address",
          "name": "account",
          "type": "address"
        }
      ],
      "name": "isPauser",
      "outputs": [
        {
          "internalType": "bool",
          "name": "",
          "type": "bool"
        }
      ],
      "payable": false,
      "stateMutability": "view",
      "type": "function"
    },
    {
      "constant": true,
      "inputs": [],
      "name": "name",
      "outputs": [
        {
          "internalType": "string",
          "name": "",
          "type": "string"
        }
      ],
      "payable": false,
      "stateMutability": "view",
      "type": "function"
    },
    {
      "constant": false,
      "inputs": [],
      "name": "pause",
      "outputs": [],
      "payable": false,
      "stateMutability": "nonpayable",
      "type": "function"
    },
    {
      "constant": true,
      "inputs": [],
      "name": "paused",
      "outputs": [
        {
          "internalType": "bool",
          "name": "",
          "type": "bool"
        }
      ],
      "payable": false,
      "stateMutability": "view",
      "type": "function"
    },
    {
      "constant": false,
      "inputs": [],
      "name": "renouncePauser",
      "outputs": [],
      "payable": false,
      "stateMutability": "nonpayable",
      "type": "function"
    },
    {
      "constant": true,
      "inputs": [],
      "name": "symbol",
      "outputs": [
        {
          "internalType": "string",
          "name": "",
          "type": "string"
        }
      ],
      "payable": false,
      "stateMutability": "view",
      "type": "function"
    },
    {
      "constant": false,
      "inputs": [],
      "name": "unpause",
      "outputs": [],
      "payable": false,
      "stateMutability": "nonpayable",
      "type": "function"
    },
    {
      "constant": true,
      "inputs": [],
      "name": "totalSupply",
      "outputs": [
        {
          "internalType": "uint256",
          "name": "",
          "type": "uint256"
        }
      ],
      "payable": false,
      "stateMutability": "view",
      "type": "function"
    },
    {
      "constant": true,
      "inputs": [],
      "name": "cap",
      "outputs": [
        {
          "internalType": "uint256",
          "name": "",
          "type": "uint256"
        }
      ],
      "payable": false,
      "stateMutability": "view",
      "type": "function"
    },
    {
      "constant": false,
      "inputs": [
        {
          "internalType": "uint256",
          "name": "newCap",
          "type": "uint256"
        }
      ],
      "name": "updateCap",
      "outputs": [],
      "payable": false,
      "stateMutability": "nonpayable",
      "type": "function"
    },
    {
      "constant": true,
      "inputs": [
        {
          "internalType": "address",
          "name": "owner",
          "type": "address"
        }
      ],
      "name": "balanceOf",
      "outputs": [
        {
          "internalType": "uint256",
          "name": "",
          "type": "uint256"
        }
      ],
      "payable": false,
      "stateMutability": "view",
      "type": "function"
    },
    {
      "constant": true,
      "inputs": [
        {
          "internalType": "address",
          "name": "owner",
          "type": "address"
        },
        {
          "internalType": "address",
          "name": "spender",
          "type": "address"
        }
      ],
      "name": "allowance",
      "outputs": [
        {
          "internalType": "uint256",
          "name": "",
          "type": "uint256"
        }
      ],
      "payable": false,
      "stateMutability": "view",
      "type": "function"
    },
    {
      "constant": false,
      "inputs": [
        {
          "internalType": "address",
          "name": "to",
          "type": "address"
        },
        {
          "internalType": "uint256",
          "name": "value",
          "type": "uint256"
        }
      ],
      "name": "transfer",
      "outputs": [
        {
          "internalType": "bool",
          "name": "",
          "type": "bool"
        }
      ],
      "payable": false,
      "stateMutability": "nonpayable",
      "type": "function"
    },
    {
      "constant": false,
      "inputs": [
        {
          "internalType": "bytes32",
          "name": "identityClue",
          "type": "bytes32"
        },
        {
          "internalType": "uint256",
          "name": "value",
          "type": "uint256"
        }
      ],
      "name": "transferClue",
      "outputs": [
        {
          "internalType": "bool",
          "name": "",
          "type": "bool"
        }
      ],
      "payable": false,
      "stateMutability": "nonpayable",
      "type": "function"
    },
    {
      "constant": false,
      "inputs": [
        {
          "internalType": "address",
          "name": "spender",
          "type": "address"
        },
        {
          "internalType": "uint256",
          "name": "value",
          "type": "uint256"
        }
      ],
      "name": "approve",
      "outputs": [
        {
          "internalType": "bool",
          "name": "",
          "type": "bool"
        }
      ],
      "payable": false,
      "stateMutability": "nonpayable",
      "type": "function"
    },
    {
      "constant": false,
      "inputs": [
        {
          "internalType": "address",
          "name": "from",
          "type": "address"
        },
        {
          "internalType": "address",
          "name": "to",
          "type": "address"
        },
        {
          "internalType": "uint256",
          "name": "value",
          "type": "uint256"
        }
      ],
      "name": "transferFrom",
      "outputs": [
        {
          "internalType": "bool",
          "name": "",
          "type": "bool"
        }
      ],
      "payable": false,
      "stateMutability": "nonpayable",
      "type": "function"
    },
    {
      "constant": false,
      "inputs": [
        {
          "internalType": "address",
          "name": "spender",
          "type": "address"
        },
        {
          "internalType": "uint256",
          "name": "addedValue",
          "type": "uint256"
        }
      ],
      "name": "increaseAllowance",
      "outputs": [
        {
          "internalType": "bool",
          "name": "",
          "type": "bool"
        }
      ],
      "payable": false,
      "stateMutability": "nonpayable",
      "type": "function"
    },
    {
      "constant": false,
      "inputs": [
        {
          "internalType": "address",
          "name": "spender",
          "type": "address"
        },
        {
          "internalType": "uint256",
          "name": "subtractedValue",
          "type": "uint256"
        }
      ],
      "name": "decreaseAllowance",
      "outputs": [
        {
          "internalType": "bool",
          "name": "",
          "type": "bool"
        }
      ],
      "payable": false,
      "stateMutability": "nonpayable",
      "type": "function"
    },
    {
      "constant": false,
      "inputs": [
        {
          "internalType": "address",
          "name": "to",
          "type": "address"
        },
        {
          "internalType": "uint256",
          "name": "value",
          "type": "uint256"
        }
      ],
      "name": "mint",
      "outputs": [
        {
          "internalType": "bool",
          "name": "",
          "type": "bool"
        }
      ],
      "payable": false,
      "stateMutability": "nonpayable",
      "type": "function"
    },
    {
      "constant": false,
      "inputs": [
        {
          "internalType": "uint256",
          "name": "amount",
          "type": "uint256"
        }
      ],
      "name": "burn",
      "outputs": [],
      "payable": false,
      "stateMutability": "nonpayable",
      "type": "function"
    },
    {
      "constant": false,
      "inputs": [
        {
          "internalType": "address",
          "name": "account",
          "type": "address"
        },
        {
          "internalType": "uint256",
          "name": "amount",
          "type": "uint256"
        }
      ],
      "name": "burnFrom",
      "outputs": [],
      "payable": false,
      "stateMutability": "nonpayable",
      "type": "function"
    }
  ],
  "bytecode": "0x60806040523480156200001157600080fd5b5060405162001ffd38038062001ffd833981810160405260808110156200003757600080fd5b81019080805160405193929190846401000000008211156200005857600080fd5b9083019060208201858111156200006e57600080fd5b82516401000000008111828201881017156200008957600080fd5b82525081516020918201929091019080838360005b83811015620000b85781810151838201526020016200009e565b50505050905090810190601f168015620000e65780820380516001836020036101000a031916815260200191505b50604052602001805160405193929190846401000000008211156200010a57600080fd5b9083019060208201858111156200012057600080fd5b82516401000000008111828201881017156200013b57600080fd5b82525081516020918201929091019080838360005b838110156200016a57818101518382015260200162000150565b50505050905090810190601f168015620001985780820380516001836020036101000a031916815260200191505b506040908152602082810151929091015186519294509250859185918591620001c891600091908601906200044d565b508151620001de9060019060208501906200044d565b506002805460ff191660ff9290921691909117905550620002139050620002046200028e565b6001600160e01b036200029316565b600580546001600160a81b0319166101003302179055806200026e576040805162461bcd60e51b815260206004820152600f60248201526e06361702063616e6e6f74206265203608c1b604482015290519081900360640190fd5b620002816001600160e01b03620002e516565b60095550620004ef915050565b335b90565b620002ae8160046200035360201b620019461790919060201c565b6040516001600160a01b038216907f6719d08c1888103bea251a4ed56406bd0c3e69723c8a1686e017e7bbe159b6f890600090a250565b600354156200033b576040805162461bcd60e51b815260206004820152601360248201527f616c726561647920696e697469616c697a656400000000000000000000000000604482015290519081900360640190fd5b6200034e6001600160e01b03620003e016565b600355565b6200036882826001600160e01b03620003e416565b15620003bb576040805162461bcd60e51b815260206004820152601f60248201527f526f6c65733a206163636f756e7420616c72656164792068617320726f6c6500604482015290519081900360640190fd5b6001600160a01b0316600090815260209190915260409020805460ff19166001179055565b4390565b60006001600160a01b0382166200042d5760405162461bcd60e51b815260040180806020018281038252602281526020018062001fdb6022913960400191505060405180910390fd5b506001600160a01b03166000908152602091909152604090205460ff1690565b828054600181600116156101000203166002900490600052602060002090601f016020900481019282601f106200049057805160ff1916838001178555620004c0565b82800160010185558215620004c0579182015b82811115620004c0578251825591602001919060010190620004a3565b50620004ce929150620004d2565b5090565b6200029091905b80821115620004ce5760008155600101620004d9565b611adc80620004ff6000396000f3fe608060405234801561001057600080fd5b506004361061018e5760003560e01c80635c975abb116100de5780638b3dd74911610097578063a7d6889611610071578063a7d6889614610480578063a9059cbb1461049d578063dd62ed3e146104c9578063f77c4791146104f75761018e565b80638b3dd7491461044457806395d89b411461044c578063a457c2d7146104545761018e565b80635c975abb146103b45780636ef8d66d146103bc57806370a08231146103c457806379cc6790146103ea57806382dc1ec4146104165780638456cb591461043c5761018e565b8063355274ea1161014b5780633f4ba83a116101255780633f4ba83a1461033d57806340c10f191461034557806342966c681461037157806346fbf68e1461038e5761018e565b8063355274ea146102e157806339509351146102e95780633cebb823146103155761018e565b806305810b5f1461019357806306fdde03146101ca578063095ea7b31461024757806318160ddd1461027357806323b872dd1461028d578063313ce567146102c3575b600080fd5b6101b6600480360360408110156101a957600080fd5b508035906020013561051b565b604080519115158252519081900360200190f35b6101d261068b565b6040805160208082528351818301528351919283929083019185019080838360005b8381101561020c5781810151838201526020016101f4565b50505050905090810190601f1680156102395780820380516001836020036101000a031916815260200191505b509250505060405180910390f35b6101b66004803603604081101561025d57600080fd5b506001600160a01b038135169060200135610721565b61027b610783565b60408051918252519081900360200190f35b6101b6600480360360608110156102a357600080fd5b506001600160a01b03813581169160208101359091169060400135610789565b6102cb610921565b6040805160ff9092168252519081900360200190f35b61027b61092a565b6101b6600480360360408110156102ff57600080fd5b506001600160a01b038135169060200135610930565b61033b6004803603602081101561032b57600080fd5b50356001600160a01b03166109b9565b005b61033b610a2f565b6101b66004803603604081101561035b57600080fd5b506001600160a01b038135169060200135610b18565b61033b6004803603602081101561038757600080fd5b5035610bbe565b6101b6600480360360208110156103a457600080fd5b50356001600160a01b0316610bcb565b6101b6610be4565b61033b610bed565b61027b600480360360208110156103da57600080fd5b50356001600160a01b0316610bff565b61033b6004803603604081101561040057600080fd5b506001600160a01b038135169060200135610c1a565b61033b6004803603602081101561042c57600080fd5b50356001600160a01b0316610c28565b61033b610c77565b61027b610d3e565b6101d2610d44565b6101b66004803603604081101561046a57600080fd5b506001600160a01b038135169060200135610da4565b61033b6004803603602081101561049657600080fd5b5035610e2d565b6101b6600480360360408110156104b357600080fd5b506001600160a01b038135169060200135610e80565b61027b600480360360408110156104df57600080fd5b506001600160a01b0381358116916020013516610fa5565b6104ff610fd0565b604080516001600160a01b039092168252519081900360200190f35b60055460009060ff1615610569576040805162461bcd60e51b815260206004820152601060248201526f14185d5cd8589b194e881c185d5cd95960821b604482015290519081900360640190fd5b60055460408051633a07a6d960e21b81523360048201526024810185905290516101009092046001600160a01b03169163e81e9b6491604480820192602092909190829003018186803b1580156105bf57600080fd5b505afa1580156105d3573d6000803e3d6000fd5b505050506040513d60208110156105e957600080fd5b50511515600114610641576040805162461bcd60e51b815260206004820152601d60248201527f546f6b656e3336436f6e74726f6c6c65722072656a6563746564207478000000604482015290519081900360640190fd5b61064b3383610fe4565b604080518381529051849133917fd347225bf0a27d694aad46b004147b29a715560ae59eebc52c6852c30c73dbbe9181900360200190a350600192915050565b60008054604080516020601f60026000196101006001881615020190951694909404938401819004810282018101909252828152606093909290918301828280156107175780601f106106ec57610100808354040283529160200191610717565b820191906000526020600020905b8154815290600101906020018083116106fa57829003601f168201915b5050505050905090565b60055460009060ff161561076f576040805162461bcd60e51b815260206004820152601060248201526f14185d5cd8589b194e881c185d5cd95960821b604482015290519081900360640190fd5b61077a3384846111cb565b50600192915050565b60085490565b60055460009060ff16156107d7576040805162461bcd60e51b815260206004820152601060248201526f14185d5cd8589b194e881c185d5cd95960821b604482015290519081900360640190fd5b60055460408051634a39314960e01b81526001600160a01b038781166004830152868116602483015260448201869052915161010090930490911691634a39314991606480820192602092909190829003018186803b15801561083957600080fd5b505afa15801561084d573d6000803e3d6000fd5b505050506040513d602081101561086357600080fd5b505115156001146108a55760405162461bcd60e51b8152600401808060200182810382526027815260200180611a816027913960400191505060405180910390fd5b60055461010090046001600160a01b0316331461090c576108c78484846112d3565b6001600160a01b038416600090815260076020908152604080832033808552925290912054610907918691610902908663ffffffff6113e016565b6111cb565b610917565b6109178484846112d3565b5060019392505050565b60025460ff1690565b60095490565b60055460009060ff161561097e576040805162461bcd60e51b815260206004820152601060248201526f14185d5cd8589b194e881c185d5cd95960821b604482015290519081900360640190fd5b3360008181526007602090815260408083206001600160a01b038816845290915290205461077a91908590610902908663ffffffff61142916565b60055461010090046001600160a01b03163314610a075760405162461bcd60e51b81526004018080602001828103825260238152602001806119c86023913960400191505060405180910390fd5b600580546001600160a01b0390921661010002610100600160a81b0319909216919091179055565b610a3f610a3a611483565b610bcb565b610a7a5760405162461bcd60e51b81526004018080602001828103825260308152602001806119eb6030913960400191505060405180910390fd5b60055460ff16610ac8576040805162461bcd60e51b815260206004820152601460248201527314185d5cd8589b194e881b9bdd081c185d5cd95960621b604482015290519081900360640190fd5b6005805460ff191690557f5db9ee0a495bf2e6ff9c91a7834c1ba4fdd244a5e8aa4e537bd38aeae4b073aa610afb611483565b604080516001600160a01b039092168252519081900360200190a1565b60055460009061010090046001600160a01b03163314610b695760405162461bcd60e51b81526004018080602001828103825260238152602001806119c86023913960400191505060405180910390fd5b60055460ff1615610bb4576040805162461bcd60e51b815260206004820152601060248201526f14185d5cd8589b194e881c185d5cd95960821b604482015290519081900360640190fd5b61077a8383611487565b610bc83382610fe4565b50565b6000610bde60048363ffffffff6115d416565b92915050565b60055460ff1690565b610bfd610bf8611483565b61163b565b565b6001600160a01b031660009081526006602052604090205490565b610c248282611683565b5050565b610c33610a3a611483565b610c6e5760405162461bcd60e51b81526004018080602001828103825260308152602001806119eb6030913960400191505060405180910390fd5b610bc881611800565b610c82610a3a611483565b610cbd5760405162461bcd60e51b81526004018080602001828103825260308152602001806119eb6030913960400191505060405180910390fd5b60055460ff1615610d08576040805162461bcd60e51b815260206004820152601060248201526f14185d5cd8589b194e881c185d5cd95960821b604482015290519081900360640190fd5b6005805460ff191660011790557f62e78cea01bee320cd4e420270b5ea74000d11b0c9f74754ebdbfc544b05a258610afb611483565b60035490565b60018054604080516020601f600260001961010087891615020190951694909404938401819004810282018101909252828152606093909290918301828280156107175780601f106106ec57610100808354040283529160200191610717565b60055460009060ff1615610df2576040805162461bcd60e51b815260206004820152601060248201526f14185d5cd8589b194e881c185d5cd95960821b604482015290519081900360640190fd5b3360008181526007602090815260408083206001600160a01b038816845290915290205461077a91908590610902908663ffffffff6113e016565b60055461010090046001600160a01b03163314610e7b5760405162461bcd60e51b81526004018080602001828103825260238152602001806119c86023913960400191505060405180910390fd5b600955565b60055460009060ff1615610ece576040805162461bcd60e51b815260206004820152601060248201526f14185d5cd8589b194e881c185d5cd95960821b604482015290519081900360640190fd5b60055460408051634a39314960e01b81523360048201526001600160a01b03868116602483015260448201869052915161010090930490911691634a39314991606480820192602092909190829003018186803b158015610f2e57600080fd5b505afa158015610f42573d6000803e3d6000fd5b505050506040513d6020811015610f5857600080fd5b50511515600114610f9a5760405162461bcd60e51b8152600401808060200182810382526027815260200180611a816027913960400191505060405180910390fd5b61077a3384846112d3565b6001600160a01b03918216600090815260076020908152604080832093909416825291909152205490565b60055461010090046001600160a01b031690565b6001600160a01b038216611037576040805162461bcd60e51b81526020600482015260156024820152741859191c995cdcc80c081b9bdd08185b1b1bddd959605a1b604482015290519081900360640190fd5b6005546040805163147411a960e31b81526001600160a01b03858116600483015291516101009093049091169163a3a08d4891602480820192602092909190829003018186803b15801561108a57600080fd5b505afa15801561109e573d6000803e3d6000fd5b505050506040513d60208110156110b457600080fd5b505115156001146110f65760405162461bcd60e51b8152600401808060200182810382526023815260200180611a5e6023913960400191505060405180910390fd5b600854611109908263ffffffff6113e016565b6008556001600160a01b038216600090815260066020526040902054611135908263ffffffff6113e016565b6001600160a01b0383166000818152600660209081526040808320949094558351858152935191937fddf252ad1be2c89b69c2b068fc378daa952ba7f163c4a11628f55a4df523b3ef929081900390910190a36040805182815290516001600160a01b038416917fcc16f5dbb4873280815c1ee09dbd06736cffcc184412cf7a71a0fdb75d397ca5919081900360200190a25050565b6001600160a01b03821661121e576040805162461bcd60e51b81526020600482015260156024820152741859191c995cdcc80c081b9bdd08185b1b1bddd959605a1b604482015290519081900360640190fd5b6001600160a01b038316611271576040805162461bcd60e51b81526020600482015260156024820152741859191c995cdcc80c081b9bdd08185b1b1bddd959605a1b604482015290519081900360640190fd5b6001600160a01b03808416600081815260076020908152604080832094871680845294825291829020859055815185815291517f8c5be1e5ebec7d5bd14f71427d1e84f3dd0314c0f7b2291e5b200ac8c7c3b9259281900390910190a3505050565b6001600160a01b038216611326576040805162461bcd60e51b81526020600482015260156024820152741859191c995cdcc80c081b9bdd08185b1b1bddd959605a1b604482015290519081900360640190fd5b6001600160a01b03831660009081526006602052604090205461134f908263ffffffff6113e016565b6001600160a01b038085166000908152600660205260408082209390935590841681522054611384908263ffffffff61142916565b6001600160a01b0380841660008181526006602090815260409182902094909455805185815290519193928716927fddf252ad1be2c89b69c2b068fc378daa952ba7f163c4a11628f55a4df523b3ef92918290030190a3505050565b600061142283836040518060400160405280601e81526020017f536166654d6174683a207375627472616374696f6e206f766572666c6f770000815250611848565b9392505050565b600082820183811015611422576040805162461bcd60e51b815260206004820152601b60248201527f536166654d6174683a206164646974696f6e206f766572666c6f770000000000604482015290519081900360640190fd5b3390565b6001600160a01b0382166114da576040805162461bcd60e51b81526020600482015260156024820152741859191c995cdcc80c081b9bdd08185b1b1bddd959605a1b604482015290519081900360640190fd5b6009546114f5826114e9610783565b9063ffffffff61142916565b111561153d576040805162461bcd60e51b81526020600482015260126024820152711d1bdad95b8818d85c08195e18d95959195960721b604482015290519081900360640190fd5b600854611550908263ffffffff61142916565b6008556001600160a01b03821660009081526006602052604090205461157c908263ffffffff61142916565b6001600160a01b03831660008181526006602090815260408083209490945583518581529351929391927fddf252ad1be2c89b69c2b068fc378daa952ba7f163c4a11628f55a4df523b3ef9281900390910190a35050565b60006001600160a01b03821661161b5760405162461bcd60e51b8152600401808060200182810382526022815260200180611a3c6022913960400191505060405180910390fd5b506001600160a01b03166000908152602091909152604090205460ff1690565b61164c60048263ffffffff6118df16565b6040516001600160a01b038216907fcd265ebaf09df2871cc7bd4133404a235ba12eff2041bb89d9c714a2621c7c7e90600090a250565b6001600160a01b0382166116d6576040805162461bcd60e51b81526020600482015260156024820152741859191c995cdcc80c081b9bdd08185b1b1bddd959605a1b604482015290519081900360640190fd5b6005546040805163147411a960e31b81526001600160a01b03858116600483015291516101009093049091169163a3a08d4891602480820192602092909190829003018186803b15801561172957600080fd5b505afa15801561173d573d6000803e3d6000fd5b505050506040513d602081101561175357600080fd5b505115156001146117955760405162461bcd60e51b8152600401808060200182810382526023815260200180611a5e6023913960400191505060405180910390fd5b60055461010090046001600160a01b031633146117f6576117b68282610fe4565b6001600160a01b0382166000908152600760209081526040808320338085529252909120546117f1918491610902908563ffffffff6113e016565b610c24565b610c248282610fe4565b61181160048263ffffffff61194616565b6040516001600160a01b038216907f6719d08c1888103bea251a4ed56406bd0c3e69723c8a1686e017e7bbe159b6f890600090a250565b600081848411156118d75760405162461bcd60e51b81526004018080602001828103825283818151815260200191508051906020019080838360005b8381101561189c578181015183820152602001611884565b50505050905090810190601f1680156118c95780820380516001836020036101000a031916815260200191505b509250505060405180910390fd5b505050900390565b6118e982826115d4565b6119245760405162461bcd60e51b8152600401808060200182810382526021815260200180611a1b6021913960400191505060405180910390fd5b6001600160a01b0316600090815260209190915260409020805460ff19169055565b61195082826115d4565b156119a2576040805162461bcd60e51b815260206004820152601f60248201527f526f6c65733a206163636f756e7420616c72656164792068617320726f6c6500604482015290519081900360640190fd5b6001600160a01b0316600090815260209190915260409020805460ff1916600117905556fe616363657373206e6f7420616c6c6f7765642c206f6e6c7920636f6e74726f6c6c6572506175736572526f6c653a2063616c6c657220646f6573206e6f742068617665207468652050617573657220726f6c65526f6c65733a206163636f756e7420646f6573206e6f74206861766520726f6c65526f6c65733a206163636f756e7420697320746865207a65726f2061646472657373546f6b656e3336436f6e74726f6c6c65722072656a656374656420746865206275726e546f6b656e3336436f6e74726f6c6c65722072656a656374656420746865207472616e73666572a265627a7a72315820d9d3155970722a2141ff6498b8dabc85ab6bb42b9cda767d51d4fba3765abc4664736f6c634300050f0032526f6c65733a206163636f756e7420697320746865207a65726f2061646472657373",
  "source": "pragma solidity ^0.5.9;\n\nimport \"openzeppelin-solidity/contracts/token/ERC20/ERC20Detailed.sol\";\nimport \"openzeppelin-solidity/contracts/lifecycle/Pausable.sol\";\nimport \"openzeppelin-solidity/contracts/math/SafeMath.sol\";\nimport \"./Controlled.sol\";\nimport \"./IToken36Controller.sol\";\nimport \"./Initializable.sol\";\n\n\n/// @title Token36 Base Contract\n/// @author element36.io\ncontract Token36 is ERC20Detailed, Initializable, Pausable, Controlled {\n    using SafeMath for uint256;\n\n    // User balances\n    mapping (address => uint256) private _balances;\n\n    // User allowances\n    mapping (address => mapping (address => uint256)) private _allowed;\n\n    // Total supply of token\n    uint256 private _totalSupply;\n\n    // Max amount of tokens allowed\n    uint256 private _cap;\n\n    // Burn Event\n    event Burn(address indexed burner, uint256 value);\n\n    // Wallet free Transfer Event which is picked up by the server\n    event InitiateTransfer(address indexed from, bytes32 indexed transactionHash, uint256 amount);\n\n\n    // Constructor\n    constructor(\n        string memory name,\n        string memory symbol,\n        uint8 decimals,\n        uint256 cap) public ERC20Detailed(name, symbol, decimals) {\n\n        require(cap > 0, \"cap cannot be 0\");\n\n        initialized();\n\n        // Set initial cap\n        _cap = cap;\n    }\n\n    /**\n     * @dev Total number of tokens in existence\n     */\n    function totalSupply() public view returns (uint256) {\n        return _totalSupply;\n    }\n\n    /**\n   * @dev Returns the cap on the token's total supply.\n   */\n    function cap() public view returns (uint256) {\n        return _cap;\n    }\n\n    /**\n     * @dev Set a new cap for the token\n     * @param newCap The new cap for the token\n     */\n    function updateCap(uint256 newCap) public onlyController {\n        _cap = newCap;\n    }\n\n    /**\n     * @dev Gets the balance of the specified address.\n     * @param owner The address to query the balance of.\n     * @return A uint256 representing the amount owned by the passed address.\n     */\n    function balanceOf(address owner) public view returns (uint256) {\n        return _balances[owner];\n    }\n\n    /**\n     * @dev Function to check the amount of tokens that an owner allowed to a spender.\n     * @param owner address The address which owns the funds.\n     * @param spender address The address which will spend the funds.\n     * @return A uint256 specifying the amount of tokens still available for the spender.\n     */\n    function allowance(address owner, address spender) public view returns (uint256) {\n        return _allowed[owner][spender];\n    }\n\n    /**\n     * @dev Transfer token to a specified address\n     * @param to The address to transfer to.\n     * @param value The amount to be transferred.\n     */\n    function transfer(address to, uint256 value) public whenNotPaused returns (bool) {\n        require(IToken36Controller(_controller).onTransfer(msg.sender, to, value) == true, \"Token36Controller rejected the transfer\");\n\n        _transfer(msg.sender, to, value);\n        return true;\n    }\n\n\n    /**\n     * @dev Inititate transfer tokens or funds to  based on  hash of a transaction (DATA, 32 Bytes - hash of a transaction)\n     * The idea is following scenario/use case: User Alice has no wallet. Alice uses Cash36 to do a bank-payment to Bob -\n     * means that  Cash36 will send funds (Cash36 Tokens) to Bob. If Bob wants to send funds back to Alice (e.g. for yield-payment),\n     * Then Bob has no wallet address of Alice. Bob uses the transaction-Id from the initial payment as a clue to refer to Alice and trigger a\n     * transfer of his funds (tokens) to Alice.\n     * @param identityClue As identity clue the hash of the transaction which holds to the identity of the receiver. Will be evaluated on the server side.\n     * @param value The amount to be transferred.\n     */\n    function transferClue(bytes32 identityClue, uint256 value) public whenNotPaused returns (bool) {\n        require(IToken36Controller(_controller).onTransfer(msg.sender, value) == true, \"Token36Controller rejected tx\");\n        // issue payment\n        //msg sender is a contract\n        _burn(msg.sender,value);\n        emit InitiateTransfer(msg.sender,identityClue,value);\n        return true;\n    }\n\n    /**\n     * @dev Approve the passed address to spend the specified amount of tokens on behalf of msg.sender.\n     * Beware that changing an allowance with this method brings the risk that someone may use both the old\n     * and the new allowance by unfortunate transaction ordering. One possible solution to mitigate this\n     * race condition is to first reduce the spender's allowance to 0 and set the desired value afterwards:\n     * https://github.com/ethereum/EIPs/issues/20#issuecomment-263524729\n     * @param spender The address which will spend the funds.\n     * @param value The amount of tokens to be spent.\n     */\n    function approve(address spender, uint256 value) public whenNotPaused returns (bool) {\n        _approve(msg.sender, spender, value);\n        return true;\n    }\n\n    /**\n     * @dev Transfer tokens from one address to another.\n     * Note that while this function emits an Approval event, this is not required as per the specification,\n     * and other compliant implementations may not emit the event.\n     * @param from address The address which you want to send tokens from\n     * @param to address The address which you want to transfer to\n     * @param value uint256 the amount of tokens to be transferred\n     */\n    function transferFrom(address from, address to, uint256 value) public whenNotPaused returns (bool) {\n        require(IToken36Controller(_controller).onTransfer(from, to, value) == true, \"Token36Controller rejected the transfer\");\n\n        // The controller of this contract can move tokens around at will - needed for recovery\n        if (msg.sender != _controller) {\n            _transfer(from, to, value);\n            _approve(from, msg.sender, _allowed[from][msg.sender].sub(value));\n        } else {\n            _transfer(from, to, value);\n        }\n        return true;\n    }\n\n    /**\n     * @dev Increase the amount of tokens that an owner allowed to a spender.\n     * approve should be called when _allowed[msg.sender][spender] == 0. To increment\n     * allowed value is better to use this function to avoid 2 calls (and wait until\n     * the first transaction is mined)\n     * From MonolithDAO Token.sol\n     * Emits an Approval event.\n     * @param spender The address which will spend the funds.\n     * @param addedValue The amount of tokens to increase the allowance by.\n     */\n    function increaseAllowance(address spender, uint256 addedValue) public whenNotPaused returns (bool) {\n        _approve(msg.sender, spender, _allowed[msg.sender][spender].add(addedValue));\n        return true;\n    }\n\n    /**\n     * @dev Decrease the amount of tokens that an owner allowed to a spender.\n     * approve should be called when _allowed[msg.sender][spender] == 0. To decrement\n     * allowed value is better to use this function to avoid 2 calls (and wait until\n     * the first transaction is mined)\n     * From MonolithDAO Token.sol\n     * Emits an Approval event.\n     * @param spender The address which will spend the funds.\n     * @param subtractedValue The amount of tokens to decrease the allowance by.\n     */\n    function decreaseAllowance(address spender, uint256 subtractedValue) public whenNotPaused returns (bool) {\n        _approve(msg.sender, spender, _allowed[msg.sender][spender].sub(subtractedValue));\n        return true;\n    }\n\n    /**\n     * @dev Transfer token for a specified addresses\n     * @param from The address to transfer from.\n     * @param to The address to transfer to.\n     * @param value The amount to be transferred.\n     */\n    function _transfer(address from, address to, uint256 value) internal {\n        require(to != address(0), \"address 0 not allowed\");\n\n        _balances[from] = _balances[from].sub(value);\n        _balances[to] = _balances[to].add(value);\n        emit Transfer(from, to, value);\n    }\n\n    /**\n     * @dev Function to mint tokens\n     * @param to The address that will receive the minted tokens.\n     * @param value The amount of tokens to mint.\n     * @return A boolean that indicates if the operation was successful.\n     */\n    function mint(address to, uint256 value) public onlyController whenNotPaused returns (bool) {\n        _mint(to, value);\n        return true;\n    }\n\n    /**\n     * @dev Internal function that mints an amount of the token and assigns it to\n     * an account. This encapsulates the modification of balances such that the\n     * proper events are emitted.\n     * @param account The account that will receive the created tokens.\n     * @param value The amount that will be created.\n     */\n    function _mint(address account, uint256 value) internal {\n        require(account != address(0), \"address 0 not allowed\");\n        require(totalSupply().add(value) <= _cap, \"token cap exceeded\");\n\n        _totalSupply = _totalSupply.add(value);\n        _balances[account] = _balances[account].add(value);\n        emit Transfer(address(0), account, value);\n    }\n\n    /**\n     * @dev Destroys `amount` tokens from the caller.\n     *\n     * See `ERC20._burn`.\n     */\n    function burn(uint256 amount) public {\n        _burn(msg.sender, amount);\n    }\n\n    /**\n     * @dev See `ERC20._burnFrom`.\n     */\n    function burnFrom(address account, uint256 amount) public {\n        _burnFrom(account, amount);\n    }\n\n    /**\n     * @dev Internal function that burns an amount of the token of a given\n     * account.\n     * @param account The account whose tokens will be burnt.\n     * @param value The amount that will be burnt.\n     */\n    function _burn(address account, uint256 value) internal {\n        require(account != address(0), \"address 0 not allowed\");\n        require(IToken36Controller(_controller).onBurn(account) == true, \"Token36Controller rejected the burn\");\n\n        _totalSupply = _totalSupply.sub(value);\n        _balances[account] = _balances[account].sub(value);\n        emit Transfer(account, address(0), value);\n\n        // Burn Event needed for element36 Exchange\n        emit Burn(account, value);\n    }\n\n    /**\n     * @dev Internal function that burns an amount of the token of a given\n     * account, deducting from the sender's allowance for said account. Uses the\n     * internal burn function.\n     * Emits an Approval event (reflecting the reduced allowance).\n     * @param account The account whose tokens will be burnt.\n     * @param value The amount that will be burnt.\n     */\n    function _burnFrom(address account, uint256 value) internal {\n        require(account != address(0), \"address 0 not allowed\");\n        require(IToken36Controller(_controller).onBurn(account) == true, \"Token36Controller rejected the burn\");\n\n        if (msg.sender != _controller) {\n            _burn(account, value);\n            _approve(account, msg.sender, _allowed[account][msg.sender].sub(value));\n        } else {  // The controller of this contract can burn tokens at will - needed for recovery\n            _burn(account, value);\n        }\n    }\n\n    /**\n     * @dev Approve an address to spend another addresses' tokens.\n     * @param owner The address that owns the tokens.\n     * @param spender The address that will spend the tokens.\n     * @param value The number of tokens that can be spent.\n     */\n    function _approve(address owner, address spender, uint256 value) internal {\n        require(spender != address(0), \"address 0 not allowed\");\n        require(owner != address(0), \"address 0 not allowed\");\n\n        _allowed[owner][spender] = value;\n        emit Approval(owner, spender, value);\n    }\n}",
  "sourcePath": "/home/w/workspace/contracts/contracts/Token36.sol",
  "compiler": {
    "name": "solc",
    "version": "0.5.15+commit.6a57276f.Emscripten.clang"
  },
  "schemaVersion": "3.0.20",
  "updatedAt": "2020-03-15T05:32:30.868Z",
  "devdoc": {
    "author": "element36.io",
    "methods": {
      "allowance(address,address)": {
        "details": "Function to check the amount of tokens that an owner allowed to a spender.",
        "params": {
          "owner": "address The address which owns the funds.",
          "spender": "address The address which will spend the funds."
        },
        "return": "A uint256 specifying the amount of tokens still available for the spender."
      },
      "approve(address,uint256)": {
        "details": "Approve the passed address to spend the specified amount of tokens on behalf of msg.sender. Beware that changing an allowance with this method brings the risk that someone may use both the old and the new allowance by unfortunate transaction ordering. One possible solution to mitigate this race condition is to first reduce the spender's allowance to 0 and set the desired value afterwards: https://github.com/ethereum/EIPs/issues/20#issuecomment-263524729",
        "params": {
          "spender": "The address which will spend the funds.",
          "value": "The amount of tokens to be spent."
        }
      },
      "balanceOf(address)": {
        "details": "Gets the balance of the specified address.",
        "params": {
          "owner": "The address to query the balance of."
        },
        "return": "A uint256 representing the amount owned by the passed address."
      },
      "burn(uint256)": {
        "details": "Destroys `amount` tokens from the caller.     * See `ERC20._burn`."
      },
      "burnFrom(address,uint256)": {
        "details": "See `ERC20._burnFrom`."
      },
      "cap()": {
        "details": "Returns the cap on the token's total supply."
      },
      "changeController(address)": {
        "details": "onlyController - only open to the currently assigned controller",
        "params": {
          "_newController": "The new controller of the contract"
        }
      },
      "decimals()": {
        "details": "Returns the number of decimals used to get its user representation. For example, if `decimals` equals `2`, a balance of `505` tokens should be displayed to a user as `5,05` (`505 / 10 ** 2`).     * Tokens usually opt for a value of 18, imitating the relationship between Ether and Wei.     * NOTE: This information is only used for _display_ purposes: it in no way affects any of the arithmetic of the contract, including {IERC20-balanceOf} and {IERC20-transfer}."
      },
      "decreaseAllowance(address,uint256)": {
        "details": "Decrease the amount of tokens that an owner allowed to a spender. approve should be called when _allowed[msg.sender][spender] == 0. To decrement allowed value is better to use this function to avoid 2 calls (and wait until the first transaction is mined) From MonolithDAO Token.sol Emits an Approval event.",
        "params": {
          "spender": "The address which will spend the funds.",
          "subtractedValue": "The amount of tokens to decrease the allowance by."
        }
      },
      "increaseAllowance(address,uint256)": {
        "details": "Increase the amount of tokens that an owner allowed to a spender. approve should be called when _allowed[msg.sender][spender] == 0. To increment allowed value is better to use this function to avoid 2 calls (and wait until the first transaction is mined) From MonolithDAO Token.sol Emits an Approval event.",
        "params": {
          "addedValue": "The amount of tokens to increase the allowance by.",
          "spender": "The address which will spend the funds."
        }
      },
      "mint(address,uint256)": {
        "details": "Function to mint tokens",
        "params": {
          "to": "The address that will receive the minted tokens.",
          "value": "The amount of tokens to mint."
        },
        "return": "A boolean that indicates if the operation was successful."
      },
      "name()": {
        "details": "Returns the name of the token."
      },
      "pause()": {
        "details": "Called by a pauser to pause, triggers stopped state."
      },
      "paused()": {
        "details": "Returns true if the contract is paused, and false otherwise."
      },
      "symbol()": {
        "details": "Returns the symbol of the token, usually a shorter version of the name."
      },
      "totalSupply()": {
        "details": "Total number of tokens in existence"
      },
      "transfer(address,uint256)": {
        "details": "Transfer token to a specified address",
        "params": {
          "to": "The address to transfer to.",
          "value": "The amount to be transferred."
        }
      },
      "transferClue(bytes32,uint256)": {
        "details": "Inititate transfer tokens or funds to  based on  hash of a transaction (DATA, 32 Bytes - hash of a transaction) The idea is following scenario/use case: User Alice has no wallet. Alice uses Cash36 to do a bank-payment to Bob - means that  Cash36 will send funds (Cash36 Tokens) to Bob. If Bob wants to send funds back to Alice (e.g. for yield-payment), Then Bob has no wallet address of Alice. Bob uses the transaction-Id from the initial payment as a clue to refer to Alice and trigger a transfer of his funds (tokens) to Alice.",
        "params": {
          "identityClue": "As identity clue the hash of the transaction which holds to the identity of the receiver. Will be evaluated on the server side.",
          "value": "The amount to be transferred."
        }
      },
      "transferFrom(address,address,uint256)": {
        "details": "Transfer tokens from one address to another. Note that while this function emits an Approval event, this is not required as per the specification, and other compliant implementations may not emit the event.",
        "params": {
          "from": "address The address which you want to send tokens from",
          "to": "address The address which you want to transfer to",
          "value": "uint256 the amount of tokens to be transferred"
        }
      },
      "unpause()": {
        "details": "Called by a pauser to unpause, returns to normal state."
      },
      "updateCap(uint256)": {
        "details": "Set a new cap for the token",
        "params": {
          "newCap": "The new cap for the token"
        }
      }
    },
    "title": "Token36 Base Contract"
  },
  "userdoc": {
    "methods": {
      "changeController(address)": {
        "notice": "Changes the controller of the contract"
      },
      "getInitializationBlock()": {
        "notice": "@return Block number in which the contract was initialized"
      }
    }
  }
}