{
  "contractName": "Token36Controller",
  "abi": [
    {
      "constant": false,
      "inputs": [],
      "name": "renounceOwnership",
      "outputs": [],
      "payable": false,
      "stateMutability": "nonpayable",
      "type": "function"
    },
    {
      "constant": true,
      "inputs": [],
      "name": "owner",
      "outputs": [
        {
          "name": "",
          "type": "address"
        }
      ],
      "payable": false,
      "stateMutability": "view",
      "type": "function"
    },
    {
      "constant": true,
      "inputs": [],
      "name": "maxAccountTokens",
      "outputs": [
        {
          "name": "",
          "type": "uint256"
        }
      ],
      "payable": false,
      "stateMutability": "view",
      "type": "function"
    },
    {
      "constant": false,
      "inputs": [
        {
          "name": "_newOwner",
          "type": "address"
        }
      ],
      "name": "transferOwnership",
      "outputs": [],
      "payable": false,
      "stateMutability": "nonpayable",
      "type": "function"
    },
    {
      "inputs": [
        {
          "name": "_token",
          "type": "address"
        },
        {
          "name": "_compliance",
          "type": "address"
        }
      ],
      "payable": false,
      "stateMutability": "nonpayable",
      "type": "constructor"
    },
    {
      "anonymous": false,
      "inputs": [
        {
          "indexed": true,
          "name": "previousOwner",
          "type": "address"
        }
      ],
      "name": "OwnershipRenounced",
      "type": "event"
    },
    {
      "anonymous": false,
      "inputs": [
        {
          "indexed": true,
          "name": "previousOwner",
          "type": "address"
        },
        {
          "indexed": true,
          "name": "newOwner",
          "type": "address"
        }
      ],
      "name": "OwnershipTransferred",
      "type": "event"
    },
    {
      "constant": true,
      "inputs": [
        {
          "name": "_from",
          "type": "address"
        },
        {
          "name": "_to",
          "type": "address"
        },
        {
          "name": "_amount",
          "type": "uint256"
        }
      ],
      "name": "onTransfer",
      "outputs": [
        {
          "name": "",
          "type": "bool"
        }
      ],
      "payable": false,
      "stateMutability": "view",
      "type": "function"
    },
    {
      "constant": false,
      "inputs": [
        {
          "name": "_owner",
          "type": "address"
        }
      ],
      "name": "proxyPayment",
      "outputs": [
        {
          "name": "",
          "type": "bool"
        }
      ],
      "payable": true,
      "stateMutability": "payable",
      "type": "function"
    },
    {
      "constant": false,
      "inputs": [
        {
          "name": "_receiver",
          "type": "address"
        },
        {
          "name": "_amount",
          "type": "uint256"
        }
      ],
      "name": "mint",
      "outputs": [],
      "payable": false,
      "stateMutability": "nonpayable",
      "type": "function"
    },
    {
      "constant": false,
      "inputs": [
        {
          "name": "_maxAccountTokens",
          "type": "uint256"
        }
      ],
      "name": "setMaxAccountTokens",
      "outputs": [],
      "payable": false,
      "stateMutability": "nonpayable",
      "type": "function"
    },
    {
      "constant": false,
      "inputs": [
        {
          "name": "_newComplianceContract",
          "type": "address"
        }
      ],
      "name": "updateComplianceContract",
      "outputs": [],
      "payable": false,
      "stateMutability": "nonpayable",
      "type": "function"
    }
  ],
  "bytecode": "0x608060405260001960035534801561001657600080fd5b5060405160408061092f83398101604052805160209091015160008054600160a060020a0319908116331790915560018054600160a060020a03948516908316179055600280549390921692169190911790556108b7806100786000396000f3006080604052600436106100985763ffffffff7c010000000000000000000000000000000000000000000000000000000060003504166340c10f19811461009d5780634a393149146100c3578063715018a6146101015780638da5cb5b146101165780639b1649e614610147578063ecfda43214610168578063f2fde38b1461018f578063f48c3054146101b0578063fbb64114146101c4575b600080fd5b3480156100a957600080fd5b506100c1600160a060020a03600435166024356101dc565b005b3480156100cf57600080fd5b506100ed600160a060020a03600435811690602435166044356103d1565b604080519115158252519081900360200190f35b34801561010d57600080fd5b506100c1610561565b34801561012257600080fd5b5061012b6105cd565b60408051600160a060020a039092168252519081900360200190f35b34801561015357600080fd5b506100c1600160a060020a03600435166105dc565b34801561017457600080fd5b5061017d610622565b60408051918252519081900360200190f35b34801561019b57600080fd5b506100c1600160a060020a0360043516610628565b6100ed600160a060020a036004351661064b565b3480156101d057600080fd5b506100c160043561066d565b600254600154604080517fea13d8a1000000000000000000000000000000000000000000000000000000008152336004820152600160a060020a0392831660248201529051919092169163ea13d8a19160448083019260209291908290030181600087803b15801561024d57600080fd5b505af1158015610261573d6000803e3d6000fd5b505050506040513d602081101561027757600080fd5b5051151561028457600080fd5b61028d8261071a565b151561033257600254604080517f1e9d48cf000000000000000000000000000000000000000000000000000000008152600160a060020a03858116600483015291519190921691631e9d48cf9160248083019260209291908290030181600087803b1580156102fb57600080fd5b505af115801561030f573d6000803e3d6000fd5b505050506040513d602081101561032557600080fd5b5051151561033257600080fd5b600154604080517ff0dda65c000000000000000000000000000000000000000000000000000000008152600160a060020a038581166004830152602482018590529151919092169163f0dda65c9160448083019260209291908290030181600087803b1580156103a157600080fd5b505af11580156103b5573d6000803e3d6000fd5b505050506040513d60208110156103cb57600080fd5b50505050565b600154600090600160a060020a031633146103eb57600080fd5b6103f48361071a565b151561055657600254604080517f1e9d48cf000000000000000000000000000000000000000000000000000000008152600160a060020a03868116600483015291519190921691631e9d48cf9160248083019260209291908290030181600087803b15801561046257600080fd5b505af1158015610476573d6000803e3d6000fd5b505050506040513d602081101561048c57600080fd5b5051151561049c5750600061055a565b600254604080517f1e9d48cf000000000000000000000000000000000000000000000000000000008152600160a060020a03878116600483015291519190921691631e9d48cf9160248083019260209291908290030181600087803b15801561050457600080fd5b505af1158015610518573d6000803e3d6000fd5b505050506040513d602081101561052e57600080fd5b5051151561053e5750600061055a565b6105488383610747565b15156105565750600061055a565b5060015b9392505050565b600054600160a060020a0316331461057857600080fd5b60008054604051600160a060020a03909116917ff8df31144d9c2f0f6b59d69b8b98abd5459d07f2742c4df920b25aae33c6482091a26000805473ffffffffffffffffffffffffffffffffffffffff19169055565b600054600160a060020a031681565b600054600160a060020a031633146105f357600080fd5b6002805473ffffffffffffffffffffffffffffffffffffffff1916600160a060020a0392909216919091179055565b60035481565b600054600160a060020a0316331461063f57600080fd5b610648816107fb565b50565b600154600090600160a060020a0316331461066557600080fd5b506000919050565b600254600154604080517fea13d8a1000000000000000000000000000000000000000000000000000000008152336004820152600160a060020a0392831660248201529051919092169163ea13d8a19160448083019260209291908290030181600087803b1580156106de57600080fd5b505af11580156106f2573d6000803e3d6000fd5b505050506040513d602081101561070857600080fd5b5051151561071557600080fd5b600355565b600080600160a060020a03831615156107365760009150610741565b823b90506000811191505b50919050565b600354600154604080517f70a08231000000000000000000000000000000000000000000000000000000008152600160a060020a0386811660048301529151600094936107f29387939116916370a082319160248082019260209290919082900301818a87803b1580156107ba57600080fd5b505af11580156107ce573d6000803e3d6000fd5b505050506040513d60208110156107e457600080fd5b50519063ffffffff61087816565b11159392505050565b600160a060020a038116151561081057600080fd5b60008054604051600160a060020a03808516939216917f8be0079c531659141344cd1fd0a4f28419497f9722a3daafe3b4186f6b6457e091a36000805473ffffffffffffffffffffffffffffffffffffffff1916600160a060020a0392909216919091179055565b8181018281101561088557fe5b929150505600a165627a7a723058208837452a9c4a2327f3ff4fba5adb667760000c5effaf1990b3452effccf1f25b0029",
  "source": "pragma solidity ^0.4.24;\n\nimport \"openzeppelin-solidity/contracts/ownership/Ownable.sol\";\nimport \"openzeppelin-solidity/contracts/math/SafeMath.sol\";\nimport \"./IToken36Controller.sol\";\nimport \"./Token36.sol\";\nimport \"./Cash36Compliance.sol\";\n\n\n/// @title Token Controller\n/// @author element36.io\ncontract Token36Controller is IToken36Controller, Ownable {\n    using SafeMath for uint256;\n\n    // Token controlled by this controller\n    Token36 internal token;\n\n    // Compliance contract\n    Cash36Compliance compliance;\n\n    // Max. Tokens an account can hold\n    uint256 public maxAccountTokens = uint256(-1);\n\n    modifier onlyAllowedExchanges {\n        require(compliance.isAllowedExchange(msg.sender, address(token)));\n        _;\n    }\n\n    // Constructor\n    constructor(Token36 _token, address _compliance) public {\n        token = _token;\n        compliance = Cash36Compliance(_compliance);\n    }\n\n    function onTransfer(address _from, address _to, uint _amount) public view returns (bool) {\n        require(msg.sender == address(token));\n\n        // Check SimpleKYC\n        if (isContract(_to) == false) {\n            // Check if user _to is KYCed\n            if (!compliance.checkUser(_to)) {\n                return false;\n            }\n\n            // Check if user _from is KYCed (blacklist check)\n            if (!compliance.checkUser(_from)) {\n                return false;\n            }\n\n            // Check if max balance is reached\n            if (!isBalanceIncreaseAllowed(_to, _amount)) {\n                return false;\n            }\n        }\n\n        return true;\n    }\n\n    function proxyPayment(address _owner) public payable returns(bool) {\n        require(msg.sender == address(token));\n\n        return false;\n    }\n\n    function mint(address _receiver, uint256 _amount) external onlyAllowedExchanges {\n        // Check Compliance first\n        if (isContract(_receiver) == false) {\n            require(compliance.checkUser(_receiver));\n        }\n\n        token.mintTokens(_receiver, _amount);\n    }\n\n\n    function setMaxAccountTokens(uint _maxAccountTokens) external onlyAllowedExchanges {\n        maxAccountTokens = _maxAccountTokens;\n    }\n\n    function updateComplianceContract(address _newComplianceContract) external onlyOwner {\n        compliance = Cash36Compliance(_newComplianceContract);\n    }\n\n    // INTERNAL\n    function isBalanceIncreaseAllowed(address _receiver, uint _amount) internal view returns (bool) {\n        return token.balanceOf(_receiver).add(_amount) <= maxAccountTokens;\n    }\n\n    function isContract(address _addr) view internal returns(bool) {\n        uint size;\n        if (_addr == 0)\n            return false;\n\n        assembly {\n            size := extcodesize(_addr)\n        }\n\n        return size > 0;\n    }\n}",
  "sourcePath": "/Users/bum/element36/dev/cash36/contracts/contracts/Token36Controller.sol",
  "compiler": {
    "name": "solc",
    "version": "0.4.24+commit.e67f0147.Emscripten.clang"
  },
  "schemaVersion": "2.0.1",
  "updatedAt": "2018-06-22T13:31:52.975Z"
}