{
  "contractName": "Token36Controller",
  "abi": [
    {
      "constant": false,
      "inputs": [],
      "name": "renounceOwnership",
      "outputs": [],
      "payable": false,
      "stateMutability": "nonpayable",
      "type": "function"
    },
    {
      "constant": true,
      "inputs": [],
      "name": "owner",
      "outputs": [
        {
          "name": "",
          "type": "address"
        }
      ],
      "payable": false,
      "stateMutability": "view",
      "type": "function"
    },
    {
      "constant": true,
      "inputs": [],
      "name": "maxAccountTokens",
      "outputs": [
        {
          "name": "",
          "type": "uint256"
        }
      ],
      "payable": false,
      "stateMutability": "view",
      "type": "function"
    },
    {
      "constant": false,
      "inputs": [
        {
          "name": "_newOwner",
          "type": "address"
        }
      ],
      "name": "transferOwnership",
      "outputs": [],
      "payable": false,
      "stateMutability": "nonpayable",
      "type": "function"
    },
    {
      "inputs": [
        {
          "name": "_token",
          "type": "address"
        },
        {
          "name": "_compliance",
          "type": "address"
        }
      ],
      "payable": false,
      "stateMutability": "nonpayable",
      "type": "constructor"
    },
    {
      "anonymous": false,
      "inputs": [
        {
          "indexed": true,
          "name": "previousOwner",
          "type": "address"
        }
      ],
      "name": "OwnershipRenounced",
      "type": "event"
    },
    {
      "anonymous": false,
      "inputs": [
        {
          "indexed": true,
          "name": "previousOwner",
          "type": "address"
        },
        {
          "indexed": true,
          "name": "newOwner",
          "type": "address"
        }
      ],
      "name": "OwnershipTransferred",
      "type": "event"
    },
    {
      "constant": true,
      "inputs": [
        {
          "name": "_from",
          "type": "address"
        },
        {
          "name": "_to",
          "type": "address"
        },
        {
          "name": "_amount",
          "type": "uint256"
        }
      ],
      "name": "onTransfer",
      "outputs": [
        {
          "name": "",
          "type": "bool"
        }
      ],
      "payable": false,
      "stateMutability": "view",
      "type": "function"
    },
    {
      "constant": false,
      "inputs": [
        {
          "name": "_receiver",
          "type": "address"
        },
        {
          "name": "_amount",
          "type": "uint256"
        }
      ],
      "name": "mint",
      "outputs": [],
      "payable": false,
      "stateMutability": "nonpayable",
      "type": "function"
    },
    {
      "constant": false,
      "inputs": [
        {
          "name": "_maxAccountTokens",
          "type": "uint256"
        }
      ],
      "name": "setMaxAccountTokens",
      "outputs": [],
      "payable": false,
      "stateMutability": "nonpayable",
      "type": "function"
    },
    {
      "constant": false,
      "inputs": [
        {
          "name": "_transfersEnabled",
          "type": "bool"
        }
      ],
      "name": "enableTransfers",
      "outputs": [],
      "payable": false,
      "stateMutability": "nonpayable",
      "type": "function"
    },
    {
      "constant": false,
      "inputs": [
        {
          "name": "_newComplianceContract",
          "type": "address"
        }
      ],
      "name": "updateComplianceContract",
      "outputs": [],
      "payable": false,
      "stateMutability": "nonpayable",
      "type": "function"
    }
  ],
  "bytecode": "0x608060405260001960035534801561001657600080fd5b506040516040806109ac83398101604052805160209091015160008054600160a060020a0319908116331790915560018054600160a060020a0394851690831617905560028054939092169216919091179055610934806100786000396000f3006080604052600436106100985763ffffffff7c010000000000000000000000000000000000000000000000000000000060003504166340c10f19811461009d5780634a393149146100c3578063715018a6146101015780638da5cb5b146101165780639b1649e614610147578063ecfda43214610168578063f2fde38b1461018f578063f41e60c5146101b0578063fbb64114146101ca575b600080fd5b3480156100a957600080fd5b506100c1600160a060020a03600435166024356101e2565b005b3480156100cf57600080fd5b506100ed600160a060020a03600435811690602435166044356103d7565b604080519115158252519081900360200190f35b34801561010d57600080fd5b506100c1610567565b34801561012257600080fd5b5061012b6105d3565b60408051600160a060020a039092168252519081900360200190f35b34801561015357600080fd5b506100c1600160a060020a03600435166105e2565b34801561017457600080fd5b5061017d610628565b60408051918252519081900360200190f35b34801561019b57600080fd5b506100c1600160a060020a036004351661062e565b3480156101bc57600080fd5b506100c16004351515610651565b3480156101d657600080fd5b506100c16004356106ea565b600254600154604080517fea13d8a1000000000000000000000000000000000000000000000000000000008152336004820152600160a060020a0392831660248201529051919092169163ea13d8a19160448083019260209291908290030181600087803b15801561025357600080fd5b505af1158015610267573d6000803e3d6000fd5b505050506040513d602081101561027d57600080fd5b5051151561028a57600080fd5b61029382610797565b151561033857600254604080517f1e9d48cf000000000000000000000000000000000000000000000000000000008152600160a060020a03858116600483015291519190921691631e9d48cf9160248083019260209291908290030181600087803b15801561030157600080fd5b505af1158015610315573d6000803e3d6000fd5b505050506040513d602081101561032b57600080fd5b5051151561033857600080fd5b600154604080517ff0dda65c000000000000000000000000000000000000000000000000000000008152600160a060020a038581166004830152602482018590529151919092169163f0dda65c9160448083019260209291908290030181600087803b1580156103a757600080fd5b505af11580156103bb573d6000803e3d6000fd5b505050506040513d60208110156103d157600080fd5b50505050565b600154600090600160a060020a031633146103f157600080fd5b6103fa83610797565b151561055c57600254604080517f1e9d48cf000000000000000000000000000000000000000000000000000000008152600160a060020a03868116600483015291519190921691631e9d48cf9160248083019260209291908290030181600087803b15801561046857600080fd5b505af115801561047c573d6000803e3d6000fd5b505050506040513d602081101561049257600080fd5b505115156104a257506000610560565b600254604080517f1e9d48cf000000000000000000000000000000000000000000000000000000008152600160a060020a03878116600483015291519190921691631e9d48cf9160248083019260209291908290030181600087803b15801561050a57600080fd5b505af115801561051e573d6000803e3d6000fd5b505050506040513d602081101561053457600080fd5b5051151561054457506000610560565b61054e83836107c4565b151561055c57506000610560565b5060015b9392505050565b600054600160a060020a0316331461057e57600080fd5b60008054604051600160a060020a03909116917ff8df31144d9c2f0f6b59d69b8b98abd5459d07f2742c4df920b25aae33c6482091a26000805473ffffffffffffffffffffffffffffffffffffffff19169055565b600054600160a060020a031681565b600054600160a060020a031633146105f957600080fd5b6002805473ffffffffffffffffffffffffffffffffffffffff1916600160a060020a0392909216919091179055565b60035481565b600054600160a060020a0316331461064557600080fd5b61064e81610878565b50565b600054600160a060020a0316331461066857600080fd5b600154604080517ff41e60c500000000000000000000000000000000000000000000000000000000815283151560048201529051600160a060020a039092169163f41e60c59160248082019260009290919082900301818387803b1580156106cf57600080fd5b505af11580156106e3573d6000803e3d6000fd5b5050505050565b600254600154604080517fea13d8a1000000000000000000000000000000000000000000000000000000008152336004820152600160a060020a0392831660248201529051919092169163ea13d8a19160448083019260209291908290030181600087803b15801561075b57600080fd5b505af115801561076f573d6000803e3d6000fd5b505050506040513d602081101561078557600080fd5b5051151561079257600080fd5b600355565b600080600160a060020a03831615156107b357600091506107be565b823b90506000811191505b50919050565b600354600154604080517f70a08231000000000000000000000000000000000000000000000000000000008152600160a060020a03868116600483015291516000949361086f9387939116916370a082319160248082019260209290919082900301818a87803b15801561083757600080fd5b505af115801561084b573d6000803e3d6000fd5b505050506040513d602081101561086157600080fd5b50519063ffffffff6108f516565b11159392505050565b600160a060020a038116151561088d57600080fd5b60008054604051600160a060020a03808516939216917f8be0079c531659141344cd1fd0a4f28419497f9722a3daafe3b4186f6b6457e091a36000805473ffffffffffffffffffffffffffffffffffffffff1916600160a060020a0392909216919091179055565b8181018281101561090257fe5b929150505600a165627a7a72305820ee3909f95d1caefc792d10c12a47ff744d7b641ad99fbcfae6082f9b15651ef40029",
  "source": "pragma solidity ^0.4.24;\n\nimport \"openzeppelin-solidity/contracts/ownership/Ownable.sol\";\nimport \"openzeppelin-solidity/contracts/math/SafeMath.sol\";\nimport \"./IToken36Controller.sol\";\nimport \"./Token36.sol\";\nimport \"./Cash36Compliance.sol\";\n\n\n/// @title Token Controller\n/// @author element36.io\ncontract Token36Controller is IToken36Controller, Ownable {\n    using SafeMath for uint256;\n\n    // Token controlled by this controller\n    Token36 internal token;\n\n    // Compliance contract\n    Cash36Compliance compliance;\n\n    // Max. Tokens an account can hold\n    uint256 public maxAccountTokens = uint256(-1);\n\n    modifier onlyAllowedExchanges {\n        require(compliance.isAllowedExchange(msg.sender, address(token)));\n        _;\n    }\n\n    // Constructor\n    constructor(Token36 _token, address _compliance) public {\n        token = _token;\n        compliance = Cash36Compliance(_compliance);\n    }\n\n    function onTransfer(address _from, address _to, uint _amount) public view returns (bool) {\n        require(msg.sender == address(token));\n\n        // Check SimpleKYC\n        if (isContract(_to) == false) {\n            // Check if user _to is KYCed\n            if (!compliance.checkUser(_to)) {\n                return false;\n            }\n\n            // Check if user _from is KYCed (blacklist check)\n            if (!compliance.checkUser(_from)) {\n                return false;\n            }\n\n            // Check if max balance is reached\n            if (!isBalanceIncreaseAllowed(_to, _amount)) {\n                return false;\n            }\n        }\n\n        return true;\n    }\n\n    function mint(address _receiver, uint256 _amount) external onlyAllowedExchanges {\n        // Check Compliance first\n        if (isContract(_receiver) == false) {\n            require(compliance.checkUser(_receiver));\n        }\n\n        token.mintTokens(_receiver, _amount);\n    }\n\n\n    function setMaxAccountTokens(uint _maxAccountTokens) external onlyAllowedExchanges {\n        maxAccountTokens = _maxAccountTokens;\n    }\n\n    function enableTransfers(bool _transfersEnabled) external onlyOwner {\n        token.enableTransfers(_transfersEnabled);\n    }\n\n    function updateComplianceContract(address _newComplianceContract) external onlyOwner {\n        compliance = Cash36Compliance(_newComplianceContract);\n    }\n\n    // INTERNAL\n    function isBalanceIncreaseAllowed(address _receiver, uint _amount) internal view returns (bool) {\n        return token.balanceOf(_receiver).add(_amount) <= maxAccountTokens;\n    }\n\n    function isContract(address _addr) view internal returns(bool) {\n        uint size;\n        if (_addr == 0)\n            return false;\n\n        assembly {\n            size := extcodesize(_addr)\n        }\n\n        return size > 0;\n    }\n}",
  "sourcePath": "/Users/bum/element36/dev/cash36/contracts/contracts/Token36Controller.sol",
  "compiler": {
    "name": "solc",
    "version": "0.4.24+commit.e67f0147.Emscripten.clang"
  },
  "schemaVersion": "2.0.1",
  "updatedAt": "2018-07-04T08:53:08.249Z"
}