{
  "contractName": "Token36Controller",
  "abi": [
    {
      "constant": true,
      "inputs": [
        {
          "name": "",
          "type": "uint256"
        }
      ],
      "name": "holders",
      "outputs": [
        {
          "name": "",
          "type": "address"
        }
      ],
      "payable": false,
      "stateMutability": "view",
      "type": "function"
    },
    {
      "constant": true,
      "inputs": [],
      "name": "owner",
      "outputs": [
        {
          "name": "",
          "type": "address"
        }
      ],
      "payable": false,
      "stateMutability": "view",
      "type": "function"
    },
    {
      "constant": true,
      "inputs": [],
      "name": "maxAccountTokens",
      "outputs": [
        {
          "name": "",
          "type": "uint256"
        }
      ],
      "payable": false,
      "stateMutability": "view",
      "type": "function"
    },
    {
      "constant": false,
      "inputs": [
        {
          "name": "newOwner",
          "type": "address"
        }
      ],
      "name": "transferOwnership",
      "outputs": [],
      "payable": false,
      "stateMutability": "nonpayable",
      "type": "function"
    },
    {
      "constant": true,
      "inputs": [],
      "name": "token",
      "outputs": [
        {
          "name": "",
          "type": "address"
        }
      ],
      "payable": false,
      "stateMutability": "view",
      "type": "function"
    },
    {
      "inputs": [
        {
          "name": "_token",
          "type": "address"
        },
        {
          "name": "_kycProvider",
          "type": "address"
        }
      ],
      "payable": false,
      "stateMutability": "nonpayable",
      "type": "constructor"
    },
    {
      "anonymous": false,
      "inputs": [
        {
          "indexed": true,
          "name": "previousOwner",
          "type": "address"
        },
        {
          "indexed": true,
          "name": "newOwner",
          "type": "address"
        }
      ],
      "name": "OwnershipTransferred",
      "type": "event"
    },
    {
      "constant": true,
      "inputs": [],
      "name": "allHolders",
      "outputs": [
        {
          "name": "",
          "type": "address[]"
        }
      ],
      "payable": false,
      "stateMutability": "view",
      "type": "function"
    },
    {
      "constant": true,
      "inputs": [
        {
          "name": "_user",
          "type": "address"
        }
      ],
      "name": "isUserDisabled",
      "outputs": [
        {
          "name": "",
          "type": "bool"
        }
      ],
      "payable": false,
      "stateMutability": "view",
      "type": "function"
    },
    {
      "constant": false,
      "inputs": [
        {
          "name": "_owner",
          "type": "address"
        }
      ],
      "name": "proxyPayment",
      "outputs": [
        {
          "name": "",
          "type": "bool"
        }
      ],
      "payable": true,
      "stateMutability": "payable",
      "type": "function"
    },
    {
      "constant": false,
      "inputs": [
        {
          "name": "_from",
          "type": "address"
        },
        {
          "name": "_to",
          "type": "address"
        },
        {
          "name": "_amount",
          "type": "uint256"
        }
      ],
      "name": "onTransfer",
      "outputs": [
        {
          "name": "",
          "type": "bool"
        }
      ],
      "payable": false,
      "stateMutability": "nonpayable",
      "type": "function"
    },
    {
      "constant": false,
      "inputs": [
        {
          "name": "_receiver",
          "type": "address"
        },
        {
          "name": "_amount",
          "type": "uint256"
        }
      ],
      "name": "mint",
      "outputs": [],
      "payable": false,
      "stateMutability": "nonpayable",
      "type": "function"
    },
    {
      "constant": false,
      "inputs": [
        {
          "name": "_holder",
          "type": "address"
        },
        {
          "name": "_amount",
          "type": "uint256"
        }
      ],
      "name": "burn",
      "outputs": [],
      "payable": false,
      "stateMutability": "nonpayable",
      "type": "function"
    },
    {
      "constant": false,
      "inputs": [
        {
          "name": "_user",
          "type": "address"
        },
        {
          "name": "_enabled",
          "type": "bool"
        }
      ],
      "name": "enableUser",
      "outputs": [],
      "payable": false,
      "stateMutability": "nonpayable",
      "type": "function"
    },
    {
      "constant": false,
      "inputs": [
        {
          "name": "_transfersEnabled",
          "type": "bool"
        }
      ],
      "name": "enableTransfers",
      "outputs": [],
      "payable": false,
      "stateMutability": "nonpayable",
      "type": "function"
    },
    {
      "constant": false,
      "inputs": [
        {
          "name": "_newProvider",
          "type": "address"
        }
      ],
      "name": "changeKycProvider",
      "outputs": [],
      "payable": false,
      "stateMutability": "nonpayable",
      "type": "function"
    },
    {
      "constant": false,
      "inputs": [
        {
          "name": "_maxAccountTokens",
          "type": "uint256"
        }
      ],
      "name": "setMaxAccountTokens",
      "outputs": [],
      "payable": false,
      "stateMutability": "nonpayable",
      "type": "function"
    }
  ],
  "bytecode": "0x6060604052600019600655341561001557600080fd5b604051604080610ad8833981016040528080519190602001805160008054600160a060020a03338116600160a060020a031992831617909255600180549683169682169690961790955560028054919092169416939093179092555050610a57806100816000396000f3006060604052600436106100c15763ffffffff60e060020a6000350416632a11ced081146100c657806340c10f19146100f857806342f57e4c1461011c5780634a39314914610140578063798deed71461017c5780638da5cb5b1461019b5780639dc29fac146101ae578063c80a3aa6146101d0578063c9ff08f414610236578063ecfda43214610255578063f2fde38b1461027a578063f41e60c514610299578063f48c3054146102b1578063fbb64114146102c5578063fc0c546a146102db575b600080fd5b34156100d157600080fd5b6100dc6004356102ee565b604051600160a060020a03909116815260200160405180910390f35b341561010357600080fd5b61011a600160a060020a0360043516602435610316565b005b341561012757600080fd5b61011a600160a060020a0360043516602435151561042d565b341561014b57600080fd5b610168600160a060020a0360043581169060243516604435610473565b604051901515815260200160405180910390f35b341561018757600080fd5b61011a600160a060020a036004351661059d565b34156101a657600080fd5b6100dc6105e7565b34156101b957600080fd5b61011a600160a060020a03600435166024356105f6565b34156101db57600080fd5b6101e3610682565b60405160208082528190810183818151815260200191508051906020019060200280838360005b8381101561022257808201518382015260200161020a565b505050509050019250505060405180910390f35b341561024157600080fd5b610168600160a060020a03600435166106eb565b341561026057600080fd5b610268610709565b60405190815260200160405180910390f35b341561028557600080fd5b61011a600160a060020a036004351661070f565b34156102a457600080fd5b61011a60043515156107aa565b610168600160a060020a0360043516610820565b34156102d057600080fd5b61011a600435610846565b34156102e657600080fd5b6100dc610866565b60038054829081106102fc57fe5b600091825260209091200154600160a060020a0316905081565b60005433600160a060020a0390811691161461033157600080fd5b61033a82610875565b15156103b257600254600160a060020a0316631e9d48cf8360405160e060020a63ffffffff8416028152600160a060020a039091166004820152602401602060405180830381600087803b151561039057600080fd5b5af1151561039d57600080fd5b5050506040518051905015156103b257600080fd5b600154600160a060020a031663827f32c0838360405160e060020a63ffffffff8516028152600160a060020a0390921660048301526024820152604401602060405180830381600087803b151561040857600080fd5b5af1151561041557600080fd5b5050506040518051905050610429826108a2565b5050565b60005433600160a060020a0390811691161461044857600080fd5b600160a060020a03919091166000908152600560205260409020805460ff1916911515919091179055565b600154600090819033600160a060020a0390811691161461049357600080fd5b61049c84610875565b151561058757600160a060020a03851660009081526005602052604090205460ff16156104cc5760009150610595565b600160a060020a03841660009081526005602052604090205460ff16156104f65760009150610595565b600254600160a060020a0316631e9d48cf8560405160e060020a63ffffffff8416028152600160a060020a039091166004820152602401602060405180830381600087803b151561054657600080fd5b5af1151561055357600080fd5b505050604051805191505080151561056e5760009150610595565b6105788484610936565b15156105875760009150610595565b610590846108a2565b600191505b509392505050565b60005433600160a060020a039081169116146105b857600080fd5b6002805473ffffffffffffffffffffffffffffffffffffffff1916600160a060020a0392909216919091179055565b600054600160a060020a031681565b60005433600160a060020a0390811691161461061157600080fd5b600154600160a060020a031663d3ce77fe838360405160e060020a63ffffffff8516028152600160a060020a0390921660048301526024820152604401602060405180830381600087803b151561066757600080fd5b5af1151561067457600080fd5b505050604051805150505050565b61068a6109d2565b60038054806020026020016040519081016040528092919081815260200182805480156106e057602002820191906000526020600020905b8154600160a060020a031681526001909101906020018083116106c2575b505050505090505b90565b600160a060020a031660009081526005602052604090205460ff1690565b60065481565b60005433600160a060020a0390811691161461072a57600080fd5b600160a060020a038116151561073f57600080fd5b600054600160a060020a0380831691167f8be0079c531659141344cd1fd0a4f28419497f9722a3daafe3b4186f6b6457e060405160405180910390a36000805473ffffffffffffffffffffffffffffffffffffffff1916600160a060020a0392909216919091179055565b60005433600160a060020a039081169116146107c557600080fd5b600154600160a060020a031663f41e60c58260405160e060020a63ffffffff84160281529015156004820152602401600060405180830381600087803b151561080d57600080fd5b5af1151561081a57600080fd5b50505050565b60015460009033600160a060020a0390811691161461083e57600080fd5b506000919050565b60005433600160a060020a0390811691161461086157600080fd5b600655565b600154600160a060020a031681565b600080600160a060020a0383161515610891576000915061089c565b823b90506000811191505b50919050565b600160a060020a03811660009081526004602052604090205460ff16156108c857610933565b600160a060020a0381166000908152600460205260409020805460ff19166001908117909155600380549091810161090083826109e4565b506000918252602090912001805473ffffffffffffffffffffffffffffffffffffffff1916600160a060020a0383161790555b50565b600654600154600091906109b6908490600160a060020a03166370a082318760405160e060020a63ffffffff8416028152600160a060020a039091166004820152602401602060405180830381600087803b151561099357600080fd5b5af115156109a057600080fd5b505050604051805191905063ffffffff6109bf16565b11159392505050565b818101828110156109cc57fe5b92915050565b60206040519081016040526000815290565b815481835581811511610a0857600083815260209020610a08918101908301610a0d565b505050565b6106e891905b80821115610a275760008155600101610a13565b50905600a165627a7a72305820d55609c11bc215e0139b2fd089f2fbf251889854343421a244dcf834e3c81c580029",
  "source": "pragma solidity 0.4.21;\n\nimport \"openzeppelin-solidity/contracts/math/SafeMath.sol\";\nimport \"./Token36.sol\";\nimport \"./IToken36Controller.sol\";\nimport \"./Cash36KYC.sol\";\n\n\n/// @title\n/// @author element36.io\ncontract Token36Controller is IToken36Controller {\n\n    using SafeMath for uint256;\n\n    Token36 public token;\n    Cash36KYC kycProvider;\n\n    // Returns all holders the token had.\n    // Some of them can have a balance of 0.\n    address[] public holders;\n    mapping (address => bool) internal everHeld;\n\n    // Blacklist, to disable certain user if needed\n    mapping (address => bool) internal blacklist;\n\n    uint256 public maxAccountTokens = uint256(-1);\n\n    // Constructor\n    function Token36Controller(Token36 _token, address _kycProvider) public {\n        token = _token;\n        kycProvider = Cash36KYC(_kycProvider);\n    }\n\n    function allHolders() public view returns (address[]) {\n        return holders;\n    }\n\n    function isUserDisabled(address _user) public view returns(bool) {\n        return blacklist[_user];\n    }\n\n    function proxyPayment(address _owner) public payable returns(bool) {\n        require(msg.sender == address(token));\n        return false;\n    }\n\n    function onTransfer(address _from, address _to, uint _amount) public returns (bool) {\n        require(msg.sender == address(token));\n\n        // Check SimpleKYC\n        if (isContract(_to) == false) {\n            // Check if _from is on blacklist\n            if (blacklist[_from]) {\n                return false;\n            }\n\n            // Check if _to is on blacklist\n            if (blacklist[_to]) {\n                return false;\n            }\n\n            // Check if user is KYCed\n            bool checkUser = kycProvider.checkUser(_to);\n            if (!checkUser) {\n                return false;\n            }\n\n            // Check if max balance is reached\n            if (!isBalanceIncreaseAllowed(_to, _amount)) {\n                return false;\n            }\n        }\n\n        _logHolder(_to);\n\n        return true;\n    }\n\n    function mint(address _receiver, uint256 _amount) external onlyOwner {\n        // Check SimpleKYC\n        if (isContract(_receiver) == false) {\n            require(kycProvider.checkUser(_receiver));\n        }\n\n        token.generateTokens(_receiver, _amount);\n        _logHolder(_receiver);\n    }\n\n    function burn(address _holder, uint256 _amount) external onlyOwner {\n        token.destroyTokens(_holder, _amount);\n    }\n\n    function enableUser(address _user, bool _enabled) external onlyOwner {\n        blacklist[_user] = _enabled;\n    }\n\n    function enableTransfers(bool _transfersEnabled) external onlyOwner {\n        token.enableTransfers(_transfersEnabled);\n    }\n\n    function changeKycProvider(Cash36KYC _newProvider) external onlyOwner {\n        kycProvider = _newProvider;\n    }\n\n    function setMaxAccountTokens(uint _maxAccountTokens) external onlyOwner {\n        maxAccountTokens = _maxAccountTokens;\n    }\n\n    /// INTERNAL\n\n    function _logHolder(address _newHolder) internal {\n        if (everHeld[_newHolder]) {\n            return;\n        }\n\n        everHeld[_newHolder] = true;\n        holders.push(_newHolder);\n    }\n\n    function isContract(address _addr) constant internal returns(bool) {\n        uint size;\n        if (_addr == 0)\n            return false;\n\n        assembly {\n            size := extcodesize(_addr)\n        }\n\n        return size > 0;\n    }\n\n    function isBalanceIncreaseAllowed(address _receiver, uint _amount) internal view returns (bool) {\n        return token.balanceOf(_receiver).add(_amount) <= maxAccountTokens;\n    }\n}",
  "sourcePath": "/Users/bum/element36/dev/cash36/contracts/contracts/Token36Controller.sol",
  "compiler": {
    "name": "solc",
    "version": "0.4.21+commit.dfe3193c.Emscripten.clang"
  },
  "schemaVersion": "2.0.0",
  "updatedAt": "2018-06-15T07:54:40.515Z"
}