{
  "contractName": "Token36",
  "abi": [
    {
      "constant": true,
      "inputs": [],
      "name": "name",
      "outputs": [
        {
          "name": "",
          "type": "string"
        }
      ],
      "payable": false,
      "stateMutability": "view",
      "type": "function"
    },
    {
      "constant": true,
      "inputs": [],
      "name": "DECIMALS",
      "outputs": [
        {
          "name": "",
          "type": "uint8"
        }
      ],
      "payable": false,
      "stateMutability": "view",
      "type": "function"
    },
    {
      "constant": false,
      "inputs": [
        {
          "name": "_newController",
          "type": "address"
        }
      ],
      "name": "changeController",
      "outputs": [],
      "payable": false,
      "stateMutability": "nonpayable",
      "type": "function"
    },
    {
      "constant": true,
      "inputs": [
        {
          "name": "_value",
          "type": "uint256"
        }
      ],
      "name": "calcFee",
      "outputs": [
        {
          "name": "",
          "type": "uint256"
        }
      ],
      "payable": false,
      "stateMutability": "view",
      "type": "function"
    },
    {
      "constant": true,
      "inputs": [],
      "name": "getInitializationBlock",
      "outputs": [
        {
          "name": "",
          "type": "uint256"
        }
      ],
      "payable": false,
      "stateMutability": "view",
      "type": "function"
    },
    {
      "constant": false,
      "inputs": [
        {
          "name": "_newAddress",
          "type": "address"
        }
      ],
      "name": "changeFeeCollector",
      "outputs": [],
      "payable": false,
      "stateMutability": "nonpayable",
      "type": "function"
    },
    {
      "constant": true,
      "inputs": [],
      "name": "symbol",
      "outputs": [
        {
          "name": "",
          "type": "string"
        }
      ],
      "payable": false,
      "stateMutability": "view",
      "type": "function"
    },
    {
      "constant": true,
      "inputs": [],
      "name": "transfersEnabled",
      "outputs": [
        {
          "name": "",
          "type": "bool"
        }
      ],
      "payable": false,
      "stateMutability": "view",
      "type": "function"
    },
    {
      "constant": true,
      "inputs": [],
      "name": "feeCollector",
      "outputs": [
        {
          "name": "",
          "type": "address"
        }
      ],
      "payable": false,
      "stateMutability": "view",
      "type": "function"
    },
    {
      "constant": false,
      "inputs": [
        {
          "name": "_newFeeNominator",
          "type": "uint256"
        },
        {
          "name": "_newFeeDenominator",
          "type": "uint256"
        }
      ],
      "name": "changeFee",
      "outputs": [],
      "payable": false,
      "stateMutability": "nonpayable",
      "type": "function"
    },
    {
      "constant": true,
      "inputs": [],
      "name": "controller",
      "outputs": [
        {
          "name": "",
          "type": "address"
        }
      ],
      "payable": false,
      "stateMutability": "view",
      "type": "function"
    },
    {
      "inputs": [],
      "payable": false,
      "stateMutability": "nonpayable",
      "type": "constructor"
    },
    {
      "payable": true,
      "stateMutability": "payable",
      "type": "fallback"
    },
    {
      "anonymous": false,
      "inputs": [
        {
          "indexed": true,
          "name": "burner",
          "type": "address"
        },
        {
          "indexed": false,
          "name": "value",
          "type": "uint256"
        }
      ],
      "name": "Burn",
      "type": "event"
    },
    {
      "anonymous": false,
      "inputs": [
        {
          "indexed": true,
          "name": "owner",
          "type": "address"
        },
        {
          "indexed": true,
          "name": "spender",
          "type": "address"
        },
        {
          "indexed": false,
          "name": "value",
          "type": "uint256"
        }
      ],
      "name": "Approval",
      "type": "event"
    },
    {
      "anonymous": false,
      "inputs": [
        {
          "indexed": true,
          "name": "from",
          "type": "address"
        },
        {
          "indexed": true,
          "name": "to",
          "type": "address"
        },
        {
          "indexed": false,
          "name": "value",
          "type": "uint256"
        }
      ],
      "name": "Transfer",
      "type": "event"
    },
    {
      "constant": true,
      "inputs": [],
      "name": "totalSupply",
      "outputs": [
        {
          "name": "",
          "type": "uint256"
        }
      ],
      "payable": false,
      "stateMutability": "view",
      "type": "function"
    },
    {
      "constant": true,
      "inputs": [
        {
          "name": "_owner",
          "type": "address"
        }
      ],
      "name": "balanceOf",
      "outputs": [
        {
          "name": "",
          "type": "uint256"
        }
      ],
      "payable": false,
      "stateMutability": "view",
      "type": "function"
    },
    {
      "constant": false,
      "inputs": [
        {
          "name": "_to",
          "type": "address"
        },
        {
          "name": "_value",
          "type": "uint256"
        }
      ],
      "name": "transfer",
      "outputs": [
        {
          "name": "success",
          "type": "bool"
        }
      ],
      "payable": false,
      "stateMutability": "nonpayable",
      "type": "function"
    },
    {
      "constant": false,
      "inputs": [
        {
          "name": "_from",
          "type": "address"
        },
        {
          "name": "_to",
          "type": "address"
        },
        {
          "name": "_value",
          "type": "uint256"
        }
      ],
      "name": "transferFrom",
      "outputs": [
        {
          "name": "success",
          "type": "bool"
        }
      ],
      "payable": false,
      "stateMutability": "nonpayable",
      "type": "function"
    },
    {
      "constant": false,
      "inputs": [
        {
          "name": "_spender",
          "type": "address"
        },
        {
          "name": "_value",
          "type": "uint256"
        }
      ],
      "name": "approve",
      "outputs": [
        {
          "name": "success",
          "type": "bool"
        }
      ],
      "payable": false,
      "stateMutability": "nonpayable",
      "type": "function"
    },
    {
      "constant": true,
      "inputs": [
        {
          "name": "_owner",
          "type": "address"
        },
        {
          "name": "_spender",
          "type": "address"
        }
      ],
      "name": "allowance",
      "outputs": [
        {
          "name": "",
          "type": "uint256"
        }
      ],
      "payable": false,
      "stateMutability": "view",
      "type": "function"
    },
    {
      "constant": false,
      "inputs": [
        {
          "name": "_spender",
          "type": "address"
        },
        {
          "name": "_addedValue",
          "type": "uint256"
        }
      ],
      "name": "increaseApproval",
      "outputs": [
        {
          "name": "",
          "type": "bool"
        }
      ],
      "payable": false,
      "stateMutability": "nonpayable",
      "type": "function"
    },
    {
      "constant": false,
      "inputs": [
        {
          "name": "_spender",
          "type": "address"
        },
        {
          "name": "_subtractedValue",
          "type": "uint256"
        }
      ],
      "name": "decreaseApproval",
      "outputs": [
        {
          "name": "",
          "type": "bool"
        }
      ],
      "payable": false,
      "stateMutability": "nonpayable",
      "type": "function"
    },
    {
      "constant": false,
      "inputs": [
        {
          "name": "_transfersEnabled",
          "type": "bool"
        }
      ],
      "name": "enableTransfers",
      "outputs": [],
      "payable": false,
      "stateMutability": "nonpayable",
      "type": "function"
    },
    {
      "constant": false,
      "inputs": [
        {
          "name": "_value",
          "type": "uint256"
        }
      ],
      "name": "burn",
      "outputs": [],
      "payable": false,
      "stateMutability": "nonpayable",
      "type": "function"
    },
    {
      "constant": false,
      "inputs": [
        {
          "name": "_owner",
          "type": "address"
        },
        {
          "name": "_value",
          "type": "uint256"
        }
      ],
      "name": "mintTokens",
      "outputs": [
        {
          "name": "",
          "type": "bool"
        }
      ],
      "payable": false,
      "stateMutability": "nonpayable",
      "type": "function"
    }
  ],
  "bytecode": "0x608060405260146003556103e860045534801561001b57600080fd5b506001805433600160a060020a0319918216811790925560028054909116909117905561004f640100000000610073810204565b600a805460ff1916600117905560028054600160a060020a0319163317905561009a565b6000541561008057600080fd5b610091640100000000610096810204565b600055565b4390565b611223806100a96000396000f3006080604052600436106101275763ffffffff7c010000000000000000000000000000000000000000000000000000000060003504166306fdde03811461012c578063095ea7b3146101b657806318160ddd146101ee57806323b872dd146102155780632e0f26251461023f5780633cebb8231461026a57806342966c681461028d57806366188463146102a557806370a08231146102c957806375dc7d8c146102ea5780638b3dd749146103025780639245290d1461031757806395d89b4114610338578063a9059cbb1461034d578063bef97c8714610371578063c415b95c14610386578063d73dd623146103b7578063dd62ed3e146103db578063e3ca2d6514610402578063f0dda65c1461041d578063f41e60c514610441578063f77c47911461045b575b600080fd5b34801561013857600080fd5b50610141610470565b6040805160208082528351818301528351919283929083019185019080838360005b8381101561017b578181015183820152602001610163565b50505050905090810190601f1680156101a85780820380516001836020036101000a031916815260200191505b509250505060405180910390f35b3480156101c257600080fd5b506101da600160a060020a03600435166024356104fe565b604080519115158252519081900360200190f35b3480156101fa57600080fd5b506102036105b3565b60408051918252519081900360200190f35b34801561022157600080fd5b506101da600160a060020a03600435811690602435166044356105b9565b34801561024b57600080fd5b506102546108d7565b6040805160ff9092168252519081900360200190f35b34801561027657600080fd5b5061028b600160a060020a03600435166108dc565b005b34801561029957600080fd5b5061028b600435610922565b3480156102b157600080fd5b506101da600160a060020a0360043516602435610a37565b3480156102d557600080fd5b50610203600160a060020a0360043516610b77565b3480156102f657600080fd5b50610203600435610b92565b34801561030e57600080fd5b50610203610bbb565b34801561032357600080fd5b5061028b600160a060020a0360043516610bc1565b34801561034457600080fd5b50610141610c07565b34801561035957600080fd5b506101da600160a060020a0360043516602435610c62565b34801561037d57600080fd5b506101da610ec7565b34801561039257600080fd5b5061039b610ed0565b60408051600160a060020a039092168252519081900360200190f35b3480156103c357600080fd5b506101da600160a060020a0360043516602435610edf565b3480156103e757600080fd5b50610203600160a060020a0360043581169060243516610fc5565b34801561040e57600080fd5b5061028b600435602435610ff0565b34801561042957600080fd5b506101da600160a060020a0360043516602435611012565b34801561044d57600080fd5b5061028b60043515156110f4565b34801561046757600080fd5b5061039b61111e565b6005805460408051602060026001851615610100026000190190941693909304601f810184900484028201840190925281815292918301828280156104f65780601f106104cb576101008083540402835291602001916104f6565b820191906000526020600020905b8154815290600101906020018083116104d957829003601f168201915b505050505081565b600a5460009060ff16151561054b576040805160e560020a62461bcd02815260206004820152601660248201526000805160206111b8833981519152604482015290519081900360640190fd5b336000818152600760209081526040808320600160a060020a03881680855290835292819020869055805186815290519293927f8c5be1e5ebec7d5bd14f71427d1e84f3dd0314c0f7b2291e5b200ac8c7c3b925929181900390910190a35060015b92915050565b60095490565b600a5460009060ff161515610606576040805160e560020a62461bcd02815260206004820152601660248201526000805160206111b8833981519152604482015290519081900360640190fd5b600160a060020a038316151561061b57600080fd5b600160a060020a03841660009081526008602052604090205482111561064057600080fd5b81151561064f575060016108d0565b60015461066490600160a060020a031661112d565b1561078b57600154604080517f4a393149000000000000000000000000000000000000000000000000000000008152600160a060020a03878116600483015286811660248301526044820186905291519190921691634a3931499160648083019260209291908290030181600087803b1580156106e057600080fd5b505af11580156106f4573d6000803e3d6000fd5b505050506040513d602081101561070a57600080fd5b5051151560011461078b576040805160e560020a62461bcd02815260206004820152602760248201527f546f6b656e3336436f6e74726f6c6c65722072656a656374656420746865207460448201527f72616e7366657200000000000000000000000000000000000000000000000000606482015290519081900360840190fd5b600154600160a060020a0316331461082957600160a060020a03841660009081526007602090815260408083203384529091529020548211156107d0575060006108d0565b600160a060020a0384166000908152600760209081526040808320338452909152902054610804908363ffffffff61115a16565b600160a060020a03851660009081526007602090815260408083203384529091529020555b600160a060020a038416600090815260086020526040902054610852908363ffffffff61115a16565b600160a060020a038086166000908152600860205260408082209390935590851681522054610887908363ffffffff61116c16565b600160a060020a0380851660008181526008602090815260409182902094909455805186815290519193928816926000805160206111d883398151915292918290030190a35060015b9392505050565b601281565b600154600160a060020a031633146108f357600080fd5b6001805473ffffffffffffffffffffffffffffffffffffffff1916600160a060020a0392909216919091179055565b33600090815260086020526040812054819083111561094057600080fd5b61094983610b92565b600254600160a060020a0316600090815260086020526040902054909250828403915061097c908363ffffffff61116c16565b600254600160a060020a03166000908152600860205260408082209290925533815220546109b0908463ffffffff61115a16565b336000908152600860205260409020556009546109d3908263ffffffff61115a16565b60095560408051848152905133917fcc16f5dbb4873280815c1ee09dbd06736cffcc184412cf7a71a0fdb75d397ca5919081900360200190a260408051848152905160009133916000805160206111d88339815191529181900360200190a3505050565b600a54600090819060ff161515610a86576040805160e560020a62461bcd02815260206004820152601660248201526000805160206111b8833981519152604482015290519081900360640190fd5b50336000908152600760209081526040808320600160a060020a038716845290915290205480831115610adc57336000908152600760209081526040808320600160a060020a0388168452909152812055610b11565b610aec818463ffffffff61115a16565b336000908152600760209081526040808320600160a060020a03891684529091529020555b336000818152600760209081526040808320600160a060020a0389168085529083529281902054815190815290519293927f8c5be1e5ebec7d5bd14f71427d1e84f3dd0314c0f7b2291e5b200ac8c7c3b925929181900390910190a35060019392505050565b600160a060020a031660009081526008602052604090205490565b60006105ad600454610baf6003548561117990919063ffffffff16565b9063ffffffff6111a216565b60005490565b600254600160a060020a03163314610bd857600080fd5b6002805473ffffffffffffffffffffffffffffffffffffffff1916600160a060020a0392909216919091179055565b6006805460408051602060026001851615610100026000190190941693909304601f810184900484028201840190925281815292918301828280156104f65780601f106104cb576101008083540402835291602001916104f6565b600a5460009060ff161515610caf576040805160e560020a62461bcd02815260206004820152601660248201526000805160206111b8833981519152604482015290519081900360640190fd5b600160a060020a0383161515610cc457600080fd5b33600090815260086020526040902054821115610ce057600080fd5b811515610cef575060016105ad565b600154610d0490600160a060020a031661112d565b15610e2957600154604080517f4a393149000000000000000000000000000000000000000000000000000000008152336004820152600160a060020a0386811660248301526044820186905291519190921691634a3931499160648083019260209291908290030181600087803b158015610d7e57600080fd5b505af1158015610d92573d6000803e3d6000fd5b505050506040513d6020811015610da857600080fd5b50511515600114610e29576040805160e560020a62461bcd02815260206004820152602760248201527f546f6b656e3336436f6e74726f6c6c65722072656a656374656420746865207460448201527f72616e7366657200000000000000000000000000000000000000000000000000606482015290519081900360840190fd5b33600090815260086020526040902054610e49908363ffffffff61115a16565b3360009081526008602052604080822092909255600160a060020a03851681522054610e7b908363ffffffff61116c16565b600160a060020a0384166000818152600860209081526040918290209390935580518581529051919233926000805160206111d88339815191529281900390910190a350600192915050565b600a5460ff1681565b600254600160a060020a031681565b600a5460009060ff161515610f2c576040805160e560020a62461bcd02815260206004820152601660248201526000805160206111b8833981519152604482015290519081900360640190fd5b336000908152600760209081526040808320600160a060020a0387168452909152902054610f60908363ffffffff61116c16565b336000818152600760209081526040808320600160a060020a0389168085529083529281902085905580519485525191937f8c5be1e5ebec7d5bd14f71427d1e84f3dd0314c0f7b2291e5b200ac8c7c3b925929081900390910190a350600192915050565b600160a060020a03918216600090815260076020908152604080832093909416825291909152205490565b600254600160a060020a0316331461100757600080fd5b600391909155600455565b600154600090600160a060020a0316331461102c57600080fd5b600954828101101561103d57600080fd5b600160a060020a038316600090815260086020526040902054828101101561106457600080fd5b600160a060020a03831660009081526008602052604090205461108d908363ffffffff61116c16565b600160a060020a0384166000908152600860205260409020556009546110b9908363ffffffff61116c16565b600955604080518381529051600160a060020a038516916000916000805160206111d88339815191529181900360200190a350600192915050565b600154600160a060020a0316331461110b57600080fd5b600a805460ff1916911515919091179055565b600154600160a060020a031681565b600080600160a060020a03831615156111495760009150611154565b823b90506000811191505b50919050565b60008282111561116657fe5b50900390565b818101828110156105ad57fe5b600082151561118a575060006105ad565b5081810281838281151561119a57fe5b04146105ad57fe5b600081838115156111af57fe5b04939250505056007472616e7366657273206172652064697361626c656400000000000000000000ddf252ad1be2c89b69c2b068fc378daa952ba7f163c4a11628f55a4df523b3efa165627a7a72305820338d7f4f812f5c2fe8b54756f9f38cfdf6d202ee9e55accc78872d38f7b4d84c0029",
  "source": "pragma solidity ^0.4.24;\n\nimport \"openzeppelin-solidity/contracts/token/ERC20/ERC20.sol\";\nimport \"./Initializable.sol\";\nimport \"./Controlled.sol\";\nimport \"./WithFees.sol\";\nimport \"./IToken36Controller.sol\";\n\n\n/// @title Token36 Base Contract\n/// @author element36.io\ncontract Token36 is ERC20, Initializable, Controlled, WithFees {\n\n    // ERC20 Fields\n    string public name;\n    string public symbol;\n    uint8 public constant DECIMALS = 18;\n\n    mapping(address => mapping(address => uint256)) internal allowed;\n    mapping(address => uint256) balances;\n    uint256 totalSupply_;\n\n    // Flag to determine if the token is transferable or not.\n    bool public transfersEnabled;\n\n    // Events\n    event Burn(address indexed burner, uint256 value);\n\n    // Constructor\n    constructor() public {\n        initialized();\n        transfersEnabled = true;\n        feeCollector = msg.sender;\n    }\n\n    /**\n    * @dev Gets the total supply of to\n    * @return {\n          bool: Whether the transfer was successful or not\n      }\n    */\n    function totalSupply() public view returns (uint256) {\n        return totalSupply_;\n    }\n\n    /**\n    * @dev Gets the balance of the specified address.\n    * @param _owner The address to query the the balance of.\n    * @return {\n          bool: Whether the transfer was successful or not\n      }\n    */\n    function balanceOf(address _owner) public view returns (uint256) {\n        return balances[_owner];\n    }\n\n    /**\n     * @notice Send _amount tokens to _to from msg.sender\n     * @param _to The address of the recipient\n     * @param _value The amount of tokens to be transferred\n     * @return {\n            bool: Whether the transfer was successful or not\n        }\n     */\n    function transfer(address _to, uint256 _value) public returns (bool success) {\n        require(transfersEnabled, \"transfers are disabled\");\n        require(_to != address(0));\n        require(_value <= balances[msg.sender]);\n\n        if (_value == 0) {\n            return true;\n        }\n\n        // Alerts the token controller of the transfer\n        if (isContract(controller)) {\n            require(IToken36Controller(controller).onTransfer(msg.sender, _to, _value) == true, \"Token36Controller rejected the transfer\");\n        }\n\n        balances[msg.sender] = balances[msg.sender].sub(_value);\n        balances[_to] = balances[_to].add(_value);\n        emit Transfer(msg.sender, _to, _value);\n        return true;\n    }\n\n    /**\n     * @notice Send _amount tokens to _to from _from on the condition it is approved by _from\n     * @param _from The address holding the tokens being transferred\n     * @param _to The address of the recipient\n     * @param _value The amount of tokens to be transferred\n     * @return {\n            bool: True if the transfer was successful\n        }\n     */\n    function transferFrom(address _from, address _to, uint256 _value) public returns (bool success) {\n        require(transfersEnabled, \"transfers are disabled\");\n        require(_to != address(0));\n        require(_value <= balances[_from]);\n\n        if (_value == 0) {\n            return true;\n        }\n\n        // Alerts the token controller of the transfer\n        if (isContract(controller)) {\n            require(IToken36Controller(controller).onTransfer(_from, _to, _value) == true, \"Token36Controller rejected the transfer\");\n        }\n\n        // The controller of this contract can move tokens around at will\n        if (msg.sender != controller) {\n            // The standard ERC 20 transferFrom functionality\n            if (allowed[_from][msg.sender] < _value) {\n                return false;\n            }\n\n            allowed[_from][msg.sender] = allowed[_from][msg.sender].sub(_value);\n        }\n\n        balances[_from] = balances[_from].sub(_value);\n        balances[_to] = balances[_to].add(_value);\n        emit Transfer(_from, _to, _value);\n        return true;\n    }\n\n    /**\n     * @notice msg.sender approves _spender to spend _amount tokens on its behalf\n     * @param _spender The address of the account able to transfer the tokens\n     * @param _value The amount of tokens to be approved for transfer\n     * @return {\n            bool: True if the approval was successful\n        }\n     */\n    function approve(address _spender, uint256 _value) public returns (bool success) {\n        require(transfersEnabled, \"transfers are disabled\");\n\n        allowed[msg.sender][_spender] = _value;\n        emit Approval(msg.sender, _spender, _value);\n        return true;\n    }\n\n    /**\n     * @dev Function to check the amount of tokens that an owner allowed to a spender.\n     * @param _owner address The address which owns the funds.\n     * @param _spender address The address which will spend the funds.\n     * @return {\n            uint256: Amount of tokens still available for the spender\n        }\n     */\n    function allowance(address _owner, address _spender) public view returns (uint256) {\n        return allowed[_owner][_spender];\n    }\n\n    /**\n     * @dev Increase the amount of tokens that an owner allowed to a spender.\n     * @param _spender The address which will spend the funds.\n     * @param _addedValue The amount of tokens to increase the allowance by.\n     * @return {\n            bool: True is successful\n        }\n     */\n    function increaseApproval(address _spender, uint _addedValue) public returns (bool) {\n        require(transfersEnabled, \"transfers are disabled\");\n\n        allowed[msg.sender][_spender] = allowed[msg.sender][_spender].add(_addedValue);\n        emit Approval(msg.sender, _spender, allowed[msg.sender][_spender]);\n        return true;\n    }\n\n    /**\n     * @dev Decrease the amount of tokens that an owner allowed to a spender.\n     * @param _spender The address which will spend the funds.\n     * @param _subtractedValue The amount of tokens to decrease the allowance by.\n     * @return {\n            bool: True is successful\n        }\n     */\n    function decreaseApproval(address _spender, uint _subtractedValue) public returns (bool) {\n        require(transfersEnabled, \"transfers are disabled\");\n\n        uint oldValue = allowed[msg.sender][_spender];\n        if (_subtractedValue > oldValue) {\n            allowed[msg.sender][_spender] = 0;\n        } else {\n            allowed[msg.sender][_spender] = oldValue.sub(_subtractedValue);\n        }\n        emit Approval(msg.sender, _spender, allowed[msg.sender][_spender]);\n        return true;\n    }\n\n    /**\n     * @notice Enables token holders to transfer their tokens freely if true\n     * @param _transfersEnabled True if transfers are allowed in the clone\n     */\n    function enableTransfers(bool _transfersEnabled) public onlyController {\n        transfersEnabled = _transfersEnabled;\n    }\n\n    /**\n     * @dev Burns a specific amount of tokens.\n     * @param _value The amount of token to be burned.\n     */\n    function burn(uint256 _value) public {\n        require(_value <= balances[msg.sender]);\n\n        // Calc and deduct fee\n        uint256 fee = calcFee(_value);\n        uint256 remainingValue = _value - fee;\n\n        // Transfer fee amount to us\n        balances[feeCollector] = balances[feeCollector].add(fee);\n\n        // Now burn the rest\n        balances[msg.sender] = balances[msg.sender].sub(_value);\n        totalSupply_ = totalSupply_.sub(remainingValue);\n\n        emit Burn(msg.sender, _value);\n        emit Transfer(msg.sender, address(0), _value);\n    }\n\n    /**\n     * @notice Generates `_amount` tokens that are assigned to `_owner`\n     * @param _owner The address that will be assigned the new tokens\n     * @param _value The quantity of tokens generated\n     * @return {\n            bool: True if the tokens are generated correctly\n        }\n     */\n    function mintTokens(address _owner, uint _value) onlyController public returns (bool) {\n        require(totalSupply_ + _value >= totalSupply_); // Check for overflow\n        require(balances[_owner] + _value >= balances[_owner]); // Check for overflow\n\n        balances[_owner] = balances[_owner].add(_value);\n        totalSupply_ = totalSupply_.add(_value);\n\n        emit Transfer(0, _owner, _value);\n        return true;\n    }\n\n    /**\n     * @dev Internal function to determine if an address is a contract\n     * @param _addr The address being queried\n     * @return {\n            bool: True is addr is a contract\n        }\n     */\n    function isContract(address _addr) internal view returns (bool) {\n        uint size;\n        if (_addr == 0)\n            return false;\n\n        assembly {\n            size := extcodesize(_addr)\n        }\n\n        return size > 0;\n    }\n\n    /**\n     * @notice The fallback function: If the contract's controller has not been\n     * @notice set to 0, then the `proxyPayment` method is called which relays the\n     * @notice ether and creates tokens as described in the token controller contract\n     */\n    function() payable public {\n        revert();\n    }\n}\n",
  "sourcePath": "/Users/bum/element36/dev/cash36/contracts/contracts/Token36.sol",
  "compiler": {
    "name": "solc",
    "version": "0.4.24+commit.e67f0147.Emscripten.clang"
  },
  "schemaVersion": "2.0.1",
  "updatedAt": "2018-09-11T07:16:38.797Z"
}