{
  "contractName": "Token36",
  "abi": [
    {
      "constant": true,
      "inputs": [],
      "name": "name",
      "outputs": [
        {
          "name": "",
          "type": "string"
        }
      ],
      "payable": false,
      "stateMutability": "view",
      "type": "function"
    },
    {
      "constant": true,
      "inputs": [],
      "name": "DECIMALS",
      "outputs": [
        {
          "name": "",
          "type": "uint8"
        }
      ],
      "payable": false,
      "stateMutability": "view",
      "type": "function"
    },
    {
      "constant": false,
      "inputs": [
        {
          "name": "_newController",
          "type": "address"
        }
      ],
      "name": "changeController",
      "outputs": [],
      "payable": false,
      "stateMutability": "nonpayable",
      "type": "function"
    },
    {
      "constant": true,
      "inputs": [],
      "name": "getInitializationBlock",
      "outputs": [
        {
          "name": "",
          "type": "uint256"
        }
      ],
      "payable": false,
      "stateMutability": "view",
      "type": "function"
    },
    {
      "constant": true,
      "inputs": [],
      "name": "symbol",
      "outputs": [
        {
          "name": "",
          "type": "string"
        }
      ],
      "payable": false,
      "stateMutability": "view",
      "type": "function"
    },
    {
      "constant": true,
      "inputs": [],
      "name": "transfersEnabled",
      "outputs": [
        {
          "name": "",
          "type": "bool"
        }
      ],
      "payable": false,
      "stateMutability": "view",
      "type": "function"
    },
    {
      "constant": true,
      "inputs": [],
      "name": "controller",
      "outputs": [
        {
          "name": "",
          "type": "address"
        }
      ],
      "payable": false,
      "stateMutability": "view",
      "type": "function"
    },
    {
      "inputs": [
        {
          "name": "_name",
          "type": "string"
        },
        {
          "name": "_symbol",
          "type": "string"
        }
      ],
      "payable": false,
      "stateMutability": "nonpayable",
      "type": "constructor"
    },
    {
      "payable": true,
      "stateMutability": "payable",
      "type": "fallback"
    },
    {
      "anonymous": false,
      "inputs": [
        {
          "indexed": true,
          "name": "owner",
          "type": "address"
        },
        {
          "indexed": true,
          "name": "spender",
          "type": "address"
        },
        {
          "indexed": false,
          "name": "value",
          "type": "uint256"
        }
      ],
      "name": "Approval",
      "type": "event"
    },
    {
      "anonymous": false,
      "inputs": [
        {
          "indexed": true,
          "name": "from",
          "type": "address"
        },
        {
          "indexed": true,
          "name": "to",
          "type": "address"
        },
        {
          "indexed": false,
          "name": "value",
          "type": "uint256"
        }
      ],
      "name": "Transfer",
      "type": "event"
    },
    {
      "constant": false,
      "inputs": [
        {
          "name": "_to",
          "type": "address"
        },
        {
          "name": "_amount",
          "type": "uint256"
        }
      ],
      "name": "transfer",
      "outputs": [
        {
          "name": "success",
          "type": "bool"
        }
      ],
      "payable": false,
      "stateMutability": "nonpayable",
      "type": "function"
    },
    {
      "constant": false,
      "inputs": [
        {
          "name": "_from",
          "type": "address"
        },
        {
          "name": "_to",
          "type": "address"
        },
        {
          "name": "_amount",
          "type": "uint256"
        }
      ],
      "name": "transferFrom",
      "outputs": [
        {
          "name": "success",
          "type": "bool"
        }
      ],
      "payable": false,
      "stateMutability": "nonpayable",
      "type": "function"
    },
    {
      "constant": true,
      "inputs": [
        {
          "name": "_owner",
          "type": "address"
        }
      ],
      "name": "balanceOf",
      "outputs": [
        {
          "name": "balance",
          "type": "uint256"
        }
      ],
      "payable": false,
      "stateMutability": "view",
      "type": "function"
    },
    {
      "constant": false,
      "inputs": [
        {
          "name": "_spender",
          "type": "address"
        },
        {
          "name": "_amount",
          "type": "uint256"
        }
      ],
      "name": "approve",
      "outputs": [
        {
          "name": "success",
          "type": "bool"
        }
      ],
      "payable": false,
      "stateMutability": "nonpayable",
      "type": "function"
    },
    {
      "constant": true,
      "inputs": [
        {
          "name": "_owner",
          "type": "address"
        },
        {
          "name": "_spender",
          "type": "address"
        }
      ],
      "name": "allowance",
      "outputs": [
        {
          "name": "remaining",
          "type": "uint256"
        }
      ],
      "payable": false,
      "stateMutability": "view",
      "type": "function"
    },
    {
      "constant": true,
      "inputs": [],
      "name": "totalSupply",
      "outputs": [
        {
          "name": "",
          "type": "uint256"
        }
      ],
      "payable": false,
      "stateMutability": "view",
      "type": "function"
    },
    {
      "constant": true,
      "inputs": [
        {
          "name": "_owner",
          "type": "address"
        },
        {
          "name": "_blockNumber",
          "type": "uint256"
        }
      ],
      "name": "balanceOfAt",
      "outputs": [
        {
          "name": "",
          "type": "uint256"
        }
      ],
      "payable": false,
      "stateMutability": "view",
      "type": "function"
    },
    {
      "constant": true,
      "inputs": [
        {
          "name": "_blockNumber",
          "type": "uint256"
        }
      ],
      "name": "totalSupplyAt",
      "outputs": [
        {
          "name": "",
          "type": "uint256"
        }
      ],
      "payable": false,
      "stateMutability": "view",
      "type": "function"
    },
    {
      "constant": false,
      "inputs": [
        {
          "name": "_owner",
          "type": "address"
        },
        {
          "name": "_amount",
          "type": "uint256"
        }
      ],
      "name": "generateTokens",
      "outputs": [
        {
          "name": "",
          "type": "bool"
        }
      ],
      "payable": false,
      "stateMutability": "nonpayable",
      "type": "function"
    },
    {
      "constant": false,
      "inputs": [
        {
          "name": "_owner",
          "type": "address"
        },
        {
          "name": "_amount",
          "type": "uint256"
        }
      ],
      "name": "destroyTokens",
      "outputs": [
        {
          "name": "",
          "type": "bool"
        }
      ],
      "payable": false,
      "stateMutability": "nonpayable",
      "type": "function"
    },
    {
      "constant": false,
      "inputs": [
        {
          "name": "_transfersEnabled",
          "type": "bool"
        }
      ],
      "name": "enableTransfers",
      "outputs": [],
      "payable": false,
      "stateMutability": "nonpayable",
      "type": "function"
    }
  ],
  "bytecode": "0x606060405234156200001057600080fd5b6040516200100e3803806200100e8339810160405280805182019190602001805160008054600160a060020a03191633600160a060020a0316179055919091019050600282805162000067929160200190620000db565b5060038180516200007d929160200190620000db565b506007805460ff19166001179055620000a364010000000062000e37620000ab82021704565b50506200017d565b60015415620000b957600080fd5b620000d164010000000062000e51620000d682021704565b600155565b435b90565b828054600181600116156101000203166002900490600052602060002090601f016020900481019282601f106200011e57805160ff19168380011785556200014e565b828001600101855582156200014e579182015b828111156200014e57825182559160200191906001019062000131565b506200015c92915062000160565b5090565b620000d891905b808211156200015c576000815560010162000167565b610e81806200018d6000396000f3006060604052600436106100e25763ffffffff60e060020a60003504166306fdde03811461017a578063095ea7b31461020457806318160ddd1461023a57806323b872dd1461025f5780632e0f2625146102875780633cebb823146102b05780634ee2cd7e146102cf57806370a08231146102f1578063827f32c0146103105780638b3dd7491461033257806395d89b4114610345578063981b24d014610358578063a9059cbb1461036e578063bef97c8714610390578063d3ce77fe146103a3578063dd62ed3e146103c5578063f41e60c5146103ea578063f77c479114610402575b6000546100f790600160a060020a0316610431565b151561010257600080fd5b600054600160a060020a031663f48c3054343360405160e060020a63ffffffff8516028152600160a060020a0390911660048201526024016020604051808303818588803b151561015257600080fd5b5af1151561015f57600080fd5b5050505060405180511515600114905061017857600080fd5b005b341561018557600080fd5b61018d61045e565b60405160208082528190810183818151815260200191508051906020019080838360005b838110156101c95780820151838201526020016101b1565b50505050905090810190601f1680156101f65780820380516001836020036101000a031916815260200191505b509250505060405180910390f35b341561020f57600080fd5b610226600160a060020a03600435166024356104fc565b604051901515815260200160405180910390f35b341561024557600080fd5b61024d6105b4565b60405190815260200160405180910390f35b341561026a57600080fd5b610226600160a060020a03600435811690602435166044356105c5565b341561029257600080fd5b61029a610667565b60405160ff909116815260200160405180910390f35b34156102bb57600080fd5b610178600160a060020a036004351661066c565b34156102da57600080fd5b61024d600160a060020a03600435166024356106b6565b34156102fc57600080fd5b61024d600160a060020a03600435166106d8565b341561031b57600080fd5b610226600160a060020a03600435166024356106ea565b341561033d57600080fd5b61024d6107ba565b341561035057600080fd5b61018d6107c0565b341561036357600080fd5b61024d60043561082b565b341561037957600080fd5b610226600160a060020a0360043516602435610838565b341561039b57600080fd5b610226610857565b34156103ae57600080fd5b610226600160a060020a0360043516602435610860565b34156103d057600080fd5b61024d600160a060020a036004358116906024351661092a565b34156103f557600080fd5b6101786004351515610955565b341561040d57600080fd5b610415610983565b604051600160a060020a03909116815260200160405180910390f35b600080600160a060020a038316151561044d5760009150610458565b823b90506000811191505b50919050565b60028054600181600116156101000203166002900480601f0160208091040260200160405190810160405280929190818152602001828054600181600116156101000203166002900480156104f45780601f106104c9576101008083540402835291602001916104f4565b820191906000526020600020905b8154815290600101906020018083116104d757829003601f168201915b505050505081565b60075460009060ff16151561051057600080fd5b8115806105405750600160a060020a03338116600090815260066020908152604080832093871683529290522054155b151561054b57600080fd5b600160a060020a03338116600081815260066020908152604080832094881680845294909152908190208590557f8c5be1e5ebec7d5bd14f71427d1e84f3dd0314c0f7b2291e5b200ac8c7c3b9259085905190815260200160405180910390a350600192915050565b60006105bf4361082b565b90505b90565b6000805433600160a060020a039081169116146106525760075460ff1615156105ed57600080fd5b600160a060020a03808516600090815260066020908152604080832033909416835292905220548290101561062457506000610660565b600160a060020a03808516600090815260066020908152604080832033909416835292905220805483900390555b61065d848484610992565b90505b9392505050565b601281565b60005433600160a060020a0390811691161461068757600080fd5b6000805473ffffffffffffffffffffffffffffffffffffffff1916600160a060020a0392909216919091179055565b600160a060020a03821660009081526004602052604081206106609083610b53565b60006106e482436106b6565b92915050565b600080548190819033600160a060020a0390811691161461070a57600080fd5b6107126105b4565b91508382018290101561072457600080fd5b61072d856106d8565b90508381018190101561073f57600080fd5b61074c6005858401610cdf565b600160a060020a038516600090815260046020526040902061077090828601610cdf565b84600160a060020a031660007fddf252ad1be2c89b69c2b068fc378daa952ba7f163c4a11628f55a4df523b3ef8660405190815260200160405180910390a3506001949350505050565b60015490565b60038054600181600116156101000203166002900480601f0160208091040260200160405190810160405280929190818152602001828054600181600116156101000203166002900480156104f45780601f106104c9576101008083540402835291602001916104f4565b60006106e4600583610b53565b60075460009060ff16151561084c57600080fd5b610660338484610992565b60075460ff1681565b600080548190819033600160a060020a0390811691161461088057600080fd5b6108886105b4565b91508382101561089757600080fd5b6108a0856106d8565b9050838110156108af57600080fd5b6108bc6005858403610cdf565b600160a060020a03851660009081526004602052604090206108e090858303610cdf565b600085600160a060020a03167fddf252ad1be2c89b69c2b068fc378daa952ba7f163c4a11628f55a4df523b3ef8660405190815260200160405180910390a3506001949350505050565b600160a060020a03918216600090815260066020908152604080832093909416825291909152205490565b60005433600160a060020a0390811691161461097057600080fd5b6007805460ff1916911515919091179055565b600054600160a060020a031681565b600080808315156109a65760019250610b4a565b600160a060020a038516158015906109d0575030600160a060020a031685600160a060020a031614155b15156109db57600080fd5b6109e586436106b6565b9150838210156109f85760009250610b4a565b600054610a0d90600160a060020a0316610431565b15610a9a57600054600160a060020a0316634a39314987878760405160e060020a63ffffffff8616028152600160a060020a0393841660048201529190921660248201526044810191909152606401602060405180830381600087803b1515610a7557600080fd5b5af11515610a8257600080fd5b505050604051805115156001149050610a9a57600080fd5b600160a060020a0386166000908152600460205260409020610abe90858403610cdf565b610ac885436106b6565b905083810181901015610ada57600080fd5b600160a060020a0385166000908152600460205260409020610afe90828601610cdf565b84600160a060020a031686600160a060020a03167fddf252ad1be2c89b69c2b068fc378daa952ba7f163c4a11628f55a4df523b3ef8660405190815260200160405180910390a3600192505b50509392505050565b600080600080858054905060001415610b6f5760009350610cd6565b855486906000198101908110610b8157fe5b6000918252602090912001546fffffffffffffffffffffffffffffffff168510610bf057855486906000198101908110610bb757fe5b60009182526020909120015470010000000000000000000000000000000090046fffffffffffffffffffffffffffffffff169350610cd6565b856000815481101515610bff57fe5b6000918252602090912001546fffffffffffffffffffffffffffffffff16851015610c2d5760009350610cd6565b8554600093506000190191505b82821115610c93576002600183850101049050848682815481101515610c5c57fe5b6000918252602090912001546fffffffffffffffffffffffffffffffff1611610c8757809250610c8e565b6001810391505b610c3a565b8583815481101515610ca157fe5b60009182526020909120015470010000000000000000000000000000000090046fffffffffffffffffffffffffffffffff1693505b50505092915050565b815460009081901580610d2157508354439085906000198101908110610d0157fe5b6000918252602090912001546fffffffffffffffffffffffffffffffff16105b15610d9c5783548490610d378260018301610df0565b81548110610d4157fe5b600091825260209091200180546fffffffffffffffffffffffffffffffff858116700100000000000000000000000000000000024382166fffffffffffffffffffffffffffffffff1990931692909217161781559150610dea565b835484906000198101908110610dae57fe5b600091825260209091200180546fffffffffffffffffffffffffffffffff80861670010000000000000000000000000000000002911617815590505b50505050565b815481835581811511610e1457600083815260209020610e14918101908301610e19565b505050565b6105c291905b80821115610e335760008155600101610e1f565b5090565b60015415610e4457600080fd5b610e4c610e51565b600155565b43905600a165627a7a72305820b62bc747c9b74739c081a87d2ec816e912d44567086feb4ae603b1668ff4c9de0029",
  "source": "pragma solidity 0.4.21;\n\nimport \"openzeppelin-solidity/contracts/token/ERC20/ERC20.sol\";\nimport \"./Controlled.sol\";\nimport \"./IToken36Controller.sol\";\nimport \"./Initializable.sol\";\n\n\n/// @title Token36 Base Contract\n/// @author element36.io\ncontract Token36 is ERC20, Controlled, Initializable {\n\n    string public name;\n    string public symbol;\n    uint8 public constant DECIMALS = 18;\n\n    // Stores the balances in history\n    struct Checkpoint {\n        uint128 fromBlock;\n        uint128 value;\n    }\n\n    // Tracks the balances of token holders incl history of it\n    mapping (address => Checkpoint[]) balances;\n\n    // Tracks the history of the totalSupply of the token\n    Checkpoint[] totalSupplyHistory;\n\n    // Tracks any extra transfer rights as in all ERC20 tokens\n    mapping (address => mapping (address => uint256)) allowed;\n\n    // Flag to determine if the token is transferable or not.\n    bool public transfersEnabled;\n\n    // Constructor\n    function Token36(string _name, string _symbol) public {\n        name = _name;\n        symbol = _symbol;\n        transfersEnabled = true;\n        initialized();\n    }\n\n    /**\n     * @notice Send _amount tokens to _to from msg.sender\n     * @param _to The address of the recipient\n     * @param _amount The amount of tokens to be transferred\n     * @return Whether the transfer was successful or not\n     */\n    function transfer(address _to, uint256 _amount) public returns (bool success) {\n        require(transfersEnabled);\n        return doTransfer(msg.sender, _to, _amount);\n    }\n\n    /**\n     * @notice Send _amount tokens to _to from _from on the condition it is approved by _from\n     * @param _from The address holding the tokens being transferred\n     * @param _to The address of the recipient\n     * @param _amount The amount of tokens to be transferred\n     * @return True if the transfer was successful\n     */\n    function transferFrom(address _from, address _to, uint256 _amount) public returns (bool success) {\n        // The controller of this contract can move tokens around at will,\n        //  this is important to recognize! Confirm that you trust the\n        //  controller of this contract, which in most situations should be\n        //  another open source smart contract\n        if (msg.sender != controller) {\n            require(transfersEnabled);\n\n            // The standard ERC 20 transferFrom functionality\n            if (allowed[_from][msg.sender] < _amount) {\n                return false;\n            }\n            allowed[_from][msg.sender] -= _amount;\n        }\n        return doTransfer(_from, _to, _amount);\n    }\n\n    /**\n     * @dev This is the actual transfer function in the token contract, it can only be called from this contract.\n     * @param _from The address holding the tokens being transferred\n     * @param _to The address of the recipient\n     * @param _amount The amount of tokens to be transferred\n     * @return True if the transfer was successful\n     */\n    function doTransfer(address _from, address _to, uint _amount) internal returns(bool) {\n        if (_amount == 0) {\n            return true;\n        }\n\n        // Do not allow transfer to 0x0 or the token contract itself\n        require((_to != 0) && (_to != address(this)));\n\n        // If the amount being transfered is more than the balance of the\n        // account the transfer returns false\n        uint previousBalanceFrom = balanceOfAt(_from, block.number);\n        if (previousBalanceFrom < _amount) {\n            return false;\n        }\n\n        // Alerts the token controller of the transfer\n        if (isContract(controller)) {\n            require(IToken36Controller(controller).onTransfer(_from, _to, _amount) == true);\n        }\n\n        updateValueAtNow(balances[_from], previousBalanceFrom - _amount);\n        uint previousBalanceTo = balanceOfAt(_to, block.number);\n        require(previousBalanceTo + _amount >= previousBalanceTo); // Check for overflow\n        updateValueAtNow(balances[_to], previousBalanceTo + _amount);\n\n        emit Transfer(_from, _to, _amount);\n        return true;\n    }\n\n    /**\n     * @notice Returns the current balance of given address\n     * @param _owner The address that's balance is being requested\n     * @return The balance of `_owner` at the current block\n     */\n    function balanceOf(address _owner) public constant returns (uint256 balance) {\n        return balanceOfAt(_owner, block.number);\n    }\n\n    /**\n     * @notice msg.sender approves _spender to spend _amount tokens on its behalf\n     * @param _spender The address of the account able to transfer the tokens\n     * @param _amount The amount of tokens to be approved for transfer\n     * @return True if the approval was successful\n     */\n    function approve(address _spender, uint256 _amount) public returns (bool success) {\n        require(transfersEnabled);\n\n        // To change the approve amount you first have to reduce the addresses`\n        //  allowance to zero by calling `approve(_spender,0)` if it is not\n        //  already 0 to mitigate the race condition described here:\n        //  https://github.com/ethereum/EIPs/issues/20#issuecomment-263524729\n        require((_amount == 0) || (allowed[msg.sender][_spender] == 0));\n\n        allowed[msg.sender][_spender] = _amount;\n\n        emit Approval(msg.sender, _spender, _amount);\n        return true;\n    }\n\n    /**\n     * @notice This function makes it easy to read the `allowed[]` map\n     * @param _owner The address of the account that owns the token\n     * @param _spender The address of the account able to transfer the tokens\n     * @return Amount of remaining tokens of _owner that _spender is allowed to spend\n     */\n    function allowance(address _owner, address _spender) public constant returns (uint256 remaining) {\n        return allowed[_owner][_spender];\n    }\n\n    /// @dev This function makes it easy to get the total number of tokens\n    /// @return The total number of tokens\n    function totalSupply() public constant returns (uint) {\n        return totalSupplyAt(block.number);\n    }\n\n    /// @dev Queries the balance of `_owner` at a specific `_blockNumber`\n    /// @param _owner The address from which the balance will be retrieved\n    /// @param _blockNumber The block number when the balance is queried\n    /// @return The balance at `_blockNumber`\n    function balanceOfAt(address _owner, uint _blockNumber) public constant returns (uint) {\n        return getValueAt(balances[_owner], _blockNumber);\n    }\n\n    /// @notice Total amount of tokens at a specific `_blockNumber`.\n    /// @param _blockNumber The block number when the totalSupply is queried\n    /// @return The total amount of tokens at `_blockNumber`\n    function totalSupplyAt(uint _blockNumber) public constant returns(uint) {\n        return getValueAt(totalSupplyHistory, _blockNumber);\n    }\n\n    /// @notice Generates `_amount` tokens that are assigned to `_owner`\n    /// @param _owner The address that will be assigned the new tokens\n    /// @param _amount The quantity of tokens generated\n    /// @return True if the tokens are generated correctly\n    function generateTokens(address _owner, uint _amount) onlyController public returns (bool) {\n        uint curTotalSupply = totalSupply();\n        require(curTotalSupply + _amount >= curTotalSupply); // Check for overflow\n        uint previousBalanceTo = balanceOf(_owner);\n        require(previousBalanceTo + _amount >= previousBalanceTo); // Check for overflow\n        updateValueAtNow(totalSupplyHistory, curTotalSupply + _amount);\n        updateValueAtNow(balances[_owner], previousBalanceTo + _amount);\n        emit Transfer(0, _owner, _amount);\n        return true;\n    }\n\n    /// @notice Burns `_amount` tokens from `_owner`\n    /// @param _owner The address that will lose the tokens\n    /// @param _amount The quantity of tokens to burn\n    /// @return True if the tokens are burned correctly\n    function destroyTokens(address _owner, uint _amount) onlyController public returns (bool) {\n        // Controller, who calls this, needs approval to actually do that\n        //require(_amount >= allowed[_owner][msg.sender]);\n        // Update approval\n        //allowed[_owner][msg.sender] = allowed[_owner][msg.sender] - _amount;\n\n        uint curTotalSupply = totalSupply();\n        require(curTotalSupply >= _amount);\n        uint previousBalanceFrom = balanceOf(_owner);\n        require(previousBalanceFrom >= _amount);\n        updateValueAtNow(totalSupplyHistory, curTotalSupply - _amount);\n        updateValueAtNow(balances[_owner], previousBalanceFrom - _amount);\n        emit Transfer(_owner, 0, _amount);\n        return true;\n    }\n\n    /// @notice Enables token holders to transfer their tokens freely if true\n    /// @param _transfersEnabled True if transfers are allowed in the clone\n    function enableTransfers(bool _transfersEnabled) onlyController public {\n        transfersEnabled = _transfersEnabled;\n    }\n\n    /// @dev `getValueAt` retrieves the number of tokens at a given block number\n    /// @param checkpoints The history of values being queried\n    /// @param _block The block number to retrieve the value at\n    /// @return The number of tokens being queried\n    function getValueAt(Checkpoint[] storage checkpoints, uint _block) constant internal returns (uint) {\n        if (checkpoints.length == 0) {\n            return 0;\n        }\n\n        // Check for block number outside boundaries\n        if (_block >= checkpoints[checkpoints.length-1].fromBlock) {\n            return checkpoints[checkpoints.length-1].value;\n        }\n        if (_block < checkpoints[0].fromBlock) {\n            return 0;\n        }\n\n        // Binary search of the value in the array\n        uint min = 0;\n        uint max = checkpoints.length-1;\n        while (max > min) {\n            uint mid = (max + min + 1) / 2;\n            if (checkpoints[mid].fromBlock <= _block) {\n                min = mid;\n            } else {\n                max = mid-1;\n            }\n        }\n        return checkpoints[min].value;\n    }\n\n    /// @dev `updateValueAtNow` used to update the `balances` map and the\n    ///  `totalSupplyHistory`\n    /// @param checkpoints The history of data being updated\n    /// @param _value The new number of tokens\n    function updateValueAtNow(Checkpoint[] storage checkpoints, uint _value) internal {\n        if ((checkpoints.length == 0) || (checkpoints[checkpoints.length - 1].fromBlock < block.number)) {\n            Checkpoint storage newCheckPoint = checkpoints[checkpoints.length++];\n            newCheckPoint.fromBlock = uint128(block.number);\n            newCheckPoint.value = uint128(_value);\n        } else {\n            Checkpoint storage oldCheckPoint = checkpoints[checkpoints.length - 1];\n            oldCheckPoint.value = uint128(_value);\n        }\n    }\n\n    /// @dev Internal function to determine if an address is a contract\n    /// @param _addr The address being queried\n    /// @return True if `_addr` is a contract\n    function isContract(address _addr) internal view returns(bool) {\n        uint size;\n        if (_addr == 0)\n            return false;\n\n        assembly {\n            size := extcodesize(_addr)\n        }\n\n        return size > 0;\n    }\n\n    /// @dev Helper function to return a min betwen the two uints\n    function min(uint a, uint b) internal pure returns (uint) {\n        return a < b ? a : b;\n    }\n\n    /// @notice The fallback function: If the contract's controller has not been\n    ///  set to 0, then the `proxyPayment` method is called which relays the\n    ///  ether and creates tokens as described in the token controller contract\n    function () payable public {\n        require(isContract(controller));\n        require(IToken36Controller(controller).proxyPayment.value(msg.value)(msg.sender) == true);\n    }\n}\n",
  "sourcePath": "/builds/cash36/contracts/contracts/Token36.sol",
  "compiler": {
    "name": "solc",
    "version": "0.4.21+commit.dfe3193c.Emscripten.clang"
  },
  "schemaVersion": "2.0.0",
  "updatedAt": "2018-06-15T10:39:10.449Z"
}