{
  "contractName": "USD36Controller",
  "abi": [
    {
      "constant": false,
      "inputs": [
        {
          "name": "_newExchangesContract",
          "type": "address"
        }
      ],
      "name": "updateExchangesContract",
      "outputs": [],
      "payable": false,
      "stateMutability": "nonpayable",
      "type": "function"
    },
    {
      "constant": false,
      "inputs": [
        {
          "name": "_newController",
          "type": "address"
        }
      ],
      "name": "changeController",
      "outputs": [],
      "payable": false,
      "stateMutability": "nonpayable",
      "type": "function"
    },
    {
      "constant": false,
      "inputs": [
        {
          "name": "_receiver",
          "type": "address"
        },
        {
          "name": "_amount",
          "type": "uint256"
        }
      ],
      "name": "mint",
      "outputs": [],
      "payable": false,
      "stateMutability": "nonpayable",
      "type": "function"
    },
    {
      "constant": true,
      "inputs": [
        {
          "name": "_from",
          "type": "address"
        },
        {
          "name": "_to",
          "type": "address"
        },
        {
          "name": "_amount",
          "type": "uint256"
        }
      ],
      "name": "onTransfer",
      "outputs": [
        {
          "name": "",
          "type": "bool"
        }
      ],
      "payable": false,
      "stateMutability": "view",
      "type": "function"
    },
    {
      "constant": true,
      "inputs": [],
      "name": "getExchangesContract",
      "outputs": [
        {
          "name": "",
          "type": "address"
        }
      ],
      "payable": false,
      "stateMutability": "view",
      "type": "function"
    },
    {
      "constant": false,
      "inputs": [],
      "name": "renounceOwnership",
      "outputs": [],
      "payable": false,
      "stateMutability": "nonpayable",
      "type": "function"
    },
    {
      "constant": true,
      "inputs": [],
      "name": "owner",
      "outputs": [
        {
          "name": "",
          "type": "address"
        }
      ],
      "payable": false,
      "stateMutability": "view",
      "type": "function"
    },
    {
      "constant": true,
      "inputs": [],
      "name": "isOwner",
      "outputs": [
        {
          "name": "",
          "type": "bool"
        }
      ],
      "payable": false,
      "stateMutability": "view",
      "type": "function"
    },
    {
      "constant": false,
      "inputs": [
        {
          "name": "_newComplianceContract",
          "type": "address"
        }
      ],
      "name": "updateComplianceContract",
      "outputs": [],
      "payable": false,
      "stateMutability": "nonpayable",
      "type": "function"
    },
    {
      "constant": false,
      "inputs": [
        {
          "name": "_from",
          "type": "address"
        },
        {
          "name": "_amount",
          "type": "uint256"
        }
      ],
      "name": "burn",
      "outputs": [],
      "payable": false,
      "stateMutability": "nonpayable",
      "type": "function"
    },
    {
      "constant": true,
      "inputs": [
        {
          "name": "_from",
          "type": "address"
        }
      ],
      "name": "onBurn",
      "outputs": [
        {
          "name": "",
          "type": "bool"
        }
      ],
      "payable": false,
      "stateMutability": "view",
      "type": "function"
    },
    {
      "constant": false,
      "inputs": [
        {
          "name": "_cap",
          "type": "uint256"
        }
      ],
      "name": "updateCap",
      "outputs": [],
      "payable": false,
      "stateMutability": "nonpayable",
      "type": "function"
    },
    {
      "constant": true,
      "inputs": [],
      "name": "getComplianceContract",
      "outputs": [
        {
          "name": "",
          "type": "address"
        }
      ],
      "payable": false,
      "stateMutability": "view",
      "type": "function"
    },
    {
      "constant": false,
      "inputs": [
        {
          "name": "newOwner",
          "type": "address"
        }
      ],
      "name": "transferOwnership",
      "outputs": [],
      "payable": false,
      "stateMutability": "nonpayable",
      "type": "function"
    },
    {
      "constant": false,
      "inputs": [
        {
          "name": "_transfersEnabled",
          "type": "bool"
        }
      ],
      "name": "enableTransfers",
      "outputs": [],
      "payable": false,
      "stateMutability": "nonpayable",
      "type": "function"
    },
    {
      "inputs": [
        {
          "name": "_token",
          "type": "address"
        },
        {
          "name": "_compliance",
          "type": "address"
        },
        {
          "name": "_exchanges",
          "type": "address"
        }
      ],
      "payable": false,
      "stateMutability": "nonpayable",
      "type": "constructor"
    },
    {
      "anonymous": false,
      "inputs": [
        {
          "indexed": true,
          "name": "previousOwner",
          "type": "address"
        },
        {
          "indexed": true,
          "name": "newOwner",
          "type": "address"
        }
      ],
      "name": "OwnershipTransferred",
      "type": "event"
    }
  ],
  "bytecode": "0x608060405234801561001057600080fd5b5060405161143a38038061143a8339818101604052606081101561003357600080fd5b5080516020820151604092830151600080546001600160a01b031916331780825594519394929391926001600160a01b0316917f8be0079c531659141344cd1fd0a4f28419497f9722a3daafe3b4186f6b6457e0908290a3600180546001600160a01b039485166001600160a01b031991821617909155600280549385169382169390931790925560038054919093169116179055611363806100d76000396000f3fe608060405234801561001057600080fd5b50600436106100f55760003560e01c80638f32d59b11610097578063a7d6889611610066578063a7d6889614610272578063e090424c1461028f578063f2fde38b14610297578063f41e60c5146102bd576100f5565b80638f32d59b146101f25780639b1649e6146101fa5780639dc29fac14610220578063a3a08d481461024c576100f5565b80634a393149116100d35780634a39314914610174578063706f04e3146101be578063715018a6146101e25780638da5cb5b146101ea576100f5565b80631c47470d146100fa5780633cebb8231461012257806340c10f1914610148575b600080fd5b6101206004803603602081101561011057600080fd5b50356001600160a01b03166102dc565b005b6101206004803603602081101561013857600080fd5b50356001600160a01b0316610345565b6101206004803603604081101561015e57600080fd5b506001600160a01b0381351690602001356103f5565b6101aa6004803603606081101561018a57600080fd5b506001600160a01b03813581169160208101359091169060400135610538565b604080519115158252519081900360200190f35b6101c6610b0e565b604080516001600160a01b039092168252519081900360200190f35b610120610b67565b6101c6610bf8565b6101aa610c07565b6101206004803603602081101561021057600080fd5b50356001600160a01b0316610c18565b6101206004803603604081101561023657600080fd5b506001600160a01b038135169060200135610c81565b6101aa6004803603602081101561026257600080fd5b50356001600160a01b0316610daf565b6101206004803603602081101561028857600080fd5b5035610faf565b6101c6611043565b610120600480360360208110156102ad57600080fd5b50356001600160a01b031661109c565b610120600480360360208110156102d357600080fd5b503515156110ef565b6102e4610c07565b610323576040805162461bcd60e51b815260206004820181905260248201526000805160206112cb833981519152604482015290519081900360640190fd5b600380546001600160a01b0319166001600160a01b0392909216919091179055565b61034d610c07565b61038c576040805162461bcd60e51b815260206004820181905260248201526000805160206112cb833981519152604482015290519081900360640190fd5b60015460408051633cebb82360e01b81526001600160a01b03848116600483015291519190921691633cebb82391602480830192600092919082900301818387803b1580156103da57600080fd5b505af11580156103ee573d6000803e3d6000fd5b5050505050565b6003546001546040805163ea13d8a160e01b81523360048201526001600160a01b0392831660248201529051919092169163ea13d8a1916044808301926020929190829003018186803b15801561044b57600080fd5b505afa15801561045f573d6000803e3d6000fd5b505050506040513d602081101561047557600080fd5b50516104b25760405162461bcd60e51b81526004018080602001828103825260218152602001806112eb6021913960400191505060405180910390fd5b600154604080516340c10f1960e01b81526001600160a01b03858116600483015260248201859052915191909216916340c10f199160448083019260209291908290030181600087803b15801561050857600080fd5b505af115801561051c573d6000803e3d6000fd5b505050506040513d602081101561053257600080fd5b50505050565b6001546000906001600160a01b031633146105845760405162461bcd60e51b815260040180806020018281038252602381526020018061130c6023913960400191505060405180910390fd5b61058d836111fe565b158061060e575060025460408051635020367160e11b81526001600160a01b0386811660048301529151919092169163a0406ce2916024808301926020929190829003018186803b1580156105e157600080fd5b505afa1580156105f5573d6000803e3d6000fd5b505050506040513d602081101561060b57600080fd5b50515b156108455760025460408051631e9d48cf60e01b81526001600160a01b03868116600483015291519190921691631e9d48cf916024808301926020929190829003018186803b15801561066057600080fd5b505afa158015610674573d6000803e3d6000fd5b505050506040513d602081101561068a57600080fd5b505161069857506000610b07565b600254600154604080516370a0823160e01b81526001600160a01b038781166004830152915193821693636b618ff993889388939116916370a0823191602480820192602092909190829003018186803b1580156106f557600080fd5b505afa158015610709573d6000803e3d6000fd5b505050506040513d602081101561071f57600080fd5b5051604080516001600160e01b031960e087901b1681526001600160a01b03909416600485015260248401929092526044830152516064808301926020929190829003018186803b15801561077357600080fd5b505afa158015610787573d6000803e3d6000fd5b505050506040513d602081101561079d57600080fd5b50516107ab57506000610b07565b60025460408051631cce309760e21b81526001600160a01b0386811660048301526b415454525f5245434549564560a01b602483015291519190921691637338c25c916044808301926020929190829003018186803b15801561080d57600080fd5b505afa158015610821573d6000803e3d6000fd5b505050506040513d602081101561083757600080fd5b505161084557506000610b07565b61084e846111fe565b15806108cf575060025460408051635020367160e11b81526001600160a01b0387811660048301529151919092169163a0406ce2916024808301926020929190829003018186803b1580156108a257600080fd5b505afa1580156108b6573d6000803e3d6000fd5b505050506040513d60208110156108cc57600080fd5b50515b15610b035760025460408051631e9d48cf60e01b81526001600160a01b03878116600483015291519190921691631e9d48cf916024808301926020929190829003018186803b15801561092157600080fd5b505afa158015610935573d6000803e3d6000fd5b505050506040513d602081101561094b57600080fd5b505161095957506000610b07565b600254600154604080516370a0823160e01b81526001600160a01b038881166004830152915193821693636b618ff993899388939116916370a0823191602480820192602092909190829003018186803b1580156109b657600080fd5b505afa1580156109ca573d6000803e3d6000fd5b505050506040513d60208110156109e057600080fd5b5051604080516001600160e01b031960e087901b1681526001600160a01b03909416600485015260248401929092526044830152516064808301926020929190829003018186803b158015610a3457600080fd5b505afa158015610a48573d6000803e3d6000fd5b505050506040513d6020811015610a5e57600080fd5b5051610a6c57506000610b07565b60025460408051631cce309760e21b81526001600160a01b038781166004830152681055151497d4d1539160ba1b602483015291519190921691637338c25c916044808301926020929190829003018186803b158015610acb57600080fd5b505afa158015610adf573d6000803e3d6000fd5b505050506040513d6020811015610af557600080fd5b5051610b0357506000610b07565b5060015b9392505050565b6000610b18610c07565b610b57576040805162461bcd60e51b815260206004820181905260248201526000805160206112cb833981519152604482015290519081900360640190fd5b506003546001600160a01b031690565b610b6f610c07565b610bae576040805162461bcd60e51b815260206004820181905260248201526000805160206112cb833981519152604482015290519081900360640190fd5b600080546040516001600160a01b03909116907f8be0079c531659141344cd1fd0a4f28419497f9722a3daafe3b4186f6b6457e0908390a3600080546001600160a01b0319169055565b6000546001600160a01b031690565b6000546001600160a01b0316331490565b610c20610c07565b610c5f576040805162461bcd60e51b815260206004820181905260248201526000805160206112cb833981519152604482015290519081900360640190fd5b600280546001600160a01b0319166001600160a01b0392909216919091179055565b6003546001546040805163ea13d8a160e01b81523360048201526001600160a01b0392831660248201529051919092169163ea13d8a1916044808301926020929190829003018186803b158015610cd757600080fd5b505afa158015610ceb573d6000803e3d6000fd5b505050506040513d6020811015610d0157600080fd5b5051610d3e5760405162461bcd60e51b81526004018080602001828103825260218152602001806112eb6021913960400191505060405180910390fd5b6001546040805163079cc67960e41b81526001600160a01b03858116600483015260248201859052915191909216916379cc679091604480830192600092919082900301818387803b158015610d9357600080fd5b505af1158015610da7573d6000803e3d6000fd5b505050505050565b6001546000906001600160a01b03163314610dfb5760405162461bcd60e51b815260040180806020018281038252602381526020018061130c6023913960400191505060405180910390fd5b610e04826111fe565b1580610e85575060025460408051635020367160e11b81526001600160a01b0385811660048301529151919092169163a0406ce2916024808301926020929190829003018186803b158015610e5857600080fd5b505afa158015610e6c573d6000803e3d6000fd5b505050506040513d6020811015610e8257600080fd5b50515b15610fa65760025460408051631e9d48cf60e01b81526001600160a01b03858116600483015291519190921691631e9d48cf916024808301926020929190829003018186803b158015610ed757600080fd5b505afa158015610eeb573d6000803e3d6000fd5b505050506040513d6020811015610f0157600080fd5b5051610f0f57506000610faa565b60025460408051631cce309760e21b81526001600160a01b038581166004830152681055151497d4d1531360ba1b602483015291519190921691637338c25c916044808301926020929190829003018186803b158015610f6e57600080fd5b505afa158015610f82573d6000803e3d6000fd5b505050506040513d6020811015610f9857600080fd5b5051610fa657506000610faa565b5060015b919050565b610fb7610c07565b610ff6576040805162461bcd60e51b815260206004820181905260248201526000805160206112cb833981519152604482015290519081900360640190fd5b600154604080516353eb444b60e11b81526004810184905290516001600160a01b039092169163a7d688969160248082019260009290919082900301818387803b1580156103da57600080fd5b600061104d610c07565b61108c576040805162461bcd60e51b815260206004820181905260248201526000805160206112cb833981519152604482015290519081900360640190fd5b506002546001600160a01b031690565b6110a4610c07565b6110e3576040805162461bcd60e51b815260206004820181905260248201526000805160206112cb833981519152604482015290519081900360640190fd5b6110ec81611204565b50565b6110f7610c07565b611136576040805162461bcd60e51b815260206004820181905260248201526000805160206112cb833981519152604482015290519081900360640190fd5b600181151514156111ae57600160009054906101000a90046001600160a01b03166001600160a01b0316633f4ba83a6040518163ffffffff1660e01b8152600401600060405180830381600087803b15801561119157600080fd5b505af11580156111a5573d6000803e3d6000fd5b505050506110ec565b600160009054906101000a90046001600160a01b03166001600160a01b0316638456cb596040518163ffffffff1660e01b8152600401600060405180830381600087803b1580156103da57600080fd5b3b151590565b6001600160a01b0381166112495760405162461bcd60e51b81526004018080602001828103825260268152602001806112a56026913960400191505060405180910390fd5b600080546040516001600160a01b03808516939216917f8be0079c531659141344cd1fd0a4f28419497f9722a3daafe3b4186f6b6457e091a3600080546001600160a01b0319166001600160a01b039290921691909117905556fe4f776e61626c653a206e6577206f776e657220697320746865207a65726f20616464726573734f776e61626c653a2063616c6c6572206973206e6f7420746865206f776e65726f6e6c7920726567697374657265642065786368616e67657320616c6c6f7765644f6e6c792063616c6c61626c652066726f6d20636f6e74726f6c6c656420546f6b656ea265627a7a723058201b27f83c3394d21c5e10944b1440495528158f87b9a9472336da1c78c79c652064736f6c63430005090032",
  "source": "pragma solidity ^0.5.9;\n\nimport \"./../Token36Controller.sol\";\n\n\n/// @title USD36 Token Controller Contract\n/// @author element36.io\ncontract USD36Controller is Token36Controller {\n\n    // Constructor\n    constructor(Token36 _token, address _compliance, address _exchanges) public {\n        token = _token;\n        compliance = Cash36Compliance(_compliance);\n        exchanges = Cash36Exchanges(_exchanges);\n    }\n}",
  "sourcePath": "/Users/bum/element36/dev/cash36/contracts/contracts/USD36/USD36Controller.sol",
  "compiler": {
    "name": "solc",
    "version": "0.5.9+commit.e560f70d.Emscripten.clang"
  },
  "schemaVersion": "3.0.11",
  "updatedAt": "2019-09-12T14:54:01.962Z",
  "devdoc": {
    "author": "element36.io",
    "methods": {
      "burn(address,uint256)": {
        "details": "onlyAllowedExchanges - only open to white listed exchange accounts",
        "params": {
          "_amount": "Amount to burn",
          "_from": "Account address from which tokens are burnt"
        }
      },
      "changeController(address)": {
        "details": "onlyOwner - only open to element36 Account",
        "params": {
          "_newController": "New controller Address"
        }
      },
      "enableTransfers(bool)": {
        "details": "onlyOwner - only open to element36 Account",
        "params": {
          "_transfersEnabled": "true to enable, false to disable"
        }
      },
      "getComplianceContract()": {
        "details": "onlyOwner - only open to element36 Account"
      },
      "getExchangesContract()": {
        "details": "onlyOwner - only open to element36 Account"
      },
      "isOwner()": {
        "details": "Returns true if the caller is the current owner."
      },
      "mint(address,uint256)": {
        "details": "onlyAllowedExchanges - only open to white listed exchange accounts",
        "params": {
          "_amount": "Amount to mint",
          "_receiver": "Recipient account address"
        }
      },
      "onBurn(address)": {
        "params": {
          "_from": "Sender account address"
        }
      },
      "onTransfer(address,address,uint256)": {
        "params": {
          "_amount": "Amount",
          "_from": "Sender account address",
          "_to": "Recipient accounts address"
        }
      },
      "owner()": {
        "details": "Returns the address of the current owner."
      },
      "renounceOwnership()": {
        "details": "Leaves the contract without owner. It will not be possible to call `onlyOwner` functions anymore. Can only be called by the current owner.     * > Note: Renouncing ownership will leave the contract without an owner, thereby removing any functionality that is only available to the owner."
      },
      "transferOwnership(address)": {
        "details": "Transfers ownership of the contract to a new account (`newOwner`). Can only be called by the current owner."
      },
      "updateCap(uint256)": {
        "details": "onlyOwner - only open to element36 Account",
        "params": {
          "_cap": "New value for token cap"
        }
      },
      "updateComplianceContract(address)": {
        "details": "onlyOwner - only open to element36 Account",
        "params": {
          "_newComplianceContract": "New Compliance contract address"
        }
      },
      "updateExchangesContract(address)": {
        "details": "onlyOwner - only open to element36 Account",
        "params": {
          "_newExchangesContract": "New Exchange contracts address"
        }
      }
    },
    "title": "USD36 Token Controller Contract"
  },
  "userdoc": {
    "methods": {
      "burn(address,uint256)": {
        "notice": "Burn tokens for given account address"
      },
      "changeController(address)": {
        "notice": "Change to a new controller address"
      },
      "enableTransfers(bool)": {
        "notice": "Enables or disables the token globally"
      },
      "getComplianceContract()": {
        "notice": "Get address of current compliance contract"
      },
      "getExchangesContract()": {
        "notice": "Get address of current exchanges contract"
      },
      "mint(address,uint256)": {
        "notice": "Mints new tokens for given account address"
      },
      "onBurn(address)": {
        "notice": "Controller Hook called in controlled Token on every burn.Does all required compliance checks and only allows the burn if user passes them all."
      },
      "onTransfer(address,address,uint256)": {
        "notice": "Controller Hook called in controlled Token on every transfer.Does all required compliance checks and only allows the transfer if user passes them all."
      },
      "updateCap(uint256)": {
        "notice": "Set a new Cap for the Token"
      },
      "updateComplianceContract(address)": {
        "notice": "Update to a new compliance contract"
      },
      "updateExchangesContract(address)": {
        "notice": "Update to a new exchanges contract"
      }
    }
  }
}