{
  "contractName": "USD36",
  "abi": [
    {
      "constant": true,
      "inputs": [],
      "name": "name",
      "outputs": [
        {
          "name": "",
          "type": "string"
        }
      ],
      "payable": false,
      "stateMutability": "view",
      "type": "function"
    },
    {
      "constant": false,
      "inputs": [
        {
          "name": "_spender",
          "type": "address"
        },
        {
          "name": "_value",
          "type": "uint256"
        }
      ],
      "name": "approve",
      "outputs": [
        {
          "name": "success",
          "type": "bool"
        }
      ],
      "payable": false,
      "stateMutability": "nonpayable",
      "type": "function"
    },
    {
      "constant": true,
      "inputs": [],
      "name": "totalSupply",
      "outputs": [
        {
          "name": "",
          "type": "uint256"
        }
      ],
      "payable": false,
      "stateMutability": "view",
      "type": "function"
    },
    {
      "constant": false,
      "inputs": [
        {
          "name": "_from",
          "type": "address"
        },
        {
          "name": "_to",
          "type": "address"
        },
        {
          "name": "_value",
          "type": "uint256"
        }
      ],
      "name": "transferFrom",
      "outputs": [
        {
          "name": "success",
          "type": "bool"
        }
      ],
      "payable": false,
      "stateMutability": "nonpayable",
      "type": "function"
    },
    {
      "constant": true,
      "inputs": [],
      "name": "DECIMALS",
      "outputs": [
        {
          "name": "",
          "type": "uint8"
        }
      ],
      "payable": false,
      "stateMutability": "view",
      "type": "function"
    },
    {
      "constant": false,
      "inputs": [
        {
          "name": "_newController",
          "type": "address"
        }
      ],
      "name": "changeController",
      "outputs": [],
      "payable": false,
      "stateMutability": "nonpayable",
      "type": "function"
    },
    {
      "constant": false,
      "inputs": [
        {
          "name": "_value",
          "type": "uint256"
        }
      ],
      "name": "burn",
      "outputs": [
        {
          "name": "",
          "type": "bool"
        }
      ],
      "payable": false,
      "stateMutability": "nonpayable",
      "type": "function"
    },
    {
      "constant": false,
      "inputs": [
        {
          "name": "_spender",
          "type": "address"
        },
        {
          "name": "_subtractedValue",
          "type": "uint256"
        }
      ],
      "name": "decreaseApproval",
      "outputs": [
        {
          "name": "",
          "type": "bool"
        }
      ],
      "payable": false,
      "stateMutability": "nonpayable",
      "type": "function"
    },
    {
      "constant": true,
      "inputs": [
        {
          "name": "_owner",
          "type": "address"
        }
      ],
      "name": "balanceOf",
      "outputs": [
        {
          "name": "",
          "type": "uint256"
        }
      ],
      "payable": false,
      "stateMutability": "view",
      "type": "function"
    },
    {
      "constant": true,
      "inputs": [
        {
          "name": "_value",
          "type": "uint256"
        }
      ],
      "name": "calcFee",
      "outputs": [
        {
          "name": "",
          "type": "uint256"
        }
      ],
      "payable": false,
      "stateMutability": "view",
      "type": "function"
    },
    {
      "constant": false,
      "inputs": [
        {
          "name": "_from",
          "type": "address"
        },
        {
          "name": "_value",
          "type": "uint256"
        }
      ],
      "name": "burnFrom",
      "outputs": [
        {
          "name": "",
          "type": "bool"
        }
      ],
      "payable": false,
      "stateMutability": "nonpayable",
      "type": "function"
    },
    {
      "constant": true,
      "inputs": [],
      "name": "getInitializationBlock",
      "outputs": [
        {
          "name": "",
          "type": "uint256"
        }
      ],
      "payable": false,
      "stateMutability": "view",
      "type": "function"
    },
    {
      "constant": false,
      "inputs": [
        {
          "name": "_newAddress",
          "type": "address"
        }
      ],
      "name": "changeFeeCollector",
      "outputs": [],
      "payable": false,
      "stateMutability": "nonpayable",
      "type": "function"
    },
    {
      "constant": true,
      "inputs": [],
      "name": "symbol",
      "outputs": [
        {
          "name": "",
          "type": "string"
        }
      ],
      "payable": false,
      "stateMutability": "view",
      "type": "function"
    },
    {
      "constant": false,
      "inputs": [
        {
          "name": "_to",
          "type": "address"
        },
        {
          "name": "_value",
          "type": "uint256"
        }
      ],
      "name": "transfer",
      "outputs": [
        {
          "name": "success",
          "type": "bool"
        }
      ],
      "payable": false,
      "stateMutability": "nonpayable",
      "type": "function"
    },
    {
      "constant": true,
      "inputs": [],
      "name": "transfersEnabled",
      "outputs": [
        {
          "name": "",
          "type": "bool"
        }
      ],
      "payable": false,
      "stateMutability": "view",
      "type": "function"
    },
    {
      "constant": true,
      "inputs": [],
      "name": "feeCollector",
      "outputs": [
        {
          "name": "",
          "type": "address"
        }
      ],
      "payable": false,
      "stateMutability": "view",
      "type": "function"
    },
    {
      "constant": false,
      "inputs": [
        {
          "name": "_spender",
          "type": "address"
        },
        {
          "name": "_addedValue",
          "type": "uint256"
        }
      ],
      "name": "increaseApproval",
      "outputs": [
        {
          "name": "",
          "type": "bool"
        }
      ],
      "payable": false,
      "stateMutability": "nonpayable",
      "type": "function"
    },
    {
      "constant": true,
      "inputs": [
        {
          "name": "_owner",
          "type": "address"
        },
        {
          "name": "_spender",
          "type": "address"
        }
      ],
      "name": "allowance",
      "outputs": [
        {
          "name": "",
          "type": "uint256"
        }
      ],
      "payable": false,
      "stateMutability": "view",
      "type": "function"
    },
    {
      "constant": false,
      "inputs": [
        {
          "name": "_newFeeNominator",
          "type": "uint256"
        },
        {
          "name": "_newFeeDenominator",
          "type": "uint256"
        }
      ],
      "name": "changeFee",
      "outputs": [],
      "payable": false,
      "stateMutability": "nonpayable",
      "type": "function"
    },
    {
      "constant": false,
      "inputs": [
        {
          "name": "_owner",
          "type": "address"
        },
        {
          "name": "_value",
          "type": "uint256"
        }
      ],
      "name": "mintTokens",
      "outputs": [
        {
          "name": "",
          "type": "bool"
        }
      ],
      "payable": false,
      "stateMutability": "nonpayable",
      "type": "function"
    },
    {
      "constant": false,
      "inputs": [
        {
          "name": "_transfersEnabled",
          "type": "bool"
        }
      ],
      "name": "enableTransfers",
      "outputs": [],
      "payable": false,
      "stateMutability": "nonpayable",
      "type": "function"
    },
    {
      "constant": true,
      "inputs": [],
      "name": "controller",
      "outputs": [
        {
          "name": "",
          "type": "address"
        }
      ],
      "payable": false,
      "stateMutability": "view",
      "type": "function"
    },
    {
      "inputs": [],
      "payable": false,
      "stateMutability": "nonpayable",
      "type": "constructor"
    },
    {
      "payable": true,
      "stateMutability": "payable",
      "type": "fallback"
    },
    {
      "anonymous": false,
      "inputs": [
        {
          "indexed": true,
          "name": "burner",
          "type": "address"
        },
        {
          "indexed": false,
          "name": "value",
          "type": "uint256"
        }
      ],
      "name": "Burn",
      "type": "event"
    },
    {
      "anonymous": false,
      "inputs": [
        {
          "indexed": true,
          "name": "owner",
          "type": "address"
        },
        {
          "indexed": true,
          "name": "spender",
          "type": "address"
        },
        {
          "indexed": false,
          "name": "value",
          "type": "uint256"
        }
      ],
      "name": "Approval",
      "type": "event"
    },
    {
      "anonymous": false,
      "inputs": [
        {
          "indexed": true,
          "name": "from",
          "type": "address"
        },
        {
          "indexed": true,
          "name": "to",
          "type": "address"
        },
        {
          "indexed": false,
          "name": "value",
          "type": "uint256"
        }
      ],
      "name": "Transfer",
      "type": "event"
    }
  ],
  "bytecode": "0x608060405260146003556103e86004553480156200001c57600080fd5b506001805433600160a060020a031991821681179092556002805490911690911790556200005264010000000062000105810204565b600a805460ff1916600117905560028054600160a060020a031916331790556040805180820190915260058082527f55534433360000000000000000000000000000000000000000000000000000006020909201918252620000b79160069162000130565b506040805180820190915260098082527f555320446f6c6c617200000000000000000000000000000000000000000000006020909201918252620000fe9160059162000130565b50620001d2565b600054156200011357600080fd5b620001266401000000006200012b810204565b600055565b435b90565b828054600181600116156101000203166002900490600052602060002090601f016020900481019282601f106200017357805160ff1916838001178555620001a3565b82800160010185558215620001a3579182015b82811115620001a357825182559160200191906001019062000186565b50620001b1929150620001b5565b5090565b6200012d91905b80821115620001b15760008155600101620001bc565b61153c80620001e26000396000f3006080604052600436106101325763ffffffff7c010000000000000000000000000000000000000000000000000000000060003504166306fdde038114610137578063095ea7b3146101c157806318160ddd146101f957806323b872dd146102205780632e0f26251461024a5780633cebb8231461027557806342966c681461029857806366188463146102b057806370a08231146102d457806375dc7d8c146102f557806379cc67901461030d5780638b3dd749146103315780639245290d1461034657806395d89b4114610367578063a9059cbb1461037c578063bef97c87146103a0578063c415b95c146103b5578063d73dd623146103e6578063dd62ed3e1461040a578063e3ca2d6514610431578063f0dda65c1461044c578063f41e60c514610470578063f77c47911461048a575b600080fd5b34801561014357600080fd5b5061014c61049f565b6040805160208082528351818301528351919283929083019185019080838360005b8381101561018657818101518382015260200161016e565b50505050905090810190601f1680156101b35780820380516001836020036101000a031916815260200191505b509250505060405180910390f35b3480156101cd57600080fd5b506101e5600160a060020a036004351660243561052d565b604080519115158252519081900360200190f35b34801561020557600080fd5b5061020e6105e2565b60408051918252519081900360200190f35b34801561022c57600080fd5b506101e5600160a060020a03600435811690602435166044356105e8565b34801561025657600080fd5b5061025f610906565b6040805160ff9092168252519081900360200190f35b34801561028157600080fd5b50610296600160a060020a036004351661090b565b005b3480156102a457600080fd5b506101e5600435610951565b3480156102bc57600080fd5b506101e5600160a060020a0360043516602435610b17565b3480156102e057600080fd5b5061020e600160a060020a0360043516610c57565b34801561030157600080fd5b5061020e600435610c72565b34801561031957600080fd5b506101e5600160a060020a0360043516602435610c9b565b34801561033d57600080fd5b5061020e610ed4565b34801561035257600080fd5b50610296600160a060020a0360043516610eda565b34801561037357600080fd5b5061014c610f20565b34801561038857600080fd5b506101e5600160a060020a0360043516602435610f7b565b3480156103ac57600080fd5b506101e56111e0565b3480156103c157600080fd5b506103ca6111e9565b60408051600160a060020a039092168252519081900360200190f35b3480156103f257600080fd5b506101e5600160a060020a03600435166024356111f8565b34801561041657600080fd5b5061020e600160a060020a03600435811690602435166112de565b34801561043d57600080fd5b50610296600435602435611309565b34801561045857600080fd5b506101e5600160a060020a036004351660243561132b565b34801561047c57600080fd5b50610296600435151561140d565b34801561049657600080fd5b506103ca611437565b6005805460408051602060026001851615610100026000190190941693909304601f810184900484028201840190925281815292918301828280156105255780601f106104fa57610100808354040283529160200191610525565b820191906000526020600020905b81548152906001019060200180831161050857829003601f168201915b505050505081565b600a5460009060ff16151561057a576040805160e560020a62461bcd02815260206004820152601660248201526000805160206114d1833981519152604482015290519081900360640190fd5b336000818152600760209081526040808320600160a060020a03881680855290835292819020869055805186815290519293927f8c5be1e5ebec7d5bd14f71427d1e84f3dd0314c0f7b2291e5b200ac8c7c3b925929181900390910190a35060015b92915050565b60095490565b600a5460009060ff161515610635576040805160e560020a62461bcd02815260206004820152601660248201526000805160206114d1833981519152604482015290519081900360640190fd5b600160a060020a038316151561064a57600080fd5b600160a060020a03841660009081526008602052604090205482111561066f57600080fd5b81151561067e575060016108ff565b60015461069390600160a060020a0316611446565b156107ba57600154604080517f4a393149000000000000000000000000000000000000000000000000000000008152600160a060020a03878116600483015286811660248301526044820186905291519190921691634a3931499160648083019260209291908290030181600087803b15801561070f57600080fd5b505af1158015610723573d6000803e3d6000fd5b505050506040513d602081101561073957600080fd5b505115156001146107ba576040805160e560020a62461bcd02815260206004820152602760248201527f546f6b656e3336436f6e74726f6c6c65722072656a656374656420746865207460448201527f72616e7366657200000000000000000000000000000000000000000000000000606482015290519081900360840190fd5b600154600160a060020a0316331461085857600160a060020a03841660009081526007602090815260408083203384529091529020548211156107ff575060006108ff565b600160a060020a0384166000908152600760209081526040808320338452909152902054610833908363ffffffff61147316565b600160a060020a03851660009081526007602090815260408083203384529091529020555b600160a060020a038416600090815260086020526040902054610881908363ffffffff61147316565b600160a060020a0380861660009081526008602052604080822093909355908516815220546108b6908363ffffffff61148516565b600160a060020a0380851660008181526008602090815260409182902094909455805186815290519193928816926000805160206114f183398151915292918290030190a35060015b9392505050565b601281565b600154600160a060020a0316331461092257600080fd5b6001805473ffffffffffffffffffffffffffffffffffffffff1916600160a060020a0392909216919091179055565b600a546000908190819060ff1615156109a2576040805160e560020a62461bcd02815260206004820152601660248201526000805160206114d1833981519152604482015290519081900360640190fd5b33600090815260086020526040902054841115610a09576040805160e560020a62461bcd02815260206004820152601460248201527f696e73756666696369656e742062616c616e6365000000000000000000000000604482015290519081900360640190fd5b831515610a195760019250610b10565b610a2284610c72565b600254600160a060020a03166000908152600860205260409020549092508285039150610a55908363ffffffff61148516565b600254600160a060020a0316600090815260086020526040808220929092553381522054610a89908563ffffffff61147316565b33600090815260086020526040902055600954610aac908263ffffffff61147316565b60095560408051858152905133917fcc16f5dbb4873280815c1ee09dbd06736cffcc184412cf7a71a0fdb75d397ca5919081900360200190a260408051858152905160009133916000805160206114f18339815191529181900360200190a3600192505b5050919050565b600a54600090819060ff161515610b66576040805160e560020a62461bcd02815260206004820152601660248201526000805160206114d1833981519152604482015290519081900360640190fd5b50336000908152600760209081526040808320600160a060020a038716845290915290205480831115610bbc57336000908152600760209081526040808320600160a060020a0388168452909152812055610bf1565b610bcc818463ffffffff61147316565b336000908152600760209081526040808320600160a060020a03891684529091529020555b336000818152600760209081526040808320600160a060020a0389168085529083529281902054815190815290519293927f8c5be1e5ebec7d5bd14f71427d1e84f3dd0314c0f7b2291e5b200ac8c7c3b925929181900390910190a35060019392505050565b600160a060020a031660009081526008602052604090205490565b60006105dc600454610c8f6003548561149290919063ffffffff16565b9063ffffffff6114bb16565b600a5460009060ff161515610ce8576040805160e560020a62461bcd02815260206004820152601660248201526000805160206114d1833981519152604482015290519081900360640190fd5b600160a060020a038316600090815260086020526040902054821115610d58576040805160e560020a62461bcd02815260206004820152601460248201527f696e73756666696369656e742062616c616e6365000000000000000000000000604482015290519081900360640190fd5b811515610d67575060016105dc565b600154600160a060020a03163314610e0557600160a060020a0383166000908152600760209081526040808320338452909152902054821115610dac575060006105dc565b600160a060020a0383166000908152600760209081526040808320338452909152902054610de0908363ffffffff61147316565b600160a060020a03841660009081526007602090815260408083203384529091529020555b600160a060020a038316600090815260086020526040902054610e2e908363ffffffff61147316565b600160a060020a038416600090815260086020526040902055600954610e5a908363ffffffff61147316565b600955604080518381529051600160a060020a038516917fcc16f5dbb4873280815c1ee09dbd06736cffcc184412cf7a71a0fdb75d397ca5919081900360200190a2604080518381529051600091600160a060020a038616916000805160206114f18339815191529181900360200190a350600192915050565b60005490565b600254600160a060020a03163314610ef157600080fd5b6002805473ffffffffffffffffffffffffffffffffffffffff1916600160a060020a0392909216919091179055565b6006805460408051602060026001851615610100026000190190941693909304601f810184900484028201840190925281815292918301828280156105255780601f106104fa57610100808354040283529160200191610525565b600a5460009060ff161515610fc8576040805160e560020a62461bcd02815260206004820152601660248201526000805160206114d1833981519152604482015290519081900360640190fd5b600160a060020a0383161515610fdd57600080fd5b33600090815260086020526040902054821115610ff957600080fd5b811515611008575060016105dc565b60015461101d90600160a060020a0316611446565b1561114257600154604080517f4a393149000000000000000000000000000000000000000000000000000000008152336004820152600160a060020a0386811660248301526044820186905291519190921691634a3931499160648083019260209291908290030181600087803b15801561109757600080fd5b505af11580156110ab573d6000803e3d6000fd5b505050506040513d60208110156110c157600080fd5b50511515600114611142576040805160e560020a62461bcd02815260206004820152602760248201527f546f6b656e3336436f6e74726f6c6c65722072656a656374656420746865207460448201527f72616e7366657200000000000000000000000000000000000000000000000000606482015290519081900360840190fd5b33600090815260086020526040902054611162908363ffffffff61147316565b3360009081526008602052604080822092909255600160a060020a03851681522054611194908363ffffffff61148516565b600160a060020a0384166000818152600860209081526040918290209390935580518581529051919233926000805160206114f18339815191529281900390910190a350600192915050565b600a5460ff1681565b600254600160a060020a031681565b600a5460009060ff161515611245576040805160e560020a62461bcd02815260206004820152601660248201526000805160206114d1833981519152604482015290519081900360640190fd5b336000908152600760209081526040808320600160a060020a0387168452909152902054611279908363ffffffff61148516565b336000818152600760209081526040808320600160a060020a0389168085529083529281902085905580519485525191937f8c5be1e5ebec7d5bd14f71427d1e84f3dd0314c0f7b2291e5b200ac8c7c3b925929081900390910190a350600192915050565b600160a060020a03918216600090815260076020908152604080832093909416825291909152205490565b600254600160a060020a0316331461132057600080fd5b600391909155600455565b600154600090600160a060020a0316331461134557600080fd5b600954828101101561135657600080fd5b600160a060020a038316600090815260086020526040902054828101101561137d57600080fd5b600160a060020a0383166000908152600860205260409020546113a6908363ffffffff61148516565b600160a060020a0384166000908152600860205260409020556009546113d2908363ffffffff61148516565b600955604080518381529051600160a060020a038516916000916000805160206114f18339815191529181900360200190a350600192915050565b600154600160a060020a0316331461142457600080fd5b600a805460ff1916911515919091179055565b600154600160a060020a031681565b600080600160a060020a0383161515611462576000915061146d565b823b90506000811191505b50919050565b60008282111561147f57fe5b50900390565b818101828110156105dc57fe5b60008215156114a3575060006105dc565b508181028183828115156114b357fe5b04146105dc57fe5b600081838115156114c857fe5b04939250505056007472616e7366657273206172652064697361626c656400000000000000000000ddf252ad1be2c89b69c2b068fc378daa952ba7f163c4a11628f55a4df523b3efa165627a7a72305820654b237a8d61816c8cd56ed3c9a355e4f32d9b6e4e1cbc08927637fb9cb380550029",
  "source": "pragma solidity ^0.4.24;\n\nimport \"./../Token36.sol\";\n\n\n/// @title USD36 Token Contract\n/// @author element36.io\ncontract USD36 is Token36 {\n\n    // Constructor\n    constructor() public {\n        symbol = \"USD36\";\n        name = \"US Dollar\";\n    }\n}",
  "sourcePath": "/Users/bum/element36/dev/cash36/contracts/contracts/USD36/USD36.sol",
  "compiler": {
    "name": "solc",
    "version": "0.4.24+commit.e67f0147.Emscripten.clang"
  },
  "schemaVersion": "2.0.1",
  "updatedAt": "2018-12-10T18:11:17.532Z"
}