{
  "contractName": "WithFees",
  "abi": [
    {
      "constant": true,
      "inputs": [],
      "name": "feeCollector",
      "outputs": [
        {
          "name": "",
          "type": "address"
        }
      ],
      "payable": false,
      "stateMutability": "view",
      "type": "function"
    },
    {
      "inputs": [],
      "payable": false,
      "stateMutability": "nonpayable",
      "type": "constructor"
    },
    {
      "constant": true,
      "inputs": [
        {
          "name": "_value",
          "type": "uint256"
        }
      ],
      "name": "calcFee",
      "outputs": [
        {
          "name": "",
          "type": "uint256"
        }
      ],
      "payable": false,
      "stateMutability": "view",
      "type": "function"
    },
    {
      "constant": false,
      "inputs": [
        {
          "name": "_newFeeNominator",
          "type": "uint256"
        },
        {
          "name": "_newFeeDenominator",
          "type": "uint256"
        }
      ],
      "name": "changeFee",
      "outputs": [],
      "payable": false,
      "stateMutability": "nonpayable",
      "type": "function"
    },
    {
      "constant": false,
      "inputs": [
        {
          "name": "_newAddress",
          "type": "address"
        }
      ],
      "name": "changeFeeCollector",
      "outputs": [],
      "payable": false,
      "stateMutability": "nonpayable",
      "type": "function"
    }
  ],
  "bytecode": "0x608060405260146001556103e860025534801561001b57600080fd5b5060008054600160a060020a0319163317905561025d8061003d6000396000f3006080604052600436106100615763ffffffff7c010000000000000000000000000000000000000000000000000000000060003504166375dc7d8c81146100665780639245290d14610090578063c415b95c146100c0578063e3ca2d65146100fe575b600080fd5b34801561007257600080fd5b5061007e600435610119565b60408051918252519081900360200190f35b34801561009c57600080fd5b506100be73ffffffffffffffffffffffffffffffffffffffff60043516610148565b005b3480156100cc57600080fd5b506100d56101a8565b6040805173ffffffffffffffffffffffffffffffffffffffff9092168252519081900360200190f35b34801561010a57600080fd5b506100be6004356024356101c4565b6000610142600254610136600154856101f390919063ffffffff16565b9063ffffffff61021c16565b92915050565b60005473ffffffffffffffffffffffffffffffffffffffff16331461016c57600080fd5b6000805473ffffffffffffffffffffffffffffffffffffffff191673ffffffffffffffffffffffffffffffffffffffff92909216919091179055565b60005473ffffffffffffffffffffffffffffffffffffffff1681565b60005473ffffffffffffffffffffffffffffffffffffffff1633146101e857600080fd5b600191909155600255565b600082151561020457506000610142565b5081810281838281151561021457fe5b041461014257fe5b6000818381151561022957fe5b0493925050505600a165627a7a7230582043b4248e1489641534dc006f9ecd2c9f9cf1088c7303c645e811b82e881e36080029",
  "source": "pragma solidity ^0.4.24;\n\nimport \"openzeppelin-solidity/contracts/math/SafeMath.sol\";\n\n\n/// @title Cash36 Interface holding Fees and FeeCollector address\n/// @author element36.io\ncontract WithFees {\n    using SafeMath for uint256;\n\n    address public feeCollector;\n    uint256 internal feeNominator = 20;\n    uint256 internal feeDenominator = 1000;\n\n    // Allow only controller address to access\n    modifier onlyFeeCollector {\n        require(msg.sender == feeCollector);\n        _;\n    }\n\n    // Constructor\n    constructor()  public {\n        feeCollector = msg.sender;\n    }\n\n    /**\n     * @notice Calculate the Fee for given value\n     * @param _value Value to calculate fee for\n     * @return {\n     *   \"uint256\": \"The calculated Fee\"\n     * }\n     */\n    function calcFee(uint256 _value) public view returns (uint256) {\n        return _value.mul(feeNominator).div(feeDenominator);\n    }\n\n    /**\n     * @notice Change the fees\n     * @dev onlyFeeCollector - only open to the fee collector\n     * @param _newFeeNominator Fee nominator\n     * @param _newFeeDenominator Fee denominator\n     */\n    function changeFee(uint256 _newFeeNominator, uint256 _newFeeDenominator) external onlyFeeCollector {\n        feeNominator = _newFeeNominator;\n        feeDenominator = _newFeeDenominator;\n    }\n\n    /**\n     * @notice Change the fee collector\n     * @dev onlyFeeCollector - only open to the fee collector\n     * @param _newAddress New fee collector address\n     */\n    function changeFeeCollector(address _newAddress) external onlyFeeCollector {\n        feeCollector = _newAddress;\n    }\n}",
  "sourcePath": "/Users/bum/element36/dev/cash36/contracts/contracts/WithFees.sol",
  "compiler": {
    "name": "solc",
    "version": "0.4.24+commit.e67f0147.Emscripten.clang"
  },
  "schemaVersion": "2.0.1",
  "updatedAt": "2018-09-04T09:13:20.207Z"
}